:020000040000fa
:080000000002040000000000f2
:020000040000fa
:100008009a0200009a0200009a0200009a02000078
:100018009a0200009a0200009a0200009a02000068
:100028009a0200009a0200009a020000d61d000001
:100038009a0200009a0200009a0200009a02000048
:100048009a0200009a0200009a020000ce180000ee
:100058009a0200009a0200009a0200009a02000028
:100068009a0200009a0200009a0200009a02000018
:100078009a0200009a0200009a0200009a02000008
:100088009a0200009a0200009a0200009a020000f8
:100098009a0200009a0200009a0200009a020000e8
:1000a8009a0200009a0200009a0200009a020000d8
:1000b8009a0200009a0200009a0200009a020000c8
:1000c8009a0200009a0200009a0200009a020000b8
:1000d8009a0200009a0200009a0200009a020000a8
:1000e8009a0200009a0200009a0200009a02000098
:1000f8009a0200009a0200009a0200009a02000088
:100108009a0200009a0200009a0200009a02000077
:100118009a0200009a0200009a0200009a02000067
:100128009a0200009a0200009a0200009a02000057
:100138009a0200009a0200009a0200009a02000047
:100148009a0200009a0200009a0200009a02000037
:100158009a0200009a0200009a0200009a02000027
:100168009a0200009a0200009a0200009a02000017
:100178009a0200009a0200009a0200009a02000007
:100188009a0200009a0200009a0200009a020000f7
:100198009a0200009a0200009a0200009a020000e7
:1001a8009a0200009a0200009a0200009a020000d7
:1001b8009a0200009a0200009a0200009a020000c7
:1001c8009a0200009a0200009a0200009a020000b7
:1001d8009a0200009a0200009a0200009a020000a7
:1001e8009a0200009a0200009a0200009a02000097
:0801f8009a0200009a020000c7
:020000040000fa
:100208009a0200009a0200009a0200009a02000076
:100218009a0200009a0200009a0200009a02000066
:100228009a0200009a0200009a020000d61d0000ff
:100238009a0200009a0200009a0200009a02000046
:100248009a0200009a0200009a020000ce180000ec
:100258009a0200009a0200009a0200009a02000026
:100268009a0200009a0200009a0200009a02000016
:100278009a0200009a0200009a0200009a02000006
:100288009a0200009a0200009a0200009a020000f6
:100298009a0200009a0200009a0200009a020000e6
:1002a8009a0200009a0200009a0200009a020000d6
:1002b8009a0200009a0200009a0200009a020000c6
:1002c8009a0200009a0200009a0200009a020000b6
:1002d8009a0200009a0200009a0200009a020000a6
:1002e8009a0200009a0200009a0200009a02000096
:1002f8009a0200009a0200009a0200009a02000086
:100308009a0200009a0200009a0200009a02000075
:100318009a0200009a0200009a0200009a02000065
:100328009a0200009a0200009a0200009a02000055
:100338009a0200009a0200009a0200009a02000045
:100348009a0200009a0200009a0200009a02000035
:100358009a0200009a0200009a0200009a02000025
:100368009a0200009a0200009a0200009a02000015
:100378009a0200009a0200009a0200009a02000005
:100388009a0200009a0200009a0200009a020000f5
:100398009a0200009a0200009a0200009a020000e5
:1003a8009a0200009a0200009a0200009a020000d5
:1003b8009a0200009a0200009a0200009a020000c5
:1003c8009a0200009a0200009a0200009a020000b5
:1003d8009a0200009a0200009a0200009a020000a5
:1003e8009a0200009a0200009a0200009a02000095
:0803f8009a0200009a020000c5
:020000040000fa
:10040000cfd020000e7f22000e01880000000000e7
:10041000000020000000e000020032000001200087
:10042000200288000c000700800c22000100200040
:1004300011000700000020000000e0000200320070
:100440000000020000000000442102000000000043
:100450000040da000000fe004440a9008027200090
:100460000000e0000300320000002000a00188002e
:100470004440a80000000600910188008000780038
:100480000000eb0015003700e280400032a0b4000d
:100490009101ba00e280400032a0b4009102ba009b
:1004a000e280400032a0b4000002eb00472bde00e7
:1004b000f507b200602ce10004003a000059eb009f
:1004c0008301e900fdff3e00040037006128e100e0
:1004d000010032000082eb00040007001101ba00a5
:1004e0000200e000e8ff3a00000006003159ba00bf
:1004f0008301e9000c0032002159ba008301e900b0
:10050000080032000400e00003003a00e2804000ee
:1005100032a0b400f5ff370011d9ba008301e90019
:10052000faff3a008100e800e180400032a0b40008
:0c053000000006000040da000000fe00a1
:020000040000fa
:10053c005761000069740000696e000067200000bc
:10054c00666f00007220000049440000202000006b
:10055c000057000061690000746900006e670000bc
:10056c00206d00006573000073610000676500007a
:10057c00200000004e650000772000006d65000033
:10058c0073730000616700006521000020200000eb
:10059c002020000000520000656300006976000016
:1005ac00696e0000672000006d6500007373000029
:1005bc0061670000650000000d0a00004265000044
:1005cc006e760000696e00006775000074200000f4
:1005dc00616c000020570000616c00006b6900002a
:1005ec00652d0000546500007874000069650000fa
:1005fc00210d00000a000000000d00000a000000a0
:10060c00003100002d4900006e740000726f000074
:10061c006475000069720000207500006e200000f7
:10062c006e6f00007520000069640000656e0000ac
:10063c00746900006669000063610000646f00006b
:10064c00720d00000a000000003200002d43000073
:10065c006f6e0000737500006c7400006172000016
:10066c002049000044200000616300007475000004
:10067c00616c00000d0a000000000000332d00002a
:10068c00436f00006e730000756c00007461000015
:10069c007220000074720000616d00006573000030
:1006ac0020690000646500006e740000696600003b
:1006bc006963000061640000657300000d0a0000ae
:1006cc0000000000342d0000436f00006e7300002a
:1006dc00756c0000746100007220000074720000e0
:1006ec00616d000065730000207400006f740000e1
:1006fc00616c0000730d00000a0000000035000062
:10070c002d56000069730000756100006c690000d3
:10071c00747a000061720000206c000027750000e4
:10072c006c740000696d0000206d0000697300009e
:10073c0073610000746700006520000072650000a2
:10074c0062750000740d00000a0000000036000005
:10075c002d52000065730000657400000d0a000046
:10076c000a000000005000006572000020730000b9
:10077c006f72000074690000722000006465000054
:10078c0020710000756100006c730000657600003c
:10079c006f6c0000206f000070630000696f000038
:1007ac002c20000070720000656d000020450000d8
:1007bc00534300000d0a0000000000000a20000056
:1007cc00477200006163000069650000732000003f
:1007dc00706500006c2000006e6f0000752000003a
:1007ec0049440000210d00000a000000000d00002b
:1007fc000a490000443a000020000000000d0000ef
:10080c000a0a0000000000000a4500007272000095
:10081c006f720000206e00006f20000068690000fd
:10082c002068000061200000494400000d0a00000f
:10083c00000000000d0a000054720000616d000001
:10084c006573000020490000646500006e740000b0
:10085c006966000069630000616400006573000054
:10086c003a200000000000000d0a00005472000045
:10087c00616d000065730000205400006f7400006f
:10088c00616c0000733a000020000000000a0000b8
:10089c000d000000000a00004e6f000020680000f0
:1008ac006920000068610000206300006170000096
:1008bc00206d000069730000736100007467000014
:1008cc006520000063610000727200006567000023
:1008dc00617400002e0a00000d00000000090000e9
:1008ec0009530000573200003a20000000000000bd
:1008fc000909000050420000323a000020000000bc
:10090c00000d00003030000030000000000d000031
:10091c003032000035000000000d000030350000c2
:10092c0030000000000d00003037000035000000e2
:10093c00000d00003130000030000000000d000000
:10094c00416c0000746100007665000075200000a9
:10095c00656e00006365000073210000200000003c
:10096c00000d0000416c0000746100007665000011
:10097c007520000061700000616700006174000068
:10098c0021000000004900006e7400007269000034
:10099c00647500006569000078200000656c00003b
:1009ac00204900004420000064650000206c000019
:1009bc0061200000706c000061630000610d00009c
:1009cc000a000000000a00004c2700004944000007
:1009dc002061000063740000756100006c20000051
:1009ec0064650000206c000061200000706c000049
:1009fc006163000061200000657300003a20000074
:100a0c000d0a000000000000426f00006f7400002f
:100a1c00696e0000672e00002e2e00000000000002
:020000040000fa
:100a2c000200fa00000f78009e007800803e200043
:100a3c0000017800110009008200d8008040780085
:100a4c0000ca20000148780000ca2000104078003d
:100a5c008000fb0080c12f000088b90000007800e6
:100a6c001e0f40009e007800400620000001780018
:100a7c00110009008200d8008040780010ca2000c4
:100a8c000148780010ca2000104078008000fb005c
:100a9c00c0f92f000088b900000078001e0f40003c
:100aac009e007800a00020000001780011000900d1
:100abc008200d8008040780020ca200001487800cd
:100acc0020ca2000104078008000fb0060ff2f003f
:100adc000088b900000078001e0f40001e0078004e
:100aec00004078000043b0008040780030ca2000fd
:100afc000148780040ca20008040eb000148780093
:100b0c0020ca2000104078000043b00080407800dc
:100b1c0020ca20000148780010ca2000104078003c
:100b2c000043b0008040780010ca200001487800d3
:100b3c0000ca2000104078000043b00080407800cc
:100b4c0000ca2000014878000080fa00000006006e
:100b5c000000fa00202e28001f0907003030280062
:100b6c001d090700703028001b090700b03228004f
:100b7c00190907004034280017090700803628009f
:100b8c00150907005038280013090700d03a28002f
:100b9c0011090700303028000f090700903b28008e
:100bac000d0907000080fa00000006000200fa00a0
:100bbc000000eb00000f78000500370020cd20006e
:100bcc001e00400001c3b300014878001e0fe8006e
:100bdc001e007800e20f5000f8ff340020002000c7
:100bec0010408800c942a80000c1b3000fe8b7004c
:100bfc001968ef000028ef002d0c0700004078006a
:100c0c0004e8b7002a0c0700a04088000568ef0034
:100c1c001c68ef001cc8bf001be8b7001bc8bf0056
:100c2c001ae8b7001ac8bf000ce8b7000cc8bf0020
:100c3c000ee8b7000ec8bf000080fb00000f780064
:100c4c001e0078000040780009e8b70009c8bf0012
:100c5c0017e8b70017c8bf0016e8b70016c8bf00e2
:100c6c000000fb009040880090408000004078001d
:100c7c0008e8b7000080fa00000006000000fa0047
:100c8c00881f780005c8bf000000fb00cf80de0085
:100c9c00d203200003002000820f5000838f5800e5
:100cac0076013e00006001003d003700680037000f
:100cbc008d003700a9003700b2003700bb003700a9
:100ccc00d90037006d013700670037006b01370022
:100cdc00cb00370069013700680137006701370026
:100cec006601370065013700640137006301370086
:100cfc00620137006101370060013700cc0037001a
:100d0c005e0137005d0137005c0137005b01370085
:100d1c005a01370059013700580137005701370085
:100d2c0056013700ca003700540137005301370011
:100d3c005201370051013700500137004f01370085
:100d4c004e0137004d0137004c0137004b01370085
:100d5c004a01370049013700480137004701370085
:100d6c004601370045013700440137004301370085
:100d7c0042013700be003700400137003f01370009
:100d8c003e0137003d0137003c0137003b01370085
:100d9c003a0137003901370038013700fb003700c2
:100dac005116800000402000008060000000e00030
:100dbc00240032001cc8bf000004e00003003a000d
:100dcc0063ff070010c0b3001ce8b70088080700d9
:100ddc000000e000190032008a08070006e8b7009e
:100dec00618020009140780060c3b30080cf500038
:100dfc000d003c00618020009140780000c3b300de
:100e0c0080cf50000800340006c8bf008040780036
:100e1c0000cdb30000c0400005e8b70005c8bf0016
:100e2c00d502070015013700d0c0b30079080700c0
:100e3c0006c8bf0077080700100137000568ef00ef
:100e4c000e0137000568ef001c68ef000b0137003e
:100e5c00670807000000e000ff00320080c0b3000c
:100e6c0005e8b70005013700184080006508070049
:100e7c0021cd200080707c001040800021cd20000e
:100e8c0061407800fb4f500003003a0030ff070030
:100e9c000568ef00f9003700104080000000e0000a
:100eac000600340010c0b30005e8b7001040800005
:100ebc000000e90010408800f0003700403e280098
:100ecc004508070022ff07000568ef0020002000fe
:100edc001040880010c0b30008e8b70010c0b30081
:100eec0007e8b700e500370004c8bf00950b070002
:100efc0021032000810f5000d900360007c8bf0025
:100f0c00e14f500010003a00d03f28003208070093
:100f1c0070ce2000104078003e08070060ce200004
:100f2c00104078003b08070050ce2000104078009d
:100f3c0038080700504028002708070004ff070066
:100f4c000568ef00cd003700a040280022080700fc
:100f5c00fffe07000568ef00c800370000422800bc
:100f6c001d08070017c8bf000043b0002908070080
:100f7c005040280018080700f5fe07000568ef0030
:100f8c00be003700a04328001308070016c8bf0096
:100f9c000043b0001f080700504028000e0807004f
:100fac00ebfe07000568ef00b400370009c8bf006e
:100fbc00e14f50000d003a000fc8bf000080fb004d
:100fcc00e90c07000004e00005003a00d0442800ba
:100fdc0001080700defe07000568ef00a7003700d8
:100fec00a0c0b30005e8b700a400370010452800e6
:100ffc00f9070700d6fe07000568ef009f003700d1
:10100c000fc8bf008080fb000040e8000fe8b7006d
:10101c0001007800d40c0700fe07070050c0b30095
:10102c0005e8b700950037000000fe00930037007c
:10103c0050472800e8070700ea0c07000043b000ff
:10104c00f407070020c0b30005e8b7008b00370099
:10105c00e0472800e00707003b0907000043b00009
:10106c00ec07070030c0b30005e8b7008300370079
:10107c0004c8bf00330b0700813e2000810f5000d5
:10108c000a00360004c8bf00240b07000040800093
:10109c000000e80000408800014080000071220040
:1010ac00808f500001003a000028ef00d0070700a5
:1010bc000000e0006c003200d20707000000fb00cb
:1010cc0011032000810f50001b003200110320007f
:1010dc00810f500006003c00fb0f50000e00320048
:1010ec0001032000810f50000e0032006300370016
:1010fc0031032000810f5000190032003103200011
:10110c00810f50001100350041032000810f500069
:10111c0018003200590037008dfe07000568ef00fb
:10112c001900370070482800ab0707000040eb009f
:10113c00d30b070014003700d0482800a60707007f
:10114c0050c0b300ce0b07000f0037003049280009
:10115c00a1070700a0c0b300c90b07000a003700a5
:10116c00904928009c070700f0c0b300c40b07008f
:10117c0005003700f04928009707070040c1b3006d
:10118c00bf0b0700000000003c00370004c8bf0084
:10119c00ec0a0700813e2000810f50000a00360047
:1011ac0004c8bf00dd0a0700004080000000e80012
:1011bc00004088000140800000712200808f5000a8
:1011cc0001003a000028ef00890707000000e0004a
:1011dc00270032008b0707000000fb00a104200051
:1011ec00810f500008003200a1062000810f500032
:1011fc000e003200fb0f50001f003a0054fe070097
:10120c000568ef0012003700520a07000004e000e6
:10121c0003003200504a28006f0707000c0037000b
:10122c00704b28006c07070009003700490a0700bb
:10123c000004e00003003200504a28006607070053
:10124c0003003700704b2800630707000000000004
:10125c000000000009003700000000000700370004
:10126c0000000000050037000000000003003700fc
:10127c000000000001003700000000004f0478005f
:10128c000080fa00000006000200fa00880a07003d
:10129c00004078000be8b7000c68ef00da0207009a
:1012ac000000eb00000f78000500370050ce200046
:1012bc001e00400001c3b300014878001e0fe80077
:1012cc001e007800e20f5000f8ff34000e68ef00ab
:1012dc0070cd2000f1c2b30001487800a0cd2000f1
:1012ec0001c2b30001487800b0cd200001c2b300a8
:1012fc0001487800c0cd200001c2b300014878003d
:10130c00d0cd200001c2b30001487800e0cd200010
:10131c0001c2b30001487800f0cd200091c4b300a5
:10132c000148780000ce200041c4b3000148780089
:10133c0010ce2000a1c3b300014878000080fa0051
:10134c00000006000000fa000ac8bf000000fb0005
:10135c00e20f500032013200e20f500005003c0059
:10136c000000e0000a003200e10f5000b50032002e
:10137c007f013700e40f50003c013200e40f5000b5
:10138c002f013500e50f500048013200780137007d
:10139c0009c8bf000004e00061003200a0408000da
:1013ac0000407800670a070071382100810f500057
:1013bc0017003e001ac8bf000004e00014003a00f9
:1013cc000dc8bf008080fb00022c2800e2c0780012
:1013dc000040e8000de8b70001407800dc0207008f
:1013ec000dc8bf00f04f50000700360010c0b3000e
:1013fc000ae8b7000bc8bf00480a070011c0b300c9
:10140c000040eb0095020700000000005801370077
:10141c001bc8bf00e14f500013003a000dc8bf00bd
:10142c008080fb00122d2800e2c078000040e8000c
:10143c000de8b70001407800c50207000dc8bf00d9
:10144c00f04f50003901360010c0b3000ae8b70065
:10145c000bc8bf00310a070011c0b3000040eb00fd
:10146c007e020700420137006409070010c0b30078
:10147c001ae8b7000ec8bf008080fb000040e800ef
:10148c000ee8b70001007800b70b070018e8b700aa
:10149c0018c8bf000004e00003003a0000c2b3000b
:1014ac00ab0207000200370018c8bf00a8020700f3
:1014bc0018c8bf000004e00005003a000dc8bf00ca
:1014cc000004e00002003a0010c0b30019e8b700b5
:1014dc00d18020009140780010c0b300f0cf5000b4
:1014ec0001003e000040eb008140e80081417800a3
:1014fc00d2802000034978000004e0000d01320086
:10150c0010c0b3000ae8b7000bc8bf00030a0700fd
:10151c0011c0b3000040eb0050020700140137006b
:10152c001bc8bf00e14f500013003a000dc8bf00ac
:10153c008080fb00122d2800e2c078000040e800fb
:10154c000de8b70001407800810207000dc8bf000c
:10155c00f04f5000f900360010c0b3000ae8b70095
:10156c000bc8bf00ed09070011c0b3000040eb0031
:10157c003a020700fe00370009c8bf000004e00073
:10158c0017003a0007c8bf000004e00014003a003e
:10159c000dc8bf008080fb00e2292800e2c0780063
:1015ac000040e8000de8b700014078006802070031
:1015bc000dc8bf00f04f50000700360010c0b3003c
:1015cc000ae8b7000bc8bf00d409070011c0b3006c
:1015dc000040eb002102070000000000e40037008f
:1015ec0009c8bf000004e000d6003a0007c8bf00dd
:1015fc000004e000d50032000dc8bf008080fb0065
:10160c00f22a2800e2c078000040e8000de8b7009c
:10161c00014078004e0207000dc8bf00f04f50008b
:10162c00cc00360010c0b3000ae8b7000bc8bf00ee
:10163c00ba09070011c0b3000040eb000702070015
:10164c00cb00370008c8bf00e14f5000210032002a
:10165c0007c8bf000004e00031003a0050ce200063
:10166c00104078008040e80050ce200001487800ff
:10167c0060ce2000104078008040e80060ce200052
:10168c000148780070ce2000104078008040e800bf
:10169c0070ce20000148780050ce20009040780099
:1016ac0090c3b30080cf50001d00340050ce2000fa
:1016bc0001c3b3000148780060ce200001c3b30021
:1016cc000148780070ce200001c3b30001487800b7
:1016dc001300370008c8bf00e14f500010003a005b
:1016ec0020cd20009040780050ce2000014878009a
:1016fc0030cd20009040780060ce2000014878006a
:10170c0040cd20009040780070ce20000148780039
:10171c001768ef0050ce2000560807000868ef004d
:10172c0017c8bf008000fb00a0002000000178005b
:10173c00110009008200d8000040780003c3b300f8
:10174c008340400050cd20000148780017c8bf00ee
:10175c008000fb00a00020000001780011000900af
:10176c008200d8008000fd000040780003c3b30065
:10177c008340400060cd20000148780016c8bf00af
:10178c008000fb00a000200000017800110009007f
:10179c008200d8000040780003c3b30083404000af
:1017ac0080cd20000148780016c8bf008000fb00e7
:1017bc00a000200000017800110009008200d80070
:1017cc008000fd000040780003c3b300834040005c
:1017dc0090cd20000148780070ce20001040780099
:1017ec008040780020ce20000148780060ce200098
:1017fc00104078008040780030ce200001487800fe
:10180c0050ce2000104078008040780040ce200060
:10181c000148780020c0b3000ae8b7005400370034
:10182c00540a070080408800804080006f00070049
:10183c009040880030c0b3000ae8b7004c00370075
:10184c000bc8bf003f09070091408000810f50007a
:10185c00420036000bc8bf00300907000d68ef00ce
:10186c0040c0b3000ae8b700410037000dc8bf0004
:10187c008080fb0052cd2000e2c078000040e800e0
:10188c000de8b70001407800b10107000dc8bf009a
:10189c00f04f50003300360050c0b3000ae8b700d8
:1018ac000bc8bf001d090700310037000bc8bf0073
:1018bc0024090700910f2000810f50002b003600e7
:1018cc000a68ef008040eb000040eb00630107006a
:1018dc00a0408000004078001a09070071382100f0
:1018ec00810f50000e00360009c8bf00e14f5000b8
:1018fc000b003a000cc8bf000040e8000ce8b70031
:10190c0019c8bf00e14f500002003a000c68ef000c
:10191c001968ef000cc8bf000ee8b70001003700d3
:10192c000e68ef000d68ef0011003700000000009a
:10193c000f003700000000000d0037000000000011
:10194c000b00370000000000090037000000000009
:10195c000700370000000000050037000000000001
:10196c0003003700000000000100370000000000f9
:10197c000080fa00000006000200fa00004f780018
:10198c001e00fb00e30f500015003200e30f500067
:10199c0005003c00e10f500006003200e20f500041
:1019ac00070032000f003700e50f5000090032002d
:1019bc000c003700904c2800870507000900370001
:1019cc00904e28008405070004c8bf00d308070008
:1019dc0004003700a0c0b3008e05070001003700db
:1019ec00000000000080fa00000006000400fa006d
:1019fc00100798001e0090006900b9008000780064
:101a0c005000200000017800110009008280d800ed
:101a1c00810c2000010f40001e0078000080fa00ad
:101a2c00000006000200fa00000f78001e0078008b
:101a3c00104078000043b0008040780050ce200069
:101a4c00014878001e00e800104078000043b00008
:101a5c008040780060ce2000014878001e80e800ad
:101a6c00104078000043b0008040780070ce200019
:101a7c00014878000080fa00000006000200fa001d
:101a8c00000f78001e007800104078000043b00072
:101a9c00804078001e007800014878001e00e800a5
:101aac009e00e800914078000143b00001487800a6
:101abc001e80e8009e80e800914078000143b00051
:101acc000148780070ce2000904078001e0078000d
:101adc001040780080cf50000e003a0060ce2000fd
:101aec00904078001e00e8001040780080cf500035
:101afc0008003a0050ce2000904078001e80e8008c
:101b0c001040780080cf500002003a0010c0b300a3
:101b1c00010037000040eb000080fa0000000600d6
:101b2c000200fa00004f78001e4078000004e0002c
:101b3c0004003a0016c8bf000040e80016e8b700e1
:101b4c000200370010c0b3001be8b7000080fa0099
:101b5c00000006000200fa00000f780010c0b3006d
:101b6c0009e8b7001b68ef00f100200000c2b300c9
:101b7c00f4090700a04080000040780067080700c7
:101b8c001a68ef0016c8bf000040e80016e8b7005e
:101b9c0017c8bf000040e80017e8b7001e00780027
:101bac000400070080d02000800707000080fa00a6
:101bbc00000006000200fa00000f78001e007800fa
:101bcc006a00b90080007800c01220000001780083
:101bdc00110009008280d8008040780080d020005d
:101bec001040780000c040008040780080d0200079
:101bfc00014878001e0078006a00b9008000780067
:101c0c00c012200000017800110009008280d80069
:101c1c008040780090d020001040780000c0400038
:101c2c008040780090d02000014878001e00780099
:101c3c006a00b90080007800c01220000001780012
:101c4c00110009008280d80080407800a0d02000cc
:101c5c001040780000c0400080407800a0d02000e8
:101c6c00014878001e0078006a00b90080007800f6
:101c7c00c012200000017800110009008280d800f9
:101c8c0080407800b0d020001040780000c04000a8
:101c9c0080407800b0d02000014878000080fa0025
:101cac00000006000400fa00204798003147980015
:101cbc00ff070700204288002e40900040e8b70044
:101ccc003e40900041e8b7004368ef0043c8bf00b6
:101cdc0042e8b700c8a2a900401680004500de000b
:101cec00614060000080fb004f00dd004216800068
:101cfc00f1ff270081006100010070004016880090
:101d0c00401680004f00de00004078000080fb0091
:101d1c00610060004300dd004216800071ff2f005f
:101d2c008100610001007000401688000000eb008b
:101d3c00000f780029003700204280004106200067
:101d4c00cf00070030c0b3004102070020428000e2
:101d5c0051002000ca00070030c0b3003c0207004d
:101d6c002042800011002000c500070030c0b300e5
:101d7c00370207002042800011002000c00007003d
:101d8c0020c0b30032020700204280001100200066
:101d9c00bb00070080c2b30043010700ec01070041
:101dac0080c0b30040010700e901070010c0b30078
:101dbc003d0107002042800031002000b0000700e8
:101dcc00e301070060c0b30037010700e001070022
:101ddc00f0c0b300340107001e0fe8001e007800ad
:101dec00e10f5000d4ff34000080fa000000060020
:101dfc000000fa002042800000407800df07070056
:101e0c000080fa00000006000000fa00d001070074
:101e1c0010c0b300240107002042800031002000d4
:101e2c00970007000080fa00000006000000fa008e
:101e3c00c7010700e0c0b3001b0107000080fa00d7
:101e4c00000006000000fa00c1010700c0c0b3008a
:101e5c00150107000080fa00000006000400fa00db
:101e6c00204798003147980040c8bf000080fb0015
:101e7c00e20f500003003200e40f50000b00320060
:101e8c00220037002e4090008000fb003e40900066
:101e9c000004e00002003a000000eb0001003700f3
:101eac0000042000008f40001d0037002e409000e1
:101ebc000000fb00000f78003e409000e14f500006
:101ecc0003003a00010420001e8f4000140037006c
:101edc003e409000e24f500004003a0041c8bf0061
:101eec000080fb001e0f40000d0037003e409000ac
:101efc00e34f500009003a0041c8bf000080fb00ce
:101f0c000004b0001e0f4000050037002e4090006a
:101f1c000000fb00000f78000100370000000000fb
:101f2c008b0107001e0078008040780000c8b300c9
:101f3c0000c07000dc0007003e40900042e8b70093
:101f4c002e40900043e8b7000080fa000000060025
:101f5c000200fa00004f78007d0107001e40780057
:101f6c002601070043c8bf000040e80043e8b70063
:101f7c0040c8bf00e34f500010003a0043c8bf00f8
:101f8c00f34f50002f0036004368ef0042c8bf00eb
:101f9c000040e80042e8b70042c8bf00e34f5000e1
:101fac00010036004268ef0042c8bf008040780054
:101fbc0043c8bf00a9ff07002200370040c8bf007c
:101fcc00e24f500012003a0031842000914078001a
:101fdc0070c2b30080cf50001a0036004368ef0087
:101fec0042c8bf000040e80042e8b70042c8bf004a
:101ffc00e14f5000010036004268ef0042c8bf00bc
:10200c008040780043c8bf0094ff07000d003700e4
:10201c0042c8bf00e14f50000a003a003184200052
:10202c009140780070c2b30080cf500001003600a0
:10203c004368ef0042c8bf008040780043c8bf002f
:10204c0086ff07000080fa00000006000200fa007c
:10205c00000f7800040037001e0078001040780054
:10206c001e0fe800baff07001e0078001040780031
:10207c000004e000f8ff3a000080fa0000000600bf
:10208c000400fa00000f7800110798001e00780079
:10209c000040780021070700000000001e007800b7
:1020ac0000407800270707009e009000810f500029
:1020bc00faff39000080fa00000006000200fa0066
:1020cc00004f78001e80fb004700de0000407800c7
:1020dc000080fb00610060004900dd00621680009a
:1020ec00f1df2f0081006100010070006016880094
:1020fc009e00fb00000420000080600000f0a700a0
:10210c000000ea000000ea004f00de00004078000a
:10211c000080fb00610060004800dd00621680005a
:10212c00f1ef2f0081006100010070006016880043
:10213c009e00fb00000220000080600000f0a70061
:10214c000000ea000000ea004f00de0000407800ca
:10215c000080fb00610060004700dd00621680001b
:10216c00f1f72f00810061000100700060168800fb
:10217c001e00fb007000600000f0a7000000ea00e9
:10218c000000ea004f00de00004078000080fb00f9
:10219c00610060004600dd0062168000f1fb2f003c
:1021ac008100610001007000601688000080fa0058
:1021bc00000006000200fa00004f78001e00fb0031
:1021cc006800600000f0a7000000ea000000ea00d0
:1021dc004f00de00004078000080fb0061006000d2
:1021ec004900dd0062168000f1df2f0081006100e4
:1021fc0001007000601688001e00fb006400600087
:10220c0000f0a7000000ea000000ea004f00de002a
:10221c00004078000080fb00610060004800dd0099
:10222c0062168000f1ef2f00810061000100700048
:10223c00601688001e00fb006200600000f0a70022
:10224c000000ea000000ea004f00de0000407800c9
:10225c000080fb00610060004700dd00621680001a
:10226c00f1f72f00810061000100700060168800fa
:10227c001e40780061406000614060006140600079
:10228c000080fb00610060004600dd0062168000eb
:10229c00f1fb2f00810061000100700060168800c6
:1022ac000080fa00000006000200fa00004f7800df
:1022bc00c922a900401680004900de006140600080
:1022cc000080fb00610060004800dd0042168000c9
:1022dc00f1ef2f00810061000100700040168800b2
:1022ec00401680004800de00614060000080fb006a
:1022fc00610060004700dd0042168000f1f72f00fe
:10230c0081006100010070004016880040168000ba
:10231c004700de00614060000080fb00610060004f
:10232c004600dd0042168000f1fb2f0081006100a9
:10233c000100700040168800cc62a900cde2a90013
:10234c00cca2a8001e4078005cff0700cca2a8001d
:10235c00cca2a900cca2a900cca2a8001e40780057
:10236c0094ff0700cca2a800cca2a900c922a80007
:10237c00401680004900de00614060000080fb00d8
:10238c00610060004800dd0042168000f1ef2f0074
:10239c00810061000100700040168800401680002a
:1023ac004800de00614060000080fb0061006000be
:1023bc004700dd0042168000f1f72f00810061001c
:1023cc000100700040168800401680004700de00b7
:1023dc00614060000080fb00610060004600dd0091
:1023ec0042168000f1fb2f0081006100010070009b
:1023fc00401688000080fa00000006000200fa0077
:10240c00004f7800c922a900401680004900de0068
:10241c00614060000080fb00610060004800dd004e
:10242c0042168000f1ef2f00810061000100700066
:10243c0040168800401680004800de0061406000b5
:10244c000080fb00610060004700dd004216800048
:10245c00f1f72f0081006100010070004016880028
:10246c00401680004700de00614060000080fb00e9
:10247c00610060004600dd0042168000f1fb2f0079
:10248c00810061000100700040168800cc62a80039
:10249c00cde2a900cca2a8001e40780007ff0700df
:1024ac00cca2a800cca2a900cca2a900cca2a800c6
:1024bc001e4078003fff0700cca2a800cca2a900c8
:1024cc00c922a800401680004900de00614060006f
:1024dc000080fb00610060004800dd0042168000b7
:1024ec00f1ef2f00810061000100700040168800a0
:1024fc00401680004800de00614060000080fb0058
:10250c00610060004700dd0042168000f1f72f00eb
:10251c0081006100010070004016880040168000a8
:10252c004700de00614060000080fb00610060003d
:10253c004600dd0042168000f1fb2f008100610097
:10254c0001007000401688000080fa0000000600b0
:10255c000200fa00c922a800401680004900de00e3
:10256c00614060000080fb00610060004800dd00fd
:10257c0042168000f1ef2f00810061000100700015
:10258c0040168800401680004800de006140600064
:10259c000080fb00610060004700dd0042168000f7
:1025ac00f1f72f00810061000100700040168800d7
:1025bc00401680004700de00614060000080fb0098
:1025cc00610060004600dd0042168000f1fb2f0028
:1025dc00810061000100700040168800cc62a900e7
:1025ec00cde2a8002042800000407800cb05070017
:1025fc00cca2a800cca2a800501680004900de0096
:10260c0061406000004f7800cca2a900cca2a900c8
:10261c00cca2a800cca2a800cca2a900cca2a90054
:10262c002042800000407800c60507000000e00052
:10263c0004003a001e4078000004e000ecff3a0071
:10264c0001003700000000000080fa0000000600c6
:10265c000200fa00004f7800c922a9004016800041
:10266c004900de00614060000080fb0061006000fa
:10267c004800dd0042168000f1ef2f008100610060
:10268c000100700040168800401680004800de00f3
:10269c00614060000080fb00610060004700dd00cd
:1026ac0042168000f1f72f008100610001007000dc
:1026bc0040168800401680004700de006140600034
:1026cc000080fb00610060004600dd0042168000c7
:1026dc00f1fb2f00810061000100700040168800a2
:1026ec00cc62a900cde2a900cca2a800cca2a80083
:1026fc001e00fb006800600000f0a7000000ea006c
:10270c000000ea004f00de00004078000080fb0073
:10271c00610060004900dd0062168000f1df2f00cf
:10272c008100610001007000601688001e00fb0033
:10273c006400600000f0a7000000ea000000ea005e
:10274c004f00de00004078000080fb00610060005c
:10275c004800dd0062168000f1ef2f00810061005f
:10276c0001007000601688001e00fb006200600013
:10277c0000f0a7000000ea000000ea004f00de00b5
:10278c00004078000080fb00610060004700dd0025
:10279c0062168000f1f72f008100610001007000cb
:1027ac00601688001e407800614060006140600047
:1027bc00614060000080fb00610060004600dd00ad
:1027cc0062168000f1fb2f00810061000100700097
:1027dc0060168800cca2a9000080fa000000060058
:1027ec000200fa001e68ef00c9a2a8000000eb006e
:1027fc00000f780005003700d08520001e00400037
:10280c008040eb00014878001e0fe800d015200036
:10281c009e007800808f5000f7ff3400a0852000c8
:10282c008040eb0001487800b08520008040eb0030
:10283c0001487800c08520008040eb0001487800fa
:10284c002e68ef002ec8bf001fe8b7002268ef000b
:10285c002828ef002a68ef002b68ef002368ef00b0
:10286c002d68ef002c68ef000000eb00000f7800e3
:10287c0000012000304188000d0507000041880050
:10288c000080fa00000006000000fa001ec8bf001d
:10289c000080fb00e20f50002b003200e20f5000d2
:1028ac0005003c000000e0000a003200e10f50007f
:1028bc001300320048013700e40f50005200320080
:1028cc00e40f500041003500e50f50006c00320061
:1028dc00410137005116800000002200008060008a
:1028ec000000e00027013200004180000040780029
:1028fc000a05070010c0b3001ee8b7003601370008
:10290c005116800000002200008060000000e000f2
:10291c001e013a00004180000040780009050700c4
:10292c00e40f500002003e001e68ef002a01370041
:10293c000041800000407800f804070020c0b3007c
:10294c001ee8b70024013700511680000000220059
:10295c00008060000000e00011003a00004180009f
:10296c0000407800f7040700e90f50000901360019
:10297c000041800000407800f2040700ea0f50008c
:10298c0006013e000041800000407800e30407008f
:10299c002c68ef0030c0b3001ee8b7000e01370002
:1029ac005116800000002200008060000000e00052
:1029bc00fc0032000041800000407800d704070082
:1029cc0020c0b3001ee8b70003013700501680008a
:1029dc004d00de00614060008080fb002cc8bf0011
:1029ec000000fb00808f5000f00032005016800079
:1029fc004d00de00614060002ce8b70040c0b30021
:102a0c001ee8b700f4003700501680004d00de00c1
:102a1c00614060008080fb002cc8bf000000fb0000
:102a2c00808f5000e30032000041800000407800ad
:102a3c00ba0407002ac8bf000000fb0000004000d9
:102a4c0080407800501680004d00de006140600030
:102a5c0000c070002ae8b700501680004d00de0060
:102a6c00614060002ce8b70023c8bf000040e800bc
:102a7c0023e8b70050c0b3001ee8b700d6003700fb
:102a8c00501680004d00de00614060008080fb002d
:102a9c002cc8bf000000fb00808f50001b003200d0
:102aac000041800000407800a6040700e60f5000ab
:102abc0016003600004180000040780097040700a3
:102acc002ac8bf000000fb000000400080407800d6
:102adc00501680004d00de006140600000c07000a8
:102aec002ae8b700501680004d00de0061406000ff
:102afc002ce8b70023c8bf000040e80023e8b7006b
:102b0c0050c0b3001ee8b700130037005016800009
:102b1c004d00de00614060008080fb002cc8bf00cf
:102b2c000000fb00808f50000b0032000041800041
:102b3c000040780083040700e60f500006003e00ba
:102b4c00501680004d00de00614060002ce8b7009c
:102b5c0040c0b3001ee8b70023c8bf00e84f5000c8
:102b6c000a003a002dc8bf000004e00007003a003c
:102b7c002ac8bf002be8b70010c0b3002de8b7007f
:102b8c002368ef0050c0b3001ee8b70023c8bf0095
:102b9c00e84f500017003a0024c8bf00e24f500025
:102bac0014003e00b182200091407800e0c4b300d4
:102bbc0080cf50000f003a002dc8bf00e14f5000ed
:102bcc000c003a0024c8bf008080fb00a3822000c8
:102bdc0093417800a285200003f178000040e800c2
:102bec0024e8b7002828ef002368ef0050c0b3009a
:102bfc001ee8b70024c8bf00e34f500015003a0090
:102c0c002ec8bf000004e00012003a00a08520008e
:102c1c009afb07002ee8b7002ec8bf00c0fb0700c8
:102c2c002ec8bf000004e0000a003a002368ef0041
:102c3c002468ef0000012000304188002b68ef0071
:102c4c002d68ef001e68ef00004180000040780006
:102c5c003204070023c8bf00e84f50001c003a00a4
:102c6c0024c8bf00e24f500019003600a18220009a
:102c7c0091407800d0c3b30080cf500014003200d4
:102c8c00b182200091407800e0c4b30080cf5000a6
:102c9c000f003a002dc8bf00e14f50000c003a0065
:102cac00404180000000e800404188003041800035
:102cbc00800078000000e800304188002ac8bf007e
:102ccc00a00507002368ef0050c0b3001ee8b70052
:102cdc0023c8bf00e84f500008003a00b182200022
:102cec0091407800e0c4b30080cf50000300320064
:102cfc002368ef002d68ef001e68ef0023c8bf00ab
:102d0c00e84f50002d003a0024c8bf00e24f50009d
:102d1c002c003600a182200091407800d0c3b30073
:102d2c0080cf500029003a00b182200091407800f9
:102d3c00e0c4b30080cf500026003a003041800040
:102d4c00800078000040eb007e05070040418000c9
:102d5c0080fb07002368ef002468ef0000012000cf
:102d6c00304188002b68ef002d68ef002e68ef00d3
:102d7c001e68ef000041800000407800e703070068
:102d8c0015003700000000001300370000000000a1
:102d9c0011003700000000000f0037000000000099
:102dac000d003700000000000b0037000000000091
:102dbc000900370000000000070037000000000089
:102dcc000500370000000000030037000000000081
:102ddc0001003700000000000080fa00000006002f
:102dec000000fa00113a8000f00b20000081600016
:102dfc0060042000710520002374200080497800b5
:102e0c0081497800824978001136800000fe2f003d
:102e1c00008060003000b30010368800213580003f
:102e2c0000fe2f00008060000020a00020358800ec
:102e3c00113a8000000420000101700060042000a1
:102e4c0071052000237420008049780081497800a6
:102e5c0082497800700620004011880021e2a80009
:102e6c00001180000080a1000090a10000118800da
:102e7c002062a900001180000010a1000020a10018
:102e8c00001188002002a9002342a8003668ef0038
:102e9c009560a8003268ef0032c8bf0033e8b70075
:102eac0033c8bf0030e8b70030c8bf0031e8b70006
:102ebc0031c8bf0034e8b70034c8bf0035e8b700ec
:102ecc000080fa00000006000000fa0036c8bf00bf
:102edc000000fb00e10f500010003200e10f500029
:102eec0003003c000000e000060032002b0037001d
:102efc00e20f50000e003200e30f500015003200bc
:102f0c002600370035c8bf000004e0002000320066
:102f1c0010c0b30036e8b70020003700600007008f
:102f2c00c041880020c0b30036e8b7001b00370052
:102f3c00c0418000104078000004e0000300320023
:102f4c0030c0b30036e8b700140037003668ef0025
:102f5c00120037001111800000102000008060006a
:102f6c000000e0000c003200c0418000904078006e
:102f7c008100fb00211188000000e800c04188009e
:102f8c002342a80020c0b30036e8b7000300370086
:102f9c000000000001003700000000000080fa0073
:102fac00000006000200fa00000f78000400370051
:102fbc001e007800104078001e0fe8001500070076
:102fcc001e007800104078000004e000f8ff3a0082
:102fdc000080fa00000006000200fa00000f7800e2
:102fec001e007800190007000080fa00000006009f
:102ffc000000fa0034c8bf000080fb000080fa001b
:10300c00000006000000fa004e0007000080fa00e5
:10301c00000006000200fa00004f780001003700a3
:10302c000060fe0011118000001020000080600084
:10303c000000e000faff32001e00fb0020118800a7
:10304c002342a8000080fa00000006000200fa00eb
:10305c00000f780030c8bf008080fb000181400069
:10306c00c19f2000810041009e0878000040e800cc
:10307c0030e8b700018320009140780000c8b3000d
:10308c0080cf500001003a003068ef0035c8bf0017
:10309c000040e80035e8b7000080fa0000000600a8
:1030ac000200fa0032c8bf008080fb0001814000a2
:1030bc00c19f200081004100110f78000040e80002
:1030cc0032e8b700218320009140780000c8b3009b
:1030dc0080cf500001003a003268ef0035c8bf00c5
:1030ec000040e90035e8b7001e0078000080fa00c7
:1030fc00000006000200fa00004f780031c8bf0043
:10310c008080fb00c29b20009e41780003f1780078
:10311c000040e80031e8b7001183200091407800ae
:10312c0000c4b30080cf500001003a003168ef00ba
:10313c0034c8bf000040e80034e8b7000080fa0053
:10314c00000006000200fa0033c8bf008080fb00bc
:10315c00c29b200062cf78000040e80033e8b70043
:10316c00318320009140780000c4b30080cf500020
:10317c0001003a003368ef0034c8bf000040e9009a
:10318c0034e8b7001e4078000080fa00000006000a
:10319c003600f800809fbe00829fbe00849fbe0058
:1031ac00869fbe000000fa008560a9001011800007
:1031bc00620060000000e000010032002222a90041
:1031cc003011800000407800caff07000080fa0030
:1031dc004f03be004f02be004f01be004f00be00a9
:1031ec003600f900004006000000fa00c062a8009a
:1031fc00c042a8006bc0a8006ba0a8005068ef00ec
:10320c00ab0207000040780051e8b7000080fa00dc
:10321c00000006000000fa0050c8bf000000fb00d0
:10322c00e30f500053003200e30f500007003c0046
:10323c00e10f500020003200e10f50002c003c0048
:10324c000000e0000a003200b3003700e50f500028
:10325c0063003200e50f50005a003500e60f5000b5
:10326c006d003200e70f50008c003200aa003700ce
:10327c0010168000680060000000e00005003a00b5
:10328c0051c8bf00a502070010c0b30050e8b7003a
:10329c00a100370010168000640060000000e00000
:1032ac0092003a0051c8bf009c02070050c0b30006
:1032bc0050e8b7009800370051c8bf00a1020700c2
:1032cc0031062000810f50008a0036001016800055
:1032dc00680060000000e00003003a0020c0b3006a
:1032ec0050e8b7008c0037005068ef008a003700b8
:1032fc00310407000004e0000d003a0097010700bc
:10330c0052e8b70052c8bf00ea4f500003003a0021
:10331c0010c0b300950107000500370052c8bf006c
:10332c000040e80052e8b70052c8bf008f01070008
:10333c002c0407000004e0000b003a004c030700cb
:10334c0052e8b70052c8bf000004e00003003a0086
:10335c0040c1b3004a0307000300370052c8bf0046
:10336c00654050004603070030c0b30050e8b7007a
:10337c006900370051c8bf0072020700f17c2000c1
:10338c00810f5000060036007f0107000004e000aa
:10339c0001003200ef01070051c8bf005f020700b7
:1033ac0010168000680060000000e000530032003e
:1033bc0040c0b30050e8b70051c8bf005702070027
:1033cc005500370051c8bf005e02070031062000cf
:1033dc00810f50004b0036005068ef004e00370054
:1033ec0051c8bf005702070031062000810f500062
:1033fc004600360010168000640060000000e000fb
:10340c0003003a0060c0b30050e8b7004200370038
:10341c005068ef0040003700e70307000004e000ad
:10342c000d003a004d01070052e8b70052c8bf002a
:10343c00e14f500003003a00a0c0b3004b0107005d
:10344c000500370052c8bf000040e90052e8b70041
:10345c0052c8bf0045010700e20307000004e0006a
:10346c000b003a000203070052e8b70052c8bf0035
:10347c00f44f500003003a000040eb00000307003b
:10348c000300370052c8bf0065404000fc02070033
:10349c0070c0b30050e8b7001f00370051c8bf0020
:1034ac0028020700f17c2000810f50000600360036
:1034bc00350107000004e00001003a00a5010700f7
:1034cc0051c8bf0015020700101680006400600090
:1034dc000000e0000f00320040c0b30050e8b7001d
:1034ec0051c8bf000d0207000b00370000000000a0
:1034fc000900370000000000070037000000000042
:10350c000500370000000000030037000000000039
:10351c0001003700000000000080fa0000000600e7
:10352c000000fa00101680006800600000f0a70090
:10353c000000ea000000ea004f00de0000407800c6
:10354c000080fa00000006000000fa00101680004f
:10355c006400600000f0a7000000ea000000ea0030
:10356c004f00de00004078000080fa0000000600ea
:10357c000200fa00c042a900c062a900c082a900e2
:10358c00c442a900c462a900c482a9000000eb00d7
:10359c00000f780016003700c50107008040780046
:1035ac0080ce20001e00400001487800b0ce2000e4
:1035bc001e0040008040eb0001487800a0cf2000a6
:1035cc001e0040008040eb000148780040cf2000f6
:1035dc001e00400001c3b3000148780070cf2000ea
:1035ec001e0040008040eb00014878001e0fe800f0
:1035fc001e007800e20f5000e7ff34005868ef001f
:10360c000080fa00000006000200fa00000f7800ab
:10361c00b0ce20001e004000104078000080fb005f
:10362c00e10f50001b003200e10f500003003c0082
:10363c000000e000040032006a003700e20f500086
:10364c003400320067003700a0cf20001e0040007d
:10365c001040780000c0ea00ea404000e0ce2000b4
:10366c001e0040000148780080ce20001e00400063
:10367c0010407800a90107001e0078005b000700cd
:10368c00b0ce20001e00400011c0b30001487800ed
:10369c00540037001e0078005400070080ce200034
:1036ac001e00400010407800a60107008000780042
:1036bc00e0ce20001e004000104078000080fb008f
:1036cc0000004000808f50004300390080ce200065
:1036dc001e0040001040780090010700a0cf200091
:1036ec001e004000104078008040e80010cf200001
:1036fc001e004000014878001e0078004c000700b6
:10370c00b0ce20001e00400021c0b300014878005c
:10371c00340037001e0078004500070080ce2000e2
:10372c001e004000104078008601070080007800e1
:10373c0010cf20001e004000104078000080fb00dd
:10374c0000004000808f50002500390040cf200041
:10375c001e00400090407800a0cf20001e004000ca
:10376c001040780055000700e14f500003003a006c
:10377c0058c8bf000004e00007003a00a0cf2000aa
:10378c001e004000104078008040e800a0cf2000d0
:10379c001e00400001487800a0cf20001e00400011
:1037ac0010407800e94f500004003400a0cf2000f6
:1037bc001e0040008040eb00014878001e0078009d
:1037cc000a000700b0ce20001e0040008040eb0035
:1037dc0001487800030037000000000001003700aa
:1037ec00000000000080fa00000006000200fa0051
:1037fc00000f78001e007800e10f50000600320028
:10380c00e20f5000060032000000e00006003a0013
:10381c00c442a90004003700c462a90002003700aa
:10382c00c482a900000000000080fa00000006001d
:10383c000200fa00000f78001e007800e10f500023
:10384c0006003200e20f5000060032000000e000db
:10385c0006003a00c442a80004003700c462a80065
:10386c0002003700c482a800000000000080fa00ab
:10387c00000006000200fa00000f78001e0078001d
:10388c009040780040cf2000014878001e00e800ee
:10389c009040780050cf2000014878001e80e8004e
:1038ac009040780060cf20000148780010c0b30031
:1038bc0058e8b7000080fa00000006000200fa0089
:1038cc00004f7800114798009e00fb001e409000ae
:1038dc000000fb000003b100808f500002003a0092
:1038ec0010c0b300010037000040eb000080fa006c
:1038fc00000006000200fa000000eb00000f780048
:10390c0005003700e0cf20001e0040008040eb0097
:10391c00014878001e0fe8001e007800e90f5000e7
:10392c00f8ff3400c022a900c422a900e00007005f
:10393c000040780046e8b7004968ef0049c8bf006e
:10394c0047e8b700da0007000040780048e8b70005
:10395c004a28ef000080fa00000006000000fa0080
:10396c0048c8bf000080fa00000006000200fa0000
:10397c00004f78001e417800818420008248780036
:10398c000080fa00000006000000fa0047c8bf00e3
:10399c000014a2000080fb000000ea004f00de00d3
:1039ac00004078000080fa00000006000400fa00d5
:1039bc00100798000000eb00000f7800080037009b
:1039cc001e0078009e00900000804000904078001f
:1039dc00e0cf20001e004000014878001e0fe800d8
:1039ec001e007800e90f5000f5ff340010c0b30042
:1039fc0049e8b7000080fa00000006000000fa0059
:103a0c004968ef000080fa00000006000000fa0090
:103a1c0047c8bf000000fb00e10f5000140032004b
:103a2c00e10f500003003c000000e00006003200f3
:103a3c0046003700e20f50001b003200e30f50002d
:103a4c00270032004100370049c8bf00e14f500049
:103a5c0039003a0010c0b30047e8b70046c8bf00b1
:103a6c00ae00070048c8bf00ac00070037003700a5
:103a7c0046c8bf00b300070051428000e2cf2000cf
:103a8c00e2c078008100fb00810f50002c0039004f
:103a9c0046c8bf00a1000700c422a80020c0b30084
:103aac0047e8b7002900370046c8bf00a50007004b
:103abc0051428000e2cf2000e2c078008100fb0080
:103acc00810f50002000390046c8bf00930007004a
:103adc00c422a90030c0b30047e8b7001b00370070
:103aec0048c8bf0097000700311f2000810f50000d
:103afc000900360048c8bf0088000700504280000b
:103b0c000000e8005042880050428000e30f500053
:103b1c00010034004a28ef0049c8bf00e14f5000b3
:103b2c0003003a0010c0b30047e8b70007003700a5
:103b3c004768ef0005003700000000000300370065
:103b4c000000000001003700000000000080fa00b7
:103b5c00000006000000fa0047c8bf00e24f50000a
:103b6c0002003a004768ef000300370020c0b300a2
:103b7c0047e8b700c422a90047c8bf000080fb007b
:103b8c000000e9004f00de00004078000080fa00e1
:103b9c00000006000000fa000080fa000000060099
:103bac00809fbe00821f78000000fa008460a9008c
:103bbc00604280000000e8006042880061428000a2
:103bcc00f0522700808f50001d0036004e28ef0069
:103bdc0017003700704280004200dd008080e80052
:103bec00c0c320000080400010407800e14f50001e
:103bfc000c003a0070428000714280004209dd00e6
:103c0c00c1c3200081004100110178006142800095
:103c1c00810051004201dd00c0c3200000004100c2
:103c2c0001087800704280000000e80070428800b3
:103c3c0070428000f80f5000e6ff34004c28ef0073
:103c4c000080fa004f0178004f00be0000400600d3
:103c5c000200fa000040eb00004f7800070037002c
:103c6c001e80fb00c200dd00e0c32000008040008d
:103c7c008040eb00014878001e4fe8001e407800a1
:103c8c00f84f5000f6ff36004c28ef0004a1a900b5
:103c9c000481a800007d20001008880005e1a80020
:103cac008460a9009460a8000080fa00000006005f
:103cbc000200fa000040eb00004f780006003700cd
:103ccc001e4fe8001e407800f94f500002003a00e9
:103cdc000080eb000f0037001e80fb004200dd006f
:103cec008080e800c0c320000080400010407800b5
:103cfc00e14f5000f2ff32001e80fb00c200dd00dd
:103d0c00e0c320000080400011c0b30001487800df
:103d1c001e80fb000080fa00000006000200fa0082
:103d2c00004f78001e80fb00614280004201dd00e4
:103d3c00c0c3200000004100010878000080fa0098
:103d4c00000006000400fa00204798006042800042
:103d5c00000f78009e0078002e4090000080fb0041
:103d6c004201dd00c0c320000000410010007800bb
:103d7c00008050000080fa00000006000200fa00eb
:103d8c00004f78001e80fb00c200dd00e0c3200065
:103d9c00008040008040eb00014878000080fa0071
:103dac00000006000000fa000080fa000000060087
:103dbc000000fa00c082a900c482a900bcff070061
:103dcc00004078003ae8b7003b68ef003c68ef0031
:103ddc003e28ef000080fa00000006000000fa0008
:103dec003bc8bf000080fb00e10f50001700320001
:103dfc00e10f500003003c000000e0000600320020
:103e0c0067003700e20f50002c003200e30f500027
:103e1c0037003200620037003ac8bf00c9ff070004
:103e2c00c1832000914078008180fb00810f5000fd
:103e3c004c0039003ac8bf00b8ff070010c0b300ef
:103e4c003be8b700c482a900550037003ac8bf0050
:103e5c00bcff0700c1832000914078008180fb00eb
:103e6c00f4801000810f5000400039003ac8bf00a8
:103e7c00aaff07003b68ef00c482a800f041800055
:103e8c000000e800f0418800f0418000e40f500091
:103e9c0038003a003cc8bf000040e8003ce8b700de
:103eac003e28ef003cc8bf00f44f500033003a00ee
:103ebc0020c0b3003be8b700390037003ac8bf0058
:103ecc00a0ff0700c1832000914078008180fb0097
:103edc00810f50002b0039003ac8bf008fff07003c
:103eec0030c0b3003be8b700c482a9002c003700f7
:103efc003ac8bf0093ff0700c183200091407800af
:103f0c008180fb00f4801000810f50001f003900ed
:103f1c003ac8bf0081ff070020c0b3003be8b700e0
:103f2c00c482a800f04180000000e800f041880045
:103f3c00f0418000e40f500016003a003cc8bf006e
:103f4c000040e9003ce8b7003e28ef003cc8bf0049
:103f5c000004e00011003a003b68ef003c68ef0001
:103f6c000f003700000000000d00370000000000bb
:103f7c000b003700000000000900370000000000b3
:103f8c0007003700000000000500370000000000ab
:103f9c0003003700000000000100370000000000a3
:103fac000080fa00000006000000fa00c9c2a90057
:103fbc00cdc2a9005468ef003dff07000040780017
:103fcc0055e8b700a0c0b30056e8b7000080fa006f
:103fdc00000006000000fa0054c8bf000080fb007f
:103fec000000e00003003200e10f50000e00320030
:103ffc001d00370055c8bf0052ff07006185200027
:10400c00914078008180fb00810f50001300390033
:10401c0055c8bf0041ff070010c0b30054e8b700fb
:10402c00cdc2a9001000370055c8bf0045ff0700de
:10403c0061852000914078008180fb00f4801000a5
:10404c00810f50000700390055c8bf0033ff07002f
:10405c005468ef00cdc2a800030037000000000038
:10406c0001003700000000000080fa00000006008c
:10407c000000fa0056c8bf000080fa0000000600dd
:10408c000200fa00004f78001e40780056e8b70096
:10409c000080fa00000006000000fa00c002a80030
:1040ac0021a3a8002103a900001980004800de000c
:1040bc00614060000080fb00610060004900dd0091
:1040cc0002198000f1df2f008100610001007000f7
:1040dc000019880020e3a800001980004700de00ca
:1040ec00614060000080fb00610060004600dd0064
:1040fc0002198000f1fb2f008100610001007000ab
:10410c0000198800001980004600de006140600044
:10411c000080fb00610060004500dd00021980009a
:10412c00f1fd2f0081006100010070000019880072
:10413c001019800000d0a10000e0a10000f0a10047
:10414c00101988002343a9002223a8000010200086
:10415c00201988002823ef00100020008019880007
:10416c0021e3a8002023a8002043a8000080fa0027
:10417c00000006000000fa00001880000080fa0021
:04418c000000060029
:020000040000fa
:104190003c0c000064000000000000004c0800001f
:1041a00004000000000000003a08000006000000c3
:1041b00000000000400800000600000000000000b1
:1041c000fe0c00000a00000000000000460800008d
:1041d000060000000000000050080000040000007d
:1041e000000000005408000004000000000000006f
:1041f000bc09000040010000000000003008000081
:104200000a00000000000000080d0000040000008b
:10421000020000000302010002000000a00c0000e8
:104220004800000000000000000800001e00000020
:1042300000000000e80c0000160000000000000074
:104240005808000002000000000000005a080000aa
:1042500062010000000000001e08000012000000c3
:1042600000000000fc0a0000400100000000000007
:04427000000000004a
:020000040000fa
:104274000000fa004427ef0040a7a9000080fa00dc
:10428400000006000000fa00f9ff070072fe0700b4
:10429400b9fc070001c1b30020c0b30083f60700d6
:1042a40096fd07003d0007007dff070040ff070063
:1042b400cdfa0700d6f60700e4f607008040eb00cd
:1042c4000040eb00e7f60700a050280061f7070064
:1042d400eff3070037f2070043f907000c0007006b
:1042e4000000eb00cafc070010002000c8fc070017
:1042f40020002000c6fc070014f40700c5fd0700d9
:1043040060f20700f2fa070061f90700f4ff3700d2
:104314000200fa000000eb00000f780005003700ef
:10432400c0af20001e00400001c2b3000148780065
:104334001e0fe800f01320009e007800808f5000cc
:10434400f7ff34000080fa00000006000400fa00c1
:10435400004f780011079800c1af20001e009000a4
:10436400008040001e4878000080fa00000006002b
:104374000200fa00000f7800c0af20001e004000c9
:10438400104078000080fa00000006000000fa00e7
:10439400c0af20000080fa00000006000000fa0010
:1043a400c9a2a800c982a8002d63a8002d83a80073
:1043b40069a0a80069c0a8000080fa0000000600f7
:1043c4000000fa0051168000000021000080600007
:1043d40000f0a7000000ea000000ea004f00de0041
:1043e400004078000080fa00000006000000fa0097
:1043f40051168000000022000080600000f0a70039
:104404000000ea000000ea004f00de0000407800ef
:084414000080fa000000060020
:020000040000fa
:04aff8008b69000061
:020000040000fa
:04affc003b3f0000d7
:00000001FF
