:020000040000fa
:080000000002040000000000f2
:020000040000fa
:100008009a0200009a0200009a0200009a02000078
:100018009a0200009a0200009a0200009a02000068
:100028009a0200009a0200009a020000641c000074
:100038009a0200009a0200009a0200009a02000048
:100048009a0200009a0200009a0200006c17000051
:100058009a0200009a0200009a0200009a02000028
:100068009a0200009a0200009a0200009a02000018
:100078009a0200009a0200009a0200009a02000008
:100088009a0200009a0200009a0200009a020000f8
:100098009a0200009a0200009a0200009a020000e8
:1000a8009a0200009a0200009a0200009a020000d8
:1000b8009a0200009a0200009a0200009a020000c8
:1000c8009a0200009a0200009a0200009a020000b8
:1000d8009a0200009a0200009a0200009a020000a8
:1000e8009a0200009a0200009a0200009a02000098
:1000f8009a0200009a0200009a0200009a02000088
:100108009a0200009a0200009a0200009a02000077
:100118009a0200009a0200009a0200009a02000067
:100128009a0200009a0200009a0200009a02000057
:100138009a0200009a0200009a0200009a02000047
:100148009a0200009a0200009a0200009a02000037
:100158009a0200009a0200009a0200009a02000027
:100168009a0200009a0200009a0200009a02000017
:100178009a0200009a0200009a0200009a02000007
:100188009a0200009a0200009a0200009a020000f7
:100198009a0200009a0200009a0200009a020000e7
:1001a8009a0200009a0200009a0200009a020000d7
:1001b8009a0200009a0200009a0200009a020000c7
:1001c8009a0200009a0200009a0200009a020000b7
:1001d8009a0200009a0200009a0200009a020000a7
:1001e8009a0200009a0200009a0200009a02000097
:0801f8009a0200009a020000c7
:020000040000fa
:100208009a0200009a0200009a0200009a02000076
:100218009a0200009a0200009a0200009a02000066
:100228009a0200009a0200009a020000641c000072
:100238009a0200009a0200009a0200009a02000046
:100248009a0200009a0200009a0200006c1700004f
:100258009a0200009a0200009a0200009a02000026
:100268009a0200009a0200009a0200009a02000016
:100278009a0200009a0200009a0200009a02000006
:100288009a0200009a0200009a0200009a020000f6
:100298009a0200009a0200009a0200009a020000e6
:1002a8009a0200009a0200009a0200009a020000d6
:1002b8009a0200009a0200009a0200009a020000c6
:1002c8009a0200009a0200009a0200009a020000b6
:1002d8009a0200009a0200009a0200009a020000a6
:1002e8009a0200009a0200009a0200009a02000096
:1002f8009a0200009a0200009a0200009a02000086
:100308009a0200009a0200009a0200009a02000075
:100318009a0200009a0200009a0200009a02000065
:100328009a0200009a0200009a0200009a02000055
:100338009a0200009a0200009a0200009a02000045
:100348009a0200009a0200009a0200009a02000035
:100358009a0200009a0200009a0200009a02000025
:100368009a0200009a0200009a0200009a02000015
:100378009a0200009a0200009a0200009a02000005
:100388009a0200009a0200009a0200009a020000f5
:100398009a0200009a0200009a0200009a020000e5
:1003a8009a0200009a0200009a0200009a020000d5
:1003b8009a0200009a0200009a0200009a020000c5
:1003c8009a0200009a0200009a0200009a020000b5
:1003d8009a0200009a0200009a0200009a020000a5
:1003e8009a0200009a0200009a0200009a02000095
:0803f8009a0200009a020000c5
:020000040000fa
:10040000cfd020000e7f22000e01880000000000e7
:10041000000020000000e000020032000001200087
:10042000200288000c00070060f521000100200078
:1004300011000700000020000000e0000200320070
:100440000000020000000000d61f020000000000b3
:100450000040da000000fe004440a90060272000b0
:100460000000e0000300320000002000a00188002e
:100470004440a80000000600910188008000780038
:100480000000eb0015003700e280400032a0b4000d
:100490009101ba00e280400032a0b4009102ba009b
:1004a000e280400032a0b4000002eb00472bde00e7
:1004b000f507b200602ce10004003a000059eb009f
:1004c0008301e900fdff3e00040037006128e100e0
:1004d000010032000082eb00040007001101ba00a5
:1004e0000200e000e8ff3a00000006003159ba00bf
:1004f0008301e9000c0032002159ba008301e900b0
:10050000080032000400e00003003a00e2804000ee
:1005100032a0b400f5ff370011d9ba008301e90019
:10052000faff3a008100e800e180400032a0b40008
:0c053000000006000040da000000fe00a1
:020000040000fa
:10053c005761000069740000696e000067200000bc
:10054c00666f00007220000049440000202000006b
:10055c000057000061690000746900006e670000bc
:10056c00206d00006573000073610000676500007a
:10057c00200000004e650000772000006d65000033
:10058c0073730000616700006521000020200000eb
:10059c0020200000000d00000a420000656e0000e3
:1005ac00766900006e670000757400002061000021
:1005bc006c200000576100006c6b00006965000046
:1005cc002d5400006578000074690000652100005e
:1005dc000d0a0000000000000d0a000000000000e1
:1005ec00312d0000496e0000747200006f64000031
:1005fc007569000072200000756e0000206e00000e
:10060c006f75000020690000646500006e740000c6
:10061c006966000069630000616400006f7200008d
:10062c000d0a000000000000322d0000436f000096
:10063c006e730000756c0000746100007220000085
:10064c0049440000206100006374000075610000e3
:10065c006c0d00000a000000003300002d43000068
:10066c006f6e0000737500006c7400006172000006
:10067c0020740000726100006d65000073200000a2
:10068c0069640000656e0000746900006669000012
:10069c006361000064650000730d00000a00000037
:1006ac00003400002d500000726f000062610000e9
:1006bc002064000065200000616c00007461000083
:1006cc0076650000750d00000a0000000035000082
:1006dc002d56000069730000756100006c69000004
:1006ec00747a000061720000206c00002775000015
:1006fc006c740000696d0000206d000069730000cf
:10070c0073610000746700006520000072650000d2
:10071c0062750000740d00000a0000000036000035
:10072c002d52000065730000657400000d0a000076
:10073c000a000000005000006572000020730000e9
:10074c006f72000074690000722000006465000084
:10075c0020710000756100006c730000657600006c
:10076c006f6c0000206f000070630000696f000068
:10077c002c20000070720000656d00002045000008
:10078c00534300000d0a0000000000000a0d000099
:10079c00506c000061630000612000004c530000ad
:1007ac00363900002e2000005369000073740000dd
:1007bc00656d00006573000020440000696700004f
:1007cc0069740000616c0000732000006920000057
:1007dc0075500000726f00006365000073730000b9
:1007ec00616400006f720000730d00000a000000cd
:1007fc0000760000436c0000692000007631000098
:10080c002e3000002e0d00000a000000000a00002f
:10081c0020470000726100006369000065730000ee
:10082c0020700000656c0000206e00006f750000e9
:10083c0020490000442100000d0a000000000000c7
:10084c000d0a0000494400003a200000000000009e
:10085c000d0a00000a000000000a000045720000aa
:10086c00726f0000722000006e6f000020680000a4
:10087c00692000006861000020490000440d000060
:10088c000a000000000d00000a5400007261000014
:10089c006d6500007320000049640000656e000067
:1008ac007469000066690000636100006465000003
:1008bc00733a000020000000000a0000000900004c
:1008cc0009530000573200003a20000000000000dd
:1008dc000909000050420000323a000020000000dc
:1008ec00000d00003030000030000000000d000052
:1008fc003032000035000000000d000030350000e3
:10090c0030000000000d0000303700003500000002
:10091c00000d00003130000030000000000d000020
:10092c00416c0000746100007665000075200000c9
:10093c00656e00006365000073210000200000005c
:10094c00000d0000416c0000746100007665000031
:10095c007520000061700000616700006174000088
:10096c0021000000004900006e7400007269000054
:10097c00647500006569000078200000656c00005b
:10098c00204900004420000064650000206c000039
:10099c0061200000706c000061630000610d0000bc
:1009ac000a000000000a00004c2700004944000027
:1009bc002061000063740000756100006c20000071
:1009cc0064650000206c000061200000706c000069
:1009dc006163000061200000657300003a20000094
:1009ec000d0a0000000000000a430000484500000a
:1009fc00434b000020490000440d00000a00000099
:100a0c0000000000426f00006f740000696e00006f
:0c0a1c00672e00002e2e000000000000dd
:020000040000fa
:100a28000200fa00000f78009e007800803e200047
:100a380000017800110009008200d8008040780089
:100a4800a0c9200001487800a0c920001040780003
:100a58008000fb0080c12f000088b90000007800ea
:100a68001e0f40009e00780040062000000178001c
:100a7800110009008200d80080407800b0c9200029
:100a880001487800b0c92000104078008000fb00c1
:100a9800c0f92f000088b900000078001e0f400040
:100aa8009e007800a00020000001780011000900d5
:100ab8008200d80080407800c0c920000148780032
:100ac800c0c92000104078008000fb0060ff2f00a4
:100ad8000088b900000078001e0f40001e00780052
:100ae800004078000043b00080407800d0c9200062
:100af80001487800e0c920008040eb0001487800f8
:100b0800c0c92000104078000043b0008040780041
:100b1800c0c9200001487800b0c920001040780002
:100b28000043b00080407800b0c920000148780038
:100b3800a0c92000104078000043b0008040780031
:100b4800a0c92000014878000080fa0000000600d3
:100b58000000fa00102d28006f080700202f280039
:100b68006d080700602f28006b080700a0312800d7
:100b78006908070030332800670807007035280027
:100b880065080700d0362800630807005039280098
:100b980061080700202f28005f080700103a280086
:100ba8005d0807000080fa00000006000200fa0055
:100bb8000000eb00000f780005003700c0cc2000d3
:100bc8001e00400001c3b300014878001e0fe80072
:100bd8001e007800e20f5000f8ff340020002000cb
:100be80010408800c03c28004b080700f03f280050
:100bf80049080700d6ff07001968ef000028ef0032
:100c0800730b07000040780004e8b700700b07007a
:100c1800a04088000568ef000c68ef000cc8bf0012
:100c28000ee8b7000ec8bf000080fb00000f780078
:100c38001e0078000040780009e8b70009c8bf0026
:100c480017e8b70017c8bf0016e8b70016c8bf00f6
:100c58000000fb0090408800904080000040780031
:100c680008e8b7000080fa00000006000000fa005b
:100c7800881f780005c8bf000000fb00cf80de0099
:100c8800d203200003002000820f5000838f5800f9
:100c98005b013e00006001003d003700670037003f
:100ca8008c003700a8003700b0003700b2003700ca
:100cb800ba0037005201370066003700500137008c
:100cc8004f0137004e0137004d0137004c01370006
:100cd8004b0137004a013700490137004801370006
:100ce800470137004601370045013700ad0037009e
:100cf8004301370042013700410137004001370006
:100d08003f0137003e0137003d0137003c01370005
:100d18003b013700ab003700390137003801370095
:100d28003701370036013700350137003401370005
:100d38003301370032013700310137003001370005
:100d48002f0137002e0137002d0137002c01370005
:100d58002b0137002a013700290137002801370005
:100d6800270137009f00370025013700240137008d
:100d78002301370022013700210137002001370005
:100d88001f0137001e0137001d013700dc00370046
:100d9800e70707000000e00018003200e907070035
:100da80006e8b700618020009140780060c3b30076
:100db80080cf50000d003c006180200091407800f9
:100dc80000c3b30080cf50000800340006c8bf003d
:100dd8008040780000cdb30000c0400005e8b700af
:100de80005c8bf008102070004003700d0c0b30067
:100df800d807070006c8bf00d607070004c8bf0009
:100e0800180b0700813e2000810f5000ef003600cc
:100e180004c8bf00090b0700004080000000e8007c
:100e2800004088000140800000712200808f50003f
:100e3800e8003a000028ef00f1003700bc0707007f
:100e48000000e000e500320080c0b30005e8b7000c
:100e5800eb00370018408000ba070700c1cc20001b
:100e680080707c0010408000c1cc20006140780078
:100e7800fb4f500003003a0035ff07000568ef00fc
:100e8800df003700104080000000e000060034005a
:100e980010c0b30005e8b700104080000000e9006a
:100ea80010408800d6003700d04028009a07070075
:100eb80027ff07000568ef00200020001040880089
:100ec80010c0b30008e8b70010c0b30007e8b700c7
:100ed800cb00370004c8bf00e20a07002103200046
:100ee800810f5000bf00360007c8bf00e14f500017
:100ef80010003a00604228008707070010ce200043
:100f0800104078009307070000ce200010407800ba
:100f180090070700f0cd2000104078008d070700eb
:100f2800e04228007c07070009ff07000568ef007a
:100f3800b3003700304328007707070004ff070095
:100f48000568ef00ae0037009044280072070700dc
:100f580017c8bf007f070700e04228006e07070098
:100f6800fbfe07000568ef00a500370020d0200031
:100f7800de090700a2003700304628006607070090
:100f88004a0c070064070700e042280062070700d0
:100f980030c3b30005e8b700990037000000fe0031
:100fa80097003700504628005b070700570c0700da
:100fb8000043b0006707070020c0b30005e8b7008a
:100fc8008f003700e046280053070700ae080700e7
:100fd8000043b0005f07070030c0b30005e8b70062
:100fe8008700370004c8bf009e0a0700813e200022
:100ff800810f50000a00360004c8bf008f0a07009e
:10100800004080000000e8000040880001408000a7
:1010180000712200808f500001003a000028ef0084
:10102800430707000000e000700032004507070092
:101038000000fb0011032000810f50001b0032004c
:1010480011032000810f500006003c00fb0f5000e8
:101058000e00320001032000810f50000e00320004
:101068006700370031032000810f5000190032005b
:1010780031032000810f500011003500410320008a
:10108800810f5000180032005d003700b0fe0700e5
:101098000568ef0019003700704728001e07070091
:1010a8000040eb003e0b070014003700d047280033
:1010b8001907070050c0b300390b07000f003700ad
:1010c8003048280014070700a0c0b300340b0700fd
:1010d8000a003700904828000f070700f0c0b30047
:1010e8002f0b070005003700f04828000a07070003
:1010f80040c1b3002a0b0700000000004000370081
:1011080004c8bf00570a0700813e2000810f500025
:101118000a00360004c8bf00480a070000408000e3
:101128000000e800004088000140800000712200b3
:10113800808f500001003a000028ef00fc060700ed
:101148000000e0002b003200fe0607000000fb0054
:10115800a1042000810f500008003200a1062000e1
:10116800810f50000e003200fb0f500023003a00a0
:1011780077fe07000568ef0012003700bd09070079
:101188000004e0000300320050492800e20607008e
:101198000c003700704a2800df06070009003700f6
:1011a800b40907000004e000030032005049280099
:1011b800d906070003003700704a2800d606070042
:1011c80000000000000000000d00370000000000d3
:1011d8000b00370000000000090037000000000085
:1011e800070037000000000005003700000000007d
:1011f8000300370000000000010037000000000075
:101208004f0478000080fa00000006000200fa008f
:10121800ef090700004078000be8b7000c68ef0002
:101228004d0207000000eb00000f780005003700b2
:10123800f0cd20001e00400001c3b3000148780033
:101248001e0fe8001e007800e20f5000f8ff34007f
:101258000e68ef0010cd2000f1c2b30001487800fd
:1012680040cd200001c2b3000148780050cd2000d5
:1012780001c2b3000148780060cd200001c2b3006c
:101288000148780070cd200001c2b3000148780001
:1012980080cd200001c2b3000148780090cd200025
:1012a80091c4b30001487800a0cd200041c4b30028
:1012b80001487800b0cd2000a1c3b30001487800f0
:1012c8000080fa00000006000000fa000ac8bf000b
:1012d8000000fb00e20f5000fb003200e20f50005c
:1012e80005003c000000e0000a003200e10f500059
:1012f8007e0032003b013700e40f50000501320048
:10130800e40f5000f8003500e50f500011013200dd
:101318003401370009c8bf000004e0004000320073
:10132800a040800000407800ce090700f1342c006e
:10133800810f5000130036000dc8bf008080fb00ed
:10134800022c2800e2c078000040e8000de8b70051
:1013580001407800520207000dc8bf00f04f50004e
:101368001101360010c0b3000ae8b7000bc8bf006f
:10137800b209070011c0b3000040eb000b020700e0
:10138800180137000ec8bf000080fb00400b0700a3
:10139800430207000ec8bf008080fb000040e80041
:1013a8000ee8b70001007800390b070018e8b7000d
:1013b80018c8bf000004e00005003a000dc8bf00cf
:1013c8000004e00002003a0010c0b30019e8b700ba
:1013d800d18020009140780010c0b300f0cf5000b9
:1013e80001003e000040eb008140e80081417800a8
:1013f800d2802000034978000004e000ec003200ad
:1014080010c0b3000ae8b7000bc8bf008b0907007b
:1014180011c0b3000040eb00e4010700f100370001
:1014280009c8bf000004e00017003a0007c8bf0061
:101438000004e00014003a000dc8bf008080fb00e3
:10144800e2292800e2c078000040e8000de8b70073
:1014580001407800120207000dc8bf00f04f50008d
:101468000700360010c0b3000ae8b7000bc8bf0079
:101478007209070011c0b3000040eb00cb01070060
:1014880000000000d700370009c8bf000004e000d2
:10149800c9003a0007c8bf000004e000c8003200d5
:1014a8000dc8bf008080fb00f22a2800e2c0780047
:1014b8000040e8000de8b70001407800f801070097
:1014c8000dc8bf00f04f5000bf00360010c0b30079
:1014d8000ae8b7000bc8bf005809070011c0b300dd
:1014e8000040eb00b1010700be00370008c8bf008c
:1014f800e14f50002100320007c8bf000004e0009f
:1015080031003a00f0cd2000104078008040e8001b
:10151800f0cd20000148780000ce2000104078006f
:101528008040e80000ce20000148780010ce20005e
:10153800104078008040e80010ce20000148780074
:10154800f0cd20009040780090c3b30080cf5000c9
:101558001d003400f0cd200001c3b300014878001d
:1015680000ce200001c3b3000148780010ce20004f
:1015780001c3b300014878001300370008c8bf0052
:10158800e14f500010003a00c0cc20009040780095
:10159800f0cd200001487800d0cc200090407800a1
:1015a80000ce200001487800e0cc20009040780070
:1015b80010ce2000014878001768ef00f0cd200019
:1015c800fc0707000868ef0017c8bf008000fb0091
:1015d800a000200000017800110009008200d80056
:1015e8000040780003c3b30083404000f0cc2000e3
:1015f8000148780017c8bf008000fb00a000200049
:1016080000017800110009008200d8008000fd0068
:101618000040780003c3b3008340400000cd2000a1
:101628000148780016c8bf008000fb00a000200019
:1016380000017800110009008200d80000407800fd
:1016480003c3b3008340400020cd20000148780048
:1016580016c8bf008000fb00a00020000001780031
:10166800110009008200d8008000fd0000407800c9
:1016780003c3b3008340400030cd20000148780008
:1016880010ce20001040780080407800c0cd2000a7
:101698000148780000ce2000104078008040780093
:1016a800d0cd200001487800f0cd2000104078000f
:1016b80080407800e0cd20000148780020c0b300c9
:1016c8000ae8b70047003700f209070080408800a1
:1016d800804080005e0007009040880030c0b30062
:1016e8000ae8b7003f0037000bc8bf00dd08070055
:1016f80091408000810f5000350036000bc8bf00b4
:10170800ce0807000d68ef0040c0b3000ae8b70034
:10171800340037000dc8bf008080fb00f2cc2000e9
:10172800e2c078000040e8000de8b700014078000a
:101738005b0107000dc8bf00f04f500026003600bf
:1017480050c0b3000ae8b7000bc8bf00bb080700c9
:10175800240037000bc8bf00c2080700910f200003
:10176800810f50001e0036000cc8bf000040e80082
:101778000ce8b70019c8bf00e14f500002003a005a
:101788000c68ef001968ef000a68ef008040eb0072
:101798000040eb00050107000cc8bf000ee8b700c9
:1017a8000d68ef000f003700000000000d00370043
:1017b800000000000b00370000000000090037009f
:1017c8000000000007003700000000000500370097
:1017d800000000000300370000000000010037008f
:1017e800000000000080fa00000006000200fa0075
:1017f800004f78001e00fb00e30f50000f0032007e
:10180800e30f50000f003c00e10f500003003200ce
:10181800e20f5000040032000b003700904b280004
:101828003d05070008003700904d28003a050700dd
:1018380004c8bf008108070003003700000000004b
:1018480001003700000000000080fa0000000600d8
:101858000400fa00100798001e0090006900b90003
:101868008000780050002000000178001100090075
:101878008280d800810c2000010f40001e007800f3
:101888000080fa00000006000200fa00000f78004d
:101898001e007800104078000043b00080407800b7
:1018a800f0cd2000014878001e00e80010407800c4
:1018b8000043b0008040780000ce20000148780046
:1018c8001e80e800104078000043b0008040780097
:1018d80010ce2000014878000080fa0000000600c1
:1018e8000200fa00000f78001e007800104078000f
:1018f8000043b000804078001e007800014878005e
:101908001e00e8009e00e800914078000143b00006
:10191800014878001e80e8009e80e8009140780029
:101928000143b0000148780010ce200090407800b4
:101938001e0078001040780080cf50000e003a005a
:1019480000ce2000904078001e00e800104078008b
:1019580080cf500008003a00f0cd20009040780079
:101968001e80e8001040780080cf500002003a0046
:1019780010c0b300010037000040eb000080fa00ff
:10198800000006000200fa00004f78001e407800b0
:101998000004e00004003a0016c8bf000040e80058
:1019a80016e8b7000600370016c8bf000040e80078
:1019b80016e8b70017c8bf000040e80017e8b700ee
:1019c8000080fa00000006000000fa0010c0b30012
:1019d80009e8b700f100200000c2b300a30907001e
:1019e800a040800000407800140807000080fa003a
:1019f800000006000400fa002047980031479800cc
:101a0800f3070700f04188002e4090003ae8b7003d
:101a18003e4090003be8b7003d68ef003dc8bf007e
:101a28003ce8b700c8a2a900401680004500de00c7
:101a3800614060000080fb004f00dd00421680001e
:101a4800f1ff270081006100010070004016880046
:101a5800401680004f00de00004078000080fb0048
:101a6800610060004300dd004216800071ff2f0016
:101a78008100610001007000401688000000eb0042
:101a8800000f780029003700f0418000410620004f
:101a9800cf00070030c0b30041020700f0418000ca
:101aa80051002000ca00070030c0b3003c02070004
:101ab800f041800011002000c500070030c0b300cd
:101ac80037020700f041800011002000c000070025
:101ad80020c0b30032020700f0418000110020004e
:101ae800bb00070080c2b30043010700ec010700f8
:101af80080c0b30040010700e901070010c0b3002f
:101b08003d010700f041800031002000b0000700cf
:101b1800e301070060c0b30037010700e0010700d8
:101b2800f0c0b300340107001e0fe8001e00780063
:101b3800e10f5000d4ff34000080fa0000000600d6
:101b48000000fa00f041800000407800d307070049
:101b58000080fa00000006000000fa00d00107002b
:101b680010c0b30024010700f041800031002000bc
:101b7800970007000080fa00000006000000fa0045
:101b8800c7010700e0c0b3001b0107000080fa008e
:101b9800000006000000fa00c1010700c0c0b30041
:101ba800150107000080fa00000006000400fa0092
:101bb80020479800314798003ac8bf000080fb00d2
:101bc800e20f500003003200e40f50000b00320017
:101bd800220037002e4090008000fb003e4090001d
:101be8000004e00002003a000000eb0001003700aa
:101bf80000042000008f40001d0037002e40900098
:101c08000000fb00000f78003e409000e14f5000bc
:101c180003003a00010420001e8f40001400370022
:101c28003e409000e24f500004003a003bc8bf001d
:101c38000080fb001e0f40000d0037003e40900062
:101c4800e34f500009003a003bc8bf000080fb008a
:101c58000004b0001e0f4000050037002e40900021
:101c68000000fb00000f78000100370000000000b2
:101c78008b0107001e0078008040780000c8b30080
:101c880000c07000dc0007003e4090003ce8b70050
:101c98002e4090003de8b7000080fa0000000600e2
:101ca8000200fa00004f78007d0107001e4078000e
:101cb800260107003dc8bf000040e8003de8b70026
:101cc8003ac8bf00e34f500010003a003dc8bf00bb
:101cd800f34f50002f0036003d68ef003cc8bf00ae
:101ce8000040e8003ce8b7003cc8bf00e34f5000a4
:101cf800010036003c68ef003cc8bf008040780017
:101d08003dc8bf00a9ff0700220037003ac8bf003e
:101d1800e24f500012003a00d18320009140780031
:101d280070c2b30080cf50001a0036003d68ef0043
:101d38003cc8bf000040e8003ce8b7003cc8bf0012
:101d4800e14f5000010036003c68ef003cc8bf007e
:101d5800804078003dc8bf0094ff07000d003700a1
:101d68003cc8bf00e14f50000a003a00d183200070
:101d78009140780070c2b30080cf50000100360057
:101d88003d68ef003cc8bf00804078003dc8bf00f8
:101d980086ff07000080fa00000006000200fa0033
:101da800000f7800040037001e007800104078000b
:101db8001e0fe800baff07001e00780010407800e8
:101dc8000004e000f8ff3a000080fa000000060076
:101dd8000400fa00000f7800110798001e00780030
:101de8000040780015070700000000001e0078007a
:101df800004078001b0707009e009000810f5000ec
:101e0800faff39000080fa00000006000200fa001c
:101e1800004f78001e80fb004700de00004078007d
:101e28000080fb00610060004900dd006216800050
:101e3800f1df2f008100610001007000601688004a
:101e48009e00fb00000420000080600000f0a70056
:101e58000000ea000000ea004f00de0000407800c1
:101e68000080fb00610060004800dd006216800011
:101e7800f1ef2f00810061000100700060168800fa
:101e88009e00fb00000220000080600000f0a70018
:101e98000000ea000000ea004f00de000040780081
:101ea8000080fb00610060004700dd0062168000d2
:101eb800f1f72f00810061000100700060168800b2
:101ec8001e00fb007000600000f0a7000000ea00a0
:101ed8000000ea004f00de00004078000080fb00b0
:101ee800610060004600dd0062168000f1fb2f00f3
:101ef8008100610001007000601688000080fa000f
:101f0800000006000200fa00004f78001e00fb00e7
:101f18006800600000f0a7000000ea000000ea0086
:101f28004f00de00004078000080fb006100600088
:101f38004900dd0062168000f1df2f00810061009a
:101f480001007000601688001e00fb00640060003d
:101f580000f0a7000000ea000000ea004f00de00e1
:101f6800004078000080fb00610060004800dd0050
:101f780062168000f1ef2f008100610001007000ff
:101f8800601688001e00fb006200600000f0a700d9
:101f98000000ea000000ea004f00de000040780080
:101fa8000080fb00610060004700dd0062168000d1
:101fb800f1f72f00810061000100700060168800b1
:101fc8001e40780061406000614060006140600030
:101fd8000080fb00610060004600dd0062168000a2
:101fe800f1fb2f008100610001007000601688007d
:101ff8000080fa00000006000200fa00004f780096
:10200800c922a900401680004900de006140600036
:102018000080fb00610060004800dd00421680007f
:10202800f1ef2f0081006100010070004016880068
:10203800401680004800de00614060000080fb0020
:10204800610060004700dd0042168000f1f72f00b4
:102058008100610001007000401688004016800071
:102068004700de00614060000080fb006100600006
:102078004600dd0042168000f1fb2f008100610060
:102088000100700040168800cc62a900cde2a900ca
:10209800cca2a8001e4078005cff0700cca2a800d4
:1020a800cca2a900cca2a900cca2a8001e4078000e
:1020b80094ff0700cca2a800cca2a900c922a800be
:1020c800401680004900de00614060000080fb008f
:1020d800610060004800dd0042168000f1ef2f002b
:1020e80081006100010070004016880040168000e1
:1020f8004800de00614060000080fb006100600075
:102108004700dd0042168000f1f72f0081006100d2
:102118000100700040168800401680004700de006d
:10212800614060000080fb00610060004600dd0047
:1021380042168000f1fb2f00810061000100700051
:10214800401688000080fa00000006000200fa002d
:10215800004f7800c922a900401680004900de001f
:10216800614060000080fb00610060004800dd0005
:1021780042168000f1ef2f0081006100010070001d
:1021880040168800401680004800de00614060006c
:102198000080fb00610060004700dd0042168000ff
:1021a800f1f72f00810061000100700040168800df
:1021b800401680004700de00614060000080fb00a0
:1021c800610060004600dd0042168000f1fb2f0030
:1021d800810061000100700040168800cc62a800f0
:1021e800cde2a900cca2a8001e40780007ff070096
:1021f800cca2a800cca2a900cca2a900cca2a8007d
:102208001e4078003fff0700cca2a800cca2a9007e
:10221800c922a800401680004900de006140600025
:102228000080fb00610060004800dd00421680006d
:10223800f1ef2f0081006100010070004016880056
:10224800401680004800de00614060000080fb000e
:10225800610060004700dd0042168000f1f72f00a2
:10226800810061000100700040168800401680005f
:102278004700de00614060000080fb0061006000f4
:102288004600dd0042168000f1fb2f00810061004e
:1022980001007000401688000080fa000000060067
:1022a8000200fa00c922a800401680004900de009a
:1022b800614060000080fb00610060004800dd00b4
:1022c80042168000f1ef2f008100610001007000cc
:1022d80040168800401680004800de00614060001b
:1022e8000080fb00610060004700dd0042168000ae
:1022f800f1f72f008100610001007000401688008e
:10230800401680004700de00614060000080fb004e
:10231800610060004600dd0042168000f1fb2f00de
:10232800810061000100700040168800cc62a9009d
:10233800cde2a800f041800000407800bf0507000a
:10234800cca2a800cca2a800501680004900de004c
:1023580061406000004f7800cca2a900cca2a9007f
:10236800cca2a800cca2a800cca2a900cca2a9000b
:10237800f041800000407800ba0507000000e00046
:1023880004003a001e4078000004e000ecff3a0028
:1023980001003700000000000080fa00000006007d
:1023a8000200fa00004f7800c922a90040168000f8
:1023b8004900de00614060000080fb0061006000b1
:1023c8004800dd0042168000f1ef2f008100610017
:1023d8000100700040168800401680004800de00aa
:1023e800614060000080fb00610060004700dd0084
:1023f80042168000f1f72f00810061000100700093
:1024080040168800401680004700de0061406000ea
:102418000080fb00610060004600dd00421680007d
:10242800f1fb2f0081006100010070004016880058
:10243800cc62a900cde2a900cca2a800cca2a80039
:102448001e00fb006800600000f0a7000000ea0022
:102458000000ea004f00de00004078000080fb002a
:10246800610060004900dd0062168000f1df2f0086
:102478008100610001007000601688001e00fb00ea
:102488006400600000f0a7000000ea000000ea0015
:102498004f00de00004078000080fb006100600013
:1024a8004800dd0062168000f1ef2f008100610016
:1024b80001007000601688001e00fb0062006000ca
:1024c80000f0a7000000ea000000ea004f00de006c
:1024d800004078000080fb00610060004700dd00dc
:1024e80062168000f1f72f00810061000100700082
:1024f800601688001e4078006140600061406000fe
:10250800614060000080fb00610060004600dd0063
:1025180062168000f1fb2f0081006100010070004d
:1025280060168800cca2a9000080fa00000006000e
:102538000200fa001a68ef00c9a2a8000000eb0028
:10254800000f780005003700708520001e0040004d
:102558008040eb00014878001e0fe800d0152000ed
:102568009e007800808f5000f7ff340040852000df
:102578008040eb0001487800508520008040eb0047
:1025880001487800608520008040eb000148780011
:102598002868ef0028c8bf001be8b7001e68ef00d6
:1025a8002468ef002568ef001f68ef002768ef0038
:1025b8002668ef000000eb00000f78000001200003
:1025c8001041880002050700e04088000080fa00fa
:1025d800000006000000fa001ac8bf000080fb00d7
:1025e800e20f50002b003200e20f500005003c00c3
:1025f8000000e0000a003200e10f50001300320032
:1026080045013700e40f500052003200e40f50003b
:1026180041003500e50f50006c0032003e013700e4
:102628005116800000002200008060000000e000d9
:1026380024013200e040800000407800ff040700d9
:1026480010c0b3001ae8b7003301370051168000f4
:1026580000002200008060000000e0001b013a003a
:10266800e040800000407800fe040700e40f5000be
:1026780002003e001a68ef0027013700e0408000a2
:1026880000407800ed04070020c0b3001ae8b70046
:1026980021013700511680000000220000806000f0
:1026a8000000e00011003a00e0408000004078009f
:1026b800ec040700e90f500006013600e0408000f6
:1026c80000407800e7040700ea0f500003013e00cd
:1026d800e040800000407800d80407002668ef003a
:1026e80030c0b3001ae8b7000b013700511680005c
:1026f80000002200008060000000e000f9003200c5
:10270800e040800000407800cc04070020c0b300ff
:102718001ae8b70000013700501680004d00de00af
:10272800614060008080fb0026c8bf000000fb00fd
:10273800808f5000ed003200501680004d00de0002
:102748006140600026e8b70040c0b3001ae8b7004f
:10275800f1003700501680004d00de006140600037
:102768008080fb0026c8bf000000fb00808f50005f
:10277800e0003200e040800000407800af0407002d
:1027880024c8bf000000fb00000040008040780023
:10279800501680004d00de006140600000c07000ef
:1027a80024e8b700501680004d00de00614060004c
:1027b80026e8b7001fc8bf000040e8001fe8b700c0
:1027c80050c0b3001ae8b700d30037005016800095
:1027d8004d00de00614060008080fb0026c8bf001d
:1027e8000000fb00808f50001b003200e04080009a
:1027f800004078009b040700e60f500016003600e2
:10280800e0408000004078008c04070024c8bf0026
:102818000000fb0000004000804078005016800057
:102828004d00de006140600000c0700024e8b70081
:10283800501680004d00de006140600026e8b700b9
:102848001fc8bf000040e8001fe8b70050c0b30031
:102858001ae8b70013003700501680004d00de005c
:10286800614060008080fb0026c8bf000000fb00bc
:10287800808f50000b003200e0408000004078005c
:1028880078040700e60f500006003e00501680004e
:102898004d00de006140600026e8b70040c0b3008c
:1028a8001ae8b7001fc8bf00e84f50000a003a00f6
:1028b80027c8bf000004e00007003a0024c8bf0092
:1028c80025e8b70010c0b30027e8b7001f68ef007d
:1028d80050c0b3001ae8b7001fc8bf00e84f500047
:1028e80016003a0020c8bf00e24f500013003e0017
:1028f8005182200091407800e0c4b30080cf50009e
:102908000e003a0027c8bf00e14f50000b003a0004
:1029180020c8bf008080fb004382200093417800dc
:102928004285200003f178000040e80020e8b70065
:102938001f68ef0050c0b3001ae8b70020c8bf00f6
:10294800e34f500017003a0028c8bf000004e00019
:1029580014003a0040852000e1fb070028e8b70092
:10296800a04f2800ec00070028c8bf0005fc07009e
:1029780028c8bf000004e0000a003a001f68ef0002
:102988002068ef0000012000104188002568ef0052
:102998002768ef001a68ef00e040800000407800e8
:1029a800260407001fc8bf00e84f500019003a006e
:1029b80020c8bf00e24f50001600360041822000b8
:1029c80091407800d0c3b30080cf5000110032008e
:1029d8005182200091407800e0c4b30080cf5000bd
:1029e8000c003a0027c8bf00e14f500009003a0028
:1029f80010418000800078000000e8001041880045
:102a080024c8bf00990507001f68ef0050c0b30035
:102a18001ae8b7001fc8bf00e84f500008003a0086
:102a28005182200091407800e0c4b30080cf50006c
:102a3800030032001f68ef002768ef001a68ef00f4
:102a48001fc8bf00e84f50002c003a0020c8bf0044
:102a5800e24f50002b003600418220009140780060
:102a6800d0c3b30080cf500028003a005182200024
:102a780091407800e0c4b30080cf500025003a00b0
:102a880010418000800078000040eb0077050700c7
:102a9800cdfb07001f68ef002068ef000001200051
:102aa800104188002568ef002768ef002868ef00cc
:102ab8001a68ef00e040800000407800df0307005c
:102ac8001500370000000000130037000000000068
:102ad80011003700000000000f0037000000000060
:102ae8000d003700000000000b0037000000000058
:102af8000900370000000000070037000000000050
:102b08000500370000000000030037000000000047
:102b180001003700000000000080fa0000000600f5
:102b28000000fa00113a8000f00b200000816000dc
:102b3800600420007105200023742000804978007b
:102b480081497800824978001136800000fe2f0004
:102b5800008060003000b300103688002135800006
:102b680000fe2f00008060000020a00020358800b3
:102b7800113a800000042000010170006004200068
:102b8800710520002374200080497800814978006d
:102b980082497800700620004011880021e2a800d0
:102ba800001180000080a1000090a10000118800a1
:102bb8002062a900001180000010a1000020a100df
:102bc800001188002002a9002342a8003068ef0005
:102bd8009560a8002c68ef002cc8bf002de8b7004e
:102be8002dc8bf002ae8b7002ac8bf002be8b700e5
:102bf8002bc8bf002ee8b7002ec8bf002fe8b700cb
:102c08000080fa00000006000000fa0030c8bf008b
:102c18000000fb00e10f500010003200e10f5000ef
:102c280003003c000000e000060032002b003700e3
:102c3800e20f50000e003200e30f50001500320082
:102c4800260037002fc8bf000004e0002000320033
:102c580010c0b30030e8b70020003700600007005c
:102c68009041880020c0b30030e8b7001b0037004f
:102c780090418000104078000004e000030032001a
:102c880030c0b30030e8b700140037003068ef00f8
:102c98001200370011118000001020000080600031
:102ca8000000e0000c003200904180009040780065
:102cb8008100fb00211188000000e8009041880095
:102cc8002342a80020c0b30030e8b7000300370053
:102cd8000000000001003700000000000080fa003a
:102ce800000006000200fa00000f78000400370018
:102cf8001e007800104078001e0fe800150007003d
:102d08001e007800104078000004e000f8ff3a0048
:102d18000080fa00000006000200fa00000f7800a8
:102d28001e007800190007000080fa000000060065
:102d38000000fa002ec8bf000080fb000080fa00e7
:102d4800000006000000fa004e0007000080fa00ac
:102d5800000006000200fa00004f7800010037006a
:102d68000060fe001111800000102000008060004b
:102d78000000e000faff32001e00fb00201188006e
:102d88002342a8000080fa00000006000200fa00b2
:102d9800000f78002ac8bf008080fb000181400036
:102da800619f2000810041009e0878000040e800f3
:102db8002ae8b700a18220009140780000c8b3003b
:102dc80080cf500001003a002a68ef002fc8bf00ea
:102dd8000040e8002fe8b7000080fa000000060075
:102de8000200fa002cc8bf008080fb00018140006f
:102df800619f200081004100110f78000040e80029
:102e08002ce8b700c18220009140780000c8b300c8
:102e180080cf500001003a002c68ef002fc8bf0097
:102e28000040e9002fe8b7001e0078000080fa0093
:102e3800000006000200fa00004f78002bc8bf000f
:102e48008080fb00629b20009e41780003f178009f
:102e58000040e8002be8b700b182200091407800dc
:102e680000c4b30080cf500001003a002b68ef0087
:102e78002ec8bf000040e8002ee8b7000080fa0026
:102e8800000006000200fa002dc8bf008080fb0089
:102e9800629b200062cf78000040e8002de8b70070
:102ea800d18220009140780000c4b30080cf500048
:102eb80001003a002d68ef002ec8bf000040e9006d
:102ec8002ee8b7001e4078000080fa0000000600d7
:102ed8003600f800809fbe00829fbe00849fbe001f
:102ee800869fbe000000fa008560a90010118000ce
:102ef800620060000000e000010032002222a90008
:102f08003011800000407800caff07000080fa00f6
:102f18004f03be004f02be004f01be004f00be006f
:102f28003600f900004006000000fa00c062a80060
:102f3800c042a8006bc0a8006ba0a8004a68ef00b8
:102f4800a3020700004078004be8b7000080fa00b1
:102f5800000006000000fa004ac8bf000000fb009d
:102f6800e30f500053003200e30f500007003c000d
:102f7800e10f500020003200e10f50002c003c000f
:102f88000000e0000a003200b3003700e50f5000ef
:102f980063003200e50f50005a003500e60f50007c
:102fa8006d003200e70f50008c003200aa00370095
:102fb80010168000680060000000e00005003a007c
:102fc8004bc8bf009d02070010c0b3004ae8b70015
:102fd800a100370010168000640060000000e000c7
:102fe80092003a004bc8bf009402070050c0b300db
:102ff8004ae8b700980037004bc8bf00990207009d
:1030080031062000810f50008a003600101680001b
:10301800680060000000e00003003a0020c0b30030
:103028004ae8b7008c0037004a68ef008a0037008a
:103038002b0407000004e0000d003a009701070088
:103048004ce8b7004cc8bf00ea4f500003003a00f4
:1030580010c0b30095010700050037004cc8bf0039
:103068000040e8004ce8b7004cc8bf008f010700db
:10307800260407000004e0000b003a0044030700a0
:103088004ce8b7004cc8bf000004e00003003a0059
:1030980040c1b30042030700030037004cc8bf001b
:1030a800654050003e03070030c0b3004ae8b7004f
:1030b800690037004bc8bf006a020700f17c200096
:1030c800810f5000060036007f0107000004e00071
:1030d80001003200e70107004bc8bf005702070094
:1030e80010168000680060000000e0005300320005
:1030f80040c0b3004ae8b7004bc8bf004f02070002
:10310800550037004bc8bf005602070031062000a3
:10311800810f50004b0036004a68ef004e00370020
:103128004bc8bf004f02070031062000810f500036
:103138004600360010168000640060000000e000c1
:1031480003003a0060c0b3004ae8b7004200370005
:103158004a68ef0040003700e10307000004e00080
:103168000d003a004d0107004ce8b7004cc8bf00fd
:10317800e14f500003003a00a0c0b3004b01070024
:10318800050037004cc8bf000040e9004ce8b70014
:103198004cc8bf0045010700dc0307000004e0003d
:1031a8000b003a00fa0207004ce8b7004cc8bf0011
:1031b800f44f500003003a000040eb00f80207000b
:1031c800030037004cc8bf0065404000f402070008
:1031d80070c0b3004ae8b7001f0037004bc8bf00f3
:1031e80020020700f17c2000810f50000600360005
:1031f800350107000004e00001003a009d010700c6
:103208004bc8bf000d020700101680006400600064
:103218000000e0000f00320040c0b3004ae8b700e9
:103228004bc8bf00050207000b0037000000000074
:103238000900370000000000070037000000000008
:103248000500370000000000030037000000000000
:1032580001003700000000000080fa0000000600ae
:103268000000fa00101680006800600000f0a70057
:103278000000ea000000ea004f00de00004078008d
:103288000080fa00000006000000fa001016800016
:103298006400600000f0a7000000ea000000ea00f7
:1032a8004f00de00004078000080fa0000000600b1
:1032b8000200fa00c042a900c062a900c082a900a9
:1032c800c442a900c462a900c482a9000000eb009e
:1032d800000f780016003700bd0107008040780015
:1032e80020ce20001e0040000148780050ce20006b
:1032f8001e0040008040eb000148780040cf2000cd
:103308001e0040008040eb0001487800e0ce20001d
:103318001e00400001c3b3000148780010cf200010
:103328001e0040008040eb00014878001e0fe800b6
:103338001e007800e20f5000e7ff34005268ef00eb
:103348000080fa00000006000200fa00000f780072
:1033580050ce20001e004000104078000080fb0086
:10336800e10f50001b003200e10f500003003c0049
:103378000000e000040032006a003700e20f50004d
:10338800340032006700370040cf20001e004000a4
:103398001040780000c0ea00ea40400080ce2000db
:1033a8001e0040000148780020ce20001e0040008a
:1033b80010407800a10107001e0078005b0007009c
:1033c80050ce20001e00400011c0b3000148780014
:1033d800540037001e0078005400070020ce20005b
:1033e8001e004000104078009e0107008000780011
:1033f80080ce20001e004000104078000080fb00b6
:1034080000004000808f50004300390020ce20008b
:103418001e004000104078008801070040cf2000bf
:103428001e004000104078008040e800b0ce200028
:103438001e004000014878001e0078004c0007007c
:1034480050ce20001e00400021c0b3000148780083
:10345800340037001e0078004500070020ce200009
:103468001e004000104078007e01070080007800b0
:10347800b0ce20001e004000104078000080fb0005
:1034880000004000808f500025003900e0ce200069
:103498001e0040009040780040cf20001e004000f1
:1034a8001040780055000700e14f500003003a0033
:1034b80052c8bf000004e00007003a0040cf2000d7
:1034c8001e004000104078008040e80040cf2000f7
:1034d8001e0040000148780040cf20001e00400038
:1034e80010407800e94f50000400340040cf20001d
:1034f8001e0040008040eb00014878001e00780064
:103508000a00070050ce20001e0040008040eb005b
:103518000148780003003700000000000100370070
:10352800000000000080fa00000006000200fa0017
:10353800000f78001e007800e10f500006003200ee
:10354800e20f5000060032000000e00006003a00da
:10355800c442a90004003700c462a9000200370071
:10356800c482a900000000000080fa0000000600e4
:103578000200fa00000f78001e007800e10f5000ea
:1035880006003200e20f5000060032000000e000a2
:1035980006003a00c442a80004003700c462a8002c
:1035a80002003700c482a800000000000080fa0072
:1035b800000006000200fa00000f78001e007800e4
:1035c80090407800e0ce2000014878001e00e80016
:1035d80090407800f0ce2000014878001e80e80076
:1035e8009040780000cf20000148780010c0b30058
:1035f80052e8b7000080fa00000006000200fa0056
:10360800004f7800114798009e00fb001e40900074
:103618000000fb000003b100808f500002003a0058
:1036280010c0b300010037000040eb000080fa0032
:10363800000006000200fa000000eb00000f78000e
:103648000500370080cf20001e0040008040eb00be
:10365800014878001e0fe8001e007800e90f5000ae
:10366800f8ff3400c022a900c422a900d80007002e
:103678000040780040e8b7004368ef0043c8bf0047
:1036880041e8b700d20007000040780042e8b700e0
:103698004428ef000080fa00000006000000fa004d
:1036a80042c8bf000080fa00000006000200fa00cd
:1036b800004f78001e41780021842000824878005d
:1036c8000080fa00000006000000fa0041c8bf00b0
:1036d8000014a2000080fb000000ea004f00de009a
:1036e800004078000080fa00000006000400fa009c
:1036f800100798000000eb00000f78000800370062
:103708001e0078009e0090000080400090407800e5
:1037180080cf20001e004000014878001e0fe800fe
:103728001e007800e90f5000f5ff340010c0b30008
:1037380043e8b7000080fa00000006000000fa0025
:1037480041c8bf000000fb00e10f50001400320028
:10375800e10f500003003c000000e00006003200ca
:1037680042003700e20f50001b003200e30f500008
:10377800270032003d00370043c8bf00e14f50002a
:1037880035003a0010c0b30041e8b70040c8bf0098
:10379800aa00070042c8bf00a8000700330037008e
:1037a80040c8bf00af0007002142800082cf200040
:1037b800e2c078008100fb00810f5000280039002a
:1037c80040c8bf009d000700c422a80020c0b30065
:1037d80041e8b7002500370040c8bf00a100070036
:1037e8002142800082cf2000e2c078008100fb00e7
:1037f800810f50001c00390040c8bf008f0007002f
:10380800c422a90030c0b30041e8b7001700370050
:1038180042c8bf0093000700713e2000810f50008e
:103828000900360042c8bf0084000700204280001b
:103838000000e8002042880020428000e30f50008a
:10384800010034004428ef0010c0b30041e8b7007d
:1038580000000000050037000000000003003700ea
:103868000000000001003700000000000080fa009e
:10387800000006000000fa0041c8bf00e24f5000f7
:1038880002003a004168ef000300370020c0b3008f
:1038980041e8b700c422a90041c8bf000080fb006e
:1038a8000000e9004f00de00004078000080fa00c8
:1038b800000006000000fa000080fa000000060080
:1038c800809fbe00821f78000000fa008460a90073
:1038d800304280000000e800304288003142800019
:1038e800f0522700808f50001d0036004828ef0056
:1038f80017003700404280004200dd008080e80069
:1039080060c320000080400010407800e14f500064
:103918000c003a0040428000414280004209dd002c
:1039280061c320008100410011017800314280000c
:10393800810051004201dd0060c320000000410009
:1039480001087800404280000000e80040428800fa
:1039580040428000f80f5000e6ff34004628ef0090
:103968000080fa004f0178004f00be0000400600ba
:103978000200fa000040eb00004f78000700370013
:103988001e80fb00c200dd0080c3200000804000d4
:103998008040eb00014878001e4fe8001e40780088
:1039a800f84f5000f6ff36004628ef0004a1a900a2
:1039b8000481a800007d20001008880005e1a80007
:1039c8008460a9009460a8000080fa000000060046
:1039d8000200fa000040eb00004f780006003700b4
:1039e8001e4fe8001e407800f94f500002003a00d0
:1039f8000080eb000f0037001e80fb004200dd0056
:103a08008080e80060c320000080400010407800fb
:103a1800e14f5000f2ff32001e80fb00c200dd00c3
:103a280080c320000080400011c0b3000148780026
:103a38001e80fb000080fa00000006000200fa0069
:103a4800004f78001e80fb00314280004201dd00fb
:103a580060c3200000004100010878000080fa00df
:103a6800000006000400fa00204798003042800059
:103a7800000f78009e0078002e4090000080fb0028
:103a88004201dd0060c32000000041001000780002
:103a9800008050000080fa00000006000200fa00d2
:103aa800004f78001e80fb00c200dd0080c32000ac
:103ab800008040008040eb00014878000080fa0058
:103ac800000006000000fa000080fa00000006006e
:103ad8000000fa00c082a900c482a900bcff070048
:103ae8000040780034e8b7003568ef003668ef002a
:103af8003828ef000080fa00000006000000fa00f5
:103b080035c8bf000080fb00e10f500017003200ed
:103b1800e10f500003003c000000e0000600320006
:103b280067003700e20f50002c003200e30f50000e
:103b3800370032006200370034c8bf00c9ff0700f1
:103b480061832000914078008180fb00810f500044
:103b58004c00390034c8bf00b8ff070010c0b300dc
:103b680035e8b700c482a9005500370034c8bf0043
:103b7800bcff070061832000914078008180fb0032
:103b8800f4801000810f50004000390034c8bf0095
:103b9800aaff07003568ef00c482a800c041800072
:103ba8000000e800c0418800c0418000e40f5000d8
:103bb80038003a0036c8bf000040e80036e8b700d1
:103bc8003828ef0036c8bf00f44f500033003a00e1
:103bd80020c0b30035e8b7003900370034c8bf004b
:103be800a0ff070061832000914078008180fb00de
:103bf800810f50002b00390034c8bf008fff070029
:103c080030c0b30035e8b700c482a9002c003700e3
:103c180034c8bf0093ff07006183200091407800fb
:103c28008180fb00f4801000810f50001f003900d4
:103c380034c8bf0081ff070020c0b30035e8b700d3
:103c4800c482a800c04180000000e800c04188008c
:103c5800c0418000e40f500016003a0036c8bf008b
:103c68000040e90036e8b7003828ef0036c8bf0042
:103c78000004e00011003a003568ef003668ef00f4
:103c88000f003700000000000d00370000000000a2
:103c98000b0037000000000009003700000000009a
:103ca8000700370000000000050037000000000092
:103cb800030037000000000001003700000000008a
:103cc8000080fa00000006000000fa00c9c2a9003e
:103cd800cdc2a9004e68ef003dff07000040780004
:103ce8004fe8b700a0c0b30050e8b7000080fa0062
:103cf800000006000000fa004ec8bf000080fb006c
:103d08000000e00003003200e10f50000e00320016
:103d18001d0037004fc8bf0052ff07000185200073
:103d2800914078008180fb00810f5000130039001a
:103d38004fc8bf0041ff070010c0b3004ee8b700ee
:103d4800cdc2a900100037004fc8bf0045ff0700cb
:103d580001852000914078008180fb00f4801000ec
:103d6800810f5000070039004fc8bf0033ff07001c
:103d78004e68ef00cdc2a800030037000000000025
:103d880001003700000000000080fa000000060073
:103d98000000fa0050c8bf000080fa0000000600ca
:103da8000200fa00004f78001e40780050e8b70083
:103db8000080fa00000006000000fa00c002a80017
:103dc80021a3a8002103a900001980004800de00f3
:103dd800614060000080fb00610060004900dd0078
:103de80002198000f1df2f008100610001007000de
:103df8000019880020e3a800001980004700de00b1
:103e0800614060000080fb00610060004600dd004a
:103e180002198000f1fb2f00810061000100700091
:103e280000198800001980004600de00614060002b
:103e38000080fb00610060004500dd000219800081
:103e4800f1fd2f0081006100010070000019880059
:103e58001019800000d0a10000e0a10000f0a1002e
:103e6800101988002343a9002223a800001020006d
:103e7800201988002823ef001000200080198800ee
:103e880021e3a8002023a8002043a8000080fa000e
:103e9800000006000000fa00001880000080fa0008
:043ea8000000060010
:020000040000fa
:103eac00360c000064000000000000004608000012
:103ebc0004000000000000003408000006000000b0
:103ecc00000000003a08000006000000000000009e
:103edc00f80c00000a000000000000004008000080
:103eec0006000000000000004a080000040000006a
:103efc00000000004e08000004000000000000005c
:103f0c00b609000040010000000000002a08000073
:103f1c000a00000000000000020d00000a00000072
:103f2c00020000000302010002000000000000007b
:103f3c00000000009a0c0000480000000000000087
:103f4c00000800001a00000000000000e20c000055
:103f5c0016000000000000005208000002000000e3
:103f6c000000000054080000620100000000000086
:103f7c001a0800001000000000000000f60a000003
:0c3f8c00400100000000000000000000e8
:020000040000fa
:103f98000000fa004427ef0040a7a9000080fa00bb
:103fa800000006000000fa00f9ff070070fe070095
:103fb800bffc070001c1b30020c0b3008df60700a5
:103fc8009cfd07003d0007007bff07003eff070040
:103fd800d3fa0700e0f60700eef607008040eb0092
:103fe8000040eb00f1f60700805028006bf707004f
:103ff80086f40700edf207004df907000c000700f2
:104008000000eb00d0fc070010002000cefc0700e9
:1040180020002000ccfc0700abf40700c7fd070018
:1040280012f30700f8fa07006af90700f4ff3700ef
:104038000200fa000000eb00000f780005003700ce
:1040480060af20001e00400001c2b30001487800a4
:104058001e0fe800f01320009e007800808f5000ab
:10406800f7ff34000080fa00000006000400fa00a0
:10407800004f78001107980061af20001e009000e3
:10408800008040001e4878000080fa00000006000a
:104098000200fa00000f780060af20001e00400008
:1040a800104078000080fa00000006000000fa00c6
:1040b80060af20000080fa00000006000000fa004f
:1040c800c9a2a800c982a8002d63a8002d83a80052
:1040d80069a0a80069c0a8000080fa0000000600d6
:1040e8000000fa00511680000000210000806000e6
:1040f80000f0a7000000ea000000ea004f00de0020
:10410800004078000080fa00000006000000fa0075
:1041180051168000000022000080600000f0a70017
:104128000000ea000000ea004f00de0000407800ce
:084138000080fa0000000600ff
:020000040000fa
:04aff8008b69000061
:020000040000fa
:04affc003b3f0000d7
:00000001FF
