:020000040000fa
:080000000002040000000000f2
:020000040000fa
:100008009a0200009a0200009a0200009a02000078
:100018009a0200009a0200009a0200009a02000068
:100028009a0200009a0200009a0200006618000076
:100038009a0200009a0200009a0200009a02000048
:100048009a0200009a0200009a0200006e13000053
:100058009a0200009a0200009a0200009a02000028
:100068009a0200009a0200009a0200009a02000018
:100078009a0200009a0200009a0200009a02000008
:100088009a0200009a0200009a0200009a020000f8
:100098009a0200009a0200009a0200009a020000e8
:1000a8009a0200009a0200009a0200009a020000d8
:1000b8009a0200009a0200009a0200009a020000c8
:1000c8009a0200009a0200009a0200009a020000b8
:1000d8009a0200009a0200009a0200009a020000a8
:1000e8009a0200009a0200009a0200009a02000098
:1000f8009a0200009a0200009a0200009a02000088
:100108009a0200009a0200009a0200009a02000077
:100118009a0200009a0200009a0200009a02000067
:100128009a0200009a0200009a0200009a02000057
:100138009a0200009a0200009a0200009a02000047
:100148009a0200009a0200009a0200009a02000037
:100158009a0200009a0200009a0200009a02000027
:100168009a0200009a0200009a0200009a02000017
:100178009a0200009a0200009a0200009a02000007
:100188009a0200009a0200009a0200009a020000f7
:100198009a0200009a0200009a0200009a020000e7
:1001a8009a0200009a0200009a0200009a020000d7
:1001b8009a0200009a0200009a0200009a020000c7
:1001c8009a0200009a0200009a0200009a020000b7
:1001d8009a0200009a0200009a0200009a020000a7
:1001e8009a0200009a0200009a0200009a02000097
:0801f8009a0200009a020000c7
:020000040000fa
:100208009a0200009a0200009a0200009a02000076
:100218009a0200009a0200009a0200009a02000066
:100228009a0200009a0200009a0200006618000074
:100238009a0200009a0200009a0200009a02000046
:100248009a0200009a0200009a0200006e13000051
:100258009a0200009a0200009a0200009a02000026
:100268009a0200009a0200009a0200009a02000016
:100278009a0200009a0200009a0200009a02000006
:100288009a0200009a0200009a0200009a020000f6
:100298009a0200009a0200009a0200009a020000e6
:1002a8009a0200009a0200009a0200009a020000d6
:1002b8009a0200009a0200009a0200009a020000c6
:1002c8009a0200009a0200009a0200009a020000b6
:1002d8009a0200009a0200009a0200009a020000a6
:1002e8009a0200009a0200009a0200009a02000096
:1002f8009a0200009a0200009a0200009a02000086
:100308009a0200009a0200009a0200009a02000075
:100318009a0200009a0200009a0200009a02000065
:100328009a0200009a0200009a0200009a02000055
:100338009a0200009a0200009a0200009a02000045
:100348009a0200009a0200009a0200009a02000035
:100358009a0200009a0200009a0200009a02000025
:100368009a0200009a0200009a0200009a02000015
:100378009a0200009a0200009a0200009a02000005
:100388009a0200009a0200009a0200009a020000f5
:100398009a0200009a0200009a0200009a020000e5
:1003a8009a0200009a0200009a0200009a020000d5
:1003b8009a0200009a0200009a0200009a020000c5
:1003c8009a0200009a0200009a0200009a020000b5
:1003d8009a0200009a0200009a0200009a020000a5
:1003e8009a0200009a0200009a0200009a02000095
:0803f8009a0200009a020000c5
:020000040000fa
:100400006fb820000e7f22000e018800000000005f
:10041000000020000000e000020032000001200087
:10042000200288000c00070080c22100010020008b
:1004300011000700000020000000e0000200320070
:100440000000020000000000a21c020000000000ea
:100450000040da000000fe004440a900002c20000b
:100460000000e0000300320000002000a00188002e
:100470004440a80000000600910188008000780038
:100480000000eb0015003700e280400032a0b4000d
:100490009101ba00e280400032a0b4009102ba009b
:1004a000e280400032a0b4000002eb00472bde00e7
:1004b000f507b200602ce10004003a000059eb009f
:1004c0008301e900fdff3e00040037006128e100e0
:1004d000010032000082eb00040007001101ba00a5
:1004e0000200e000e8ff3a00000006003159ba00bf
:1004f0008301e9000c0032002159ba008301e900b0
:10050000080032000400e00003003a00e2804000ee
:1005100032a0b400f5ff370011d9ba008301e90019
:10052000faff3a008100e800e180400032a0b40008
:0c053000000006000040da000000fe00a1
:020000040000fa
:10053c005761000069740000696e000067200000bc
:10054c00666f00007220000049440000202000006b
:10055c000057000061690000746900006e670000bc
:10056c00206d00006573000073610000676500007a
:10057c00200000000d0a0000426500006e760000ad
:10058c00696e00006775000074200000616c00004b
:10059c0020570000616c00006b690000652d0000a5
:1005ac00546500007874000069650000210d00009e
:1005bc000a000000000d00000a00000000310000dd
:1005cc002d4900006e740000726f0000647500000d
:1005dc0069720000207500006e2000006e6f000034
:1005ec007520000069640000656e000074690000ed
:1005fc006669000063610000646f0000720d00000a
:10060c000a000000003200002d4300006f6e000055
:10061c00737500006c7400006172000020490000ca
:10062c00442000006163000074750000616c0000e0
:10063c000d0a000000000000332d0000436f000085
:10064c006e730000756c0000746100007220000075
:10065c0074720000616d0000657300002069000079
:10066c00646500006e740000696600006963000038
:10067c0061640000657300000d0a000000000000ba
:10068c00342d0000507200006f62000061200000e9
:10069c0064650000206100006c740000617600004d
:1006ac00657500000d0a000000000000352d0000eb
:1006bc005669000073750000616c000069740000dd
:1006cc007a610000722000006c270000756c00003d
:1006dc00746900006d2000006d69000073730000e8
:1006ec006174000067650000207200006562000004
:1006fc00757400000d0a000000000000362d00008b
:10070c005265000073650000740d00000a0a0000b9
:10071c00000000005065000072200000736f0000a4
:10072c0072740000697200002064000065200000f3
:10073c0071750000616c000073650000766f00003d
:10074c006c2000006f700000636900006f2c0000cb
:10075c0020700000726500006d2000004553000001
:10076c00430d00000a000000000a00000d500000bc
:10077c006c61000063610000204c000053360000e7
:10078c00392e0000205300006973000074650000ce
:10079c006d6500007320000044690000676900006b
:1007ac00746100006c73000020690000207500006b
:1007bc00507200006f6300006573000073610000ed
:1007cc00646f0000727300000d0a0000000000004e
:1007dc00764300006c69000020760000312e00008a
:1007ec00302e00000d0a0000000000000a2000005e
:1007fc00477200006163000069650000732000000f
:10080c00706500006c2000006e6f00007520000009
:10081c0049440000210d00000a000000000d0000fa
:10082c000a0a0000000000000a4500007272000075
:10083c006f720000206e00006f20000068690000dd
:10084c002068000061200000494400000d0a0000ef
:10085c000000000050420000313a0000200000006f
:10086c00000a00000d4900006e740000726f000059
:10087c006475000065690000782000007661000056
:10088c006c6f00007220000064650000206c00009a
:10089c00612000006e6f000076610000206900008e
:1008ac006e740000656e00007369000074610000d6
:1008bc0074200000283000002d340000293a00007c
:1008cc000a0d0000000a00000d50000072650000c7
:1008dc006d2000004a2000007065000072200000ae
:1008ec00656e0000636500006e64000072650000b8
:1008fc00206f000020610000706100006761000043
:10090c00722000006c270000616c00007461000014
:10091c0076650000752000000a0d0000000d000037
:10092c00416c0000746100007665000075200000c9
:10093c00656e00006365000073210000200000005c
:10094c00000d0000416c0000746100007665000031
:10095c007520000061700000616700006174000088
:10096c00210000000009000009530000573200006c
:10097c003a2000000000000009090000504200006d
:10098c00323a000020000000000d00003030000062
:10099c0030000000000d0000303200003500000077
:1009ac00000d00003035000030000000000d00008c
:1009bc003037000035000000000d00003130000021
:1009cc0030000000004900006e74000072690000e5
:1009dc00647500006569000078200000656c0000fb
:1009ec00204900004420000064650000206c0000d9
:1009fc0061200000706c000061630000610d00005c
:100a0c000a000000000a00004c27000049440000c6
:100a1c002061000063740000756100006c20000010
:100a2c0064650000206c000061200000706c000008
:100a3c006163000061200000657300003a20000033
:100a4c000d0a0000000000000a450000535400008d
:100a5c0041540000203100000d0a0000000000008d
:100a6c000a4500005354000041540000203200009d
:100a7c000d0a0000000000000a540000494e00005e
:100a8c004320000054520000414d0000410d000075
:100a9c000a00000000000000426f00006f740000ac
:100aac00696e0000672e00002e2e00000000000072
:020000040000fa
:100abc000200fa00000f78009e007800803e2000b3
:100acc0000017800110009008200d80080407800f5
:100adc0040b120000148780040b12000104078005f
:100aec008000fb0080c12f000088b9000000780056
:100afc001e0f40009e007800400620000001780088
:100b0c00110009008200d8008040780050b120000c
:100b1c000148780050b12000104078008000fb00a4
:100b2c00c0f92f000088b900000078001e0f4000ab
:100b3c009e007800a0002000000178001100090040
:100b4c008200d8008040780060b120000148780015
:100b5c0060b12000104078008000fb0060ff2f0087
:100b6c000088b900000078001e0f40001e007800bd
:100b7c00004078000043b0008040780070b1200045
:100b8c000148780080b120008040eb0001487800db
:100b9c0060b12000104078000043b0008040780025
:100bac0060b120000148780050b12000104078005e
:100bbc000043b0008040780050b12000014878001c
:100bcc0040b12000104078000043b0008040780015
:100bdc0040b12000014878000080fa0000000600b7
:100bec000000fa00002c28004b060700102e2800ed
:100bfc0049060700502e28004706070090302800b1
:100c0c004506070020322800430607006034280000
:100c1c0041060700c03528003f0607004038280071
:100c2c003d060700102e28003b060700003928005f
:100c3c00390607000080fa00000006000200fa00e6
:100c4c000000eb00000f78000500370060b42000b6
:100c5c001e00400001c3b300014878001e0fe800dd
:100c6c001e007800e20f5000f8ff34002000200036
:100c7c0010408800b03b280027060700e03e280003
:100c8c0025060700d6ff07000028ef0050090700d3
:100c9c000040780004e8b7000568ef001028ef006a
:100cac000868ef000080fa00000006000000fa005f
:100cbc00881f780005c8bf000000fb00cf80de0055
:100ccc00d203200003002000820f5000838f5800b5
:100cdc0080013e00006001003d00370067003700d6
:100cec008c003700a8003700c8003700ca00370056
:100cfc00ce003700cf003700660037007501370093
:100d0c00740137007301370072013700710137002d
:100d1c00700137006f0137006e0137006d0137002d
:100d2c006c0137006b0137006a013700ce003700c9
:100d3c00680137006701370066013700650137002d
:100d4c00640137006301370062013700610137002d
:100d5c0060013700cc0037005e0137005d013700c1
:100d6c005c0137005b0137005a013700590137002d
:100d7c00580137005701370056013700550137002d
:100d8c00540137005301370052013700510137002d
:100d9c00500137004f0137004e0137004d0137002d
:100dac004c013700c00037004a01370049013700b9
:100dbc00480137004701370046013700450137002d
:100dcc00440137004301370042013700fd00370072
:100ddc00d70507000000e00018003200d905070015
:100dec0006e8b700618020009140780060c3b30032
:100dfc0080cf50000d003c006180200091407800b5
:100e0c0000c3b30080cf50000800340006c8bf00f8
:100e1c008040780000cdb30000c0400005e8b7006a
:100e2c0005c8bf004802070004003700d0c0b3005b
:100e3c00c805070006c8bf00c605070004c8bf00e8
:100e4c0008090700813e2000810f50001001360078
:100e5c0004c8bf00f9080700004080000000e8004b
:100e6c00004088000140800000712200808f5000fb
:100e7c0009013a000028ef0016013700ac05070005
:100e8c000000e0000601320080c0b30005e8b700a6
:100e9c001001370018408000aa05070061b420003b
:100eac0080707c001040800061b4200061407800ac
:100ebc00fb4f500003003a0049ff07000568ef00a4
:100ecc0004013700104080000000e00006003400f0
:100edc0010c0b30005e8b700104080000000e90026
:100eec0010408800fb003700c03f28008a0507002f
:100efc003bff07000568ef00200020001040880031
:100f0c0010c0b30008e8b70010c0b30007e8b70082
:100f1c00f000370004c8bf00d208070021032000ee
:100f2c00810f5000e000360007c8bf00e14f5000b1
:100f3c0010003a00a0c0b30086050700b0b5200031
:100f4c001040780083050700a0b520001040780001
:100f5c008005070090b52000104078007d05070043
:100f6c00504128006c0507001dff07000568ef00c5
:100f7c00d8003700a04128006705070018ff0700bc
:100f8c000568ef00d300370004c8bf00b5080700a0
:100f9c00813e2000810f50001300360004c8bf00b2
:100fac00a6080700004080000000e8000040880010
:100fbc000140800000712200808f500001003a0037
:100fcc000028ef00d0c0b3006205070000432800e2
:100fdc0051050700a20607000043b0005d0507009d
:100fec00f0c1b30005e8b700510507000000e000b0
:100ffc00af00320053050700fb4f5000ae003a0023
:10100c00f7fe07000568ef00b2003700c0b72000fc
:10101c00b6070700af003700704328003e050700f5
:10102c0030c3b30005e8b700aa0037000000fe008b
:10103c00a80037009046280037050700a2070700d4
:10104c000004e0000300320050492800320507007c
:10105c0002003700704a28002f050700d0c3b300e8
:10106c0005e8b7009b003700904b28002a050700c5
:10107c00670a07000043b0003605070020c0b30024
:10108c0005e8b70093003700204c28002205070024
:10109c007d0607000043b0002e05070030c0b300ea
:1010ac0005e8b7008b00370004c8bf006d080700c7
:1010bc00813e2000810f50000a00360004c8bf009a
:1010cc005e080700004080000000e8000040880037
:1010dc000140800000712200808f500001003a0016
:1010ec000028ef00120507000000e0007400320039
:1010fc00140507000000fb0011032000810f5000b5
:10110c001b00320011032000810f500006003c0030
:10111c00fb0f50000e00320001032000810f500025
:10112c000e0032006b00370031032000810f50009d
:10113c001900320031032000810f500011003500de
:10114c0041032000810f500018003200610037006d
:10115c00a3fe07000568ef0019003700b04c28000b
:10116c00ed0407000040eb00750907001400370080
:10117c00104d2800e804070050c0b30070090700a8
:10118c000f003700704d2800e3040700a0c0b30027
:10119c006b0907000a003700d04d2800de04070059
:1011ac00f0c0b3006609070005003700304e280078
:1011bc00d904070040c1b30061090700000000001a
:1011cc004400370004c8bf0026080700813e2000f9
:1011dc00810f50000a00360004c8bf001708070032
:1011ec00004080000000e8000040880001408000c2
:1011fc0000712200808f500001003a000028ef009f
:10120c00cb0407000000e0002f003200cd040700e3
:10121c000000fb00a1042000810f500008003200e8
:10122c00a1062000810f50000e003200fb0f500071
:10123c0027003a006afe07000568ef00120037002d
:10124c008c0707000004e00003003200504928001e
:10125c00b10407000c003700704a2800ae040700e8
:10126c0009003700830707000004e0000300320088
:10127c0050492800a804070003003700704a2800d2
:10128c00a50407000000000000000000110037005a
:10129c00000000000f003700000000000d003700b8
:1012ac00000000000b0037000000000009003700b0
:1012bc0000000000070037000000000005003700a8
:1012cc0000000000030037000000000001003700a0
:1012dc00000000004f0478000080fa0000000600b7
:1012ec000200fa00ba070700004078000ae8b700cd
:1012fc000b68ef00940107000000eb00000f780072
:10130c000500370090b520001e00400001c3b3005b
:10131c00014878001e0fe8001e007800e20f500014
:10132c00f8ff340090b4200081c5b3000148780068
:10133c00a0b42000f1c2b30001487800b0b4200082
:10134c0091c5b30001487800c0b4200001c2b300bd
:10135c0001487800d0b4200001c2b30001487800e5
:10136c00e0b4200001c2b30001487800f0b42000c2
:10137c0001c2b3000148780000b5200001c2b300df
:10138c000148780010b5200001c2b3000148780074
:10139c0020b5200001c2b3000148780030b5200010
:1013ac0091c4b3000148780040b5200041c4b3009b
:1013bc000148780050b52000a1c3b3000148780063
:1013cc000080fa00000006000000fa0009c8bf0007
:1013dc000000fb00e20f500099003200e20f5000b9
:1013ec0005003c000000e0000a003200e10f500054
:1013fc004b003200d2003700e40f5000a300320043
:10140c00e40f500096003500e50f5000af0032009d
:10141c00cb00370007c8bf00e14f5000200032005e
:10142c000dc8bf008080fb00e2292800e2c07800d4
:10143c000040e8000de8b700014078009401070077
:10144c000dc8bf00f04f500001003a000d68ef00ce
:10145c00c18020009140780010c0b300f0cf500044
:10146c0001003e000040eb008140e8008141780023
:10147c00c2802000034978000004e000a70032007d
:10148c0010c0b30009e8b7000ac8bf006b0707001b
:10149c0011c0b3000040eb0040010700a80037006a
:1014ac000dc8bf008080fb00f22a2800e2c0780043
:1014bc000040e8000de8b700014078007401070017
:1014cc000dc8bf00f04f500001003a000d68ef004e
:1014dc00c18020009140780010c0b300f0cf5000c4
:1014ec0001003e000040eb008140e80081417800a3
:1014fc00c2802000034978000004e000890032001b
:10150c0010c0b30009e8b7000ac8bf004b070700ba
:10151c0011c0b3000040eb00200107008800370029
:10152c0008c8bf00e14f50002100320007c8bf00bf
:10153c000004e00030003a0090b520001040780024
:10154c008040e80090b5200001487800a0b520004c
:10155c00104078008040e800a0b5200001487800d9
:10156c00b0b52000104078008040e800b0b52000f5
:10157c000148780090b520009040780090c3b300eb
:10158c0080cf50001c00340090b5200001c3b30084
:10159c0001487800a0b5200001c3b30001487800d1
:1015ac00b0b5200001c3b300014878001200370029
:1015bc0008c8bf00e14f50000f003a0060b4200093
:1015cc009040780090b520000148780070b420005d
:1015dc0090407800a0b520000148780080b420002d
:1015ec0090407800b0b520000148780090b52000fc
:1015fc00f00507000868ef00b0b520001040780037
:10160c008040780060b5200001487800a0b520002b
:10161c00104078008040780070b5200001487800b8
:10162c0090b52000104078008040780080b52000f4
:10163c000148780020c0b30009e8b700400037002b
:10164c007c0807007040880070408000570007003d
:10165c008040880030c0b30009e8b700380037007c
:10166c000ac8bf00ff06070081408000810f5000b0
:10167c002e0036000ac8bf00f00607000c68ef0009
:10168c0040c0b30009e8b7002d0037000cc8bf00fc
:10169c008080fb0092b42000e2c078000040e8009b
:1016ac000ce8b70001407800f90007000cc8bf0037
:1016bc00f04f50001f00360050c0b30009e8b700cf
:1016cc000ac8bf00dd0607001d0037000ac8bf00ae
:1016dc00e4060700910f2000810f50001700360020
:1016ec000bc8bf000040e8000be8b7000bc8bf00f8
:1016fc00f04f500001003a000b68ef000968ef0052
:10170c008040eb000040eb00a40007000bc8bf00ba
:10171c000de8b7000c68ef0009003700000000006e
:10172c000700370000000000050037000000000033
:10173c00030037000000000001003700000000002b
:10174c000080fa00000006000200fa00004f78004a
:10175c001e00fb00e30f50000f003200e30f50009f
:10176c000f003c00e10f500003003200e20f50006c
:10177c00040032000b003700904e2800660307006f
:10178c0008003700905028006303070004c8bf000e
:10179c00aa06070003003700000000000100370014
:1017ac00000000000080fa00000006000400fa00af
:1017bc00100798001e0090006900b90080007800a6
:1017cc005000200000017800110009008280d80030
:1017dc00810c2000010f40001e0078000080fa00f0
:1017ec00000006000400fa002047980031479800da
:1017fc0077060700304188002e40900022e8b700a1
:10180c003e40900023e8b7002568ef0025c8bf00d4
:10181c0024e8b700c8a2a900401680004500de00ed
:10182c00614060000080fb004f00dd00421680002c
:10183c00f1ff270081006100010070004016880054
:10184c00401680004f00de00004078000080fb0056
:10185c00610060004300dd004216800071ff2f0024
:10186c008100610001007000401688000000eb0050
:10187c00000f78002900370030418000410620001d
:10188c00cf00070030c0b300410207003041800098
:10189c0051002000ca00070030c0b3003c02070012
:1018ac003041800011002000c500070030c0b3009b
:1018bc00370207003041800011002000c0000700f3
:1018cc0020c0b3003202070030418000110020001c
:1018dc00bb00070080c2b30043010700ec01070006
:1018ec0080c0b30040010700e901070010c0b3003d
:1018fc003d0107003041800031002000b00007009e
:10190c00e301070060c0b30037010700e0010700e6
:10191c00f0c0b300340107001e0fe8001e00780071
:10192c00e10f5000d4ff34000080fa0000000600e4
:10193c000000fa0030418000004078005706070094
:10194c000080fa00000006000000fa00d001070039
:10195c0010c0b3002401070030418000310020008a
:10196c00970007000080fa00000006000000fa0053
:10197c00c7010700e0c0b3001b0107000080fa009c
:10198c00000006000000fa00c1010700c0c0b3004f
:10199c00150107000080fa00000006000400fa00a0
:1019ac00204798003147980022c8bf000080fb00f8
:1019bc00e20f500003003200e40f50000b00320025
:1019cc00220037002e4090008000fb003e4090002b
:1019dc000004e00002003a000000eb0001003700b8
:1019ec0000042000008f40001d0037002e409000a6
:1019fc000000fb00000f78003e409000e14f5000cb
:101a0c0003003a00010420001e8f40001400370030
:101a1c003e409000e24f500004003a0023c8bf0043
:101a2c000080fb001e0f40000d0037003e40900070
:101a3c00e34f500009003a0023c8bf000080fb00b0
:101a4c000004b0001e0f4000050037002e4090002f
:101a5c000000fb00000f78000100370000000000c0
:101a6c008b0107001e0078008040780000c8b3008e
:101a7c0000c07000dc0007003e40900024e8b70076
:101a8c002e40900025e8b7000080fa000000060008
:101a9c000200fa00004f78007d0107001e4078001c
:101aac002601070025c8bf000040e80025e8b70064
:101abc0022c8bf00e34f500010003a0025c8bf00f9
:101acc00f34f50002f0036002568ef0024c8bf00ec
:101adc000040e80024e8b70024c8bf00e34f5000e2
:101aec00010036002468ef0024c8bf008040780055
:101afc0025c8bf00a9ff07002200370022c8bf007d
:101b0c00e24f500012003a005182200091407800c0
:101b1c0070c2b30080cf50001a0036002568ef0069
:101b2c0024c8bf000040e80024e8b70024c8bf0068
:101b3c00e14f5000010036002468ef0024c8bf00bc
:101b4c008040780025c8bf0094ff07000d003700c7
:101b5c0024c8bf00e14f50000a003a005182200017
:101b6c009140780070c2b30080cf50000100360065
:101b7c002568ef0024c8bf008040780025c8bf004e
:101b8c0086ff07000080fa00000006000200fa0041
:101b9c00000f7800040037001e0078001040780019
:101bac001e0fe800baff07001e00780010407800f6
:101bbc000004e000f8ff3a000080fa000000060084
:101bcc000400fa00000f7800110798001e0078003e
:101bdc000040780099050700000000001e00780006
:101bec00004078009f0507009e009000810f500078
:101bfc00faff39000080fa00000006000200fa002b
:101c0c00004f78001e80fb004700de00004078008b
:101c1c000080fb00610060004900dd00621680005e
:101c2c00f1df2f0081006100010070006016880058
:101c3c009e00fb00000420000080600000f0a70064
:101c4c000000ea000000ea004f00de0000407800cf
:101c5c000080fb00610060004800dd00621680001f
:101c6c00f1ef2f0081006100010070006016880008
:101c7c009e00fb00000220000080600000f0a70026
:101c8c000000ea000000ea004f00de00004078008f
:101c9c000080fb00610060004700dd0062168000e0
:101cac00f1f72f00810061000100700060168800c0
:101cbc001e00fb007000600000f0a7000000ea00ae
:101ccc000000ea004f00de00004078000080fb00be
:101cdc00610060004600dd0062168000f1fb2f0001
:101cec008100610001007000601688000080fa001d
:101cfc00000006000200fa00004f78001e00fb00f6
:101d0c006800600000f0a7000000ea000000ea0094
:101d1c004f00de00004078000080fb006100600096
:101d2c004900dd0062168000f1df2f0081006100a8
:101d3c0001007000601688001e00fb00640060004b
:101d4c0000f0a7000000ea000000ea004f00de00ef
:101d5c00004078000080fb00610060004800dd005e
:101d6c0062168000f1ef2f0081006100010070000d
:101d7c00601688001e00fb006200600000f0a700e7
:101d8c000000ea000000ea004f00de00004078008e
:101d9c000080fb00610060004700dd0062168000df
:101dac00f1f72f00810061000100700060168800bf
:101dbc001e4078006140600061406000614060003e
:101dcc000080fb00610060004600dd0062168000b0
:101ddc00f1fb2f008100610001007000601688008b
:101dec000080fa00000006000200fa00004f7800a4
:101dfc00c922a900401680004900de006140600045
:101e0c000080fb00610060004800dd00421680008d
:101e1c00f1ef2f0081006100010070004016880076
:101e2c00401680004800de00614060000080fb002e
:101e3c00610060004700dd0042168000f1f72f00c2
:101e4c00810061000100700040168800401680007f
:101e5c004700de00614060000080fb006100600014
:101e6c004600dd0042168000f1fb2f00810061006e
:101e7c000100700040168800cc62a900cde2a900d8
:101e8c00cca2a8001e4078005cff0700cca2a800e2
:101e9c00cca2a900cca2a900cca2a8001e4078001c
:101eac0094ff0700cca2a800cca2a900c922a800cc
:101ebc00401680004900de00614060000080fb009d
:101ecc00610060004800dd0042168000f1ef2f0039
:101edc0081006100010070004016880040168000ef
:101eec004800de00614060000080fb006100600083
:101efc004700dd0042168000f1f72f0081006100e1
:101f0c000100700040168800401680004700de007b
:101f1c00614060000080fb00610060004600dd0055
:101f2c0042168000f1fb2f0081006100010070005f
:101f3c00401688000080fa00000006000200fa003b
:101f4c00004f7800c922a900401680004900de002d
:101f5c00614060000080fb00610060004800dd0013
:101f6c0042168000f1ef2f0081006100010070002b
:101f7c0040168800401680004800de00614060007a
:101f8c000080fb00610060004700dd00421680000d
:101f9c00f1f72f00810061000100700040168800ed
:101fac00401680004700de00614060000080fb00ae
:101fbc00610060004600dd0042168000f1fb2f003e
:101fcc00810061000100700040168800cc62a800fe
:101fdc00cde2a900cca2a8001e40780007ff0700a4
:101fec00cca2a800cca2a900cca2a900cca2a8008b
:101ffc001e4078003fff0700cca2a800cca2a9008d
:10200c00c922a800401680004900de006140600033
:10201c000080fb00610060004800dd00421680007b
:10202c00f1ef2f0081006100010070004016880064
:10203c00401680004800de00614060000080fb001c
:10204c00610060004700dd0042168000f1f72f00b0
:10205c00810061000100700040168800401680006d
:10206c004700de00614060000080fb006100600002
:10207c004600dd0042168000f1fb2f00810061005c
:10208c0001007000401688000080fa000000060075
:10209c000200fa00c922a800401680004900de00a8
:1020ac00614060000080fb00610060004800dd00c2
:1020bc0042168000f1ef2f008100610001007000da
:1020cc0040168800401680004800de006140600029
:1020dc000080fb00610060004700dd0042168000bc
:1020ec00f1f72f008100610001007000401688009c
:1020fc00401680004700de00614060000080fb005d
:10210c00610060004600dd0042168000f1fb2f00ec
:10211c00810061000100700040168800cc62a900ab
:10212c00cde2a80030418000004078004304070055
:10213c00cca2a800cca2a800501680004900de005a
:10214c0061406000004f7800cca2a900cca2a9008d
:10215c00cca2a800cca2a800cca2a900cca2a90019
:10216c0030418000004078003e0407000000e00091
:10217c0004003a001e4078000004e000ecff3a0036
:10218c0001003700000000000080fa00000006008b
:10219c000200fa00004f7800c922a9004016800006
:1021ac004900de00614060000080fb0061006000bf
:1021bc004800dd0042168000f1ef2f008100610025
:1021cc000100700040168800401680004800de00b8
:1021dc00614060000080fb00610060004700dd0092
:1021ec0042168000f1f72f008100610001007000a1
:1021fc0040168800401680004700de0061406000f9
:10220c000080fb00610060004600dd00421680008b
:10221c00f1fb2f0081006100010070004016880066
:10222c00cc62a900cde2a900cca2a800cca2a80047
:10223c001e00fb006800600000f0a7000000ea0030
:10224c000000ea004f00de00004078000080fb0038
:10225c00610060004900dd0062168000f1df2f0094
:10226c008100610001007000601688001e00fb00f8
:10227c006400600000f0a7000000ea000000ea0023
:10228c004f00de00004078000080fb006100600021
:10229c004800dd0062168000f1ef2f008100610024
:1022ac0001007000601688001e00fb0062006000d8
:1022bc0000f0a7000000ea000000ea004f00de007a
:1022cc00004078000080fb00610060004700dd00ea
:1022dc0062168000f1f72f00810061000100700090
:1022ec00601688001e40780061406000614060000c
:1022fc00614060000080fb00610060004600dd0072
:10230c0062168000f1fb2f0081006100010070005b
:10231c0060168800cca2a9000080fa00000006001c
:10232c000000fa00113a8000f00b200000816000e0
:10233c00600420007105200023742000804978007f
:10234c0081497800824978001136800000fe2f0008
:10235c00008060003000b30010368800213580000a
:10236c0000fe2f00008060000020a00020358800b7
:10237c00113a80000004200001017000600420006c
:10238c007105200023742000804978008149780071
:10239c0082497800700620004011880021e2a800d4
:1023ac00001180000080a1000090a10000118800a5
:1023bc002062a900001180000010a1000020a100e3
:1023cc00001188002002a9002342a8001868ef0021
:1023dc009560a8001468ef0014c8bf0015e8b7009a
:1023ec0015c8bf0012e8b70012c8bf0013e8b70049
:1023fc0013c8bf0016e8b70016c8bf0017e8b7002f
:10240c000080fa00000006000000fa0018c8bf00a7
:10241c000000fb00e10f500010003200e10f5000f3
:10242c0003003c000000e000060032002b003700e7
:10243c00e20f50000e003200e30f50001500320086
:10244c002600370017c8bf000004e000200032004f
:10245c0010c0b30018e8b700200037006000070078
:10246c00d040880020c0b30018e8b7001b0037002c
:10247c00d0408000104078000004e00003003200df
:10248c0030c0b30018e8b700140037001868ef002c
:10249c001200370011118000001020000080600035
:1024ac000000e0000c003200d0408000904078002a
:1024bc008100fb00211188000000e800d04088005a
:1024cc002342a80020c0b30018e8b700030037006f
:1024dc000000000001003700000000000080fa003e
:1024ec00000006000200fa00000f7800040037001c
:1024fc001e007800104078001e0fe8001500070041
:10250c001e007800104078000004e000f8ff3a004c
:10251c000080fa00000006000200fa00000f7800ac
:10252c001e007800190007000080fa000000060069
:10253c000000fa0016c8bf000080fb000080fa0003
:10254c00000006000000fa004e0007000080fa00b0
:10255c00000006000200fa00004f7800010037006e
:10256c000060fe001111800000102000008060004f
:10257c000000e000faff32001e00fb002011880072
:10258c002342a8000080fa00000006000200fa00b6
:10259c00000f780012c8bf008080fb000181400052
:1025ac0001882000810041009e0878000040e8006e
:1025bc0012e8b700218120009140780000c8b300d8
:1025cc0080cf500001003a001268ef0017c8bf001e
:1025dc000040e80017e8b7000080fa000000060091
:1025ec000200fa0014c8bf008080fb00018140008b
:1025fc000188200081004100110f78000040e800a4
:10260c0014e8b700418120009140780000c8b30065
:10261c0080cf500001003a001468ef0017c8bf00cb
:10262c000040e90017e8b7001e0078000080fa00af
:10263c00000006000200fa00004f780013c8bf002b
:10264c008080fb00028420009e41780003f178001a
:10265c000040e80013e8b700318120009140780079
:10266c0000c4b30080cf500001003a001368ef00a3
:10267c0016c8bf000040e80016e8b7000080fa005a
:10268c00000006000200fa0015c8bf008080fb00a5
:10269c000284200062cf78000040e80015e8b70003
:1026ac00518120009140780000c4b30080cf5000cd
:1026bc0001003a001568ef0016c8bf000040e900a1
:1026cc0016e8b7001e4078000080fa0000000600f3
:1026dc003600f800809fbe00829fbe00849fbe0023
:1026ec00869fbe000000fa008560a90010118000d2
:1026fc00620060000000e000010032002222a9000c
:10270c003011800000407800caff07000080fa00fa
:10271c004f03be004f02be004f01be004f00be0073
:10272c003600f900004006000000fa00c062a80064
:10273c00c042a8006bc0a8006ba0a8003268ef00d4
:10274c00a30207000040780033e8b7000080fa00cd
:10275c00000006000000fa0032c8bf000000fb00b9
:10276c00e30f500053003200e30f500007003c0011
:10277c00e10f500020003200e10f50002c003c0013
:10278c000000e0000a003200b3003700e50f5000f3
:10279c0063003200e50f50005a003500e60f500080
:1027ac006d003200e70f50008c003200aa00370099
:1027bc0010168000680060000000e00005003a0080
:1027cc0033c8bf009d02070010c0b30032e8b70049
:1027dc00a100370010168000640060000000e000cb
:1027ec0092003a0033c8bf009402070050c0b300f7
:1027fc0032e8b7009800370033c8bf0099020700d1
:10280c0031062000810f50008a003600101680001f
:10281c00680060000000e00003003a0020c0b30034
:10282c0032e8b7008c0037003268ef008a003700be
:10283c006c0407000004e0000d003a00970107004b
:10284c0034e8b70034c8bf00ea4f500003003a0028
:10285c0010c0b300950107000500370034c8bf0055
:10286c000040e80034e8b70034c8bf008f0107000f
:10287c00670407000004e0000b003a00ac030700fb
:10288c0034e8b70034c8bf000004e00003003a008d
:10289c0040c1b300aa0307000300370034c8bf00cf
:1028ac0065405000a603070030c0b30032e8b70003
:1028bc006900370033c8bf006a020700f17c2000b2
:1028cc00810f5000060036007f0107000004e00075
:1028dc0001003200e701070033c8bf0057020700b0
:1028ec0010168000680060000000e0005300320009
:1028fc0040c0b30032e8b70033c8bf004f02070036
:10290c005500370033c8bf005602070031062000bf
:10291c00810f50004b0036003268ef004e0037003c
:10292c0033c8bf004f02070031062000810f500052
:10293c004600360010168000640060000000e000c5
:10294c0003003a0060c0b30032e8b7004200370021
:10295c003268ef0040003700220407000004e0005a
:10296c000d003a004d01070034e8b70034c8bf0031
:10297c00e14f500003003a00a0c0b3004b01070028
:10298c000500370034c8bf000040e90034e8b70048
:10299c0034c8bf00450107001d0407000004e00017
:1029ac000b003a006203070034e8b70034c8bf00dc
:1029bc00f44f500003003a000040eb0060030700a6
:1029cc000300370034c8bf00654040005c030700bb
:1029dc0070c0b30032e8b7001f00370033c8bf0027
:1029ec0020020700f17c2000810f50000600360009
:1029fc00350107000004e00001003a009d010700ca
:102a0c0033c8bf000d020700101680006400600080
:102a1c000000e0000f00320040c0b30032e8b70005
:102a2c0033c8bf00050207000b0037000000000090
:102a3c00090037000000000007003700000000000c
:102a4c000500370000000000030037000000000004
:102a5c0001003700000000000080fa0000000600b2
:102a6c000000fa00101680006800600000f0a7005b
:102a7c000000ea000000ea004f00de000040780091
:102a8c000080fa00000006000000fa00101680001a
:102a9c006400600000f0a7000000ea000000ea00fb
:102aac004f00de00004078000080fa0000000600b5
:102abc000200fa00c042a900c062a900c082a900ad
:102acc00c442a900c462a900c482a9000000eb00a2
:102adc00000f780016003700bd0107008040780019
:102aec00c0b520001e00400001487800f0b5200061
:102afc001e0040008040eb0001487800e0b620004a
:102b0c001e0040008040eb000148780080b6200099
:102b1c001e00400001c3b30001487800b0b620008d
:102b2c001e0040008040eb00014878001e0fe800ba
:102b3c001e007800e20f5000e7ff34003e68ef0003
:102b4c000080fa00000006000200fa00000f780076
:102b5c00f0b520001e004000104078000080fb0003
:102b6c00e10f50001b003200e10f500003003c004d
:102b7c000000e000040032006a003700e20f500051
:102b8c003400320067003700e0b620001e00400021
:102b9c001040780000c0ea00ea40400020b6200057
:102bac001e00400001487800c0b520001e00400007
:102bbc0010407800a10107001e0078005b000700a0
:102bcc00f0b520001e00400011c0b3000148780091
:102bdc00540037001e00780054000700c0b52000d8
:102bec001e004000104078009e0107008000780015
:102bfc0020b620001e004000104078000080fb0032
:102c0c0000004000808f500043003900c0b5200008
:102c1c001e0040001040780088010700e0b620003c
:102c2c001e004000104078008040e80050b62000a4
:102c3c001e004000014878001e0078004c00070080
:102c4c00f0b520001e00400021c0b3000148780000
:102c5c00340037001e00780045000700c0b5200086
:102c6c001e004000104078007e01070080007800b4
:102c7c0050b620001e004000104078000080fb0081
:102c8c0000004000808f50002500390080b62000e5
:102c9c001e00400090407800e0b620001e0040006e
:102cac001040780055000700e14f500003003a0037
:102cbc003ec8bf000004e00007003a00e0b6200068
:102ccc001e004000104078008040e800e0b6200074
:102cdc001e00400001487800e0b620001e004000b5
:102cec0010407800e94f500004003400e0b620009a
:102cfc001e0040008040eb00014878001e00780068
:102d0c000a000700f0b520001e0040008040eb00d8
:102d1c000148780003003700000000000100370074
:102d2c00000000000080fa00000006000200fa001b
:102d3c00000f78001e007800e10f500006003200f2
:102d4c00e20f5000060032000000e00006003a00de
:102d5c00c442a90004003700c462a9000200370075
:102d6c00c482a900000000000080fa0000000600e8
:102d7c000200fa00000f78001e007800e10f5000ee
:102d8c0006003200e20f5000060032000000e000a6
:102d9c0006003a00c442a80004003700c462a80030
:102dac0002003700c482a800000000000080fa0076
:102dbc00000006000200fa00000f78001e007800e8
:102dcc009040780080b62000014878001e00e80092
:102ddc009040780090b62000014878001e80e800f2
:102dec0090407800a0b620000148780010c0b300d5
:102dfc003ee8b7000080fa00000006000200fa006e
:102e0c00004f7800114798009e00fb001e40900078
:102e1c000000fb000003b100808f500002003a005c
:102e2c0010c0b300010037000040eb000080fa0036
:102e3c00000006000200fa000000eb00000f780012
:102e4c000500370020b720001e0040008040eb003a
:102e5c00014878001e0fe8001e007800e90f5000b2
:102e6c00f8ff3400c022a900c422a900d800070032
:102e7c000040780028e8b7002b68ef002bc8bf0093
:102e8c0029e8b700d2000700004078002ae8b70014
:102e9c002c28ef000080fa00000006000000fa0069
:102eac002ac8bf000080fa00000006000200fa00e9
:102ebc00004f78001e417800a182200082487800e3
:102ecc000080fa00000006000000fa0029c8bf00cc
:102edc000014a2000080fb000000ea004f00de009e
:102eec00004078000080fa00000006000400fa00a0
:102efc00100798000000eb00000f78000800370066
:102f0c001e0078009e0090000080400090407800e9
:102f1c0020b720001e004000014878001e0fe8007a
:102f2c001e007800e90f5000f5ff340010c0b3000c
:102f3c002be8b7000080fa00000006000000fa0041
:102f4c0029c8bf000000fb00e10f50001400320044
:102f5c00e10f500003003c000000e00006003200ce
:102f6c0042003700e20f50001b003200e30f50000c
:102f7c00270032003d0037002bc8bf00e14f500046
:102f8c0035003a0010c0b30029e8b70028c8bf00cc
:102f9c00aa0007002ac8bf00a800070033003700aa
:102fac0028c8bf00af0007006141800022b7200095
:102fbc00e2c078008100fb00810f5000280039002e
:102fcc0028c8bf009d000700c422a80020c0b30081
:102fdc0029e8b7002500370028c8bf00a10007006a
:102fec006141800022b72000e2c078008100fb0024
:102ffc00810f50001c00390028c8bf008f0007004b
:10300c00c422a90030c0b30029e8b700170037006c
:10301c002ac8bf0093000700713e2000810f5000aa
:10302c00090036002ac8bf008400070060418000f8
:10303c000000e8006041880060418000e30f500010
:10304c00010034002c28ef0010c0b30029e8b700b1
:10305c0000000000050037000000000003003700ee
:10306c000000000001003700000000000080fa00a2
:10307c00000006000000fa0029c8bf00e24f500013
:10308c0002003a002968ef000300370020c0b300ab
:10309c0029e8b700c422a90029c8bf000080fb00a2
:1030ac000000e9004f00de00004078000080fa00cc
:1030bc00000006000000fa000080fa000000060084
:1030cc00809fbe00821f78000000fa008460a90077
:1030dc00704180000000e800704188007141800060
:1030ec00f0522700808f50001d0036003028ef0072
:1030fc0017003700804180004200dd008080e8002e
:10310c0000ab20000080400010407800e14f5000e0
:10311c000c003a0080418000814180004209dd00b2
:10312c0001ab200081004100110178007141800049
:10313c00810051004201dd0000ab20000000410085
:10314c0001087800804180000000e8008041880080
:10315c0080418000f80f5000e6ff34002e28ef006d
:10316c000080fa004f0178004f00be0000400600be
:10317c000200fa000040eb00004f78000700370017
:10318c001e80fb00c200dd0020ab20000080400050
:10319c008040eb00014878001e4fe8001e4078008c
:1031ac00f84f5000f6ff36002e28ef0004a1a900be
:1031bc000481a800007d20001008880005e1a8000b
:1031cc008460a9009460a8000080fa00000006004a
:1031dc000200fa000040eb00004f780006003700b8
:1031ec001e4fe8001e407800f94f500002003a00d4
:1031fc000080eb000f0037001e80fb004200dd005a
:10320c008080e80000ab2000008040001040780077
:10321c00e14f5000f2ff32001e80fb00c200dd00c7
:10322c0020ab20000080400011c0b30001487800a2
:10323c001e80fb000080fa00000006000200fa006d
:10324c00004f78001e80fb00714180004201dd00c0
:10325c0000ab200000004100010878000080fa005b
:10326c00000006000400fa0020479800704180001e
:10327c00000f78009e0078002e4090000080fb002c
:10328c004201dd0000ab200000004100100078007e
:10329c00008050000080fa00000006000200fa00d6
:1032ac00004f78001e80fb00c200dd0020ab200028
:1032bc00008040008040eb00014878000080fa005c
:1032cc00000006000000fa000080fa000000060072
:1032dc000000fa00c082a900c482a900bcff07004c
:1032ec00004078001ce8b7001d68ef001e68ef0076
:1032fc002028ef000080fa00000006000000fa0011
:10330c001dc8bf000080fb00e10f50001700320009
:10331c00e10f500003003c000000e000060032000a
:10332c0067003700e20f50002c003200e30f500012
:10333c0037003200620037001cc8bf00c9ff07000d
:10334c00e1812000914078008180fb00810f5000ca
:10335c004c0039001cc8bf00b8ff070010c0b300f8
:10336c001de8b700c482a900550037001cc8bf0077
:10337c00bcff0700e1812000914078008180fb00b8
:10338c00f4801000810f5000400039001cc8bf00b1
:10339c00aaff07001d68ef00c482a800004180004e
:1033ac000000e8000041880000418000e40f50005c
:1033bc0038003a001ec8bf000040e8001ee8b70005
:1033cc002028ef001ec8bf00f44f500033003a0015
:1033dc0020c0b3001de8b700390037001cc8bf007f
:1033ec00a0ff0700e1812000914078008180fb0064
:1033fc00810f50002b0039001cc8bf008fff070045
:10340c0030c0b3001de8b700c482a9002c003700ff
:10341c001cc8bf0093ff0700e18120009140780099
:10342c008180fb00f4801000810f50001f003900d8
:10343c001cc8bf0081ff070020c0b3001de8b70007
:10344c00c482a800004180000000e8000041880010
:10345c0000418000e40f500016003a001ec8bf0067
:10346c000040e9001ee8b7002028ef001ec8bf008e
:10347c000004e00011003a001d68ef001e68ef0028
:10348c000f003700000000000d00370000000000a6
:10349c000b0037000000000009003700000000009e
:1034ac000700370000000000050037000000000096
:1034bc00030037000000000001003700000000008e
:1034cc000080fa00000006000200fa003a68ef00e3
:1034dc00c9a2a8000000eb00000f7800050037001f
:1034ec00309820001e0040008040eb00014878001e
:1034fc001e0fe800b01220009e007800808f500054
:10350c00f7ff3400009820008040eb000148780061
:10351c00109820008040eb00014878002098200093
:10352c008040eb00014878003b68ef0028ff070063
:10353c00e04188000080fa00000006000000fa005c
:10354c003ac8bf000080fb00e10f500012003200af
:10355c00e10f500003003c000000e00006003200c8
:10356c003f003700e20f500019003200e30f50000b
:10357c00330032003a003700511680000000220060
:10358c00008060000000e0003200320010c0b30088
:10359c003ae8b70032003700a0522800defb0700e3
:1035ac005116800000002200008060000000e00046
:1035bc002a003a00e0418000004078001fff07001d
:1035cc0020c0b3003ae8b7003b68ef002400370096
:1035dc0060532800d0fb0700e041800000407800d9
:1035ec0020ff07000000e0000a00320051168000a6
:1035fc0000002200008060000000e00005003a009e
:10360c003bc8bf00ea4f500002003a0030c0b30084
:10361c003ae8b700511680000000220000806000dc
:10362c000000e0000200320010c0b3003ae8b7001e
:10363c003bc8bf000040e8003be8b700080037007b
:10364c0020542800b4fb07003a68ef00000000008b
:10365c0003003700000000000100370000000000ec
:10366c000080fa00000006000000fa00c9c2a900a0
:10367c00cdc2a9003668ef00d5fe070000407800e7
:10368c0037e8b700a0c0b30038e8b7000080fa00f4
:10369c00000006000000fa0036c8bf000080fb00e6
:1036ac000000e00003003200e10f50000e00320079
:1036bc001d00370037c8bf00eafe070081832000d9
:1036cc00914078008180fb00810f5000130039007d
:1036dc0037c8bf00d9fe070010c0b30036e8b700ea
:1036ec00cdc2a9001000370037c8bf00ddfe0700af
:1036fc0081832000914078008180fb00f4801000d1
:10370c00810f50000700390037c8bf00cbfe0700ff
:10371c003668ef00cdc2a80003003700000000009f
:10372c0001003700000000000080fa0000000600d5
:10373c000000fa0038c8bf000080fa000000060044
:10374c000200fa00004f78001e40780038e8b700fd
:10375c000080fa00000006000000fa00c002a80079
:10376c0021a3a8002103a900001980004800de0055
:10377c00614060000080fb00610060004900dd00da
:10378c0002198000f1df2f00810061000100700040
:10379c000019880020e3a800001980004700de0013
:1037ac00614060000080fb00610060004600dd00ad
:1037bc0002198000f1fb2f008100610001007000f4
:1037cc0000198800001980004600de00614060008e
:1037dc000080fb00610060004500dd0002198000e4
:1037ec00f1fd2f00810061000100700000198800bc
:1037fc001019800000d0a10000e0a10000f0a10091
:10380c00101988002343a9002223a80000102000cf
:10381c00201988002823ef00100020008019880050
:10382c0021e3a8002023a8002043a8000080fa0070
:10383c00000006000000fa00001880000080fa006a
:04384c000000060072
:020000040000fa
:10385000b00a000064000000000000002e08000014
:1038600004000000000000001c080000060000002a
:103870000000000022080000060000000000000018
:10388000720b00000a000000000000002808000081
:1038900006000000000000003208000004000000e4
:1038a00000000000360800000400000000000000d6
:1038b0004008000040010000000000001208000065
:1038c0000a000000000000007c0b00000a0000005d
:1038d00002000000030201000200000000000000de
:1038e00000000000140b0000480000000000000071
:1038f0000008000012000000000000005c0b000047
:1039000016000000000000003e0800000200000059
:1039100000000000800900003001000000000000ed
:103920003a08000004000000000000000000000051
:020000040000fa
:103930000000fa004427ef0040a7a9000080fa0029
:10394000000006000000fa00f9ff07000bfe070068
:103950005afc070001c1b30020c0b300a4f7070060
:1039600037fd0700190007007eff070041ff070031
:103970006efa0700f7f7070005f807008040eb0034
:103980000040eb0008f807002055280082f80700e7
:1039900056f60700acf40700cefe07000000eb006f
:1039a0006cfc0700100020006afc070020002000cb
:1039b00068fc070087f6070063fd0700bef40700f8
:1039c00094fa0700e0fe0700f4ff37000000fa0059
:1039d000c9a2a800c982a8002d63a8002d83a80051
:1039e00069a0a80069c0a8000080fa0000000600d5
:1039f0000000fa00511680000000210000806000e5
:103a000000f0a7000000ea000000ea004f00de001e
:103a1000004078000080fa00000006000000fa0074
:103a200051168000000022000080600000f0a70016
:103a30000000ea000000ea004f00de0000407800cd
:083a40000080fa0000000600fe
:020000040000fa
:04aff8008b69000061
:020000040000fa
:04affc003b3f0000d7
:00000001FF
