:020000040000fa
:080000000002040000000000f2
:020000040000fa
:100008009a0200009a0200009a0200009a02000078
:100018009a0200009a0200009a0200009a02000068
:100028009a0200009a0200009a0200002a1b0000af
:100038009a0200009a0200009a0200009a02000048
:100048009a0200009a0200009a020000321600008c
:100058009a0200009a0200009a0200009a02000028
:100068009a0200009a0200009a0200009a02000018
:100078009a0200009a0200009a0200009a02000008
:100088009a0200009a0200009a0200009a020000f8
:100098009a0200009a0200009a0200009a020000e8
:1000a8009a0200009a0200009a0200009a020000d8
:1000b8009a0200009a0200009a0200009a020000c8
:1000c8009a0200009a0200009a0200009a020000b8
:1000d8009a0200009a0200009a0200009a020000a8
:1000e8009a0200009a0200009a0200009a02000098
:1000f8009a0200009a0200009a0200009a02000088
:100108009a0200009a0200009a0200009a02000077
:100118009a0200009a0200009a0200009a02000067
:100128009a0200009a0200009a0200009a02000057
:100138009a0200009a0200009a0200009a02000047
:100148009a0200009a0200009a0200009a02000037
:100158009a0200009a0200009a0200009a02000027
:100168009a0200009a0200009a0200009a02000017
:100178009a0200009a0200009a0200009a02000007
:100188009a0200009a0200009a0200009a020000f7
:100198009a0200009a0200009a0200009a020000e7
:1001a8009a0200009a0200009a0200009a020000d7
:1001b8009a0200009a0200009a0200009a020000c7
:1001c8009a0200009a0200009a0200009a020000b7
:1001d8009a0200009a0200009a0200009a020000a7
:1001e8009a0200009a0200009a0200009a02000097
:0801f8009a0200009a020000c7
:020000040000fa
:100208009a0200009a0200009a0200009a02000076
:100218009a0200009a0200009a0200009a02000066
:100228009a0200009a0200009a0200002a1b0000ad
:100238009a0200009a0200009a0200009a02000046
:100248009a0200009a0200009a020000321600008a
:100258009a0200009a0200009a0200009a02000026
:100268009a0200009a0200009a0200009a02000016
:100278009a0200009a0200009a0200009a02000006
:100288009a0200009a0200009a0200009a020000f6
:100298009a0200009a0200009a0200009a020000e6
:1002a8009a0200009a0200009a0200009a020000d6
:1002b8009a0200009a0200009a0200009a020000c6
:1002c8009a0200009a0200009a0200009a020000b6
:1002d8009a0200009a0200009a0200009a020000a6
:1002e8009a0200009a0200009a0200009a02000096
:1002f8009a0200009a0200009a0200009a02000086
:100308009a0200009a0200009a0200009a02000075
:100318009a0200009a0200009a0200009a02000065
:100328009a0200009a0200009a0200009a02000055
:100338009a0200009a0200009a0200009a02000045
:100348009a0200009a0200009a0200009a02000035
:100358009a0200009a0200009a0200009a02000025
:100368009a0200009a0200009a0200009a02000015
:100378009a0200009a0200009a0200009a02000005
:100388009a0200009a0200009a0200009a020000f5
:100398009a0200009a0200009a0200009a020000e5
:1003a8009a0200009a0200009a0200009a020000d5
:1003b8009a0200009a0200009a0200009a020000c5
:1003c8009a0200009a0200009a0200009a020000b5
:1003d8009a0200009a0200009a0200009a020000a5
:1003e8009a0200009a0200009a0200009a02000095
:0803f8009a0200009a020000c5
:020000040000fa
:10040000efb820000e7f22000e01880000000000df
:10041000000020000000e000020032000001200087
:10042000200288000c000700c0e12100010020002c
:1004300011000700000020000000e0000200320070
:100440000000020000000000961e020000000000f4
:100450000040da000000fe004440a900802c20008b
:100460000000e0000300320000002000a00188002e
:100470004440a80000000600910188008000780038
:100480000000eb0015003700e280400032a0b4000d
:100490009101ba00e280400032a0b4009102ba009b
:1004a000e280400032a0b4000002eb00472bde00e7
:1004b000f507b200602ce10004003a000059eb009f
:1004c0008301e900fdff3e00040037006128e100e0
:1004d000010032000082eb00040007001101ba00a5
:1004e0000200e000e8ff3a00000006003159ba00bf
:1004f0008301e9000c0032002159ba008301e900b0
:10050000080032000400e00003003a00e2804000ee
:1005100032a0b400f5ff370011d9ba008301e90019
:10052000faff3a008100e800e180400032a0b40008
:0c053000000006000040da000000fe00a1
:020000040000fa
:10053c005761000069740000696e000067200000bc
:10054c00666f00007220000049440000202000006b
:10055c000057000061690000746900006e670000bc
:10056c00206d00006573000073610000676500007a
:10057c00200000000d0a0000426500006e760000ad
:10058c00696e00006775000074200000616c00004b
:10059c0020570000616c00006b690000652d0000a5
:1005ac00546500007874000069650000210d00009e
:1005bc000a000000000d00000a00000000310000dd
:1005cc002d4900006e740000726f0000647500000d
:1005dc0069720000207500006e2000006e6f000034
:1005ec007520000069640000656e000074690000ed
:1005fc006669000063610000646f0000720d00000a
:10060c000a000000003200002d4300006f6e000055
:10061c00737500006c7400006172000020490000ca
:10062c00442000006163000074750000616c0000e0
:10063c000d0a000000000000332d0000436f000085
:10064c006e730000756c0000746100007220000075
:10065c0074720000616d0000657300002069000079
:10066c00646500006e740000696600006963000038
:10067c0061640000657300000d0a000000000000ba
:10068c00342d0000507200006f62000061200000e9
:10069c0064650000206100006c740000617600004d
:1006ac00657500000d0a000000000000352d0000eb
:1006bc005669000073750000616c000069740000dd
:1006cc007a610000722000006c270000756c00003d
:1006dc00746900006d2000006d69000073730000e8
:1006ec006174000067650000207200006562000004
:1006fc00757400000d0a000000000000362d00008b
:10070c005265000073650000740d00000a0a0000b9
:10071c00000000005065000072200000736f0000a4
:10072c0072740000697200002064000065200000f3
:10073c0071750000616c000073650000766f00003d
:10074c006c2000006f700000636900006f2c0000cb
:10075c0020700000726500006d2000004553000001
:10076c00430d00000a000000000a00000d500000bc
:10077c006c61000063610000204c000053360000e7
:10078c00392e0000205300006973000074650000ce
:10079c006d6500007320000044690000676900006b
:1007ac00746100006c73000020690000207500006b
:1007bc00507200006f6300006573000073610000ed
:1007cc00646f0000727300000d0a0000000000004e
:1007dc00764300006c69000020760000312e00008a
:1007ec00302e00000d0a0000000000000a2000005e
:1007fc00477200006163000069650000732000000f
:10080c00706500006c2000006e6f00007520000009
:10081c0049440000210d00000a000000000d0000fa
:10082c000a0a0000000000000a4500007272000075
:10083c006f720000206e00006f20000068690000dd
:10084c002068000061200000494400000d0a0000ef
:10085c000000000050420000313a0000200000006f
:10086c00000a00000d4900006e740000726f000059
:10087c006475000065690000782000007661000056
:10088c006c6f00007220000064650000206c00009a
:10089c00612000006e6f000076610000206900008e
:1008ac006e740000656e00007369000074610000d6
:1008bc0074200000283000002d340000293a00007c
:1008cc000a0d0000000a00000d50000072650000c7
:1008dc006d2000004a2000007065000072200000ae
:1008ec00656e0000636500006e64000072650000b8
:1008fc00206f000020610000706100006761000043
:10090c00722000006c270000616c00007461000014
:10091c0076650000752000000a0d0000000d000037
:10092c00416c0000746100007665000075200000c9
:10093c00656e00006365000073210000200000005c
:10094c00000d0000416c0000746100007665000031
:10095c007520000061700000616700006174000088
:10096c00210000000009000009530000573200006c
:10097c003a2000000000000009090000504200006d
:10098c00323a000020000000000d00003030000062
:10099c0030000000000d0000303200003500000077
:1009ac00000d00003035000030000000000d00008c
:1009bc003037000035000000000d00003130000021
:1009cc0030000000004900006e74000072690000e5
:1009dc00647500006569000078200000656c0000fb
:1009ec00204900004420000064650000206c0000d9
:1009fc0061200000706c000061630000610d00005c
:100a0c000a000000000a00004c27000049440000c6
:100a1c002061000063740000756100006c20000010
:100a2c0064650000206c000061200000706c000008
:100a3c006163000061200000657300003a20000033
:100a4c000d0a0000000000000a540000494e00008e
:100a5c0043200000756e00002062000079740000d5
:100a6c00650d00000a000000000a00005449000057
:100a7c004e43000020490000440d00000a00000015
:100a8c00000a0000544900004e430000204d0000b5
:100a9c00495300005341000054470000450d00002d
:100aac000a00000000000000426f00006f7400009c
:100abc00696e0000672e00002e2e00000000000062
:020000040000fa
:100acc000200fa00000f78009e007800803e2000a3
:100adc0000017800110009008200d80080407800e5
:100aec00c0b1200001487800c0b12000104078004f
:100afc008000fb0080c12f000088b9000000780046
:100b0c001e0f40009e007800400620000001780077
:100b1c00110009008200d80080407800d0b120007c
:100b2c0001487800d0b12000104078008000fb0014
:100b3c00c0f92f000088b900000078001e0f40009b
:100b4c009e007800a0002000000178001100090030
:100b5c008200d80080407800e0b120000148780085
:100b6c00e0b12000104078008000fb0060ff2f00f7
:100b7c000088b900000078001e0f40001e007800ad
:100b8c00004078000043b00080407800f0b12000b5
:100b9c000148780000b220008040eb00014878004a
:100bac00e0b12000104078000043b0008040780095
:100bbc00e0b1200001487800d0b12000104078004e
:100bcc000043b00080407800d0b12000014878008c
:100bdc00c0b12000104078000043b0008040780085
:100bec00c0b12000014878000080fa000000060027
:100bfc000000fa00002c2800a9070700102e28007e
:100c0c00a7070700502e2800a507070090302800e2
:100c1c00a307070020322800a10707006034280032
:100c2c009f070700c03528009d07070040382800a3
:100c3c009b070700102e2800990707000039280091
:100c4c00970707000080fa00000006000200fa0077
:100c5c000000eb00000f780005003700e0b4200026
:100c6c001e00400001c3b300014878001e0fe800cd
:100c7c001e007800e20f5000f8ff34002000200026
:100c8c0010408800b03b280085070700e03e280094
:100c9c0083070700d6ff07000028ef00ae0a070005
:100cac000040780004e8b7000568ef001028ef005a
:100cbc000868ef000080fa00000006000000fa004f
:100ccc00881f780005c8bf000000fb00cf80de0045
:100cdc00d203200003002000820f5000838f5800a5
:100cec0080013e00006001003d00370067003700c6
:100cfc008c003700a8003700c8003700ca00370046
:100d0c00ce003700cf003700660037007501370082
:100d1c00740137007301370072013700710137001d
:100d2c00700137006f0137006e0137006d0137001d
:100d3c006c0137006b0137006a013700ce003700b9
:100d4c00680137006701370066013700650137001d
:100d5c00640137006301370062013700610137001d
:100d6c0060013700cc0037005e0137005d013700b1
:100d7c005c0137005b0137005a013700590137001d
:100d8c00580137005701370056013700550137001d
:100d9c00540137005301370052013700510137001d
:100dac00500137004f0137004e0137004d0137001d
:100dbc004c013700c00037004a01370049013700a9
:100dcc00480137004701370046013700450137001d
:100ddc00440137004301370042013700fd00370062
:100dec00350707000000e000180032003707070045
:100dfc0006e8b700618020009140780060c3b30022
:100e0c0080cf50000d003c006180200091407800a4
:100e1c0000c3b30080cf50000800340006c8bf00e8
:100e2c008040780000cdb30000c0400005e8b7005a
:100e3c0005c8bf004802070004003700d0c0b3004b
:100e4c002607070006c8bf002407070004c8bf0018
:100e5c00660a0700813e2000810f50001001360009
:100e6c0004c8bf00570a0700004080000000e800db
:100e7c00004088000140800000712200808f5000eb
:100e8c0009013a000028ef00160137000a07070095
:100e9c000000e0000601320080c0b30005e8b70096
:100eac00100137001840800008070700e1b420004b
:100ebc0080707c0010408000e1b42000614078001c
:100ecc00fb4f500003003a0049ff07000568ef0094
:100edc0004013700104080000000e00006003400e0
:100eec0010c0b30005e8b700104080000000e90016
:100efc0010408800fb003700c03f2800e8060700c0
:100f0c003bff07000568ef00200020001040880020
:100f1c0010c0b30008e8b70010c0b30007e8b70072
:100f2c00f000370004c8bf00300a0700210320007e
:100f3c00810f5000e000360007c8bf00e14f5000a1
:100f4c0010003a00a0c0b300e406070030b6200041
:100f5c0010407800e106070020b620001040780011
:100f6c00de06070010b6200010407800db060700f4
:100f7c0050412800ca0607001dff07000568ef0056
:100f8c00d8003700a0412800c506070018ff07004d
:100f9c000568ef00d300370004c8bf00130a070030
:100fac00813e2000810f50001300360004c8bf00a2
:100fbc00040a0700004080000000e80000408800a0
:100fcc000140800000712200808f500001003a0027
:100fdc000028ef00d0c0b300c00607000043280073
:100fec00af060700000807000043b000bb0607006f
:100ffc00f0c1b30005e8b700af0607000000e00041
:10100c00af003200b1060700fb4f5000ae003a00b3
:10101c00f7fe07000568ef00b200370040b820006b
:10102c0014090700af003700704328009c06070026
:10103c0030c3b30005e8b700aa0037000000fe007b
:10104c00a800370090462800950607000009070005
:10105c000004e0000300320050492800900607000d
:10106c0002003700704a28008d060700d0c3b30079
:10107c0005e8b7009b003700904b28008806070056
:10108c005d0b07000043b0009406070020c0b300be
:10109c0005e8b70093003700204c280080060700b5
:1010ac00db0707000043b0008c06070030c0b3001c
:1010bc0005e8b7008b00370004c8bf00cb09070058
:1010cc00813e2000810f50000a00360004c8bf008a
:1010dc00bc090700004080000000e80000408800c8
:1010ec000140800000712200808f500001003a0006
:1010fc000028ef00700607000000e00074003200ca
:10110c00720607000000fb0011032000810f500045
:10111c001b00320011032000810f500006003c0020
:10112c00fb0f50000e00320001032000810f500015
:10113c000e0032006b00370031032000810f50008d
:10114c001900320031032000810f500011003500ce
:10115c0041032000810f500018003200610037005d
:10116c00a3fe07000568ef0019003700b04c2800fb
:10117c004b0607000040eb006b0a07001400370019
:10118c00104d28004606070050c0b300660a070041
:10119c000f003700704d280041060700a0c0b300b7
:1011ac00610a07000a003700d04d28003c060700f2
:1011bc00f0c0b3005c0a070005003700304e280071
:1011cc003706070040c1b300570a070000000000b3
:1011dc004400370004c8bf0084090700813e20008a
:1011ec00810f50000a00360004c8bf0075090700c3
:1011fc00004080000000e8000040880001408000b2
:10120c0000712200808f500001003a000028ef008e
:10121c00290607000000e0002f0032002b06070013
:10122c000000fb00a1042000810f500008003200d8
:10123c00a1062000810f50000e003200fb0f500061
:10124c0027003a006afe07000568ef00120037001d
:10125c00ea0807000004e0000300320050492800af
:10126c000f0607000c003700704a28000c06070018
:10127c0009003700e10807000004e0000300320019
:10128c00504928000606070003003700704a280062
:10129c0003060700000000000000000011003700ea
:1012ac00000000000f003700000000000d003700a8
:1012bc00000000000b0037000000000009003700a0
:1012cc000000000007003700000000000500370098
:1012dc000000000003003700000000000100370090
:1012ec00000000004f0478000080fa0000000600a7
:1012fc000200fa0018090700004078000ae8b7005d
:10130c000b68ef00aa0107000000eb00000f78004b
:10131c000500370010b620001e00400001c3b300ca
:10132c00014878001e0fe8001e007800e20f500004
:10133c00f8ff340010b5200081c5b30001487800d7
:10134c0020b52000f1c2b3000148780030b5200070
:10135c0091c5b3000148780040b5200001c2b3002c
:10136c000148780050b5200001c2b3000148780054
:10137c0060b5200001c2b3000148780070b52000b0
:10138c0001c2b3000148780080b5200001c2b3004f
:10139c000148780090b5200001c2b30001487800e4
:1013ac00a0b5200001c2b30001487800b0b5200000
:1013bc0091c4b30001487800c0b5200041c4b3000b
:1013cc0001487800d0b52000a1c3b30001487800d3
:1013dc000080fa00000006000000fa0009c8bf00f7
:1013ec000000fb00e20f500099003200e20f5000a9
:1013fc0005003c000000e0000a003200e10f500044
:10140c004b003200d2003700e40f5000a300320032
:10141c00e40f500096003500e50f5000af0032008d
:10142c00cb00370007c8bf00e14f5000200032004e
:10143c000dc8bf008080fb00e2292800e2c07800c4
:10144c000040e8000de8b70001407800aa01070051
:10145c000dc8bf00f04f500001003a000d68ef00be
:10146c00c18020009140780010c0b300f0cf500034
:10147c0001003e000040eb008140e8008141780013
:10148c00c2802000034978000004e000a70032006d
:10149c0010c0b30009e8b7000ac8bf00c9080700ac
:1014ac0011c0b3000040eb0056010700a800370044
:1014bc000dc8bf008080fb00f22a2800e2c0780033
:1014cc000040e8000de8b700014078008a010700f1
:1014dc000dc8bf00f04f500001003a000d68ef003e
:1014ec00c18020009140780010c0b300f0cf5000b4
:1014fc0001003e000040eb008140e8008141780093
:10150c00c2802000034978000004e000890032000a
:10151c0010c0b30009e8b7000ac8bf00a90807004b
:10152c0011c0b3000040eb00360107008800370003
:10153c0008c8bf00e14f50002100320007c8bf00af
:10154c000004e00030003a0010b620001040780093
:10155c008040e80010b620000148780020b620003a
:10156c00104078008040e80020b620000148780048
:10157c0030b62000104078008040e80030b62000e3
:10158c000148780010b620009040780090c3b3005a
:10159c0080cf50001c00340010b6200001c3b300f3
:1015ac000148780020b6200001c3b3000148780040
:1015bc0030b6200001c3b300014878001200370098
:1015cc0008c8bf00e14f50000f003a00e0b4200003
:1015dc009040780010b6200001487800f0b420004c
:1015ec009040780020b620000148780000b520001b
:1015fc009040780030b620000148780010b62000ea
:10160c004e0707000868ef0030b620001040780045
:10161c0080407800e0b520000148780020b620001a
:10162c001040780080407800f0b520000148780028
:10163c0010b62000104078008040780000b62000e2
:10164c000148780020c0b30009e8b700400037001b
:10165c007209070070408800704080005700070036
:10166c008040880030c0b30009e8b700380037006c
:10167c000ac8bf005d08070081408000810f500040
:10168c002e0036000ac8bf004e0807000c68ef0099
:10169c0040c0b30009e8b7002d0037000cc8bf00ec
:1016ac008080fb0012b52000e2c078000040e8000a
:1016bc000ce8b700014078000f0107000cc8bf0010
:1016cc00f04f50001f00360050c0b30009e8b700bf
:1016dc000ac8bf003b0807001d0037000ac8bf003e
:1016ec0042080700910f2000810f500017003600b0
:1016fc000bc8bf000040e8000be8b7000bc8bf00e8
:10170c00f04f500001003a000b68ef000968ef0041
:10171c008040eb000040eb00ba0007000bc8bf0094
:10172c000de8b7000c68ef0009003700000000005e
:10173c000700370000000000050037000000000023
:10174c00030037000000000001003700000000001b
:10175c000080fa00000006000200fa00004f78003a
:10176c001e00fb00e30f50000f003200e30f50008f
:10177c000f003c00e10f500003003200e20f50005c
:10178c00040032000b003700904e2800c404070000
:10179c000800370090502800c104070004c8bf009f
:1017ac0008080700030037000000000001003700a4
:1017bc00000000000080fa00000006000400fa009f
:1017cc00100798001e0090006900b9008000780096
:1017dc005000200000017800110009008280d80020
:1017ec00810c2000010f40001e0078000080fa00e0
:1017fc00000006000200fa00000f78001e007800be
:10180c00104078000043b0008040780010b62000f3
:10181c00014878001e00e800104078000043b0003a
:10182c008040780020b62000014878001e80e80037
:10183c00104078000043b0008040780030b62000a3
:10184c00014878000080fa00000006000400fa004d
:10185c002047980031479800bf0707009041880047
:10186c002e4090002ee8b7003e4090002fe8b700c5
:10187c003168ef0031c8bf0030e8b700c8a2a9003a
:10188c00401680004500de00614060000080fb00d7
:10189c004f00dd0042168000f1ff2700810061003f
:1018ac000100700040168800401680004f00de00da
:1018bc00004078000080fb00610060004300dd0008
:1018cc004216800071ff2f00810061000100700042
:1018dc00401688000000eb00000f7800290037004c
:1018ec009041800041062000cf00070030c0b300bb
:1018fc00410207009041800051002000ca000700ff
:10190c0030c0b3003c020700904180001100200061
:10191c00c500070030c0b3003702070090418000bb
:10192c0011002000c000070020c0b30032020700e5
:10193c009041800011002000bb00070080c2b30062
:10194c0043010700ec01070080c0b3004001070011
:10195c00e901070010c0b3003d0107009041800071
:10196c0031002000b0000700e301070060c0b300a5
:10197c0037010700e0010700f0c0b3003401070095
:10198c001e0fe8001e007800e10f5000d4ff340059
:10199c000080fa00000006000000fa009041800070
:1019ac00004078009f0707000080fa000000060046
:1019bc000000fa00d001070010c0b300240107009a
:1019cc009041800031002000970007000080fa0051
:1019dc00000006000000fa00c7010700e0c0b300d9
:1019ec001b0107000080fa00000006000000fa004e
:1019fc00c1010700c0c0b300150107000080fa0048
:101a0c00000006000400fa002047980031479800b7
:101a1c002ec8bf000080fb00e20f50000300320014
:101a2c00e40f50000b003200220037002e409000d3
:101a3c008000fb003e4090000004e00002003a00f1
:101a4c000000eb000100370000042000008f400074
:101a5c001d0037002e4090000000fb00000f7800a6
:101a6c003e409000e14f500003003a00010420007a
:101a7c001e8f4000140037003e409000e24f500093
:101a8c0004003a002fc8bf000080fb001e0f40006e
:101a9c000d0037003e409000e34f500009003a0023
:101aac002fc8bf000080fb000004b0001e0f4000d8
:101abc00050037002e4090000000fb00000f78005e
:101acc0001003700000000008b0107001e007800a9
:101adc008040780000c8b30000c07000dc00070034
:101aec003e40900030e8b7002e40900031e8b7003f
:101afc000080fa00000006000200fa00004f780097
:101b0c007d0107001e4078002601070031c8bf0088
:101b1c000040e80031e8b7002ec8bf00e34f50008a
:101b2c0010003a0031c8bf00f34f50002f003600b0
:101b3c003168ef0030c8bf000040e80030e8b70063
:101b4c0030c8bf00e34f5000010036003068ef0092
:101b5c0030c8bf008040780031c8bf00a9ff070023
:101b6c00220037002ec8bf00e24f500012003a008e
:101b7c00118320009140780070c2b30080cf5000d8
:101b8c001a0036003168ef0030c8bf000040e80092
:101b9c0030e8b70030c8bf00e14f500001003600fc
:101bac003068ef0030c8bf008040780031c8bf00fb
:101bbc0094ff07000d00370030c8bf00e14f500004
:101bcc000a003a00118320009140780070c2b300e3
:101bdc0080cf5000010036003168ef0030c8bf00e4
:101bec008040780031c8bf0086ff07000080fa00f3
:101bfc00000006000200fa00000f78000400370015
:101c0c001e007800104078001e0fe800baff070095
:101c1c001e007800104078000004e000f8ff3a0045
:101c2c000080fa00000006000400fa00000f7800a3
:101c3c00110798001e00780000407800e1060700ac
:101c4c00000000001e00780000407800e706070046
:101c5c009e009000810f5000faff39000080fa00be
:101c6c00000006000200fa00004f78001e80fb0006
:101c7c004700de00004078000080fb00610060003f
:101c8c004900dd0062168000f1df2f008100610049
:101c9c0001007000601688009e00fb00000420000c
:101cac000080600000f0a7000000ea000000ea00dd
:101cbc004f00de00004078000080fb0061006000f7
:101ccc004800dd0062168000f1ef2f0081006100fa
:101cdc0001007000601688009e00fb0000022000ce
:101cec000080600000f0a7000000ea000000ea009d
:101cfc004f00de00004078000080fb0061006000b7
:101d0c004700dd0062168000f1f72f0081006100b2
:101d1c0001007000601688001e00fb00700060005f
:101d2c0000f0a7000000ea000000ea004f00de000f
:101d3c00004078000080fb00610060004600dd0080
:101d4c0062168000f1fb2f00810061000100700021
:101d5c00601688000080fa00000006000200fa00fd
:101d6c00004f78001e00fb006800600000f0a70028
:101d7c000000ea000000ea004f00de00004078009e
:101d8c000080fb00610060004900dd0062168000ed
:101d9c00f1df2f00810061000100700060168800e7
:101dac001e00fb006400600000f0a7000000ea00c9
:101dbc000000ea004f00de00004078000080fb00cd
:101dcc00610060004800dd0062168000f1ef2f001a
:101ddc008100610001007000601688001e00fb008d
:101dec006200600000f0a7000000ea000000ea00ba
:101dfc004f00de00004078000080fb0061006000b6
:101e0c004700dd0062168000f1f72f0081006100b1
:101e1c0001007000601688001e4078006140600070
:101e2c0061406000614060000080fb006100600068
:101e3c004600dd0062168000f1fb2f00810061007e
:101e4c0001007000601688000080fa000000060097
:101e5c000200fa00004f7800c922a9004016800049
:101e6c004900de00614060000080fb006100600002
:101e7c004800dd0042168000f1ef2f008100610068
:101e8c000100700040168800401680004800de00fb
:101e9c00614060000080fb00610060004700dd00d5
:101eac0042168000f1f72f008100610001007000e4
:101ebc0040168800401680004700de00614060003c
:101ecc000080fb00610060004600dd0042168000cf
:101edc00f1fb2f00810061000100700040168800aa
:101eec00cc62a900cde2a900cca2a8001e407800cb
:101efc005cff0700cca2a800cca2a900cca2a90030
:101f0c00cca2a8001e40780094ff0700cca2a80029
:101f1c00cca2a900c922a800401680004900de000e
:101f2c00614060000080fb00610060004800dd0043
:101f3c0042168000f1ef2f0081006100010070005b
:101f4c0040168800401680004800de0061406000aa
:101f5c000080fb00610060004700dd00421680003d
:101f6c00f1f72f008100610001007000401688001d
:101f7c00401680004700de00614060000080fb00de
:101f8c00610060004600dd0042168000f1fb2f006e
:101f9c008100610001007000401688000080fa008a
:101fac00000006000200fa00004f7800c922a900c8
:101fbc00401680004900de00614060000080fb009c
:101fcc00610060004800dd0042168000f1ef2f0038
:101fdc0081006100010070004016880040168000ee
:101fec004800de00614060000080fb006100600082
:101ffc004700dd0042168000f1f72f0081006100e0
:10200c000100700040168800401680004700de007a
:10201c00614060000080fb00610060004600dd0054
:10202c0042168000f1fb2f0081006100010070005e
:10203c0040168800cc62a800cde2a900cca2a80072
:10204c001e40780007ff0700cca2a800cca2a90074
:10205c00cca2a900cca2a8001e4078003fff07002c
:10206c00cca2a800cca2a900c922a80040168000ce
:10207c004900de00614060000080fb0061006000f0
:10208c004800dd0042168000f1ef2f008100610056
:10209c000100700040168800401680004800de00e9
:1020ac00614060000080fb00610060004700dd00c3
:1020bc0042168000f1f72f008100610001007000d2
:1020cc0040168800401680004700de00614060002a
:1020dc000080fb00610060004600dd0042168000bd
:1020ec00f1fb2f0081006100010070004016880098
:1020fc000080fa00000006000200fa00c922a800c5
:10210c00401680004900de00614060000080fb004a
:10211c00610060004800dd0042168000f1ef2f00e6
:10212c00810061000100700040168800401680009c
:10213c004800de00614060000080fb006100600030
:10214c004700dd0042168000f1f72f00810061008e
:10215c000100700040168800401680004700de0029
:10216c00614060000080fb00610060004600dd0003
:10217c0042168000f1fb2f0081006100010070000d
:10218c0040168800cc62a900cde2a80090418000e6
:10219c00004078008b050700cca2a800cca2a800b8
:1021ac00501680004900de0061406000004f78004e
:1021bc00cca2a900cca2a900cca2a800cca2a800b9
:1021cc00cca2a900cca2a9009041800000407800cc
:1021dc00860507000000e00004003a001e4078006d
:1021ec000004e000ecff3a000100370000000000a2
:1021fc000080fa00000006000200fa00004f780090
:10220c00c922a900401680004900de006140600030
:10221c000080fb00610060004800dd004216800079
:10222c00f1ef2f0081006100010070004016880062
:10223c00401680004800de00614060000080fb001a
:10224c00610060004700dd0042168000f1f72f00ae
:10225c00810061000100700040168800401680006b
:10226c004700de00614060000080fb006100600000
:10227c004600dd0042168000f1fb2f00810061005a
:10228c000100700040168800cc62a900cde2a900c4
:10229c00cca2a800cca2a8001e00fb006800600025
:1022ac0000f0a7000000ea000000ea004f00de008a
:1022bc00004078000080fb00610060004900dd00f8
:1022cc0062168000f1df2f008100610001007000b8
:1022dc00601688001e00fb006400600000f0a70080
:1022ec000000ea000000ea004f00de000040780029
:1022fc000080fb00610060004800dd006216800079
:10230c00f1ef2f0081006100010070006016880061
:10231c001e00fb006200600000f0a7000000ea0055
:10232c000000ea004f00de00004078000080fb0057
:10233c00610060004700dd0062168000f1f72f009d
:10234c008100610001007000601688001e4078005a
:10235c006140600061406000614060000080fb00f3
:10236c00610060004600dd0062168000f1fb2f006a
:10237c00810061000100700060168800cca2a900e9
:10238c000080fa00000006000200fa001268ef005c
:10239c00c9a2a8000000eb00000f78000500370070
:1023ac00b09820001e0040008040eb0001487800ef
:1023bc001e0fe800b01220009e007800808f5000a5
:1023cc00f7ff3400809820008040eb000148780033
:1023dc00909820008040eb0001487800a0982000e5
:1023ec008040eb00014878001368ef001668ef009e
:1023fc001a68ef001b68ef001768ef001c68ef000d
:10240c000000eb00000f78001968ef00d204070001
:10241c00a04088000080fa00000006000000fa00ce
:10242c0012c8bf000080fb00e40f50004d003200ca
:10243c00e40f500007003c00e10f50001700320081
:10244c00e20f5000270032000000e00008003200cc
:10245c0013013700e60f500064003200e60f500005
:10246c004b003500e70f5000eb0032000c01370039
:10247c005116800000002200008060000000e00087
:10248c00f0003200a040800000407800cd0407002e
:10249c0010c0b30012e8b7000101370051168000dc
:1024ac0000002200008060000000e000e7003a001d
:1024bc00a040800000407800cc040700e40f5000de
:1024cc0002003e001268ef00f5003700a0408000cb
:1024dc0000407800bb04070020c0b30012e8b7002e
:1024ec00ef003700511680000000220000806000d1
:1024fc000000e00010003a00a0408000004078008e
:10250c00ba040700e90f5000d2003600a04080004a
:10251c0000407800b5040700ea0f5000cf003e00e1
:10252c00a040800000407800a604070040c0b30023
:10253c0012e8b700da0037005116800000002200c4
:10254c00008060000000e000c6003200a040800067
:10255c00004078009b04070020c0b30012e8b700cd
:10256c00cf003700a0408000004078009f04070097
:10257c00e10f5000bd003600a04080000040780004
:10258c009004070050c0b30012e8b700c400370035
:10259c00a04080000040780094040700e40f500035
:1025ac00b40036001ac8bf000000fb000000400059
:1025bc0080407800501680004d00de0061406000c5
:1025cc0000c070001ae8b70017c8bf000040e80050
:1025dc0017e8b700a040800000407800790407009d
:1025ec0060c0b30012e8b700ad00370017c8bf00d9
:1025fc00e74f500003003c0070c0b30012e8b70076
:10260c00a700370017c8bf00e84f50000a003a0077
:10261c001cc8bf000004e00007003a001ac8bf0045
:10262c001be8b70010c0b3001ce8b7001768ef0038
:10263c0070c0b30012e8b70017c8bf00e84f5000d5
:10264c0018003a0018c8bf00e24f500015003c00bb
:10265c00b181200091407800e0c4b30080cf5000dd
:10266c0010003a001cc8bf00e14f50000d003a00aa
:10267c00a05228000a01070018c8bf008000fb0008
:10268c00a3812000934178008298200003f1780008
:10269c000040e80018e8b7001768ef0070c0b300fe
:1026ac0012e8b70017c8bf00e84f50001f003a00ef
:1026bc0018c8bf00e24f50001c003400a18120005c
:1026cc0091407800d0c3b30080cf50001700320087
:1026dc00b181200091407800e0c4b30080cf50005d
:1026ec0012003a001cc8bf00e14f50000f003a0026
:1026fc00b0532800ea00070019c8bf008000fb0097
:10270c00a381200093417800b298200003f1780057
:10271c000040e80019e8b7001ac8bf00ef00070036
:10272c001768ef0070c0b30012e8b70017c8bf00fd
:10273c00e84f500008003a00b18120009140780029
:10274c00e0c4b30080cf5000030032001768ef00e4
:10275c001c68ef001268ef0017c8bf00e84f50006c
:10276c0046003a0018c8bf00e24f50004500340044
:10277c00a181200091407800d0c3b30080cf5000dd
:10278c0042003a00b181200091407800e0c4b300cf
:10279c0080cf50003f003a0070542800c000070062
:1027ac0019c8bf000000fb00b19820000041eb00ed
:1027bc0082707800b098200010407800c7000700a5
:1027cc00c098200010407800c4000700d09820006a
:1027dc0010407800c1000700e098200010407800fd
:1027ec00be000700f098200010407800bb000700e6
:1027fc001768ef001868ef001968ef001b68ef000e
:10280c001c68ef001268ef00a040800000407800c8
:10281c00ec03070022003700a04080000040780045
:10282c00f2030700e40f50001c003600a0408000ab
:10283c0000407800e303070020c0b30012e8b700a3
:10284c0017003700000000001500370000000000e2
:10285c0013003700000000001100370000000000da
:10286c000f003700000000000d00370000000000d2
:10287c000b003700000000000900370000000000ca
:10288c0007003700000000000500370000000000c2
:10289c0003003700000000000100370000000000ba
:1028ac000080fa00000006000000fa00113a8000d7
:1028bc00f00b2000008160006004200071052000f6
:1028cc00237420008049780081497800824978007f
:1028dc001136800000fe2f00008060003000b30035
:1028ec00103688002135800000fe2f00008060002b
:1028fc000020a00020358800113a80000004200040
:10290c000101700060042000710520002374200078
:10291c00804978008149780082497800700620004f
:10292c004011880021e2a800001180000080a10065
:10293c000090a100001188002062a9000011800005
:10294c000010a1000020a100001188002002a900a5
:10295c002342a8002468ef009560a8002068ef00cf
:10296c0020c8bf0021e8b70021c8bf001ee8b7008f
:10297c001ec8bf001fe8b7001fc8bf0022e8b70081
:10298c0022c8bf0023e8b7000080fa000000060050
:10299c000000fa0024c8bf000000fb00e10f50004b
:1029ac0010003200e10f500003003c000000e0007a
:1029bc00060032002b003700e20f50000e003200f0
:1029cc00e30f5000150032002600370023c8bf006b
:1029dc000004e0002000320010c0b30024e8b7006f
:1029ec0020003700600007003041880020c0b30091
:1029fc0024e8b7001b0037003041800010407800fd
:102a0c000004e0000300320030c0b30024e8b7003b
:102a1c00140037002468ef001200370011118000f9
:102a2c0000102000008060000000e0000c0032006c
:102a3c0030418000904078008100fb00211188001b
:102a4c000000e800304188002342a80020c0b300f9
:102a5c0024e8b70003003700000000000100370035
:102a6c00000000000080fa00000006000200fa00de
:102a7c00000f7800040037001e007800104078002a
:102a8c001e0fe800150007001e00780010407800ab
:102a9c000004e000f8ff3a000080fa000000060095
:102aac000200fa00000f78001e00780019000700e1
:102abc000080fa00000006000000fa0022c8bf00e7
:102acc000080fb000080fa00000006000000fa0005
:102adc004e0007000080fa00000006000200fa0019
:102aec00004f7800010037000060fe0011118000db
:102afc0000102000008060000000e000faff3200af
:102b0c001e00fb00201188002342a8000080fa0060
:102b1c00000006000200fa00000f78001ec8bf007b
:102b2c008080fb00018140008188200081004100f1
:102b3c009e0878000040e8001ee8b700e181200004
:102b4c009140780000c8b30080cf500001003a00db
:102b5c001e68ef0023c8bf000040e80023e8b70060
:102b6c000080fa00000006000200fa0020c8bf0036
:102b7c008080fb00018140008188200081004100a1
:102b8c00110f78000040e80020e8b7000182200017
:102b9c009140780000c8b30080cf500001003a008b
:102bac002068ef0023c8bf000040e90023e8b7000d
:102bbc001e0078000080fa00000006000200fa00f7
:102bcc00004f78001fc8bf008080fb00828420006b
:102bdc009e41780003f178000040e8001fe8b70040
:102bec00f18120009140780000c4b30080cf5000e8
:102bfc0001003a001f68ef0022c8bf000040e80047
:102c0c0022e8b7000080fa00000006000200fa007b
:102c1c0021c8bf008080fb008284200062cf780036
:102c2c000040e80021e8b7001182200091407800b4
:102c3c0000c4b30080cf500001003a002168ef00bf
:102c4c0022c8bf000040e90022e8b7001e4078000f
:102c5c000080fa00000006003600f800809fbe00dd
:102c6c00829fbe00849fbe00869fbe000000fa00bb
:102c7c008560a90010118000620060000000e00077
:102c8c00010032002222a90030118000004078009f
:102c9c00caff07000080fa004f03be004f02be00bf
:102cac004f01be004f00be003600f9000040060088
:102cbc000000fa00c062a800c042a8006bc0a800c7
:102ccc006ba0a8003e68ef00a3020700004078004c
:102cdc003fe8b7000080fa00000006000000fa0090
:102cec003ec8bf000000fb00e30f50005300320051
:102cfc00e30f500007003c00e10f500020003200b1
:102d0c00e10f50002c003c000000e0000a003200f3
:102d1c00b3003700e50f500063003200e50f5000a0
:102d2c005a003500e60f50006d003200e70f5000de
:102d3c008c003200aa00370010168000680060007a
:102d4c000000e00005003a003fc8bf009d020700ec
:102d5c0010c0b3003ee8b700a10037001016800089
:102d6c00640060000000e00092003a003fc8bf0021
:102d7c009402070050c0b3003ee8b700980037003b
:102d8c003fc8bf009902070031062000810f500098
:102d9c008a00360010168000680060000000e00019
:102dac0003003a0020c0b3003ee8b7008c003700a7
:102dbc003e68ef008a003700040407000004e000be
:102dcc000d003a009701070040e8b70040c8bf006b
:102ddc00ea4f500003003a0010c0b3009501070001
:102dec000500370040c8bf000040e80040e8b700cd
:102dfc0040c8bf008f010700ff0307000004e0007c
:102e0c000b003a004403070040e8b70040c8bf007d
:102e1c000004e00003003a0040c1b3004203070085
:102e2c000300370040c8bf00654050003e03070058
:102e3c0030c0b3003ee8b700690037003fc8bf00a0
:102e4c006a020700f17c2000810f5000060036005a
:102e5c007f0107000004e00001003200e7010700d9
:102e6c003fc8bf00570207001016800068006000c2
:102e7c000000e0005300320040c0b3003ee8b70051
:102e8c003fc8bf004f020700550037003fc8bf00c6
:102e9c005602070031062000810f50004b0036000f
:102eac003e68ef004e0037003fc8bf004f020700de
:102ebc0031062000810f50004600360010168000ad
:102ecc00640060000000e00003003a0060c0b30042
:102edc003ee8b700420037003e68ef004000370084
:102eec00ba0307000004e0000d003a004d01070092
:102efc0040e8b70040c8bf00e14f500003003a0063
:102f0c00a0c0b3004b0107000500370040c8bf004c
:102f1c000040e90040e8b70040c8bf004501070089
:102f2c00b50307000004e0000b003a00fa020700aa
:102f3c0040e8b70040c8bf00f44f500003003a000f
:102f4c000040eb00f80207000300370040c8bf0048
:102f5c0065404000f402070070c0b3003ee8b700c3
:102f6c001f0037003fc8bf0020020700f17c200083
:102f7c00810f500006003600350107000004e00008
:102f8c0001003a009d0107003fc8bf000d02070079
:102f9c0010168000640060000000e0000f0032009a
:102fac0040c0b3003ee8b7003fc8bf0005020700b1
:102fbc000b00370000000000090037000000000083
:102fcc00070037000000000005003700000000007b
:102fdc000300370000000000010037000000000073
:102fec000080fa00000006000000fa0010168000b5
:102ffc006800600000f0a7000000ea000000ea0092
:10300c004f00de00004078000080fa00000006004f
:10301c000000fa00101680006400600000f0a700a9
:10302c000000ea000000ea004f00de0000407800db
:10303c000080fa00000006000200fa00c042a9005d
:10304c00c062a900c082a900c442a900c462a90040
:10305c00c482a9000000eb00000f780016003700b6
:10306c00bd0107008040780040b620001e004000e3
:10307c000148780070b620001e0040008040eb0034
:10308c000148780060b720001e0040008040eb0033
:10309c000148780000b720001e00400001c3b300b7
:1030ac000148780030b720001e0040008040eb0043
:1030bc00014878001e0fe8001e007800e20f500057
:1030cc00e7ff34004668ef000080fa0000000600bd
:1030dc000200fa00000f780070b620001e004000bd
:1030ec00104078000080fb00e10f50001b00320004
:1030fc00e10f500003003c000000e000040032002f
:10310c006a003700e20f50003400320067003700cd
:10311c0060b720001e0040001040780000c0ea009c
:10312c00ea404000a0b620001e0040000148780094
:10313c0040b620001e00400010407800a10107009e
:10314c001e0078005b00070070b620001e004000d7
:10315c0011c0b30001487800540037001e007800fd
:10316c005400070040b620001e00400010407800bc
:10317c009e01070080007800a0b620001e004000d1
:10318c00104078000080fb0000004000808f500051
:10319c004300390040b620001e004000104078006b
:1031ac008801070060b720001e0040001040780026
:1031bc008040e800d0b620001e0040000148780096
:1031cc001e0078004c00070070b620001e00400066
:1031dc0021c0b30001487800340037001e0078008d
:1031ec004500070040b620001e004000104078004b
:1031fc007e01070080007800d0b620001e00400041
:10320c00104078000080fb0000004000808f5000d0
:10321c002500390000b720001e00400090407800c7
:10322c0060b720001e0040001040780055000700d9
:10323c00e14f500003003a0046c8bf000004e00014
:10324c0007003a0060b720001e00400010407800d4
:10325c008040e80060b720001e0040000148780064
:10326c0060b720001e00400010407800e94f50006d
:10327c000400340060b720001e0040008040eb00ca
:10328c00014878001e0078000a00070070b6200084
:10329c001e0040008040eb0001487800030037001e
:1032ac000000000001003700000000000080fa0060
:1032bc00000006000200fa00000f78001e007800e3
:1032cc00e10f500006003200e20f50000600320001
:1032dc000000e00006003a00c442a90004003700d8
:1032ec00c462a90002003700c482a90000000000db
:1032fc000080fa00000006000200fa00000f7800bf
:10330c001e007800e10f500006003200e20f500062
:10331c00060032000000e00006003a00c442a8009b
:10332c0004003700c462a80002003700c482a80061
:10333c00000000000080fa00000006000200fa0005
:10334c00000f78001e0078009040780000b7200035
:10335c00014878001e00e8009040780010b720006b
:10336c00014878001e80e8009040780020b72000cb
:10337c000148780010c0b30046e8b7000080fa009e
:10338c00000006000200fa00004f78001147980078
:10339c009e00fb001e4090000000fb000003b100eb
:1033ac00808f500002003a0010c0b30001003700bb
:1033bc000040eb000080fa00000006000200fa005a
:1033cc000000eb00000f780005003700a0b72000cc
:1033dc001e0040008040eb00014878001e0fe80002
:1033ec001e007800e90f5000f8ff3400c022a9003d
:1033fc00c422a900d80007000040780034e8b700c8
:10340c003768ef0037c8bf0035e8b700d2000700b7
:10341c000040780036e8b7003828ef000080fa004a
:10342c00000006000000fa0036c8bf000080fa0059
:10343c00000006000200fa00004f78001e417800e0
:10344c0061832000824878000080fa0000000600aa
:10345c000000fa0035c8bf000014a2000080fb0079
:10346c000000ea004f00de00004078000080fa0007
:10347c00000006000400fa00100798000000eb00a2
:10348c00000f7800080037001e0078009e009000a6
:10349c000080400090407800a0b720001e00400043
:1034ac00014878001e0fe8001e007800e90f50005c
:1034bc00f5ff340010c0b30037e8b7000080fa0005
:1034cc00000006000000fa0035c8bf000000fb0039
:1034dc00e10f500014003200e10f500003003c00db
:1034ec000000e0000600320042003700e20f5000fe
:1034fc001b003200e30f5000270032003d00370064
:10350c0037c8bf00e14f500035003a0010c0b3007f
:10351c0035e8b70034c8bf00aa00070036c8bf00a2
:10352c00a80007003300370034c8bf00af00070005
:10353c00c1418000a2b72000e2c078008100fb00ee
:10354c00810f50002800390034c8bf009d000700cf
:10355c00c422a80020c0b30035e8b700250037000e
:10356c0034c8bf00a1000700c1418000a2b72000f1
:10357c00e2c078008100fb00810f50001c00390074
:10358c0034c8bf008f000700c422a90030c0b300ac
:10359c0035e8b7001700370036c8bf0093000700a6
:1035ac00713e2000810f50000900360036c8bf0064
:1035bc0084000700c04180000000e800c041880082
:1035cc00c0418000e30f5000010034003828ef00a8
:1035dc0010c0b30035e8b70000000000050037004c
:1035ec00000000000300370000000000010037005d
:1035fc00000000000080fa00000006000000fa0045
:10360c0035c8bf00e24f500002003a003568ef00a9
:10361c000300370020c0b30035e8b700c422a9006e
:10362c0035c8bf000080fb000000e9004f00de0041
:10363c00004078000080fa00000006000000fa004c
:10364c000080fa0000000600809fbe00821f7800f8
:10365c000000fa008460a900d04180000000e8005e
:10366c00d0418800d1418000f0522700808f50005b
:10367c001d0036003c28ef0017003700e0418000a9
:10368c004200dd008080e80080ab2000008040001c
:10369c0010407800e14f50000c003a00e0418000ef
:1036ac00e14180004209dd0081ab20008100410036
:1036bc0011017800d1418000810051004201dd00f0
:1036cc0080ab20000000410001087800e041800040
:1036dc000000e800e0418800e0418000f80f500055
:1036ec00e6ff34003a28ef000080fa004f01780022
:1036fc004f00be00004006000200fa000040eb0044
:10370c00004f7800070037001e80fb00c200dd0070
:10371c00a0ab2000008040008040eb000148780006
:10372c001e4fe8001e407800f84f5000f6ff3600a0
:10373c003a28ef0004a1a9000481a800007d200014
:10374c001008880005e1a8008460a9009460a80016
:10375c000080fa00000006000200fa000040eb00b6
:10376c00004f7800060037001e4fe8001e4078001e
:10377c00f94f500002003a000080eb000f003700b8
:10378c001e80fb004200dd008080e80080ab200042
:10379c000080400010407800e14f5000f2ff3200f2
:1037ac001e80fb00c200dd00a0ab200000804000aa
:1037bc0011c0b300014878001e80fb000080fa00a5
:1037cc00000006000200fa00004f78001e80fb008b
:1037dc00d14180004201dd0080ab2000000041009f
:1037ec00010878000080fa00000006000400fa00ce
:1037fc0020479800d0418000000f78009e00780090
:10380c002e4090000080fb004201dd0080ab2000c8
:10381c000000410010007800008050000080fa0089
:10382c00000006000200fa00004f78001e80fb002a
:10383c00c200dd00a0ab2000008040008040eb0007
:10384c00014878000080fa00000006000000fa0031
:10385c000080fa00000006000000fa00c082a900f7
:10386c00c482a900bcff07000040780028e8b7001c
:10387c002968ef002a68ef002c28ef000080fa007e
:10388c00000006000000fa0029c8bf000080fb0001
:10389c00e10f500017003200e10f500003003c0014
:1038ac000000e0000600320067003700e20f500015
:1038bc002c003200e30f500037003200620037005a
:1038cc0028c8bf00c9ff0700a182200091407800e2
:1038dc008180fb00810f50004c00390028c8bf00cc
:1038ec00b8ff070010c0b30029e8b700c482a900d4
:1038fc005500370028c8bf00bcff0700a18220007c
:10390c00914078008180fb00f4801000810f500002
:10391c004000390028c8bf00aaff07002968ef0043
:10392c00c482a800604180000000e800604188006b
:10393c0060418000e40f500038003a002ac8bf00f4
:10394c000040e8002ae8b7002c28ef002ac8bf0086
:10395c00f44f500033003a0020c0b30029e8b70000
:10396c003900370028c8bf00a0ff0700a182200043
:10397c00914078008180fb00810f50002b003900b2
:10398c0028c8bf008fff070030c0b30029e8b7007c
:10399c00c482a9002c00370028c8bf0093ff070081
:1039ac00a1822000914078008180fb00f4801000ff
:1039bc00810f50001f00390028c8bf0081ff07008d
:1039cc0020c0b30029e8b700c482a8006041800081
:1039dc000000e8006041880060418000e40f500066
:1039ec0016003a002ac8bf000040e9002ae8b700d8
:1039fc002c28ef002ac8bf000004e00011003a0098
:103a0c002968ef002a68ef000f0037000000000063
:103a1c000d003700000000000b0037000000000014
:103a2c00090037000000000007003700000000000c
:103a3c000500370000000000030037000000000004
:103a4c0001003700000000000080fa0000000600b2
:103a5c000000fa00c9c2a900cdc2a9004268ef005b
:103a6c003dff07000040780043e8b700a0c0b3005a
:103a7c0044e8b7000080fa00000006000000fa00dd
:103a8c0042c8bf000080fb000000e00003003200d1
:103a9c00e10f50000e0032001d00370043c8bf007c
:103aac0052ff070041842000914078008180fb0088
:103abc00810f50001300390043c8bf0041ff0700bd
:103acc0010c0b30042e8b700cdc2a9001000370007
:103adc0043c8bf0045ff0700418420009140780097
:103aec008180fb00f4801000810f5000070039002a
:103afc0043c8bf0033ff07004268ef00cdc2a800e7
:103b0c000300370000000000010037000000000037
:103b1c000080fa00000006000000fa0044c8bf0054
:103b2c000080fa00000006000200fa00004f780046
:103b3c001e40780044e8b7000080fa000000060040
:103b4c000000fa00c002a80021a3a8002103a900cc
:103b5c00001980004800de00614060000080fb001e
:103b6c00610060004900dd0002198000f1df2f00c8
:103b7c0081006100010070000019880020e3a8009a
:103b8c00001980004700de00614060000080fb00ef
:103b9c00610060004600dd0002198000f1fb2f007f
:103bac00810061000100700000198800001980007c
:103bbc004600de00614060000080fb006100600098
:103bcc004500dd0002198000f1fd2f00810061002d
:103bdc0001007000001988001019800000d0a100ad
:103bec0000e0a10000f0a100101988002343a900f7
:103bfc002223a80000102000201988002823ef00a1
:103c0c00100020008019880021e3a8002023a800c0
:103c1c002043a8000080fa00000006000000fa0013
:0c3c2c00001880000080fa000000060074
:020000040000fa
:103c3800b80a000064000000000000003a08000014
:103c48000400000000000000280800000600000032
:103c5800000000002e080000060000000000000020
:103c68007a0b00000a000000000000003408000081
:103c780006000000000000003e08000004000000ec
:103c880000000000420800000400000000000000de
:103c98004808000040010000000000001e08000065
:103ca8000a00000000000000840b00000a00000069
:103cb80002000000030201000200000000000000f2
:103cc800000000001c0b000048000000000000007d
:103cd800000800001200000000000000640b000053
:103ce8001600000000000000460800000200000066
:103cf80000000000880900003001000000000000fa
:103d0800120800000c000000000000000000000085
:020000040000fa
:103d18000000fa004427ef0040a7a9000080fa003d
:103d2800000006000000fa00f9ff070073fe070014
:103d3800c2fc070001c1b30020c0b300c4f60700ed
:103d48009ffd0700190007007eff070041ff0700dd
:103d5800d6fa070017f7070025f707008040eb00a1
:103d68000040eb0028f70700a0552800a2f707003d
:103d780060f50700b6f3070084f907000000eb00c0
:103d8800d4fc070010002000d2fc0700200020000f
:103d9800d0fc070091f50700cbfd0700c8f307002a
:103da800fcfa07009ef90700f4ff37000000fa004c
:103db800c9a2a800c982a8002d63a8002d83a80065
:103dc80069a0a80069c0a8000080fa0000000600e9
:103dd8000000fa00511680000000210000806000f9
:103de80000f0a7000000ea000000ea004f00de0033
:103df800004078000080fa00000006000000fa0089
:103e080051168000000022000080600000f0a7002a
:103e18000000ea000000ea004f00de0000407800e1
:083e28000080fa000000060012
:020000040000fa
:04aff8008b69000061
:020000040000fa
:04affc003b3f0000d7
:00000001FF
