:020000040000fa
:080000000002040000000000f2
:020000040000fa
:100008009a0200009a0200009a0200009a02000078
:100018009a0200009a0200009a0200009a02000068
:100028009a0200009a0200009a0200005814000088
:100038009a0200009a0200009a0200009a02000048
:100048009a0200009a0200009a0200006212000060
:100058009a0200009a0200009a0200009a02000028
:100068009a0200009a0200009a0200009a02000018
:100078009a0200009a0200009a0200009a02000008
:100088009a0200009a0200009a0200009a020000f8
:100098009a0200009a0200009a0200009a020000e8
:1000a8009a0200009a0200009a0200009a020000d8
:1000b8009a0200009a0200009a0200009a020000c8
:1000c8009a0200009a0200009a0200009a020000b8
:1000d8009a0200009a0200009a0200009a020000a8
:1000e8009a0200009a0200009a0200009a02000098
:1000f8009a0200009a0200009a0200009a02000088
:100108009a0200009a0200009a0200009a02000077
:100118009a0200009a0200009a0200009a02000067
:100128009a0200009a0200009a0200009a02000057
:100138009a0200009a0200009a0200009a02000047
:100148009a0200009a0200009a0200009a02000037
:100158009a0200009a0200009a0200009a02000027
:100168009a0200009a0200009a0200009a02000017
:100178009a0200009a0200009a0200009a02000007
:100188009a0200009a0200009a0200009a020000f7
:100198009a0200009a0200009a0200009a020000e7
:1001a8009a0200009a0200009a0200009a020000d7
:1001b8009a0200009a0200009a0200009a020000c7
:1001c8009a0200009a0200009a0200009a020000b7
:1001d8009a0200009a0200009a0200009a020000a7
:1001e8009a0200009a0200009a0200009a02000097
:0801f8009a0200009a020000c7
:020000040000fa
:100208009a0200009a0200009a0200009a02000076
:100218009a0200009a0200009a0200009a02000066
:100228009a0200009a0200009a0200005814000086
:100238009a0200009a0200009a0200009a02000046
:100248009a0200009a0200009a020000621200005e
:100258009a0200009a0200009a0200009a02000026
:100268009a0200009a0200009a0200009a02000016
:100278009a0200009a0200009a0200009a02000006
:100288009a0200009a0200009a0200009a020000f6
:100298009a0200009a0200009a0200009a020000e6
:1002a8009a0200009a0200009a0200009a020000d6
:1002b8009a0200009a0200009a0200009a020000c6
:1002c8009a0200009a0200009a0200009a020000b6
:1002d8009a0200009a0200009a0200009a020000a6
:1002e8009a0200009a0200009a0200009a02000096
:1002f8009a0200009a0200009a0200009a02000086
:100308009a0200009a0200009a0200009a02000075
:100318009a0200009a0200009a0200009a02000065
:100328009a0200009a0200009a0200009a02000055
:100338009a0200009a0200009a0200009a02000045
:100348009a0200009a0200009a0200009a02000035
:100358009a0200009a0200009a0200009a02000025
:100368009a0200009a0200009a0200009a02000015
:100378009a0200009a0200009a0200009a02000005
:100388009a0200009a0200009a0200009a020000f5
:100398009a0200009a0200009a0200009a020000e5
:1003a8009a0200009a0200009a0200009a020000d5
:1003b8009a0200009a0200009a0200009a020000c5
:1003c8009a0200009a0200009a0200009a020000b5
:1003d8009a0200009a0200009a0200009a020000a5
:1003e8009a0200009a0200009a0200009a02000095
:0803f8009a0200009a020000c5
:020000040000fa
:10040000cfa120000e7f22000e0188000000000016
:10041000000020000000e000020032000001200087
:10042000200288000c000700a07f210001002000ae
:1004300011000700000020000000e0000200320070
:100440000000020000000000481802000000000048
:100450000040da000000fe004440a9000025200012
:100460000000e0000300320000002000a00188002e
:100470004440a80000000600910188008000780038
:100480000000eb0015003700e280400032a0b4000d
:100490009101ba00e280400032a0b4009102ba009b
:1004a000e280400032a0b4000002eb00472bde00e7
:1004b000f507b200602ce10004003a000059eb009f
:1004c0008301e900fdff3e00040037006128e100e0
:1004d000010032000082eb00040007001101ba00a5
:1004e0000200e000e8ff3a00000006003159ba00bf
:1004f0008301e9000c0032002159ba008301e900b0
:10050000080032000400e00003003a00e2804000ee
:1005100032a0b400f5ff370011d9ba008301e90019
:10052000faff3a008100e800e180400032a0b40008
:0c053000000006000040da000000fe00a1
:020000040000fa
:10053c000d0a0000426500006e760000696e000036
:10054c006775000074200000616c000020570000eb
:10055c00616c00006b690000652d000054650000a3
:10056c007874000069650000210d00000a0000008d
:10057c00000d00000a000000003100002d490000b1
:10058c006e740000726f00006475000069720000e8
:10059c00207500006e2000006e6f000075200000ba
:1005ac0069640000656e00007469000066690000f3
:1005bc0063610000646f0000720d00000a0000000f
:1005cc00003200002d4300006f6e000073750000b8
:1005dc006c7400006172000020490000442000008f
:1005ec006163000074750000616c00000d0a00006e
:1005fc0000000000332d0000436f00006e730000fc
:10060c00756c0000746100007220000074720000b0
:10061c00616d0000657300002069000064650000d6
:10062c006e7400006966000069630000616400007c
:10063c00657300000d0a000000000000342d00005e
:10064c00436f00006e730000756c00007461000055
:10065c007220000074720000616d00006573000070
:10066c002072000065620000756400006573000074
:10067c00207400006f740000616c0000730d0000aa
:10068c000a000000003500002d56000069730000c0
:10069c00756100006c690000747a000061720000e2
:1006ac00206c0000277500006c740000696d000060
:1006bc00206d000069730000736100007467000016
:1006cc00652000007265000062750000740d00006a
:1006dc000a000000003600002d5200006573000077
:1006ec00657400000d0a00000a00000000500000b4
:1006fc0065720000207300006f72000074690000c6
:10070c00722000006465000020710000756100001b
:10071c006c730000657600006f6c0000206f0000a9
:10072c0070630000696f00002c20000070720000e4
:10073c00656d000020450000534300000d0a0000c9
:10074c00000000000a0d0000506c00006163000006
:10075c00612000004c530000363900002e200000b0
:10076c005369000073740000656d00006573000030
:10077c00204400006967000069740000616c00008f
:10078c00732000006920000075500000726f00009b
:10079c006365000073730000616400006f720000f9
:1007ac00730d00000a00000000760000436c00008e
:1007bc0069200000763100002e3000002e20000051
:1007cc00507200006f670000726100006d610000e4
:1007dc002064000065200000746500007374000044
:1007ec000d0a0000000000000d0a0000417200001c
:1007fc0072690000626f0000206100006c20000034
:10080c00657300007461000074200000310d00005d
:10081c000a00000000530000573100003a2000008d
:10082c000000000050420000313a0000200000009f
:10083c00000a00000d4900006e740000726f000089
:10084c006475000065690000782000007661000086
:10085c006c6f00007220000064650000206c0000ca
:10086c00612000006e6f00007661000020690000be
:10087c006e740000656e0000736900007461000006
:10088c0074200000283000002d340000293a0000ac
:10089c000a0d0000000a00000d50000072650000f7
:1008ac006d2000004a2000007065000072200000de
:1008bc00656e0000636500006e64000072650000e8
:1008cc00206f000020610000706100006761000073
:1008dc00722000006c270000616c00007461000045
:1008ec0076650000752000000a0d0000000d000068
:1008fc00416c0000746100007665000075200000fa
:10090c00656e00006365000073210000200000008c
:10091c00000d0000416c0000746100007665000061
:10092c0075200000617000006167000061740000b8
:10093c00210000000009000009530000573200009c
:10094c003a2000000000000009090000504200009d
:10095c00323a000020000000000d00003030000092
:10096c0030000000000d00003032000035000000a7
:10097c00000d00003035000030000000000d0000bc
:10098c003037000035000000000d00003130000051
:10099c003000000000530000444d000020320000e5
:1009ac0030310000332d00003134000020200000d5
:1009bc002020000020000000426f00006f74000037
:1009cc00696e0000672e00002e2e00000000000053
:020000040000fa
:1009dc000200fa00000f78009e007800803e200094
:1009ec0000017800110009008200d80080407800d6
:1009fc00609d200001487800609d20001040780028
:100a0c008000fb0080c12f000088b9000000780036
:100a1c001e0f40009e007800400620000001780068
:100a2c00110009008200d80080407800709d2000e1
:100a3c0001487800709d2000104078008000fb0079
:100a4c00c0f92f000088b900000078001e0f40008c
:100a5c009e007800a0002000000178001100090021
:100a6c008200d80080407800809d200001487800ea
:100a7c00809d2000104078008000fb0060ff2f005c
:100a8c000088b900000078001e0f40001e0078009e
:100a9c00004078000043b00080407800909d20001a
:100aac0001487800a09d20008040eb0001487800b0
:100abc00809d2000104078000043b00080407800fa
:100acc00809d200001487800709d20001040780027
:100adc000043b00080407800709d200001487800f1
:100aec00609d2000104078000043b00080407800ea
:100afc00609d2000014878000080fa00000006008c
:100b0c000000fa00e0292800fd050700f02b280062
:100b1c00fb050700302c2800f9050700702e280073
:100b2c00f705070000302800f505070040322800c3
:100b3c00f305070090342800f10507001037280052
:100b4c00ef050700f02b2800ed050700d037280033
:100b5c00eb0507000080fa00000006000000fa0018
:100b6c00803a2800e6050700b03d2800e4050700a0
:100b7c00e3ff07000028ef008e0707000040780015
:100b8c0002e8b7000368ef000080fa0000000600de
:100b9c000000fa0003c8bf000000fb00cf80de009d
:100bac00d203200003002000820f5000838f5800d6
:100bbc00a9013e00006001003d00370067003700ce
:100bcc0084003700a4003700c4003700eb00370066
:100bdc00ef003700fb0037009f0137009e01370004
:100bec009d0137009c0137009b0137009a013700ab
:100bfc0099013700980137009701370096013700ab
:100c0c00950137009401370093013700ef0037004e
:100c1c0091013700900137008f0137008e013700aa
:100c2c008d0137008c0137008b0137008a013700aa
:100c3c0089013700ed003700870137008601370046
:100c4c0085013700840137008301370082013700aa
:100c5c0081013700800137007f0137007e013700aa
:100c6c007d0137007c0137007b0137007a013700aa
:100c7c0079013700780137007701370076013700aa
:100c8c0075013700e100370073013700720137003e
:100c9c0071013700700137006f0137006e013700aa
:100cac006d0137006c0137006b0137001e013700f6
:100cbc00990507000000e00018003200a03f280052
:100ccc008f0507009905070004e8b7004180200054
:100cdc009140780060c3b30080cf50000b003c0003
:100cec00418020009140780000c3b30080cf5000b9
:100cfc000600340004c8bf008040780000cdb3006b
:100d0c0000c0400003e8b70004003700d0c0b300b7
:100d1c008a05070004c8bf008805070002c8bf0089
:100d2c0049070700813e2000810f50003101360039
:100d3c0002c8bf003a070700004080000000e8002e
:100d4c00004088000140800000712200808f50001c
:100d5c002a013a000028ef003f01370002c8bf000b
:100d6c0039070700813e2000810f5000100036002b
:100d7c00004080000000e800004088000140800036
:100d8c0000712200808f500001003a000028ef0013
:100d9c00004080000eff0700d0c0b30067050700bd
:100dac00609d20005605070002c8bf001c07070005
:100dbc00590507000000e000120132005b05070036
:100dcc00fb4f500011013a004dff07000368ef0084
:100ddc002101370002c8bf001b070700813e20001d
:100dec00810f50001300360002c8bf000c0707002b
:100dfc00004080000000e8000040880001408000b6
:100e0c0000712200808f500001003a000028ef0092
:100e1c00d0c0b30049050700104128003805070071
:100e2c00bd0807000043b0004405070050c1b300e3
:100e3c0003e8b700380507000000e000f5003200b9
:100e4c003a050700fb4f5000f4003a002cff070056
:100e5c000368ef000001370002c8bf00fa06070064
:100e6c00813e2000810f50001300360002c8bf00e5
:100e7c00eb060700004080000000e80000408800fe
:100e8c000140800000712200808f500001003a0068
:100e9c000028ef00d0c0b3002805070080412800cf
:100eac0017050700680607000043b000230507007c
:100ebc00f0c1b30003e8b700170507000000e0001d
:100ecc00d800320019050700fb4f5000d7003a003c
:100edc000bff07000368ef00df00370002c8bf00fc
:100eec00d9060700813e2000810f50001a00360001
:100efc0002c8bf00ca060700004080000000e800de
:100f0c00004088000140800000712200808f50005a
:100f1c0001003a000028ef00d0c0b300070507001d
:100f2c00ec0707000000fb006500b900000078002a
:100f3c00a7fe0700709d200010407800ff040700fa
:100f4c00809d200010407800fc040700909d20003c
:100f5c0010407800f9040700ef0407000000e000df
:100f6c00b4003200f1040700fb4f5000b3003a000c
:100f7c00e3fe07000368ef00b7003700f0412800dc
:100f8c00df04070030c3b30003e8b700b20037003a
:100f9c0010452800da0407005a0707000004e00097
:100fac0003003200d0472800d504070002003700a8
:100fbc00f0482800d2040700d0c3b30003e8b70000
:100fcc00a50037000000fe00a3003700104a2800df
:100fdc00cb0407005b0807000043b000d7040700f0
:100fec0020c0b30003e8b7009b003700a04a2800dc
:100ffc00c30407001e0607000043b000cf0407001f
:10100c0030c0b30003e8b7009300370002c8bf003c
:10101c008d060700813e2000810f50000a0036002b
:10102c0002c8bf007e060700004080000000e800f8
:10103c00004088000140800000712200808f500029
:10104c0001003a000028ef00b30407000000e000a4
:10105c007c003200b50407000000fb0011032000e7
:10106c00810f50001b00320011032000810f500033
:10107c0006003c00fb0f50000e0032000103200064
:10108c00810f50000e003200730037003103200036
:10109c00810f50001900320031032000810f5000e5
:1010ac001100350041032000810f50001800320060
:1010bc006900370092fe07000368ef001900370043
:1010cc00304b28008e0407000040eb00850707001a
:1010dc0014003700904b28008904070050c0b3005f
:1010ec00800707000f003700f04b2800840407002e
:1010fc00a0c0b3007b0707000a003700504c280043
:10110c007f040700f0c0b300760707000500370026
:10111c00b04c28007a04070040c1b30071070700e7
:10112c00000000004c00370002c8bf004606070054
:10113c00813e2000810f50000a00360002c8bf001b
:10114c0037060700004080000000e80000408800df
:10115c000140800000712200808f500001003a0095
:10116c000028ef006c0407000000e000370032009c
:10117c006e0407000000fb00a1042000810f50004a
:10118c0008003200a1062000810f50000e00320032
:10119c00fb0f50002f003a0059fe07000368ef00c8
:1011ac0012003700090707000004e00003003200ba
:1011bc00d0472800520407000c003700f0482800e4
:1011cc004f04070009003700000707000004e00087
:1011dc0003003200d0472800490407000300370001
:1011ec00f048280046040700000000000000000042
:1011fc001900370000000000170037000000000045
:10120c00150037000000000013003700000000003c
:10121c0011003700000000000f0037000000000034
:10122c000d003700000000000b003700000000002c
:10123c000900370000000000070037000000000024
:10124c00050037000000000003003700000000001c
:10125c0001003700000000000080fa0000000600ca
:10126c000200fa00d30507000040780006e8b7003a
:10127c000768ef002e0107000000eb00000f78005c
:10128c000500370080a120001e00400001c3b30000
:10129c00014878001e0fe8001e007800e20f500095
:1012ac00f8ff340080a0200081c5b300014878000d
:1012bc0090a02000f1c2b30001487800a0a020004b
:1012cc0091c5b30001487800b0a0200001c2b30062
:1012dc0001487800c0a0200001c2b300014878008a
:1012ec00d0a0200001c2b30001487800e0a020008b
:1012fc0001c2b30001487800f0a0200001c2b30085
:10130c000148780000a1200001c2b3000148780018
:10131c0010a1200001c2b3000148780020a12000d8
:10132c0091c4b3000148780030a1200041c4b3003f
:10133c000148780040a12000a1c3b3000148780007
:10134c000080fa00000006000000fa0005c8bf008b
:10135c000000fb00e20f50005d003200e20f500075
:10136c0005003c000000e0000a003200e10f5000d4
:10137c002800320093003700e40f50006600320062
:10138c00e40f500059003500e50f50007200320098
:10139c008c00370009c8bf008080fb00124d28006c
:1013ac00e2c078000040e80009e8b700014078008e
:1013bc003101070009c8bf00f04f500001003a008e
:1013cc000968ef00818020009140780010c0b300c4
:1013dc00f0cf500001003e000040eb008140e800df
:1013ec008141780082802000034978000004e000ed
:1013fc006d00320010c0b30005e8b70006c8bf008e
:10140c008705070011c0b3000040eb00dd000700aa
:10141c006c00370080a12000104078008040e8006c
:10142c0080a120000148780090a120001040780095
:10143c008040e80090a1200001487800a0a1200085
:10144c00104078008040e800a0a1200001487800fe
:10145c0080a120009040780090c3b30080cf500052
:10146c000900340080a1200001c3b30001487800ba
:10147c0090a1200001c3b30001487800a0a1200076
:10148c0001c3b3000148780080a12000104078000f
:10149c008040780050a120000148780090a12000e5
:1014ac00104078008040780060a12000014878004e
:1014bc00a0a12000104078008040780070a120008e
:1014cc000148780020c0b30005e8b7003d003700a4
:1014dc00c106070050408800504080003cfd0700ca
:1014ec0030c0b30005e8b7003600370006c8bf00af
:1014fc005505070021032000810f50002c003600f9
:10150c0006c8bf00460507000868ef0040c0b300de
:10151c0005e8b7002b00370008c8bf008080fb002f
:10152c0082a02000e2c078000040e80008e8b70084
:10153c0001407800d000070008c8bf00f04f5000f1
:10154c001d00360050c0b30005e8b70006c8bf0048
:10155c00330507001b00370006c8bf003a0507001b
:10156c00910f2000810f50001500360007c8bf00f6
:10157c000040e80007e8b70007c8bf00f04f500074
:10158c0001003a000768ef000568ef008040eb00af
:10159c000040eb007b00070007c8bf0009e8b7005c
:1015ac000868ef0007003700000000000500370056
:1015bc0000000000030037000000000001003700ad
:1015cc00000000000080fa00000006000400fa0091
:1015dc002047980031479800f60407000041880026
:1015ec002e4090001ce8b7003e4090001de8b7006c
:1015fc001f68ef001fc8bf001ee8b700c8a2a900f3
:10160c00401680004500de00614060000080fb0059
:10161c004f00dd0042168000f1ff270081006100c1
:10162c000100700040168800401680004f00de005c
:10163c00004078000080fb00610060004300dd008a
:10164c004216800071ff2f008100610001007000c4
:10165c00401688000000eb00000f780029003700ce
:10166c000041800041062000cf00070030c0b300cd
:10167c00410207000041800051002000ca00070011
:10168c0030c0b3003c020700004180001100200074
:10169c00c500070030c0b3003702070000418000ce
:1016ac0011002000c000070020c0b3003202070068
:1016bc000041800011002000bb00070080c2b30075
:1016cc0043010700ec01070080c0b3004001070094
:1016dc00e901070010c0b3003d0107000041800084
:1016ec0031002000b0000700e301070060c0b30028
:1016fc0037010700e0010700f0c0b3003401070018
:10170c001e0fe8001e007800e10f5000d4ff3400db
:10171c000080fa00000006000000fa000041800082
:10172c0000407800d60407000080fa000000060094
:10173c000000fa00d001070010c0b300240107001c
:10174c000041800031002000970007000080fa0063
:10175c00000006000000fa00c7010700e0c0b3005b
:10176c001b0107000080fa00000006000000fa00d0
:10177c00c1010700c0c0b300150107000080fa00ca
:10178c00000006000400fa0020479800314798003a
:10179c001cc8bf000080fb00e20f500003003200a9
:1017ac00e40f50000b003200220037002e40900056
:1017bc008000fb003e4090000004e00002003a0074
:1017cc000000eb000100370000042000008f4000f7
:1017dc001d0037002e4090000000fb00000f780029
:1017ec003e409000e14f500003003a0001042000fd
:1017fc001e8f4000140037003e409000e24f500016
:10180c0004003a001dc8bf000080fb001e0f400002
:10181c000d0037003e409000e34f500009003a00a5
:10182c001dc8bf000080fb000004b0001e0f40006c
:10183c00050037002e4090000000fb00000f7800e0
:10184c0001003700000000008b0107001e0078002b
:10185c008040780000c8b30000c07000dc000700b6
:10186c003e4090001ee8b7002e4090001fe8b700e5
:10187c000080fa00000006000200fa00004f780019
:10188c007d0107001e407800260107001fc8bf001d
:10189c000040e8001fe8b7001cc8bf00e34f500031
:1018ac0010003a001fc8bf00f34f50002f00360045
:1018bc001f68ef001ec8bf000040e8001ee8b7001c
:1018cc001ec8bf00e34f5000010036001e68ef0039
:1018dc001ec8bf00804078001fc8bf00a9ff0700ca
:1018ec00220037001cc8bf00e24f500012003a0023
:1018fc00f18120009140780070c2b30080cf50007d
:10190c001a0036001f68ef001ec8bf000040e80038
:10191c001ee8b7001ec8bf00e14f500001003600a2
:10192c001e68ef001ec8bf00804078001fc8bf00b3
:10193c0094ff07000d0037001ec8bf00e14f500098
:10194c000a003a00f18120009140780070c2b30087
:10195c0080cf5000010036001f68ef001ec8bf008a
:10196c00804078001fc8bf0086ff07000080fa0087
:10197c00000006000200fa00000f78000400370097
:10198c001e007800104078001e0fe800baff070018
:10199c001e007800104078000004e000f8ff3a00c8
:1019ac000080fa00000006000400fa00000f780026
:1019bc00110798001e0078000040780018040700fa
:1019cc00000000001e007800004078001e04070094
:1019dc009e009000810f5000faff39000080fa0041
:1019ec00000006000200fa00004f78001e80fb0089
:1019fc004700de00004078000080fb0061006000c2
:101a0c004900dd0062168000f1df2f0081006100cb
:101a1c0001007000601688009e00fb00000420008e
:101a2c000080600000f0a7000000ea000000ea005f
:101a3c004f00de00004078000080fb006100600079
:101a4c004800dd0062168000f1ef2f00810061007c
:101a5c0001007000601688009e00fb000002200050
:101a6c000080600000f0a7000000ea000000ea001f
:101a7c004f00de00004078000080fb006100600039
:101a8c004700dd0062168000f1f72f008100610035
:101a9c0001007000601688001e00fb0070006000e2
:101aac0000f0a7000000ea000000ea004f00de0092
:101abc00004078000080fb00610060004600dd0003
:101acc0062168000f1fb2f008100610001007000a4
:101adc00601688000080fa00000006000200fa0080
:101aec00004f78001e00fb006800600000f0a700ab
:101afc000000ea000000ea004f00de000040780021
:101b0c000080fb00610060004900dd00621680006f
:101b1c00f1df2f0081006100010070006016880069
:101b2c001e00fb006400600000f0a7000000ea004b
:101b3c000000ea004f00de00004078000080fb004f
:101b4c00610060004800dd0062168000f1ef2f009c
:101b5c008100610001007000601688001e00fb000f
:101b6c006200600000f0a7000000ea000000ea003c
:101b7c004f00de00004078000080fb006100600038
:101b8c004700dd0062168000f1f72f008100610034
:101b9c0001007000601688001e40780061406000f3
:101bac0061406000614060000080fb0061006000eb
:101bbc004600dd0062168000f1fb2f008100610001
:101bcc0001007000601688000080fa00000006001a
:101bdc000200fa00004f7800c922a90040168000cc
:101bec004900de00614060000080fb006100600085
:101bfc004800dd0042168000f1ef2f0081006100eb
:101c0c000100700040168800401680004800de007d
:101c1c00614060000080fb00610060004700dd0057
:101c2c0042168000f1f72f00810061000100700066
:101c3c0040168800401680004700de0061406000be
:101c4c000080fb00610060004600dd004216800051
:101c5c00f1fb2f008100610001007000401688002c
:101c6c00cc62a900cde2a900cca2a8001e4078004d
:101c7c005cff0700cca2a800cca2a900cca2a900b2
:101c8c00cca2a8001e40780094ff0700cca2a800ac
:101c9c00cca2a900c922a800401680004900de0091
:101cac00614060000080fb00610060004800dd00c6
:101cbc0042168000f1ef2f008100610001007000de
:101ccc0040168800401680004800de00614060002d
:101cdc000080fb00610060004700dd0042168000c0
:101cec00f1f72f00810061000100700040168800a0
:101cfc00401680004700de00614060000080fb0061
:101d0c00610060004600dd0042168000f1fb2f00f0
:101d1c008100610001007000401688000080fa000c
:101d2c00000006000200fa00004f7800c922a9004a
:101d3c00401680004900de00614060000080fb001e
:101d4c00610060004800dd0042168000f1ef2f00ba
:101d5c008100610001007000401688004016800070
:101d6c004800de00614060000080fb006100600004
:101d7c004700dd0042168000f1f72f008100610062
:101d8c000100700040168800401680004700de00fd
:101d9c00614060000080fb00610060004600dd00d7
:101dac0042168000f1fb2f008100610001007000e1
:101dbc0040168800cc62a800cde2a900cca2a800f5
:101dcc001e40780007ff0700cca2a800cca2a900f7
:101ddc00cca2a900cca2a8001e4078003fff0700af
:101dec00cca2a800cca2a900c922a8004016800051
:101dfc004900de00614060000080fb006100600073
:101e0c004800dd0042168000f1ef2f0081006100d8
:101e1c000100700040168800401680004800de006b
:101e2c00614060000080fb00610060004700dd0045
:101e3c0042168000f1f72f00810061000100700054
:101e4c0040168800401680004700de0061406000ac
:101e5c000080fb00610060004600dd00421680003f
:101e6c00f1fb2f008100610001007000401688001a
:101e7c000080fa00000006000200fa00c922a80047
:101e8c00401680004900de00614060000080fb00cd
:101e9c00610060004800dd0042168000f1ef2f0069
:101eac00810061000100700040168800401680001f
:101ebc004800de00614060000080fb0061006000b3
:101ecc004700dd0042168000f1f72f008100610011
:101edc000100700040168800401680004700de00ac
:101eec00614060000080fb00610060004600dd0086
:101efc0042168000f1fb2f00810061000100700090
:101f0c0040168800cc62a900cde2a80000418000f8
:101f1c0000407800c2020700cca2a800cca2a80006
:101f2c00501680004900de0061406000004f7800d0
:101f3c00cca2a900cca2a900cca2a800cca2a8003b
:101f4c00cca2a900cca2a9000041800000407800de
:101f5c00bd0207000000e00004003a001e407800bb
:101f6c000004e000ecff3a00010037000000000024
:101f7c000080fa00000006000200fa00004f780012
:101f8c00c922a900401680004900de0061406000b3
:101f9c000080fb00610060004800dd0042168000fc
:101fac00f1ef2f00810061000100700040168800e5
:101fbc00401680004800de00614060000080fb009d
:101fcc00610060004700dd0042168000f1f72f0031
:101fdc0081006100010070004016880040168000ee
:101fec004700de00614060000080fb006100600083
:101ffc004600dd0042168000f1fb2f0081006100dd
:10200c000100700040168800cc62a900cde2a90046
:10201c00cca2a800cca2a8001e00fb0068006000a7
:10202c0000f0a7000000ea000000ea004f00de000c
:10203c00004078000080fb00610060004900dd007a
:10204c0062168000f1df2f0081006100010070003a
:10205c00601688001e00fb006400600000f0a70002
:10206c000000ea000000ea004f00de0000407800ab
:10207c000080fb00610060004800dd0062168000fb
:10208c00f1ef2f00810061000100700060168800e4
:10209c001e00fb006200600000f0a7000000ea00d8
:1020ac000000ea004f00de00004078000080fb00da
:1020bc00610060004700dd0062168000f1f72f0020
:1020cc008100610001007000601688001e407800dd
:1020dc006140600061406000614060000080fb0076
:1020ec00610060004600dd0062168000f1fb2f00ed
:1020fc00810061000100700060168800cca2a9006c
:10210c000080fa00000006000000fa00113a80007e
:10211c00f00b20000081600060042000710520009d
:10212c002374200080497800814978008249780026
:10213c001136800000fe2f00008060003000b300dc
:10214c00103688002135800000fe2f0000806000d2
:10215c000020a00020358800113a800000042000e7
:10216c000101700060042000710520002374200020
:10217c0080497800814978008249780070062000f7
:10218c004011880021e2a800001180000080a1000d
:10219c000090a100001188002062a90000118000ad
:1021ac000010a1000020a100001188002002a9004d
:1021bc002342a8001268ef009560a8000e68ef009b
:1021cc000ec8bf000fe8b7000fc8bf000ce8b7007f
:1021dc000cc8bf000de8b7000dc8bf0010e8b70071
:1021ec0010c8bf0011e8b7000080fa00000006001c
:1021fc000000fa0012c8bf000000fb00e10f500005
:10220c0010003200e10f500003003c000000e00021
:10221c00060032002b003700e20f50000e00320097
:10222c00e30f5000150032002600370011c8bf0024
:10223c000004e0002000320010c0b30012e8b70028
:10224c002000370060000700a040880020c0b300c9
:10225c0012e8b7001b003700a04080001040780047
:10226c000004e0000300320030c0b30012e8b700f5
:10227c00140037001268ef001200370011118000b3
:10228c0000102000008060000000e0000c00320014
:10229c00a0408000904078008100fb002111880054
:1022ac000000e800a04088002342a80020c0b30032
:1022bc0012e8b700030037000000000001003700ef
:1022cc00000000000080fa00000006000200fa0086
:1022dc00000f7800040037001e00780010407800d2
:1022ec001e0fe800150007001e0078001040780053
:1022fc000004e000f8ff3a000080fa00000006003d
:10230c000200fa00000f78001e0078001900070088
:10231c000080fa00000006000000fa0010c8bf00a0
:10232c000080fb000080fa00000006000000fa00ac
:10233c004e0007000080fa00000006000200fa00c0
:10234c00004f7800010037000060fe001111800082
:10235c0000102000008060000000e000faff320056
:10236c001e00fb00201188002342a8000080fa0008
:10237c00000006000200fa00000f78000cc8bf0035
:10238c008080fb00018140002187200081004100fa
:10239c009e0878000040e8000ce8b700c1802000df
:1023ac009140780000c8b30080cf500001003a0083
:1023bc000c68ef0011c8bf000040e80011e8b7003e
:1023cc000080fa00000006000200fa000ec8bf00f0
:1023dc008080fb00018140002187200081004100aa
:1023ec00110f78000040e8000ee8b700e1802000f3
:1023fc009140780000c8b30080cf500001003a0033
:10240c000e68ef0011c8bf000040e90011e8b700ea
:10241c001e0078000080fa00000006000200fa009e
:10242c00004f78000dc8bf008080fb002283200085
:10243c009e41780003f178000040e8000de8b700f9
:10244c00d18020009140780000c4b30080cf5000b0
:10245c0001003a000d68ef0010c8bf000040e80012
:10246c0010e8b7000080fa00000006000200fa0035
:10247c000fc8bf008080fb002283200062cf780051
:10248c000040e8000fe8b700f18020009140780090
:10249c0000c4b30080cf500001003a000f68ef0079
:1024ac0010c8bf000040e90010e8b7001e407800db
:1024bc000080fa00000006003600f800809fbe0085
:1024cc00829fbe00849fbe00869fbe000000fa0063
:1024dc008560a90010118000620060000000e0001f
:1024ec00010032002222a900301180000040780047
:1024fc00caff07000080fa004f03be004f02be0067
:10250c004f01be004f00be003600f900004006002f
:10251c000000fa00c062a800c042a8006bc0a8006e
:10252c006ba0a8002a68ef00220107000040780089
:10253c002be8b7000080fa00000006000000fa004b
:10254c002ac8bf000000fb00e30f5000530032000c
:10255c00e30f500007003c00e10f50002000320058
:10256c00e10f50002c003c000000e0000a0032009b
:10257c00b3003700e50f500063003200e50f500048
:10258c005a003500e60f50006d003200e70f500086
:10259c008c003200aa003700101680006800600022
:1025ac000000e00005003a002bc8bf001c0107002a
:1025bc0010c0b3002ae8b700a10037001016800045
:1025cc00640060000000e00092003a002bc8bf00dd
:1025dc001301070050c0b3002ae8b7009800370079
:1025ec002bc8bf001801070031062000810f5000d6
:1025fc008a00360010168000680060000000e000c1
:10260c0003003a0020c0b3002ae8b7008c00370062
:10261c002a68ef008a003700bf0207000004e000c0
:10262c000d003a00ac0107002ce8b7002cc8bf0025
:10263c00ea4f500003003a0010c0b300aa01070093
:10264c00050037002cc8bf000040e8002ce8b7009c
:10265c002cc8bf00a4010700ba0207000004e00068
:10266c000b003a001b0207002ce8b7002cc8bf0077
:10267c000004e00003003a0040c1b3001902070057
:10268c00030037002cc8bf0065405000150207003e
:10269c0030c0b3002ae8b700690037002bc8bf0070
:1026ac00e9000700f17c2000810f50000600360085
:1026bc00940107000004e00001003200c301070090
:1026cc002bc8bf00d6000700101680006800600001
:1026dc000000e0005300320040c0b3002ae8b7000d
:1026ec002bc8bf00ce000700550037002bc8bf0019
:1026fc00d500070031062000810f50004b0036003a
:10270c002a68ef004e0037002bc8bf00ce00070030
:10271c0031062000810f5000460036001016800054
:10272c00640060000000e00003003a0060c0b300e9
:10273c002ae8b700420037002a68ef004000370053
:10274c00750207000004e0000d003a00620107006a
:10275c002ce8b7002cc8bf00e14f500003003a0032
:10276c00a0c0b30060010700050037002cc8bf00f3
:10277c000040e9002ce8b7002cc8bf005a01070044
:10278c00700207000004e0000b003a00d1010700c2
:10279c002ce8b7002cc8bf00f44f500003003a00df
:1027ac000040eb00cf010700030037002cc8bf002e
:1027bc0065404000cb01070070c0b3002ae8b700a9
:1027cc001f0037002bc8bf009f000700f17c2000c2
:1027dc00810f5000060036004a0107000004e0009b
:1027ec0001003a00790107002bc8bf008c000700dc
:1027fc0010168000640060000000e0000f00320042
:10280c0040c0b3002ae8b7002bc8bf008400070003
:10281c000b0037000000000009003700000000002a
:10282c000700370000000000050037000000000022
:10283c00030037000000000001003700000000001a
:10284c000080fa00000006000000fa00101680005c
:10285c006800600000f0a7000000ea000000ea0039
:10286c004f00de00004078000080fa0000000600f7
:10287c000000fa00101680006400600000f0a70051
:10288c000000ea000000ea004f00de000040780083
:10289c000080fa00000006000000fa000080fa0038
:1028ac0000000600809fbe00821f78000000fa0026
:1028bc008460a900104180000000e80010418800ed
:1028cc0011418000f0522700808f50001d0036000f
:1028dc002428ef0017003700204180004200dd0063
:1028ec008080e80020972000008040001040780095
:1028fc00e14f50000c003a00204180002141800043
:10290c004209dd002197200081004100110178006f
:10291c0011418000810051004201dd002097200010
:10292c000000410001087800204180000000e80010
:10293c002041880020418000f80f5000e6ff340051
:10294c002228ef000080fa004f0178004f00be00f3
:10295c00004006000200fa000040eb00004f780037
:10296c00070037001e80fb00c200dd0040972000ee
:10297c00008040008040eb00014878001e4fe800ca
:10298c001e407800f84f5000f6ff36002228ef006a
:10299c0004a1a9000481a800007d20001008880073
:1029ac0005e1a8008460a9009460a8000080fa00ea
:1029bc00000006000200fa000040eb00004f780017
:1029cc00060037001e4fe8001e407800f94f5000fb
:1029dc0002003a000080eb000f0037001e80fb0065
:1029ec004200dd008080e80020972000008040003d
:1029fc0010407800e14f5000f2ff32001e80fb00c7
:102a0c00c200dd00409720000080400011c0b300e0
:102a1c00014878001e80fb000080fa0000000600d0
:102a2c000200fa00004f78001e80fb00114180006c
:102a3c004201dd00209720000000410001087800d1
:102a4c000080fa00000006000400fa0020479800fd
:102a5c0010418000000f78009e0078002e409000fe
:102a6c000080fb004201dd002097200000004100a7
:102a7c0010007800008050000080fa000000060072
:102a8c000200fa00004f78001e80fb00c200dd003f
:102a9c0040972000008040008040eb000148780007
:102aac000080fa00000006000000fa000080fa0026
:102abc00000006000000fa00c082a900c482a90030
:102acc00bcff07000040780016e8b7001768ef005d
:102adc001868ef001a28ef000080fa0000000600ca
:102aec000000fa0017c8bf000080fb00e10f500087
:102afc0017003200e10f500003003c000000e00022
:102b0c000600320067003700e20f50002c00320044
:102b1c00e30f5000370032006200370016c8bf00c8
:102b2c00c9ff070081812000914078008180fb0063
:102b3c00810f50004c00390016c8bf00b8ff0700c9
:102b4c0010c0b30017e8b700c482a90055003700c5
:102b5c0016c8bf00bcff070081812000914078009f
:102b6c008180fb00f4801000810f50004000390080
:102b7c0016c8bf00aaff07001768ef00c482a800a0
:102b8c00d04080000000e800d0408800d040800099
:102b9c00e40f500038003a0018c8bf000040e800ad
:102bac0018e8b7001a28ef0018c8bf00f44f5000ff
:102bbc0033003a0020c0b30017e8b70039003700e3
:102bcc0016c8bf00a0ff070081812000914078004b
:102bdc008180fb00810f50002b00390016c8bf000c
:102bec008fff070030c0b30017e8b700c482a900fc
:102bfc002c00370016c8bf0093ff0700818120000e
:102c0c00914078008180fb00f4801000810f50000f
:102c1c001f00390016c8bf0081ff070020c0b30099
:102c2c0017e8b700c482a800d04080000000e8007c
:102c3c00d0408800d0408000e40f500016003a00cd
:102c4c0018c8bf000040e90018e8b7001a28ef00c8
:102c5c0018c8bf000004e00011003a001768ef002c
:102c6c001868ef000f003700000000000d0037005f
:102c7c00000000000b0037000000000009003700c6
:102c8c0000000000070037000000000005003700be
:102c9c0000000000030037000000000001003700b6
:102cac00000000000080fa00000006000000fa009e
:102cbc00c022a900c422a9003eff070000407800f2
:102ccc0026e8b7002768ef0010c0b30028e8b7006b
:102cdc000080fa00000006000000fa0028c8bf00bf
:102cec000080fa00000006000200fa00004f780095
:102cfc001e41780081822000824878000080fa0012
:102d0c00000006000000fa0027c8bf000014a20053
:102d1c000080fb000000ea004f00de00004078005d
:102d2c000080fa00000006000000fa0027c8bf006f
:102d3c000000fb00e10f500011003200e20f5000c8
:102d4c001b0032000000e0001e003a0026c8bf0045
:102d5c003dff070081822000914078008100fb003c
:102d6c00810f50001400390026c8bf002cff07004b
:102d7c00c422a80010c0b30027e8b7001100370028
:102d8c0026c8bf0030ff07008182200091407800e8
:102d9c008100fb00810f50000900390026c8bf00dc
:102dac001fff0700c422a9002768ef0005003700a9
:102dbc000000000003003700000000000100370095
:102dcc00000000000080fa00000006000000fa007d
:102ddc0027c8bf00e24f500002003a002768ef00fe
:102dec000300370020c0b30027e8b700c422a900b5
:102dfc0027c8bf000080fb000000e9004f00de0088
:102e0c00004078000080fa00000006000000fa0084
:102e1c00c9c2a900cdc2a9002e68ef00e5fe0700cb
:102e2c00004078002fe8b700a0c0b30030e8b7002e
:102e3c000080fa00000006000000fa002ec8bf0057
:102e4c000080fb000000e00003003200e10f5000a6
:102e5c000e0032001d0037002fc8bf00fafe07001d
:102e6c0001832000914078008180fb00810f50008d
:102e7c00130039002fc8bf00e9fe070010c0b300d3
:102e8c002ee8b700cdc2a900100037002fc8bf0034
:102e9c00edfe070001832000914078008180fb004b
:102eac00f4801000810f5000070039002fc8bf00bc
:102ebc00dbfe07002e68ef00cdc2a8000300370030
:102ecc000000000001003700000000000080fa0044
:102edc00000006000000fa0030c8bf000080fa00b5
:102eec00000006000200fa00004f78001e40780037
:102efc0030e8b7000080fa00000006000000fa007d
:102f0c00c002a80021a3a8002103a9000019800079
:102f1c004800de00614060000080fb006100600042
:102f2c004900dd0002198000f1df2f0081006100f3
:102f3c00010070000019880020e3a800001980002f
:102f4c004700de00614060000080fb006100600013
:102f5c004600dd0002198000f1fb2f0081006100aa
:102f6c000100700000198800001980004600de0086
:102f7c00614060000080fb00610060004500dd00e6
:102f8c0002198000f1fd2f0081006100010070002a
:102f9c00001988001019800000d0a10000e0a100e9
:102fac0000f0a100101988002343a9002223a800d7
:102fbc0000102000201988002823ef0010002000aa
:102fcc008019880021e3a8002023a8002043a80032
:102fdc000080fa00000006000000fa0000188000d3
:082fec000080fa00000006005d
:020000040000fa
:102ff40072090000640000000000000022080000c4
:103004000400000000000000160800000600000094
:10301400000000001c080000060000000000000082
:103024002608000004000000000000002a08000038
:1030340004000000000000002e080000040000004e
:103044000000000032080000400100000000000001
:103054000c0800000a00000000000000d60900006f
:103064004600000000000000000800000c00000002
:08307400000000000000000054
:020000040000fa
:10307c000000fa004427ef0040a7a9000080fa00e6
:10308c00000006000000fa00f9ff070031fe0700ff
:10309c0088fe070001c1b30020c0b3004bf9070044
:1030ac0002ff07001300070019fd070093ff07003c
:1030bc0056ff070014fc07009df90700abf9070049
:1030cc008040eb000040eb00aef90700204e2800da
:1030dc0028fa070062f80700a0f6070080fe070038
:1030ec0099f8070010ff0700a9f6070040fc07003d
:1030fc00faff37000000fa00c9a2a800c982a80094
:10310c002d63a8002d83a80069a0a80069c0a800a1
:10311c000080fa00000006000000fa005116800042
:10312c00000021000080600000f0a7000000ea0011
:10313c000000ea004f00de00004078000080fa003a
:10314c00000006000000fa0051168000000022006a
:10315c000080600000f0a7000000ea000000ea0018
:10316c004f00de00004078000080fa0000000600ee
:020000040000fa
:04aff8008b69000061
:020000040000fa
:04affc003b3f0000d7
:00000001FF
