:020000040000fa
:080000000002040000000000f2
:020000040000fa
:04000800c80200002a
:020000040000fa
:04000c00c802000026
:020000040000fa
:04001000c802000022
:020000040000fa
:04001400c80200001e
:020000040000fa
:04001800c80200001a
:020000040000fa
:04001c00c802000016
:020000040000fa
:04002000c802000012
:020000040000fa
:04002400c80200000e
:020000040000fa
:04002800c80200000a
:020000040000fa
:04002c00c802000006
:020000040000fa
:04003000c802000002
:020000040000fa
:040034003018000080
:020000040000fa
:04003800c8020000fa
:020000040000fa
:04003c00c8020000f6
:020000040000fa
:04004000c8020000f2
:020000040000fa
:04004400c8020000ee
:020000040000fa
:04004800c8020000ea
:020000040000fa
:04004c00c8020000e6
:020000040000fa
:04005000c8020000e2
:020000040000fa
:04005400381300005d
:020000040000fa
:04005800c8020000da
:020000040000fa
:04005c00c8020000d6
:020000040000fa
:04006000c8020000d2
:020000040000fa
:04006400c8020000ce
:020000040000fa
:04006800c8020000ca
:020000040000fa
:04006c00c8020000c6
:020000040000fa
:04007000c8020000c2
:020000040000fa
:04007400c8020000be
:020000040000fa
:04007800c8020000ba
:020000040000fa
:04007c00c8020000b6
:020000040000fa
:04008000c8020000b2
:020000040000fa
:04008400c8020000ae
:020000040000fa
:04008800c8020000aa
:020000040000fa
:04008c00c8020000a6
:020000040000fa
:04009000c8020000a2
:020000040000fa
:04009400c80200009e
:020000040000fa
:04009800c80200009a
:020000040000fa
:04009c00c802000096
:020000040000fa
:0400a000c802000092
:020000040000fa
:0400a400c80200008e
:020000040000fa
:0400a800c80200008a
:020000040000fa
:0400ac00c802000086
:020000040000fa
:0400b000c802000082
:020000040000fa
:0400b400c80200007e
:020000040000fa
:0400b800c80200007a
:020000040000fa
:0400bc00c802000076
:020000040000fa
:0400c000c802000072
:020000040000fa
:0400c400c80200006e
:020000040000fa
:0400c800c80200006a
:020000040000fa
:0400cc00c802000066
:020000040000fa
:0400d000c802000062
:020000040000fa
:0400d400c80200005e
:020000040000fa
:0400d800c80200005a
:020000040000fa
:0400dc00c802000056
:020000040000fa
:0400e000c802000052
:020000040000fa
:0400e400c80200004e
:020000040000fa
:0400e800c80200004a
:020000040000fa
:0400ec00c802000046
:020000040000fa
:0400f000c802000042
:020000040000fa
:0400f400c80200003e
:020000040000fa
:0400f800c80200003a
:020000040000fa
:0400fc00c802000036
:020000040000fa
:04010000c802000031
:020000040000fa
:04010400c80200002d
:020000040000fa
:04010800c802000029
:020000040000fa
:04010c00c802000025
:020000040000fa
:04011000c802000021
:020000040000fa
:04011400c80200001d
:020000040000fa
:04011800c802000019
:020000040000fa
:04011c00c802000015
:020000040000fa
:04012000c802000011
:020000040000fa
:04012400c80200000d
:020000040000fa
:04012800c802000009
:020000040000fa
:04012c00c802000005
:020000040000fa
:04013000c802000001
:020000040000fa
:04013400c8020000fd
:020000040000fa
:04013800c8020000f9
:020000040000fa
:04013c00c8020000f5
:020000040000fa
:04014000c8020000f1
:020000040000fa
:04014400c8020000ed
:020000040000fa
:04014800c8020000e9
:020000040000fa
:04020800c802000028
:020000040000fa
:04020c00c802000024
:020000040000fa
:04021000c802000020
:020000040000fa
:04021400c80200001c
:020000040000fa
:04021800c802000018
:020000040000fa
:04021c00c802000014
:020000040000fa
:04022000c802000010
:020000040000fa
:04022400c80200000c
:020000040000fa
:04022800c802000008
:020000040000fa
:04022c00c802000004
:020000040000fa
:04023000c802000000
:020000040000fa
:04023400c8020000fc
:020000040000fa
:04023800c8020000f8
:020000040000fa
:04023c00c8020000f4
:020000040000fa
:04024000c8020000f0
:020000040000fa
:04024400c8020000ec
:020000040000fa
:04024800c8020000e8
:020000040000fa
:04024c00c8020000e4
:020000040000fa
:04025000c8020000e0
:020000040000fa
:04025400c8020000dc
:020000040000fa
:04025800c8020000d8
:020000040000fa
:04025c00c8020000d4
:020000040000fa
:04026000c8020000d0
:020000040000fa
:04026400c8020000cc
:020000040000fa
:04026800c8020000c8
:020000040000fa
:04026c00c8020000c4
:020000040000fa
:04027000c8020000c0
:020000040000fa
:04027400c8020000bc
:020000040000fa
:04027800c8020000b8
:020000040000fa
:04027c00c8020000b4
:020000040000fa
:04028000c8020000b0
:020000040000fa
:04028400c8020000ac
:020000040000fa
:04028800c8020000a8
:020000040000fa
:04028c00c8020000a4
:020000040000fa
:04029000c8020000a0
:020000040000fa
:04029400c80200009c
:020000040000fa
:04029800c802000098
:020000040000fa
:04029c00c802000094
:020000040000fa
:0402a000c802000090
:020000040000fa
:0402a400c80200008c
:020000040000fa
:0402a800c802000088
:020000040000fa
:0402ac00c802000084
:020000040000fa
:0402b000c802000080
:020000040000fa
:0402b400c80200007c
:020000040000fa
:0402b800c802000078
:020000040000fa
:0402bc00c802000074
:020000040000fa
:0402c000c802000070
:020000040000fa
:0402c400c80200006c
:020000040000fa
:0402c800c802000068
:020000040000fa
:0402cc00c802000064
:020000040000fa
:0402d000c802000060
:020000040000fa
:0402d400c80200005c
:020000040000fa
:0402d800c802000058
:020000040000fa
:0402dc00c802000054
:020000040000fa
:0402e000c802000050
:020000040000fa
:0402e400c80200004c
:020000040000fa
:0402e800c802000048
:020000040000fa
:0402ec00c802000044
:020000040000fa
:0402f000c802000040
:020000040000fa
:0402f400c80200003c
:020000040000fa
:0402f800c802000038
:020000040000fa
:0402fc00c802000034
:020000040000fa
:04030000c80200002f
:020000040000fa
:04030400c80200002b
:020000040000fa
:04030800c802000027
:020000040000fa
:04030c00c802000023
:020000040000fa
:04031000c80200001f
:020000040000fa
:04031400c80200001b
:020000040000fa
:04031800c802000017
:020000040000fa
:04031c00c802000013
:020000040000fa
:04032000c80200000f
:020000040000fa
:04032400c80200000b
:020000040000fa
:04032800c802000007
:020000040000fa
:04032c00c802000003
:020000040000fa
:04033000c8020000ff
:020000040000fa
:04033400c8020000fb
:020000040000fa
:04033800c8020000f7
:020000040000fa
:04033c00c8020000f3
:020000040000fa
:04034000c8020000ef
:020000040000fa
:04034400c8020000eb
:020000040000fa
:04034800c8020000e7
:020000040000fa
:100400002fa520000e7f22000e01880000000000b2
:10041000000020000000e000020032000001200087
:1004200020028800140007005b0007000000e000c5
:1004300003003a00a0b121000100200002003700b3
:100440000000200001002000810f70000100320038
:1004500014000700000020000000e000020032004d
:100460000000020000000000881b020000000000e5
:100470000040da000000fe004440a900802920006e
:100480000000e0000300320000002000a00188000e
:100490004440a800000006008a1f78008b1f7800e7
:1004a0000000060091018800800478000000eb0045
:1004b0001a003700e284440032a0b4009905ba0063
:1004c000e284440032a0b4009906ba00e2844400f9
:1004d00032a0b4000006eb00476fde00fd07b2005b
:1004e000636ce10003003a00ebff07000000eb0043
:1004f0000a003700606ce10004003a00005deb0088
:100500008b05e900fdff3e00040037006168e10053
:10051000010032000086eb000b00070019c7ba008b
:100520001905ba000e04e00003003a000a00e000da
:10053000e0ff3a0000000600fe07b2009e018800be
:100540008a047800f5ff3700395dba008b05e900b1
:100550000c003200295dba008b05e900080032006a
:100560000c00e00003003a00e284440032a0b40032
:10057000f5ff370019ddba008b05e900faff3a00f4
:100580008904e800e184440032a0b40000000600c1
:0c0590000040da000000fe000000050042
:020000040000fa
:10059c005761000069740000696e0000672000005c
:1005ac00666f00007220000049440000202000000b
:1005bc000057000061690000746900006e6700005c
:1005cc00206d00006573000073610000676500001a
:1005dc00200000000d0a0000426500006e7600004d
:1005ec00696e00006775000074200000616c0000eb
:1005fc0020570000616c00006b690000652d000045
:10060c00546500007874000069650000210d00003d
:10061c000a000000000d00000a000000003100007c
:10062c002d4900006e740000726f000064750000ac
:10063c0069720000207500006e2000006e6f0000d3
:10064c007520000069640000656e0000746900008c
:10065c006669000063610000646f0000720d0000a9
:10066c000a000000003200002d4300006f6e0000f5
:10067c00737500006c74000061720000204900006a
:10068c00442000006163000074750000616c000080
:10069c000d0a000000000000332d0000436f000025
:1006ac006e730000756c0000746100007220000015
:1006bc0074720000616d0000657300002069000019
:1006cc00646500006e7400006966000069630000d8
:1006dc0061640000657300000d0a0000000000005a
:1006ec00342d0000507200006f6200006120000089
:1006fc0064650000206100006c74000061760000ed
:10070c00657500000d0a000000000000352d00008a
:10071c005669000073750000616c0000697400007c
:10072c007a610000722000006c270000756c0000dc
:10073c00746900006d2000006d6900007373000087
:10074c0061740000676500002072000065620000a3
:10075c00757400000d0a000000000000362d00002a
:10076c005265000073650000740d00000a0a000059
:10077c00000000005065000072200000736f000044
:10078c007274000069720000206400006520000093
:10079c0071750000616c000073650000766f0000dd
:1007ac006c2000006f700000636900006f2c00006b
:1007bc0020700000726500006d20000045530000a1
:1007cc00430d00000a000000000a00000d5000005c
:1007dc006c61000063610000204c00005336000087
:1007ec00392e00002053000069730000746500006e
:1007fc006d6500007320000044690000676900000b
:10080c00746100006c73000020690000207500000a
:10081c00507200006f63000065730000736100008c
:10082c00646f0000727300000d0a000000000000ed
:10083c00764300006c69000020760000312e000029
:10084c00302e00000d0a0000000000000a200000fd
:10085c0047720000616300006965000073200000ae
:10086c00706500006c2000006e6f000075200000a9
:10087c0049440000210d00000a000000000d00009a
:10088c000a0a0000000000000a4500007272000015
:10089c006f720000206e00006f200000686900007d
:1008ac002068000061200000494400000d0a00008f
:1008bc000000000050420000313a0000200000000f
:1008cc00000a00000d4900006e740000726f0000f9
:1008dc0064750000656900007820000076610000f6
:1008ec006c6f00007220000064650000206c00003a
:1008fc00612000006e6f000076610000206900002e
:10090c006e740000656e0000736900007461000075
:10091c0074200000283000002d340000293a00001b
:10092c000a0d0000000a00000d5000007265000066
:10093c006d2000004a20000070650000722000004d
:10094c00656e0000636500006e6400007265000057
:10095c00206f0000206100007061000067610000e2
:10096c00722000006c270000616c000074610000b4
:10097c0076650000752000000a0d0000000d0000d7
:10098c00416c000074610000766500007520000069
:10099c00656e0000636500007321000020000000fc
:1009ac00000d0000416c00007461000076650000d1
:1009bc007520000061700000616700006174000028
:1009cc00210000000009000009530000573200000c
:1009dc003a2000000000000009090000504200000d
:1009ec00323a000020000000000d00003030000002
:1009fc0030000000000d0000303200003500000017
:100a0c00000d00003035000030000000000d00002b
:100a1c003037000035000000000d000031300000c0
:100a2c0030000000004900006e7400007269000084
:100a3c00647500006569000078200000656c00009a
:100a4c00204900004420000064650000206c000078
:100a5c0061200000706c000061630000610d0000fb
:100a6c000a000000000a00004c2700004944000066
:100a7c002061000063740000756100006c200000b0
:100a8c0064650000206c000061200000706c0000a8
:100a9c006163000061200000657300003a200000d3
:100aac000d0a000000000000426f00006f7400008f
:100abc00696e0000672e00002e2e00000000000062
:020000040000fa
:100acc000200fa00000f78009e007800803e2000a3
:100adc0000017800110009008200d80080407800e5
:100aec00009e200001487800009e200010407800f5
:100afc008000fb0080c12f000088b9000000780046
:100b0c001e0f40009e007800400620000001780077
:100b1c00110009008200d80080407800109e20004f
:100b2c0001487800109e2000104078008000fb00e7
:100b3c00c0f92f000088b900000078001e0f40009b
:100b4c009e007800a0002000000178001100090030
:100b5c008200d80080407800209e20000148780058
:100b6c00209e2000104078008000fb0060ff2f00ca
:100b7c000088b900000078001e0f40001e007800ad
:100b8c00004078000043b00080407800309e200088
:100b9c0001487800409e20008040eb00014878001e
:100bac00209e2000104078000043b0008040780068
:100bbc00209e200001487800109e200010407800f4
:100bcc000043b00080407800109e2000014878005f
:100bdc00009e2000104078000043b0008040780058
:100bec00009e2000014878000080fa0000000600fa
:100bfc000000fa00002f28002c06070010312800f6
:100c0c002a060700503128002806070090332800d8
:100c1c002606070020352800240607006037280028
:100c2c0022060700c038280020060700403b280099
:100c3c001e060700103128001c060700003c280087
:100c4c001a0607000080fa00000006000200fa00f5
:100c5c000000eb00000f78000500370020a12000f9
:100c6c001e00400001c3b300014878001e0fe800cd
:100c7c001e007800e20f5000f8ff34002000200026
:100c8c0010408800b03e280008060700e04128000c
:100c9c0006060700d6ff07000028ef003109070001
:100cac000040780004e8b7000568ef001028ef005a
:100cbc000868ef000080fa00000006000000fa004f
:100ccc00881f780005c8bf000000fb00cf80de0045
:100cdc00d203200003002000820f5000838f5800a5
:100cec0080013e00006001003d00370067003700c6
:100cfc008c003700a8003700c8003700ca00370046
:100d0c00ce003700cf003700660037007501370082
:100d1c00740137007301370072013700710137001d
:100d2c00700137006f0137006e0137006d0137001d
:100d3c006c0137006b0137006a013700ce003700b9
:100d4c00680137006701370066013700650137001d
:100d5c00640137006301370062013700610137001d
:100d6c0060013700cc0037005e0137005d013700b1
:100d7c005c0137005b0137005a013700590137001d
:100d8c00580137005701370056013700550137001d
:100d9c00540137005301370052013700510137001d
:100dac00500137004f0137004e0137004d0137001d
:100dbc004c013700c00037004a01370049013700a9
:100dcc00480137004701370046013700450137001d
:100ddc00440137004301370042013700fd00370062
:100dec00b80507000000e00018003200ba05070043
:100dfc0006e8b700618020009140780060c3b30022
:100e0c0080cf50000d003c006180200091407800a4
:100e1c0000c3b30080cf50000800340006c8bf00e8
:100e2c008040780000cdb30000c0400005e8b7005a
:100e3c0005c8bf004802070004003700d0c0b3004b
:100e4c00a905070006c8bf00a705070004c8bf0016
:100e5c00e9080700813e2000810f50001001360088
:100e6c0004c8bf00da080700004080000000e8005a
:100e7c00004088000140800000712200808f5000eb
:100e8c0009013a000028ef00160137008d05070014
:100e9c000000e0000601320080c0b30005e8b70096
:100eac0010013700184080008b05070021a120009d
:100ebc0080707c001040800021a1200061407800ef
:100ecc00fb4f500003003a0049ff07000568ef0094
:100edc0004013700104080000000e00006003400e0
:100eec0010c0b30005e8b700104080000000e90016
:100efc0010408800fb003700c04228006b0507003b
:100f0c003bff07000568ef00200020001040880020
:100f1c0010c0b30008e8b70010c0b30007e8b70072
:100f2c00f000370004c8bf00b308070021032000fd
:100f3c00810f5000e000360007c8bf00e14f5000a1
:100f4c0010003a00a0c0b3006705070070a2200093
:100f5c00104078006405070060a220001040780063
:100f6c006105070050a22000104078005e050700c4
:100f7c00504428004d0507001dff07000568ef00d1
:100f8c00d8003700a04428004805070018ff0700c8
:100f9c000568ef00d300370004c8bf0096080700af
:100fac00813e2000810f50001300360004c8bf00a2
:100fbc0087080700004080000000e800004088001f
:100fcc000140800000712200808f500001003a0027
:100fdc000028ef00d0c0b3004305070000462800ee
:100fec0032050700830607000043b0003e050700ea
:100ffc00f0c1b30005e8b700320507000000e000bf
:10100c00af00320034050700fb4f5000ae003a0031
:10101c00f7fe07000568ef00b200370080a420003f
:10102c0097070700af003700704628001f05070020
:10103c0030c3b30005e8b700aa0037000000fe007b
:10104c00a8003700904928001805070083070700ff
:10105c000004e00003003200504c28001305070088
:10106c0002003700704d280010050700d0c3b300f4
:10107c0005e8b7009b003700904e28000b050700d1
:10108c00d40907000043b0001705070020c0b300c7
:10109c0005e8b70093003700204f28000305070030
:1010ac005e0607000043b0000f05070030c0b30018
:1010bc0005e8b7008b00370004c8bf004e080700d6
:1010cc00813e2000810f50000a00360004c8bf008a
:1010dc003f080700004080000000e8000040880046
:1010ec000140800000712200808f500001003a0006
:1010fc000028ef00f30407000000e0007400320049
:10110c00f50407000000fb0011032000810f5000c4
:10111c001b00320011032000810f500006003c0020
:10112c00fb0f50000e00320001032000810f500015
:10113c000e0032006b00370031032000810f50008d
:10114c001900320031032000810f500011003500ce
:10115c0041032000810f500018003200610037005d
:10116c00a3fe07000568ef0019003700b04f2800f8
:10117c00ce0407000040eb00ee0807001400370017
:10118c0010502800c904070050c0b300e90807003c
:10119c000f00370070502800c4040700a0c0b30033
:1011ac00e40807000a003700d0502800bf040700ed
:1011bc00f0c0b300df0807000500370030512800ed
:1011cc00ba04070040c1b300da08070000000000b1
:1011dc004400370004c8bf0007080700813e200008
:1011ec00810f50000a00360004c8bf00f807070042
:1011fc00004080000000e8000040880001408000b2
:10120c0000712200808f500001003a000028ef008e
:10121c00ac0407000000e0002f003200ae04070011
:10122c000000fb00a1042000810f500008003200d8
:10123c00a1062000810f50000e003200fb0f500061
:10124c0027003a006afe07000568ef00120037001d
:10125c006d0707000004e00003003200504c28002a
:10126c00920407000c003700704d28008f04070013
:10127c0009003700640707000004e0000300320097
:10128c00504c28008904070003003700704d2800db
:10129c008604070000000000000000001100370069
:1012ac00000000000f003700000000000d003700a8
:1012bc00000000000b0037000000000009003700a0
:1012cc000000000007003700000000000500370098
:1012dc000000000003003700000000000100370090
:1012ec00000000004f0478000080fa0000000600a7
:1012fc000200fa009b070700004078000ae8b700dc
:10130c000b68ef00930107000000eb00000f780062
:10131c000500370050a220001e00400001c3b3009e
:10132c00014878001e0fe8001e007800e20f500004
:10133c00f8ff340050a1200081c5b30001487800ab
:10134c0060a12000f1c2b3000148780070a1200018
:10135c0091c5b3000148780080a1200001c2b30000
:10136c000148780090a1200001c2b3000148780028
:10137c00a0a1200001c2b30001487800b0a1200058
:10138c0001c2b30001487800c0a1200001c2b30023
:10139c0001487800d0a1200001c2b30001487800b8
:1013ac00e0a1200001c2b30001487800f0a12000a8
:1013bc0091c4b3000148780000a2200041c4b300de
:1013cc000148780010a22000a1c3b30001487800a6
:1013dc000080fa00000006000000fa0009c8bf00f7
:1013ec000000fb00e20f500099003200e20f5000a9
:1013fc0005003c000000e0000a003200e10f500044
:10140c004b003200d2003700e40f5000a300320032
:10141c00e40f500096003500e50f5000af0032008d
:10142c00cb00370007c8bf00e14f5000200032004e
:10143c000dc8bf008080fb00e22c2800e2c07800c1
:10144c000040e8000de8b700014078009301070068
:10145c000dc8bf00f04f500001003a000d68ef00be
:10146c00c18020009140780010c0b300f0cf500034
:10147c0001003e000040eb008140e8008141780013
:10148c00c2802000034978000004e000a70032006d
:10149c0010c0b30009e8b7000ac8bf004c0707002a
:1014ac0011c0b3000040eb003f010700a80037005b
:1014bc000dc8bf008080fb00f22d2800e2c0780030
:1014cc000040e8000de8b700014078007301070008
:1014dc000dc8bf00f04f500001003a000d68ef003e
:1014ec00c18020009140780010c0b300f0cf5000b4
:1014fc0001003e000040eb008140e8008141780093
:10150c00c2802000034978000004e000890032000a
:10151c0010c0b30009e8b7000ac8bf002c070700c9
:10152c0011c0b3000040eb001f010700880037001a
:10153c0008c8bf00e14f50002100320007c8bf00af
:10154c000004e00030003a0050a220001040780067
:10155c008040e80050a220000148780060a22000e2
:10156c00104078008040e80060a22000014878001c
:10157c0070a22000104078008040e80070a220008b
:10158c000148780050a220009040780090c3b3002e
:10159c0080cf50001c00340050a2200001c3b300c7
:1015ac000148780060a2200001c3b3000148780014
:1015bc0070a2200001c3b30001487800120037006c
:1015cc0008c8bf00e14f50000f003a0020a12000d6
:1015dc009040780050a220000148780030a12000f3
:1015ec009040780060a220000148780040a12000c3
:1015fc009040780070a220000148780050a2200092
:10160c00d10507000868ef0070a220001040780098
:10161c008040780020a220000148780060a22000c1
:10162c00104078008040780030a2200001487800fb
:10163c0050a22000104078008040780040a220008a
:10164c000148780020c0b30009e8b700400037001b
:10165c00f1070700704088007040800057000700b9
:10166c008040880030c0b30009e8b700380037006c
:10167c000ac8bf00e006070081408000810f5000bf
:10168c002e0036000ac8bf00d10607000c68ef0018
:10169c0040c0b30009e8b7002d0037000cc8bf00ec
:1016ac008080fb0052a12000e2c078000040e800de
:1016bc000ce8b70001407800f80007000cc8bf0028
:1016cc00f04f50001f00360050c0b30009e8b700bf
:1016dc000ac8bf00be0607001d0037000ac8bf00bd
:1016ec00c5060700910f2000810f5000170036002f
:1016fc000bc8bf000040e8000be8b7000bc8bf00e8
:10170c00f04f500001003a000b68ef000968ef0041
:10171c008040eb000040eb00a30007000bc8bf00ab
:10172c000de8b7000c68ef0009003700000000005e
:10173c000700370000000000050037000000000023
:10174c00030037000000000001003700000000001b
:10175c000080fa00000006000200fa00004f78003a
:10176c001e00fb00e30f50000f003200e30f50008f
:10177c000f003c00e10f500003003200e20f50005c
:10178c00040032000b00370090512800470307007b
:10179c0008003700905328004403070004c8bf001a
:1017ac008b06070003003700000000000100370023
:1017bc00000000000080fa00000006000400fa009f
:1017cc00100798001e0090006900b9008000780096
:1017dc005000200000017800110009008280d80020
:1017ec00810c2000010f40001e0078000080fa00e0
:1017fc00000006000400fa002047980031479800ca
:10180c0058060700304188002e40900022e8b700af
:10181c003e40900023e8b7002568ef0025c8bf00c4
:10182c0024e8b700c8a2a900401680004500de00dd
:10183c00614060000080fb004f00dd00421680001c
:10184c00f1ff270081006100010070004016880044
:10185c00401680004f00de00004078000080fb0046
:10186c00610060004300dd00411680000130a100e2
:10187c0001007000401688000000eb00000f78009b
:10188c00290037003041800041062000cf000700be
:10189c0030c0b3002a020700304180005100200004
:1018ac00ca00070030c0b300250207003041800099
:1018bc0011002000c500070030c0b3002002070053
:1018cc003041800011002000c000070020c0b30090
:1018dc001b0207003041800011002000bb000700f4
:1018ec0080c2b3003b010700d801070080c0b300e1
:1018fc0038010700d501070010c0b30035010700ff
:10190c003041800031002000b0000700cf010700fb
:10191c0060c0b3002f010700cc010700f0c0b3007a
:10192c002c0107001e0fe8001e007800e10f50008c
:10193c00d4ff34000080fa00000006000000fa001a
:10194c003041800000407800390607000080fa0022
:10195c00000006000000fa00bc01070010c0b30034
:10196c001c01070030418000310020009700070067
:10197c000080fa00000006000000fa00b301070026
:10198c00e0c0b300130107000080fa00000006005d
:10199c000000fa00ad010700c0c0b3000d01070044
:1019ac000080fa00000006000400fa0020479800ae
:1019bc003147980022c8bf000080fb00e20f5000a6
:1019cc0003003200e40f50000b00320022003700fd
:1019dc002e4090008000fb003e4090000004e00090
:1019ec0002003a000000eb00010037000004200068
:1019fc00008f40001d0037002e4090000000fb00bf
:101a0c00000f78003e409000e14f500003003a0078
:101a1c00010420001e8f4000140037003e4090004f
:101a2c00e24f500004003a0023c8bf000080fb00c6
:101a3c001e0f40000d0037003e409000e34f500059
:101a4c0009003a0023c8bf000080fb000004b0006e
:101a5c001e0f4000050037002e4090000000fb00d8
:101a6c00000f78000100370000000000770107002c
:101a7c001e0078008040780000c8b30000c07000e1
:101a8c00d40007003e40900024e8b7002e409000a0
:101a9c0025e8b7000080fa00000006000200fa00fa
:101aac00004f7800690107001e40780018010700fc
:101abc0025c8bf000040e80025e8b70022c8bf00d9
:101acc00e34f500010003a0025c8bf00f34f500000
:101adc002f0036002568ef0024c8bf000040e80046
:101aec0024e8b70024c8bf00e34f500001003600c3
:101afc002468ef0024c8bf008040780025c8bf00d0
:101b0c00a9ff07002200370022c8bf00e24f500097
:101b1c0012003a00518220009140780070c2b3004c
:101b2c0080cf50001a0036002568ef0024c8bf0093
:101b3c000040e80024e8b70024c8bf00e14f500083
:101b4c00010036002468ef0024c8bf0080407800f4
:101b5c0025c8bf0094ff07000d00370024c8bf0044
:101b6c00e14f50000a003a00518220009140780069
:101b7c0070c2b30080cf5000010036002568ef0022
:101b8c0024c8bf008040780025c8bf0086ff07002e
:101b9c000080fa00000006000200fa00000f780036
:101bac00040037001e007800104078001e0fe8007b
:101bbc00baff07001e007800104078000004e00017
:101bcc00f8ff3a000080fa00000006000400fa005a
:101bdc00000f7800110798001e0078000040780074
:101bec007b050700000000001e0078000040780014
:101bfc00810507009e009000810f5000faff39000c
:101c0c000080fa00000006000200fa00004f780085
:101c1c001e80fb004700de00004078000080fb00c7
:101c2c00610060004900dd00611680000190a10098
:101c3c0001007000601688009e00fb00000420006c
:101c4c000080600000f0a7000000ea000000ea003d
:101c5c004f00de00004078000080fb006100600057
:101c6c004800dd00611680000180a10001007000b9
:101c7c00601688009e00fb000002200000806000bf
:101c8c0000f0a7000000ea000000ea004f00de00b0
:101c9c00004078000080fb00610060004700dd0020
:101cac00611680000170a1000100700060168800b0
:101cbc001e00fb007000600000f0a7000000ea00ae
:101ccc000000ea004f00de00004078000080fb00be
:101cdc00610060004600dd00611680000160a1001b
:101cec0001007000601688000080fa0000000600f9
:101cfc000200fa00004f78001e00fb006800600034
:101d0c0000f0a7000000ea000000ea004f00de002f
:101d1c00004078000080fb00610060004900dd009d
:101d2c00611680000190a10001007000601688000f
:101d3c001e00fb006400600000f0a7000000ea0039
:101d4c000000ea004f00de00004078000080fb003d
:101d5c00610060004800dd00611680000180a10078
:101d6c0001007000601688001e00fb00620060001d
:101d7c0000f0a7000000ea000000ea004f00de00bf
:101d8c00004078000080fb00610060004700dd002f
:101d9c00611680000170a1000100700060168800bf
:101dac001e4078006140600061406000614060004e
:101dbc000080fb00610060004600dd0061168000c1
:101dcc000160a10001007000601688000080fa001c
:101ddc00000006000200fa00004f7800c922a9009a
:101dec00401680004900de00614060000080fb006e
:101dfc00610060004800dd00411680000180a100f8
:101e0c000100700040168800401680004800de007b
:101e1c00614060000080fb00610060004700dd0055
:101e2c00411680000170a10001007000401688006e
:101e3c00401680004700de00614060000080fb001f
:101e4c00610060004600dd00411680000160a100c9
:101e5c000100700040168800cc62a900cde2a900f8
:101e6c00cca2a8001e40780067ff0700cca2a800f7
:101e7c00cca2a900cca2a900cca2a8001e4078003c
:101e8c009bff0700cca2a800cca2a900c922a800e5
:101e9c00401680004900de00614060000080fb00bd
:101eac00610060004800dd00411680000180a10047
:101ebc000100700040168800401680004800de00cb
:101ecc00614060000080fb00610060004700dd00a5
:101edc00411680000170a1000100700040168800be
:101eec00401680004700de00614060000080fb006f
:101efc00610060004600dd00411680000160a10019
:101f0c0001007000401688000080fa0000000600f6
:101f1c000200fa00004f7800c922a9004016800088
:101f2c004900de00614060000080fb006100600041
:101f3c004800dd00411680000180a1000100700006
:101f4c0040168800401680004800de0061406000aa
:101f5c000080fb00610060004700dd00411680003e
:101f6c000170a1000100700040168800401680002e
:101f7c004700de00614060000080fb0061006000f3
:101f8c004600dd00411680000160a10001007000d8
:101f9c0040168800cc62a800cde2a900cca2a80013
:101fac001e40780018ff0700cca2a800cca2a90004
:101fbc00cca2a900cca2a8001e4078004cff0700c0
:101fcc00cca2a800cca2a900c922a800401680006f
:101fdc004900de00614060000080fb006100600091
:101fec004800dd00411680000180a1000100700056
:101ffc0040168800401680004800de0061406000fa
:10200c000080fb00610060004700dd00411680008d
:10201c000170a1000100700040168800401680007d
:10202c004700de00614060000080fb006100600042
:10203c004600dd00411680000160a1000100700027
:10204c00401688000080fa00000006000200fa002a
:10205c00c922a800401680004900de0061406000e3
:10206c000080fb00610060004800dd00411680002c
:10207c000180a1000100700040168800401680000d
:10208c004800de00614060000080fb0061006000e1
:10209c004700dd00411680000170a10001007000b6
:1020ac0040168800401680004700de00614060004a
:1020bc000080fb00610060004600dd0041168000de
:1020cc000160a1000100700040168800cc62a900dc
:1020dc00cde2a80030418000004078003c040700ad
:1020ec00cca2a800cca2a800501680004900de00ab
:1020fc0061406000004f7800cca2a900cca2a900de
:10210c00cca2a800cca2a800cca2a900cca2a90069
:10211c003041800000407800370407000000e000e8
:10212c0004003a001e4078000004e000ecff3a0086
:10213c0001003700000000000080fa0000000600db
:10214c000200fa00004f7800c922a9004016800056
:10215c004900de00614060000080fb00610060000f
:10216c004800dd00411680000180a10001007000d4
:10217c0040168800401680004800de006140600078
:10218c000080fb00610060004700dd00411680000c
:10219c000170a100010070004016880040168000fc
:1021ac004700de00614060000080fb0061006000c1
:1021bc004600dd00411680000160a10001007000a6
:1021cc0040168800cc62a900cde2a900cca2a800e0
:1021dc00cca2a8001e00fb006800600000f0a70065
:1021ec000000ea000000ea004f00de00004078002a
:1021fc000080fb00610060004900dd00611680007a
:10220c000190a10001007000601688001e00fb0008
:10221c006400600000f0a7000000ea000000ea0083
:10222c004f00de00004078000080fb006100600081
:10223c004800dd00611680000180a10001007000e3
:10224c00601688001e00fb006200600000f0a70012
:10225c000000ea000000ea004f00de0000407800b9
:10226c000080fb00610060004700dd00611680000b
:10227c000170a10001007000601688001e407800fb
:10228c006140600061406000614060000080fb00c4
:10229c00610060004600dd00611680000160a10055
:1022ac000100700060168800cca2a9000080fa0022
:1022bc00000006000000fa00113a8000f00b20002c
:1022cc000081600060042000710520002374200050
:1022dc008049780081497800824978001136800065
:1022ec0000fe2f00008060003000b3001036880024
:1022fc002135800000fe2f00008060000020a0002f
:10230c0020358800103a8000000178000260a0009f
:10231c00600420007105200023742000804978009f
:10232c0081497800824978007006200040118800ad
:10233c0021e2a80001118000f0cf2f000080600086
:10234c00001188002062a9000111800090ff2f006d
:10235c0000806000001188002002a9002342a80020
:10236c001868ef009560a8001468ef0014c8bf004f
:10237c0015e8b70015c8bf0012e8b70012c8bf00b7
:10238c0013e8b70013c8bf0016e8b70016c8bf00a3
:10239c0017e8b7000080fa00000006000000fa0001
:1023ac0018c8bf000000fb00e10f50001000320005
:1023bc00e10f500003003c000000e000060032007a
:1023cc002b003700e20f50000e003200e30f5000dc
:1023dc00150032002600370017c8bf000004e000cb
:1023ec002000320010c0b30018e8b70020003700fe
:1023fc0060000700d040880020c0b30018e8b70088
:10240c001b003700d0408000104078000004e00032
:10241c000300320030c0b30018e8b70014003700d6
:10242c001868ef0012003700111180000010200016
:10243c00008060000000e0000c003200d040800002
:10244c00904078008100fb00211188000000e8001a
:10245c00d04088002342a80020c0b30018e8b70081
:10246c0003003700000000000100370000000000ee
:10247c000080fa00000006000200fa00000f78004d
:10248c00040037001e007800104078001e0fe80092
:10249c00150007001e007800104078000004e000d2
:1024ac00f8ff3a000080fa00000006000200fa0073
:1024bc00000f78001e007800190007000080fa0059
:1024cc00000006000000fa0016c8bf000080fb00e8
:1024dc000080fa00000006000000fa004e00070021
:1024ec000080fa00000006000200fa00004f78009d
:1024fc00010037000060fe00111180000010200068
:10250c00008060000000e000faff32001e00fb00bb
:10251c00201188002342a8000080fa000000060069
:10252c000200fa00000f780012c8bf008080fb0088
:10253c0001814000c1872000810041009e08780085
:10254c000040e80012e8b70021812000914078009b
:10255c0000c8b30080cf500001003a001268ef00b1
:10256c0017c8bf000040e80017e8b7000080fa0069
:10257c00000006000200fa0014c8bf008080fb00b7
:10258c0001814000c187200081004100110f7800bb
:10259c000040e80014e8b700418120009140780029
:1025ac0000c8b30080cf500001003a001468ef005f
:1025bc0017c8bf000040e90017e8b7001e007800fc
:1025cc000080fa00000006000200fa00004f7800bc
:1025dc0013c8bf008080fb00c28320009e4178009e
:1025ec0003f178000040e80013e8b70031812000c7
:1025fc009140780000c4b30080cf500001003a0035
:10260c001368ef0016c8bf000040e80016e8b700da
:10261c000080fa00000006000200fa0015c8bf0096
:10262c008080fb00c283200062cf78000040e8006d
:10263c0015e8b700518120009140780000c4b30028
:10264c0080cf500001003a001568ef0016c8bf009b
:10265c000040e90016e8b7001e4078000080fa0040
:10266c00000006003600f800809fbe00829fbe006e
:10267c00849fbe00869fbe000000fa008560a90002
:10268c0010118000620060000000e00001003200c8
:10269c002222a9003011800000407800caff0700f8
:1026ac000080fa004f03be004f02be004f01be0077
:1026bc004f00be003600f900004006000000fa0092
:1026cc00c062a800c042a8006bc0a8006ba0a80004
:1026dc003268ef00a30207000040780033e8b7002f
:1026ec000080fa00000006000000fa0032c8bf00ab
:1026fc000000fb00e30f500053003200e30f5000ca
:10270c0007003c00e10f500020003200e10f5000a8
:10271c002c003c000000e0000a003200b30037003f
:10272c00e50f500063003200e50f50005a003500f1
:10273c00e60f50006d003200e70f50008c003200a5
:10274c00aa00370010168000680060000000e0004e
:10275c0005003a0033c8bf009d02070010c0b3004b
:10276c0032e8b700a100370010168000640060004a
:10277c000000e00092003a0033c8bf00940207004a
:10278c0050c0b30032e8b7009800370033c8bf0020
:10279c009902070031062000810f50008a00360094
:1027ac0010168000680060000000e00003003a0092
:1027bc0020c0b30032e8b7008c0037003268ef005d
:1027cc008a003700f80307000004e0000d003a000f
:1027dc009701070034e8b70034c8bf00ea4f500037
:1027ec0003003a0010c0b300950107000500370044
:1027fc0034c8bf000040e80034e8b70034c8bf005c
:10280c008f010700f30307000004e0000b003a00ff
:10281c004403070034e8b70034c8bf000004e000ec
:10282c0003003a0040c1b300420307000300370025
:10283c0034c8bf00654050003e03070030c0b300f1
:10284c0032e8b7006900370033c8bf006a020700de
:10285c00f17c2000810f5000060036007f0107003c
:10286c000004e00001003200e701070033c8bf009c
:10287c005702070010168000680060000000e0009e
:10288c005300320040c0b30032e8b70033c8bf0079
:10289c004f0207005500370033c8bf00560207002f
:1028ac0031062000810f50004b0036003268ef00db
:1028bc004e00370033c8bf004f020700310620001e
:1028cc00810f500046003600101680006400600036
:1028dc000000e00003003a0060c0b30032e8b7002b
:1028ec00420037003268ef0040003700ae030700ab
:1028fc000004e0000d003a004d01070034e8b70079
:10290c0034c8bf00e14f500003003a00a0c0b30030
:10291c004b0107000500370034c8bf000040e90038
:10292c0034e8b70034c8bf0045010700a90307000d
:10293c000004e0000b003a00fa02070034e8b7008c
:10294c0034c8bf00f44f500003003a000040eb00c5
:10295c00f80207000300370034c8bf006540400090
:10296c00f402070070c0b30032e8b7001f00370054
:10297c0033c8bf0020020700f17c2000810f5000fb
:10298c0006003600350107000004e00001003a00a3
:10299c009d01070033c8bf000d0207001016800010
:1029ac00640060000000e0000f00320040c0b30083
:1029bc0032e8b70033c8bf00050207000b00370030
:1029cc00000000000900370000000000070037007d
:1029dc000000000005003700000000000300370075
:1029ec000000000001003700000000000080fa0029
:1029fc00000006000000fa0010168000680060005d
:102a0c0000f0a7000000ea000000ea004f00de0022
:102a1c00004078000080fa00000006000000fa0078
:102a2c00101680006400600000f0a7000000ea00af
:102a3c000000ea004f00de00004078000080fa0041
:102a4c00000006000200fa00c042a900c062a90002
:102a5c00c082a900c442a900c462a900c482a90012
:102a6c000000eb00000f780016003700bd010700d6
:102a7c008040780080a220001e00400001487800b1
:102a8c00b0a220001e0040008040eb0001487800fe
:102a9c00a0a320001e0040008040eb0001487800fd
:102aac0040a320001e00400001c3b3000148780081
:102abc0070a320001e0040008040eb00014878000d
:102acc001e0fe8001e007800e20f5000e7ff3400f4
:102adc003a68ef000080fa00000006000200fa00dd
:102aec00000f7800b0a220001e00400010407800bb
:102afc000080fb00e10f50001b003200e10f500082
:102b0c0003003c000000e000040032006a003700c3
:102b1c00e20f50003400320067003700a0a3200001
:102b2c001e0040001040780000c0ea00ea4040005f
:102b3c00e0a220001e0040000148780080a2200086
:102b4c001e00400010407800a10107001e00780014
:102b5c005b000700b0a220001e00400011c0b300b3
:102b6c0001487800540037001e007800540007001c
:102b7c0080a220001e004000104078009e0107003b
:102b8c0080007800e0a220001e0040001040780079
:102b9c000080fb0000004000808f50004300390093
:102bac0080a220001e004000104078008801070021
:102bbc00a0a320001e004000104078008040e800d8
:102bcc0010a320001e004000014878001e00780071
:102bdc004c000700b0a220001e00400021c0b30032
:102bec0001487800340037001e00780045000700cb
:102bfc0080a220001e004000104078007e010700db
:102c0c008000780010a320001e00400010407800c7
:102c1c000080fb0000004000808f50002500390030
:102c2c0040a320001e00400090407800a0a320008c
:102c3c001e0040001040780055000700e14f500086
:102c4c0003003a003ac8bf000004e00007003a0055
:102c5c00a0a320001e004000104078008040e80037
:102c6c00a0a320001e00400001487800a0a3200073
:102c7c001e00400010407800e94f50000400340062
:102c8c00a0a320001e0040008040eb00014878000b
:102c9c001e0078000a000700b0a220001e004000b1
:102cac008040eb0001487800030037000000000072
:102cbc0001003700000000000080fa000000060050
:102ccc000200fa00000f78001e007800e10f50009f
:102cdc0006003200e20f5000060032000000e00057
:102cec0006003a00c442a90004003700c462a900df
:102cfc0002003700c482a900000000000080fa0026
:102d0c00000006000200fa00000f78001e00780098
:102d1c00e10f500006003200e20f500006003200b6
:102d2c000000e00006003a00c442a800040037008e
:102d3c00c462a80002003700c482a8000000000092
:102d4c000080fa00000006000200fa00000f780074
:102d5c001e0078009040780040a3200001487800c5
:102d6c001e00e8009040780050a320000148780035
:102d7c001e80e8009040780060a320000148780095
:102d8c0010c0b3003ae8b7000080fa00000006005b
:102d9c000200fa00004f7800114798009e00fb00db
:102dac001e4090000000fb000003b100808f50001b
:102dbc0002003a0010c0b300010037000040eb00e5
:102dcc000080fa00000006000200fa000000eb0090
:102ddc00000f780005003700e0a320001e00400023
:102dec008040eb00014878001e0fe8001e007800c0
:102dfc00e90f5000f8ff3400c022a900c422a9003a
:102e0c00d80007000040780028e8b7002b68ef00d6
:102e1c002bc8bf0029e8b700d2000700004078009b
:102e2c002ae8b7002c28ef000080fa00000006000a
:102e3c000000fa002ac8bf000080fa00000006005b
:102e4c000200fa00004f78001e417800a182200099
:102e5c00824878000080fa00000006000000fa00aa
:102e6c0029c8bf000014a2000080fb000000ea008b
:102e7c004f00de00004078000080fa0000000600e1
:102e8c000400fa00100798000000eb00000f780017
:102e9c00080037001e0078009e0090000080400063
:102eac0090407800e0a320001e004000014878000c
:102ebc001e0fe8001e007800e90f5000f5ff3400eb
:102ecc0010c0b3002be8b7000080fa000000060029
:102edc000000fa0029c8bf000000fb00e10f500001
:102eec0014003200e10f500003003c000000e00031
:102efc000600320042003700e20f50001b00320087
:102f0c00e30f5000270032003d0037002bc8bf00f4
:102f1c00e14f500035003a0010c0b30029e8b7006b
:102f2c0028c8bf00aa0007002ac8bf00a8000700d5
:102f3c003300370028c8bf00af0007006141800094
:102f4c00e2a32000e2c078008100fb00810f50005a
:102f5c002800390028c8bf009d000700c422a80023
:102f6c0020c0b30029e8b7002500370028c8bf00ef
:102f7c00a100070061418000e2a32000e2c07800bc
:102f8c008100fb00810f50001c00390028c8bf00d5
:102f9c008f000700c422a90030c0b30029e8b70095
:102fac00170037002ac8bf0093000700713e2000ad
:102fbc00810f5000090036002ac8bf0084000700aa
:102fcc00604180000000e8006041880060418000a2
:102fdc00e30f5000010034002c28ef0010c0b300a8
:102fec0029e8b700000000000500370000000000d1
:102ffc000300370000000000010037000000000053
:10300c000080fa00000006000000fa0029c8bf008a
:10301c00e24f500002003a002968ef00030037002d
:10302c0020c0b30029e8b700c422a90029c8bf00fa
:10303c000080fb000000e9004f00de00004078003b
:10304c000080fa00000006000000fa000080fa0080
:10305c0000000600809fbe00821f78000000fa006e
:10306c008460a900704180000000e8007041880075
:10307c0071418000f0522700808f50001d003600f7
:10308c003028ef0017003700804180004200dd003f
:10309c008080e800c097200000804000104078003d
:1030ac00e14f50000c003a008041800081418000cb
:1030bc004209dd00c1972000810041001101780018
:1030cc0071418000810051004201dd00c097200059
:1030dc000000410001087800804180000000e800f9
:1030ec008041880080418000f80f5000e6ff3400da
:1030fc002e28ef000080fa004f0178004f00be0030
:10310c00004006000200fa000040eb00004f78007f
:10311c00070037001e80fb00c200dd00e097200096
:10312c00008040008040eb00014878001e4fe80012
:10313c001e407800f84f5000f6ff36002e28ef00a6
:10314c0004a1a9000481a800007d200010088800bb
:10315c0005e1a8008460a9009460a8000080fa0032
:10316c00000006000200fa000040eb00004f78005f
:10317c00060037001e4fe8001e407800f94f500043
:10318c0002003a000080eb000f0037001e80fb00ad
:10319c004200dd008080e800c097200000804000e5
:1031ac0010407800e14f5000f2ff32001e80fb000f
:1031bc00c200dd00e09720000080400011c0b30089
:1031cc00014878001e80fb000080fa000000060019
:1031dc000200fa00004f78001e80fb007141800055
:1031ec004201dd00c097200000004100010878007a
:1031fc000080fa00000006000400fa002047980046
:10320c0070418000000f78009e0078002e409000e6
:10321c000080fb004201dd00c0972000000041004f
:10322c0010007800008050000080fa0000000600ba
:10323c000200fa00004f78001e80fb00c200dd0087
:10324c00e0972000008040008040eb0001487800af
:10325c000080fa00000006000000fa000080fa006e
:10326c00000006000000fa00c082a900c482a90078
:10327c00bcff0700004078001ce8b7001d68ef0099
:10328c001e68ef002028ef000080fa000000060006
:10329c000000fa001dc8bf000080fb00e10f5000c9
:1032ac0017003200e10f500003003c000000e0006a
:1032bc000600320067003700e20f50002c0032008d
:1032cc00e30f500037003200620037001cc8bf000b
:1032dc00c9ff0700e1812000914078008180fb004c
:1032ec00810f50004c0039001cc8bf00b8ff07000c
:1032fc0010c0b3001de8b700c482a9005500370008
:10330c001cc8bf00bcff0700e18120009140780081
:10331c008180fb00f4801000810f500040003900c8
:10332c001cc8bf00aaff07001d68ef00c482a800dc
:10333c00004180000000e80000418800004180004e
:10334c00e40f500038003a001ec8bf000040e800ef
:10335c001ee8b7002028ef001ec8bf00f44f500035
:10336c0033003a0020c0b3001de8b7003900370025
:10337c001cc8bf00a0ff0700e1812000914078002d
:10338c008180fb00810f50002b0039001cc8bf004e
:10339c008fff070030c0b3001de8b700c482a9003e
:1033ac002c0037001cc8bf0093ff0700e1812000f0
:1033bc00914078008180fb00f4801000810f500058
:1033cc001f0039001cc8bf0081ff070020c0b300dc
:1033dc001de8b700c482a800004180000000e8008e
:1033ec000041880000418000e40f500016003a00b4
:1033fc001ec8bf000040e9001ee8b7002028ef00ff
:10340c001ec8bf000004e00011003a001d68ef0068
:10341c001e68ef000f003700000000000d003700a1
:10342c00000000000b00370000000000090037000e
:10343c000000000007003700000000000500370006
:10344c0000000000030037000000000001003700fe
:10345c00000000000080fa00000006000000fa00e6
:10346c00c9c2a900cdc2a9003668ef003dff070014
:10347c000040780037e8b700a0c0b30038e8b700c8
:10348c000080fa00000006000000fa0036c8bf00f9
:10349c000080fb000000e00003003200e10f500050
:1034ac000e0032001d00370037c8bf0052ff070066
:1034bc0081832000914078008180fb00810f5000b7
:1034cc001300390037c8bf0041ff070010c0b3001c
:1034dc0036e8b700cdc2a9001000370037c8bf00ce
:1034ec0045ff070081832000914078008180fb001c
:1034fc00f4801000810f50000700390037c8bf005e
:10350c0033ff07003668ef00cdc2a8000300370078
:10351c000000000001003700000000000080fa00ed
:10352c00000006000000fa0038c8bf000080fa0056
:10353c00000006000200fa00004f78001e407800e0
:10354c0038e8b7000080fa00000006000000fa001e
:10355c00c002a80021a3a8002103a9000019800023
:10356c004800de00614060000080fb0061006000ec
:10357c004900dd00011980000190a10001007000dc
:10358c000019880020e3a800001980004700de0025
:10359c00614060000080fb00610060004600dd00bf
:1035ac00011980000160a100010070000019880061
:1035bc00001980004600de00614060000080fb00c6
:1035cc00610060004500dd00011980000150a10080
:1035dc00010070000019880011198000f0ff210013
:1035ec0000806000101988002343a9002223a80042
:1035fc0000102000201988002823ef001000200064
:10360c008019880021e3a8002023a8002043a800eb
:10361c000080fa00000006000000fa00001880008c
:08362c000080fa000000060016
:020000040000fa
:103634007c09000064000000000000002e08000067
:1036440004000000000000001c0800000600000048
:103654000000000022080000060000000000000036
:103664003e0a00000a0000000000000028080000d4
:103674000600000000000000320800000400000002
:1036840000000000360800000400000000000000f4
:103694003c08000040010000000000001208000087
:1036a4000a00000000000000480a00000a000000b0
:1036b40002000000030201000200000000000000fc
:1036c40000000000e00900004800000000000000c5
:1036d400000800001200000000000000280a00009a
:1036e40016000000000000003a080000020000007c
:0836f4000000000000000000ce
:020000040000fa
:1036fc000000fa004427ef0040a7a9000080fa0060
:10370c00000006000000fa00f9ff07007dfe07002c
:10371c00ccfc070001c1b30020c0b30035f8070092
:10372c00a9fd07001700070088ff07004bff0700e3
:10373c00e0fa070087f8070095f807008040eb00d7
:10374c000040eb0098f80700a055280012f907007c
:10375c00e7f607003df507000000eb00dffc070073
:10376c0010002000ddfc070020002000dbfc07001f
:10377c0019f70700d6fd070050f5070007fb0700f7
:10378c00f5ff37000000fa00c9a2a800c982a80002
:10379c002d63a8002d83a80069a0a80069c0a8000b
:1037ac000080fa00000006000000fa0051168000ac
:1037bc00000021000080600000f0a7000000ea007b
:1037cc000000ea004f00de00004078000080fa00a4
:1037dc00000006000000fa005116800000002200d4
:1037ec000080600000f0a7000000ea000000ea0082
:1037fc004f00de00004078000080fa000000060058
:020000040000fa
:04aff8008b69000061
:020000040000fa
:04affc003b3f0000d7
:00000001FF
