:020000040000fa
:080000000002040000000000f2
:020000040000fa
:04000800c80200002a
:020000040000fa
:04000c00c802000026
:020000040000fa
:04001000c802000022
:020000040000fa
:04001400c80200001e
:020000040000fa
:04001800c80200001a
:020000040000fa
:04001c00c802000016
:020000040000fa
:04002000c802000012
:020000040000fa
:04002400c80200000e
:020000040000fa
:04002800c80200000a
:020000040000fa
:04002c00c802000006
:020000040000fa
:04003000c802000002
:020000040000fa
:04003400521700005f
:020000040000fa
:04003800c8020000fa
:020000040000fa
:04003c00c8020000f6
:020000040000fa
:04004000c8020000f2
:020000040000fa
:04004400c8020000ee
:020000040000fa
:04004800c8020000ea
:020000040000fa
:04004c00c8020000e6
:020000040000fa
:04005000c8020000e2
:020000040000fa
:040054009a130000fb
:020000040000fa
:04005800c8020000da
:020000040000fa
:04005c00c8020000d6
:020000040000fa
:04006000c8020000d2
:020000040000fa
:04006400c8020000ce
:020000040000fa
:04006800c8020000ca
:020000040000fa
:04006c00c8020000c6
:020000040000fa
:04007000c8020000c2
:020000040000fa
:04007400c8020000be
:020000040000fa
:04007800c8020000ba
:020000040000fa
:04007c00c8020000b6
:020000040000fa
:04008000c8020000b2
:020000040000fa
:04008400c8020000ae
:020000040000fa
:04008800c8020000aa
:020000040000fa
:04008c00c8020000a6
:020000040000fa
:04009000c8020000a2
:020000040000fa
:04009400c80200009e
:020000040000fa
:04009800c80200009a
:020000040000fa
:04009c00c802000096
:020000040000fa
:0400a000c802000092
:020000040000fa
:0400a400c80200008e
:020000040000fa
:0400a800c80200008a
:020000040000fa
:0400ac00c802000086
:020000040000fa
:0400b000c802000082
:020000040000fa
:0400b400c80200007e
:020000040000fa
:0400b800c80200007a
:020000040000fa
:0400bc00c802000076
:020000040000fa
:0400c000c802000072
:020000040000fa
:0400c400c80200006e
:020000040000fa
:0400c800c80200006a
:020000040000fa
:0400cc00c802000066
:020000040000fa
:0400d000c802000062
:020000040000fa
:0400d400c80200005e
:020000040000fa
:0400d800c80200005a
:020000040000fa
:0400dc00c802000056
:020000040000fa
:0400e000c802000052
:020000040000fa
:0400e400c80200004e
:020000040000fa
:0400e800c80200004a
:020000040000fa
:0400ec00c802000046
:020000040000fa
:0400f000c802000042
:020000040000fa
:0400f400c80200003e
:020000040000fa
:0400f800c80200003a
:020000040000fa
:0400fc00c802000036
:020000040000fa
:04010000c802000031
:020000040000fa
:04010400c80200002d
:020000040000fa
:04010800c802000029
:020000040000fa
:04010c00c802000025
:020000040000fa
:04011000c802000021
:020000040000fa
:04011400c80200001d
:020000040000fa
:04011800c802000019
:020000040000fa
:04011c00c802000015
:020000040000fa
:04012000c802000011
:020000040000fa
:04012400c80200000d
:020000040000fa
:04012800c802000009
:020000040000fa
:04012c00c802000005
:020000040000fa
:04013000c802000001
:020000040000fa
:04013400c8020000fd
:020000040000fa
:04013800c8020000f9
:020000040000fa
:04013c00c8020000f5
:020000040000fa
:04014000c8020000f1
:020000040000fa
:04014400c8020000ed
:020000040000fa
:04014800c8020000e9
:020000040000fa
:04020800c802000028
:020000040000fa
:04020c00c802000024
:020000040000fa
:04021000c802000020
:020000040000fa
:04021400c80200001c
:020000040000fa
:04021800c802000018
:020000040000fa
:04021c00c802000014
:020000040000fa
:04022000c802000010
:020000040000fa
:04022400c80200000c
:020000040000fa
:04022800c802000008
:020000040000fa
:04022c00c802000004
:020000040000fa
:04023000c802000000
:020000040000fa
:04023400c8020000fc
:020000040000fa
:04023800c8020000f8
:020000040000fa
:04023c00c8020000f4
:020000040000fa
:04024000c8020000f0
:020000040000fa
:04024400c8020000ec
:020000040000fa
:04024800c8020000e8
:020000040000fa
:04024c00c8020000e4
:020000040000fa
:04025000c8020000e0
:020000040000fa
:04025400c8020000dc
:020000040000fa
:04025800c8020000d8
:020000040000fa
:04025c00c8020000d4
:020000040000fa
:04026000c8020000d0
:020000040000fa
:04026400c8020000cc
:020000040000fa
:04026800c8020000c8
:020000040000fa
:04026c00c8020000c4
:020000040000fa
:04027000c8020000c0
:020000040000fa
:04027400c8020000bc
:020000040000fa
:04027800c8020000b8
:020000040000fa
:04027c00c8020000b4
:020000040000fa
:04028000c8020000b0
:020000040000fa
:04028400c8020000ac
:020000040000fa
:04028800c8020000a8
:020000040000fa
:04028c00c8020000a4
:020000040000fa
:04029000c8020000a0
:020000040000fa
:04029400c80200009c
:020000040000fa
:04029800c802000098
:020000040000fa
:04029c00c802000094
:020000040000fa
:0402a000c802000090
:020000040000fa
:0402a400c80200008c
:020000040000fa
:0402a800c802000088
:020000040000fa
:0402ac00c802000084
:020000040000fa
:0402b000c802000080
:020000040000fa
:0402b400c80200007c
:020000040000fa
:0402b800c802000078
:020000040000fa
:0402bc00c802000074
:020000040000fa
:0402c000c802000070
:020000040000fa
:0402c400c80200006c
:020000040000fa
:0402c800c802000068
:020000040000fa
:0402cc00c802000064
:020000040000fa
:0402d000c802000060
:020000040000fa
:0402d400c80200005c
:020000040000fa
:0402d800c802000058
:020000040000fa
:0402dc00c802000054
:020000040000fa
:0402e000c802000050
:020000040000fa
:0402e400c80200004c
:020000040000fa
:0402e800c802000048
:020000040000fa
:0402ec00c802000044
:020000040000fa
:0402f000c802000040
:020000040000fa
:0402f400c80200003c
:020000040000fa
:0402f800c802000038
:020000040000fa
:0402fc00c802000034
:020000040000fa
:04030000c80200002f
:020000040000fa
:04030400c80200002b
:020000040000fa
:04030800c802000027
:020000040000fa
:04030c00c802000023
:020000040000fa
:04031000c80200001f
:020000040000fa
:04031400c80200001b
:020000040000fa
:04031800c802000017
:020000040000fa
:04031c00c802000013
:020000040000fa
:04032000c80200000f
:020000040000fa
:04032400c80200000b
:020000040000fa
:04032800c802000007
:020000040000fa
:04032c00c802000003
:020000040000fa
:04033000c8020000ff
:020000040000fa
:04033400c8020000fb
:020000040000fa
:04033800c8020000f7
:020000040000fa
:04033c00c8020000f3
:020000040000fa
:04034000c8020000ef
:020000040000fa
:04034400c8020000eb
:020000040000fa
:04034800c8020000e7
:020000040000fa
:10040000cfa320000e7f22000e0188000000000014
:10041000000020000000e000020032000001200087
:1004200020028800140007005b0007000000e000c5
:1004300003003a00c0ae2100010020000200370096
:100440000000200001002000810f70000100320038
:1004500014000700000020000000e000020032004d
:100460000000020000000000461b02000000000027
:100470000040da000000fe004440a900802a20006d
:100480000000e0000300320000002000a00188000e
:100490004440a800000006008a1f78008b1f7800e7
:1004a0000000060091018800800478000000eb0045
:1004b0001a003700e284440032a0b4009905ba0063
:1004c000e284440032a0b4009906ba00e2844400f9
:1004d00032a0b4000006eb00476fde00fd07b2005b
:1004e000636ce10003003a00ebff07000000eb0043
:1004f0000a003700606ce10004003a00005deb0088
:100500008b05e900fdff3e00040037006168e10053
:10051000010032000086eb000b00070019c7ba008b
:100520001905ba000e04e00003003a000a00e000da
:10053000e0ff3a0000000600fe07b2009e018800be
:100540008a047800f5ff3700395dba008b05e900b1
:100550000c003200295dba008b05e900080032006a
:100560000c00e00003003a00e284440032a0b40032
:10057000f5ff370019ddba008b05e900faff3a00f4
:100580008904e800e184440032a0b40000000600c1
:0c0590000040da000000fe000000050042
:020000040000fa
:10059c005761000069740000696e0000672000005c
:1005ac00666f00007220000049440000202000000b
:1005bc000057000061690000746900006e6700005c
:1005cc00206d00006573000073610000676500001a
:1005dc00200000000d0a0000426500006e7600004d
:1005ec00696e00006775000074200000616c0000eb
:1005fc0020570000616c00006b690000652d000045
:10060c00546500007874000069650000210d00003d
:10061c000a000000000d00000a000000003100007c
:10062c002d4900006e740000726f000064750000ac
:10063c0069720000207500006e2000006e6f0000d3
:10064c007520000069640000656e0000746900008c
:10065c006669000063610000646f0000720d0000a9
:10066c000a000000003200002d4300006f6e0000f5
:10067c00737500006c74000061720000204900006a
:10068c00442000006163000074750000616c000080
:10069c000d0a000000000000332d0000436f000025
:1006ac006e730000756c0000746100007220000015
:1006bc0074720000616d0000657300002069000019
:1006cc00646500006e7400006966000069630000d8
:1006dc0061640000657300000d0a0000000000005a
:1006ec00342d0000436f00006e730000756c000029
:1006fc00746100007220000074720000616d0000d3
:10070c0065730000207200006562000075640000d3
:10071c0065730000207400006f740000616c0000b1
:10072c00730d00000a000000003500002d5600007b
:10073c0069730000756100006c690000747a000038
:10074c0061720000206c0000277500006c740000c2
:10075c00696d0000206d000069730000736100007a
:10076c00746700006520000072650000627500006f
:10077c00740d00000a000000003600002d5200002d
:10078c0065730000657400000d0a00000a0000008b
:10079c000050000065720000207300006f720000b2
:1007ac007469000072200000646500002071000074
:1007bc00756100006c730000657600006f6c0000c2
:1007cc00206f000070630000696f00002c20000097
:1007dc0070720000656d000020450000534300005e
:1007ec000d0a0000000000000a0d0000506c000013
:1007fc0061630000612000004c530000363900009a
:10080c002e2000005369000073740000656d000019
:10081c0065730000204400006967000069740000e3
:10082c00616c00007320000069200000755000000e
:10083c00726f000063650000737300006164000058
:10084c006f720000730d00000a00000000760000bb
:10085c00436c000069200000763100002e3000004f
:10086c002e0d00000a000000000a000020470000c6
:10087c007261000063690000657300002070000065
:10088c00656c0000206e00006f75000020490000b0
:10089c00442100000d0a0000000000000d0a0000b9
:1008ac000a000000000a000045720000726f000090
:1008bc00722000006e6f00002068000069200000ac
:1008cc006861000020490000440d00000a0000008f
:1008dc0000500000423100003a20000000000000ef
:1008ec000a0d0000496e0000747200006f64000075
:1008fc00756500006978000020760000616c0000ce
:10090c006f72000020640000652000006c61000024
:10091c00206e00006f76000061200000696e000000
:10092c00746500006e73000069740000617400004f
:10093c0020280000302d0000342900003a0a000065
:10094c000d0000000a0d000050720000656d0000e3
:10095c00204a000020700000657200002065000035
:10096c006e630000656e000064720000652000007c
:10097c006f20000061700000616700006172000070
:10098c00206c0000276100006c7400006176000090
:10099c0065750000200a00000d0000000d410000ec
:1009ac006c74000061760000657500002065000025
:1009bc006e63000065730000212000000000000041
:1009cc000d4100006c74000061760000657500003c
:1009dc00206100007061000067610000742100005c
:1009ec00000000000909000053570000323a0000d3
:1009fc0020000000000900000950000042320000f5
:100a0c003a200000000000000d30000030300000e3
:100a1c00000000000d300000323500000000000026
:100a2c000d30000035300000000000000d300000db
:100a3c0037350000000000000d31000030300000a0
:100a4c0000000000496e0000747200006964000030
:100a5c007565000069780000206500006c200000be
:100a6c004944000020640000652000006c61000017
:100a7c00207000006c610000636100000d0a000032
:100a8c00000000000a4c0000274900004420000030
:100a9c006163000074750000616c0000206400004c
:100aac00652000006c610000207000006c6100008b
:100abc006361000020650000733a0000200d000007
:100acc000a00000000000000426f00006f7400007c
:100adc00696e0000672e00002e2e00000000000042
:020000040000fa
:100aec000200fa00000f78009e007800803e200083
:100afc0000017800110009008200d80080407800c5
:100b0c00e09d200001487800e09d20001040780016
:100b1c008000fb0080c12f000088b9000000780025
:100b2c001e0f40009e007800400620000001780057
:100b3c00110009008200d80080407800f09d200050
:100b4c0001487800f09d2000104078008000fb00e8
:100b5c00c0f92f000088b900000078001e0f40007b
:100b6c009e007800a0002000000178001100090010
:100b7c008200d80080407800009e20000148780058
:100b8c00009e2000104078008000fb0060ff2f00ca
:100b9c000088b900000078001e0f40001e0078008d
:100bac00004078000043b00080407800109e200088
:100bbc0001487800209e20008040eb00014878001e
:100bcc00009e2000104078000043b0008040780068
:100bdc00009e200001487800f09d20001040780015
:100bec000043b00080407800f09d20000148780060
:100bfc00e09d2000104078000043b0008040780059
:100c0c00e09d2000014878000080fa0000000600fa
:100c1c000000fa00002f28005506070010312800ac
:100c2c005306070050312800510607009033280066
:100c3c004f060700203528004d06070060372800b6
:100c4c004b060700b039280049060700303c280045
:100c5c00470607001031280045060700f03c280025
:100c6c00430607000080fa00000006000200fa00ac
:100c7c000000eb00000f78000500370000a12000f9
:100c8c001e00400001c3b300014878001e0fe800ad
:100c9c001e007800e20f5000f8ff34002000200006
:100cac0010408800a03f280031060700d0422800e1
:100cbc002f060700d6ff07000028ef00ba08070030
:100ccc000040780004e8b7000568ef001028ef003a
:100cdc000868ef000080fa00000006000000fa002f
:100cec00881f780005c8bf000000fb00cf80de0025
:100cfc00d203200003002000820f5000838f580085
:100d0c00a9013e00006001003d003700670037007c
:100d1c008c003700a8003700c8003700ef00370000
:100d2c00f3003700f4003700660037009e013700ef
:100d3c009d0137009c0137009b0137009a01370059
:100d4c009901370098013700970137009601370059
:100d5c00950137009401370093013700f3003700f9
:100d6c0091013700900137008f0137008e01370059
:100d7c008d0137008c0137008b0137008a01370059
:100d8c0089013700f10037008701370086013700f1
:100d9c008501370084013700830137008201370059
:100dac0081013700800137007f0137007e01370059
:100dbc007d0137007c0137007b0137007a01370059
:100dcc007901370078013700770137007601370059
:100ddc0075013700e50037007301370072013700e9
:100dec0071013700700137006f0137006e01370059
:100dfc006d0137006c0137006b01370022013700a1
:100e0c00e10507000000e00018003200e3050700d0
:100e1c0006e8b700618020009140780060c3b30001
:100e2c0080cf50000d003c00618020009140780084
:100e3c0000c3b30080cf50000800340006c8bf00c8
:100e4c008040780000cdb30000c0400005e8b7003a
:100e5c0005c8bf007102070004003700d0c0b30002
:100e6c00d205070006c8bf00d005070004c8bf00a4
:100e7c0072080700813e2000810f500035013600ba
:100e8c0004c8bf0063080700004080000000e800b1
:100e9c00004088000140800000712200808f5000cb
:100eac002e013a000028ef003f013700b60507007d
:100ebc000000e0002b01320080c0b30005e8b70051
:100ecc003901370018408000b405070001a120004b
:100edc0080707c001040800001a1200061407800ef
:100eec00fb4f500003003a0049ff07000568ef0074
:100efc002d013700104080000000e0000600340097
:100f0c0010c0b30005e8b700104080000000e900f5
:100f1c001040880024013700b043280094050700d6
:100f2c003bff07000568ef00200020001040880000
:100f3c0010c0b30008e8b70010c0b30007e8b70052
:100f4c001901370004c8bf003c080700210320002a
:100f5c00810f50000501360007c8bf00e14f50005b
:100f6c0010003a00a0c0b3009005070050a220006a
:100f7c00104078008d05070040a22000104078003a
:100f8c008a05070030a22000104078008705070072
:100f9c0040452800760507001dff07000568ef0097
:100fac0001013700904528007105070018ff070064
:100fbc000568ef00fc00370004c8bf001f080700dd
:100fcc00813e2000810f50001300360004c8bf0082
:100fdc0010080700004080000000e8000040880076
:100fec000140800000712200808f500001003a0007
:100ffc000028ef00d0c0b3006c050700f0462800b5
:10100c005b050700ac0607000043b000670507004e
:10101c00f0c1b30005e8b7005b0507000000e00075
:10102c00d40032005d050700fb4f5000d3003a009e
:10103c00f7fe07000568ef00db00370004c8bf00af
:10104c00fe070700813e2000810f50001a00360079
:10105c0004c8bf00ef070700004080000000e80054
:10106c00004088000140800000712200808f5000f9
:10107c0001003a000028ef00d0c0b3004b05070078
:10108c00110907000000fb006500b90000007800a2
:10109c0093fe0700f09d20001040780043050700e8
:1010ac00009e20001040780040050700109e200094
:1010bc00104078003d050700330507000000e000f4
:1010cc00b000320035050700fb4f5000af003a006e
:1010dc00cffe07000568ef00b3003700604728001b
:1010ec002305070030c3b30005e8b700ae00370096
:1010fc000000fe00ac003700804a28001c050700e9
:10110c007d0807000004e00003003200404d280079
:10111c001705070002003700604e28001405070071
:10112c00d0c3b30005e8b7009f003700804f2800fc
:10113c000f050700860907000043b0001b050700d8
:10114c0020c0b30005e8b700970037001050280006
:10115c0007050700620607000043b00013050700ef
:10116c0030c0b30005e8b7008f00370004c8bf00db
:10117c00b2070700813e2000810f50000a003600a4
:10118c0004c8bf00a3070700004080000000e8006f
:10119c00004088000140800000712200808f5000c8
:1011ac0001003a000028ef00f70407000000e000ff
:1011bc0078003200f90407000000fb001103200046
:1011cc00810f50001b00320011032000810f5000d2
:1011dc0006003c00fb0f50000e0032000103200003
:1011ec00810f50000e0032006f00370031032000d9
:1011fc00810f50001900320031032000810f500084
:10120c001100350041032000810f500018003200fe
:10121c00650037007efe07000568ef0019003700f7
:10122c00a0502800d20407000040eb00aa080700d9
:10123c001400370000512800cd04070050c0b30043
:10124c00a50807000f00370060512800c8040700ec
:10125c00a0c0b300a00807000a003700c051280046
:10126c00c3040700f0c0b3009b080700050037005b
:10127c0020522800be04070040c1b30096080700a6
:10128c00000000004800370004c8bf006b070700cf
:10129c00813e2000810f50000a00360004c8bf00b8
:1012ac005c070700004080000000e8000040880058
:1012bc000140800000712200808f500001003a0034
:1012cc000028ef00b00407000000e00033003200fb
:1012dc00b20407000000fb00a1042000810f5000a5
:1012ec0008003200a1062000810f50000e003200d1
:1012fc00fb0f50002b003a0045fe07000568ef007d
:10130c00120037002e0807000004e0000300320032
:10131c00404d2800960407000c003700604e280052
:10132c009304070009003700250807000004e000bb
:10133c0003003200404d28008d04070003003700e5
:10134c00604e28008a040700000000000000000026
:10135c0015003700000000001300370000000000eb
:10136c0011003700000000000f00370000000000e3
:10137c000d003700000000000b00370000000000db
:10138c0009003700000000000700370000000000d3
:10139c0005003700000000000300370000000000cb
:1013ac0001003700000000004f0478000080fa00b4
:1013bc00000006000200fa00fb060700004078005f
:1013cc000ae8b7000b68ef00930107000000eb0080
:1013dc00000f78000500370030a220001e004000ee
:1013ec0001c3b300014878001e0fe8001e0078000e
:1013fc00e20f5000f8ff340030a1200081c5b3008b
:10140c000148780040a12000f1c2b30001487800e7
:10141c0050a1200091c5b3000148780060a12000c4
:10142c0001c2b3000148780070a1200001c2b300d2
:10143c000148780080a1200001c2b3000148780067
:10144c0090a1200001c2b30001487800a0a12000a7
:10145c0001c2b30001487800b0a1200001c2b30062
:10146c0001487800c0a1200001c2b30001487800f7
:10147c00d0a1200091c4b30001487800e0a1200065
:10148c0041c4b30001487800f0a12000a1c3b3000f
:10149c00014878000080fa00000006000000fa0005
:1014ac0009c8bf000000fb00e20f50009900320099
:1014bc00e20f500005003c000000e0000a00320082
:1014cc00e10f50004b003200d2003700e40f500007
:1014dc00a3003200e40f500096003500e50f5000d9
:1014ec00af003200cb00370007c8bf00e14f5000ff
:1014fc00200032000dc8bf008080fb00e22c2800c9
:10150c00e2c078000040e8000de8b7000140780028
:10151c00930107000dc8bf00f04f500001003a00c6
:10152c000d68ef00c18020009140780010c0b3001e
:10153c00f0cf500001003e000040eb008140e8007d
:10154c0081417800c2802000034978000004e0004b
:10155c00a700320010c0b30009e8b7000ac8bf00ea
:10156c00ac06070011c0b3000040eb003f010700c0
:10157c00a80037000dc8bf008080fb00f22d2800aa
:10158c00e2c078000040e8000de8b70001407800a8
:10159c00730107000dc8bf00f04f500001003a0066
:1015ac000d68ef00c18020009140780010c0b3009e
:1015bc00f0cf500001003e000040eb008140e800fd
:1015cc0081417800c2802000034978000004e000cb
:1015dc008900320010c0b30009e8b7000ac8bf0088
:1015ec008c06070011c0b3000040eb001f01070080
:1015fc008800370008c8bf00e14f500021003200be
:10160c0007c8bf000004e00030003a0030a2200000
:10161c00104078008040e80030a22000014878009b
:10162c0040a22000104078008040e80040a220003a
:10163c000148780050a22000104078008040e8005b
:10164c0050a220000148780030a220009040780081
:10165c0090c3b30080cf50001c00340030a2200097
:10166c0001c3b3000148780040a2200001c3b300bd
:10167c000148780050a2200001c3b3000148780053
:10168c001200370008c8bf00e14f50000f003a00ad
:10169c0000a120009040780030a220000148780082
:1016ac0010a120009040780040a220000148780052
:1016bc0020a120009040780050a220000148780022
:1016cc0030a22000d10507000868ef0050a22000ce
:1016dc00104078008040780000a22000014878007b
:1016ec0040a22000104078008040780010a220001a
:1016fc000148780030a2200010407800804078002b
:10170c0020a220000148780020c0b30009e8b700ef
:10171c0040003700a9070700704088007040800027
:10172c00570007008040880030c0b30009e8b700bc
:10173c00380037000ac8bf0040060700814080000f
:10174c00810f50002e0036000ac8bf00310607007a
:10175c000c68ef0040c0b30009e8b7002d0037005b
:10176c000cc8bf008080fb0032a12000e2c07800d2
:10177c000040e8000ce8b70001407800f8000700d2
:10178c000cc8bf00f04f50001f00360050c0b30013
:10179c0009e8b7000ac8bf001e0607001d00370085
:1017ac000ac8bf0025060700910f2000810f5000ca
:1017bc00170036000bc8bf000040e8000be8b7006c
:1017cc000bc8bf00f04f500001003a000b68ef004f
:1017dc000968ef008040eb000040eb00a30007001d
:1017ec000bc8bf000de8b7000c68ef00090037000c
:1017fc000000000007003700000000000500370063
:10180c00000000000300370000000000010037005a
:10181c00000000000080fa00000006000200fa0040
:10182c00004f78001e00fb00e30f50000f00320049
:10183c00e30f50000f003c00e10f5000030032009a
:10184c00e20f5000040032000b00370080522800d9
:10185c0047030700080037008054280044030700a2
:10186c0004c8bf00eb0507000300370000000000b0
:10187c0001003700000000000080fa0000000600a4
:10188c000400fa00100798001e0090006900b900cf
:10189c008000780050002000000178001100090041
:1018ac008280d800810c2000010f40001e007800bf
:1018bc000080fa00000006000400fa00204798009f
:1018cc0031479800b8050700304188002e40900041
:1018dc0022e8b7003e40900023e8b7002568ef00ef
:1018ec0025c8bf0024e8b700c8a2a9004016800094
:1018fc004500de00614060000080fb004f00dd0011
:10190c0042168000f1ff2700810061000100700089
:10191c0040168800401680004f00de000040780022
:10192c000080fb00610060004300dd004116800078
:10193c000130a10001007000401688000000eb008f
:10194c00000f78002900370030418000410620004c
:10195c00cf00070030c0b3002a02070030418000de
:10196c0051002000ca00070030c0b3002502070058
:10197c003041800011002000c500070030c0b300ca
:10198c00200207003041800011002000c000070039
:10199c0020c0b3001b020700304180001100200062
:1019ac00bb00070080c2b3003b010700d801070051
:1019bc0080c0b30038010700d501070010c0b30088
:1019cc00350107003041800031002000b0000700d5
:1019dc00cf01070060c0b3002f010700cc01070046
:1019ec00f0c0b3002c0107001e0fe8001e007800a9
:1019fc00e10f5000d4ff34000080fa000000060014
:101a0c000000fa0030418000004078009905070082
:101a1c000080fa00000006000000fa00bc0107007c
:101a2c0010c0b3001c0107003041800031002000c1
:101a3c00970007000080fa00000006000000fa0082
:101a4c00b3010700e0c0b300130107000080fa00e7
:101a5c00000006000000fa00ad010700c0c0b30092
:101a6c000d0107000080fa00000006000400fa00d7
:101a7c00204798003147980022c8bf000080fb0027
:101a8c00e20f500003003200e40f50000b00320054
:101a9c00220037002e4090008000fb003e4090005a
:101aac000004e00002003a000000eb0001003700e7
:101abc0000042000008f40001d0037002e409000d5
:101acc000000fb00000f78003e409000e14f5000fa
:101adc0003003a00010420001e8f40001400370060
:101aec003e409000e24f500004003a0023c8bf0073
:101afc000080fb001e0f40000d0037003e409000a0
:101b0c00e34f500009003a0023c8bf000080fb00df
:101b1c000004b0001e0f4000050037002e4090005e
:101b2c000000fb00000f78000100370000000000ef
:101b3c00770107001e0078008040780000c8b300d1
:101b4c0000c07000d40007003e40900024e8b700ad
:101b5c002e40900025e8b7000080fa000000060037
:101b6c000200fa00004f7800690107001e4078005f
:101b7c001801070025c8bf000040e80025e8b700a1
:101b8c0022c8bf00e34f500010003a0025c8bf0028
:101b9c00f34f50002f0036002568ef0024c8bf001b
:101bac000040e80024e8b70024c8bf00e34f500011
:101bbc00010036002468ef0024c8bf008040780084
:101bcc0025c8bf00a9ff07002200370022c8bf00ac
:101bdc00e24f500012003a005182200091407800f0
:101bec0070c2b30080cf50001a0036002568ef0099
:101bfc0024c8bf000040e80024e8b70024c8bf0098
:101c0c00e14f5000010036002468ef0024c8bf00eb
:101c1c008040780025c8bf0094ff07000d003700f6
:101c2c0024c8bf00e14f50000a003a005182200046
:101c3c009140780070c2b30080cf50000100360094
:101c4c002568ef0024c8bf008040780025c8bf007d
:101c5c0086ff07000080fa00000006000200fa0070
:101c6c00000f7800040037001e0078001040780048
:101c7c001e0fe800baff07001e0078001040780025
:101c8c000004e000f8ff3a000080fa0000000600b3
:101c9c000400fa00000f7800110798001e0078006d
:101cac0000407800db040700000000001e007800f4
:101cbc0000407800e10407009e009000810f500066
:101ccc00faff39000080fa00000006000200fa005a
:101cdc00004f78001e80fb004700de0000407800bb
:101cec000080fb00610060004900dd00611680008f
:101cfc000190a10001007000601688009e00fb009e
:101d0c00000420000080600000f0a7000000ea0042
:101d1c000000ea004f00de00004078000080fb006d
:101d2c00610060004800dd00611680000180a100a8
:101d3c0001007000601688009e00fb00000220006d
:101d4c000080600000f0a7000000ea000000ea003c
:101d5c004f00de00004078000080fb006100600056
:101d6c004700dd00611680000170a10001007000c9
:101d7c00601688001e00fb007000600000f0a700d9
:101d8c000000ea000000ea004f00de00004078008e
:101d9c000080fb00610060004600dd0061168000e1
:101dac000160a10001007000601688000080fa003c
:101dbc00000006000200fa00004f78001e00fb0035
:101dcc006800600000f0a7000000ea000000ea00d4
:101ddc004f00de00004078000080fb0061006000d6
:101dec004900dd00611680000190a1000100700027
:101dfc00601688001e00fb006400600000f0a70065
:101e0c000000ea000000ea004f00de00004078000d
:101e1c000080fb00610060004800dd00611680005e
:101e2c000180a10001007000601688001e00fb00fc
:101e3c006200600000f0a7000000ea000000ea0069
:101e4c004f00de00004078000080fb006100600065
:101e5c004700dd00611680000170a10001007000d8
:101e6c00601688001e407800614060006140600090
:101e7c00614060000080fb00610060004600dd00f6
:101e8c00611680000160a1000100700060168800de
:101e9c000080fa00000006000200fa00004f7800f3
:101eac00c922a900401680004900de006140600094
:101ebc000080fb00610060004800dd0041168000de
:101ecc000180a100010070004016880040168000bf
:101edc004800de00614060000080fb006100600093
:101eec004700dd00411680000170a1000100700068
:101efc0040168800401680004700de0061406000fc
:101f0c000080fb00610060004600dd00411680008f
:101f1c000160a1000100700040168800cc62a9008d
:101f2c00cde2a900cca2a8001e40780067ff0700f4
:101f3c00cca2a800cca2a900cca2a900cca2a8003b
:101f4c001e4078009bff0700cca2a800cca2a900e1
:101f5c00c922a800401680004900de0061406000e4
:101f6c000080fb00610060004800dd00411680002d
:101f7c000180a1000100700040168800401680000e
:101f8c004800de00614060000080fb0061006000e2
:101f9c004700dd00411680000170a10001007000b7
:101fac0040168800401680004700de00614060004b
:101fbc000080fb00610060004600dd0041168000df
:101fcc000160a10001007000401688000080fa003a
:101fdc00000006000200fa00004f7800c922a90098
:101fec00401680004900de00614060000080fb006c
:101ffc00610060004800dd00411680000180a100f6
:10200c000100700040168800401680004800de0079
:10201c00614060000080fb00610060004700dd0053
:10202c00411680000170a10001007000401688006c
:10203c00401680004700de00614060000080fb001d
:10204c00610060004600dd00411680000160a100c7
:10205c000100700040168800cc62a800cde2a900f7
:10206c00cca2a8001e40780018ff0700cca2a80044
:10207c00cca2a900cca2a900cca2a8001e4078003a
:10208c004cff0700cca2a800cca2a900c922a80032
:10209c00401680004900de00614060000080fb00bb
:1020ac00610060004800dd00411680000180a10045
:1020bc000100700040168800401680004800de00c9
:1020cc00614060000080fb00610060004700dd00a3
:1020dc00411680000170a1000100700040168800bc
:1020ec00401680004700de00614060000080fb006d
:1020fc00610060004600dd00411680000160a10017
:10210c0001007000401688000080fa0000000600f4
:10211c000200fa00c922a800401680004900de0027
:10212c00614060000080fb00610060004800dd0041
:10213c00411680000180a10001007000401688004b
:10214c00401680004800de00614060000080fb000b
:10215c00610060004700dd00411680000170a100a5
:10216c000100700040168800401680004700de0019
:10217c00614060000080fb00610060004600dd00f3
:10218c00411680000160a10001007000401688001b
:10219c00cc62a900cde2a80030418000004078005c
:1021ac009c030700cca2a800cca2a800501680006b
:1021bc004900de0061406000004f7800cca2a9000d
:1021cc00cca2a900cca2a800cca2a800cca2a900a9
:1021dc00cca2a90030418000004078009703070092
:1021ec000000e00004003a001e4078000004e0000b
:1021fc00ecff3a0001003700000000000080fa00fc
:10220c00000006000200fa00004f7800c922a90065
:10221c00401680004900de00614060000080fb0039
:10222c00610060004800dd00411680000180a100c3
:10223c000100700040168800401680004800de0047
:10224c00614060000080fb00610060004700dd0021
:10225c00411680000170a10001007000401688003a
:10226c00401680004700de00614060000080fb00eb
:10227c00610060004600dd00411680000160a10095
:10228c000100700040168800cc62a900cde2a900c4
:10229c00cca2a800cca2a8001e00fb006800600025
:1022ac0000f0a7000000ea000000ea004f00de008a
:1022bc00004078000080fb00610060004900dd00f8
:1022cc00611680000190a10001007000601688006a
:1022dc001e00fb006400600000f0a7000000ea0094
:1022ec000000ea004f00de00004078000080fb0098
:1022fc00610060004800dd00611680000180a100d3
:10230c0001007000601688001e00fb006200600077
:10231c0000f0a7000000ea000000ea004f00de0019
:10232c00004078000080fb00610060004700dd0089
:10233c00611680000170a100010070006016880019
:10234c001e407800614060006140600061406000a8
:10235c000080fb00610060004600dd00611680001b
:10236c000160a1000100700060168800cca2a900d9
:10237c000080fa00000006000000fa00113a80000c
:10238c00f00b20000081600060042000710520002b
:10239c0023742000804978008149780082497800b4
:1023ac001136800000fe2f00008060003000b3006a
:1023bc00103688002135800000fe2f000080600060
:1023cc000020a00020358800103a80000001780021
:1023dc000260a0006004200071052000237420001e
:1023ec008049780081497800824978007006200085
:1023fc004011880021e2a80001118000f0cf2f00cd
:10240c0000806000001188002062a900011180008a
:10241c0090ff2f0000806000001188002002a900ae
:10242c002342a8001868ef009560a8001468ef001c
:10243c0014c8bf0015e8b70015c8bf0012e8b700f4
:10244c0012c8bf0013e8b70013c8bf0016e8b700e6
:10245c0016c8bf0017e8b7000080fa00000006009d
:10246c000000fa0018c8bf000000fb00e10f50008c
:10247c0010003200e10f500003003c000000e000af
:10248c00060032002b003700e20f50000e00320025
:10249c00e30f5000150032002600370017c8bf00ac
:1024ac000004e0002000320010c0b30018e8b700b0
:1024bc002000370060000700d040880020c0b30027
:1024cc0018e8b7001b003700d0408000104078009f
:1024dc000004e0000300320030c0b30018e8b7007d
:1024ec00140037001868ef0012003700111180003b
:1024fc0000102000008060000000e0000c003200a2
:10250c00d0408000904078008100fb0021118800b1
:10251c000000e800d04088002342a80020c0b3008f
:10252c0018e8b70003003700000000000100370076
:10253c00000000000080fa00000006000200fa0013
:10254c00000f7800040037001e007800104078005f
:10255c001e0fe800150007001e00780010407800e0
:10256c000004e000f8ff3a000080fa0000000600ca
:10257c000200fa00000f78001e0078001900070016
:10258c000080fa00000006000000fa0016c8bf0028
:10259c000080fb000080fa00000006000000fa003a
:1025ac004e0007000080fa00000006000200fa004e
:1025bc00004f7800010037000060fe001111800010
:1025cc0000102000008060000000e000faff3200e4
:1025dc001e00fb00201188002342a8000080fa0096
:1025ec00000006000200fa00000f780012c8bf00bd
:1025fc008080fb0001814000a18720008100410008
:10260c009e0878000040e80012e8b7002181200005
:10261c009140780000c8b30080cf500001003a0010
:10262c001268ef0017c8bf000040e80017e8b700b9
:10263c000080fa00000006000200fa0014c8bf0077
:10264c008080fb0001814000a187200081004100b7
:10265c00110f78000040e80014e8b7004181200019
:10266c009140780000c8b30080cf500001003a00c0
:10267c001468ef0017c8bf000040e90017e8b70066
:10268c001e0078000080fa00000006000200fa002c
:10269c00004f780013c8bf008080fb00a28320008d
:1026ac009e41780003f178000040e80013e8b70081
:1026bc00318120009140780000c4b30080cf5000dd
:1026cc0001003a001368ef0016c8bf000040e80094
:1026dc0016e8b7000080fa00000006000200fa00bd
:1026ec0015c8bf008080fb00a283200062cf780059
:1026fc000040e80015e8b7005181200091407800b7
:10270c0000c4b30080cf500001003a001568ef0000
:10271c0016c8bf000040e90016e8b7001e4078005c
:10272c000080fa00000006003600f800809fbe0012
:10273c00829fbe00849fbe00869fbe000000fa00f0
:10274c008560a90010118000620060000000e000ac
:10275c00010032002222a9003011800000407800d4
:10276c00caff07000080fa004f03be004f02be00f4
:10277c004f01be004f00be003600f90000400600bd
:10278c000000fa00c062a800c042a8006bc0a800fc
:10279c006ba0a8003068ef0003020700004078002f
:1027ac0031e8b7000080fa00000006000000fa00d3
:1027bc0030c8bf000000fb00e30f50005300320094
:1027cc00e30f500007003c00e10f500020003200e6
:1027dc00e10f50002c003c000000e0000a00320029
:1027ec00b3003700e50f500063003200e50f5000d6
:1027fc005a003500e60f50006d003200e70f500014
:10280c008c003200aa0037001016800068006000af
:10281c000000e00005003a0031c8bf00fd010700d0
:10282c0010c0b30030e8b700a100370010168000cc
:10283c00640060000000e00092003a0031c8bf0064
:10284c00f401070050c0b30030e8b700980037001f
:10285c0031c8bf00f901070031062000810f50007c
:10286c008a00360010168000680060000000e0004e
:10287c0003003a0020c0b30030e8b7008c003700ea
:10288c003068ef008a003700a60307000004e00060
:10289c000d003a008d02070032e8b70032c8bf00c5
:1028ac00ea4f500003003a0010c0b3008b0207003f
:1028bc000500370032c8bf000040e80032e8b7001e
:1028cc0032c8bf0085020700a10307000004e00026
:1028dc000b003a00fc02070032e8b70032c8bf0018
:1028ec000004e00003003a0040c1b300fa02070004
:1028fc000300370032c8bf0065405000f6020700e5
:10290c0030c0b30030e8b7006900370031c8bf00f1
:10291c00ca010700f17c2000810f50000600360030
:10292c00750207000004e00001003200a402070059
:10293c0031c8bf00b70107001016800068006000a6
:10294c000000e0005300320040c0b30030e8b70094
:10295c0031c8bf00af0107005500370031c8bf00b8
:10296c00b601070031062000810f50004b003600e5
:10297c003068ef004e00370031c8bf00af010700d0
:10298c0031062000810f50004600360010168000e2
:10299c00640060000000e00003003a0060c0b30077
:1029ac0030e8b700420037003068ef0040003700d5
:1029bc005c0307000004e0000d003a00430207002e
:1029cc0032e8b70032c8bf00e14f500003003a00b4
:1029dc00a0c0b300410207000500370032c8bf0099
:1029ec000040e90032e8b70032c8bf003b020700e4
:1029fc00570307000004e0000b003a00b202070086
:102a0c0032e8b70032c8bf00f44f500003003a0060
:102a1c000040eb00b00207000300370032c8bf00d3
:102a2c0065404000ac02070070c0b30030e8b7004e
:102a3c001f00370031c8bf0080010700f17c200067
:102a4c00810f5000060036002b0207000004e00046
:102a5c0001003a005a02070031c8bf006d0107009f
:102a6c0010168000640060000000e0000f003200cf
:102a7c0040c0b30030e8b70031c8bf0065010700a3
:102a8c000b003700000000000900370000000000b8
:102a9c0007003700000000000500370000000000b0
:102aac0003003700000000000100370000000000a8
:102abc000080fa00000006000000fa0010168000ea
:102acc006800600000f0a7000000ea000000ea00c7
:102adc004f00de00004078000080fa000000060085
:102aec000000fa00101680006400600000f0a700df
:102afc000000ea000000ea004f00de000040780011
:102b0c000080fa00000006000200fa00c042a90092
:102b1c00c062a900c082a900c442a900c462a90075
:102b2c00c482a9000000eb00000f780016003700eb
:102b3c001d0107008040780060a220001e004000ac
:102b4c000148780090a220001e0040008040eb005d
:102b5c000148780080a320001e0040008040eb005c
:102b6c000148780020a320001e00400001c3b300e0
:102b7c000148780050a320001e0040008040eb006c
:102b8c00014878001e0fe8001e007800e20f50008c
:102b9c00e7ff34003868ef000080fa000000060000
:102bac000200fa00000f780090a220001e004000e6
:102bbc00104078000080fb00e10f50001b00320039
:102bcc00e10f500003003c000000e0000400320064
:102bdc006a003700e20f5000340032006700370003
:102bec0080a320001e0040001040780000c0ea00c6
:102bfc00ea404000c0a220001e00400001487800be
:102c0c0060a220001e004000104078000101070067
:102c1c001e0078005b00070090a220001e00400000
:102c2c0011c0b30001487800540037001e00780032
:102c3c005400070060a220001e00400010407800e5
:102c4c00fe00070080007800c0a220001e0040009b
:102c5c00104078000080fb0000004000808f500086
:102c6c004300390060a220001e0040001040780094
:102c7c00e800070080a320001e00400010407800f0
:102c8c008040e800f0a220001e00400001487800bf
:102c9c001e0078004c00070090a220001e0040008f
:102cac0021c0b30001487800340037001e007800c2
:102cbc004500070060a220001e0040001040780074
:102ccc00de00070080007800f0a220001e0040000b
:102cdc00104078000080fb0000004000808f500006
:102cec002500390020a320001e00400090407800f1
:102cfc0080a320001e004000104078005500070003
:102d0c00e14f500003003a0038c8bf000004e00057
:102d1c0007003a0080a320001e00400010407800fd
:102d2c008040e80080a320001e004000014878008d
:102d3c0080a320001e00400010407800e94f500096
:102d4c000400340080a320001e0040008040eb00f3
:102d5c00014878001e0078000a00070090a22000ad
:102d6c001e0040008040eb00014878000300370053
:102d7c000000000001003700000000000080fa0095
:102d8c00000006000200fa00000f78001e00780018
:102d9c00e10f500006003200e20f50000600320036
:102dac000000e00006003a00c442a900040037000d
:102dbc00c462a90002003700c482a9000000000010
:102dcc000080fa00000006000200fa00000f7800f4
:102ddc001e007800e10f500006003200e20f500098
:102dec00060032000000e00006003a00c442a800d1
:102dfc0004003700c462a80002003700c482a80097
:102e0c00000000000080fa00000006000200fa003a
:102e1c00000f78001e0078009040780020a320005e
:102e2c00014878001e00e8009040780030a3200094
:102e3c00014878001e80e8009040780040a32000f4
:102e4c000148780010c0b30038e8b7000080fa00e1
:102e5c00000006000200fa00004f780011479800ad
:102e6c009e00fb001e4090000000fb000003b10020
:102e7c00808f500002003a0010c0b30001003700f0
:102e8c000040eb000080fa00000006000000fa0091
:102e9c000080fa0000000600809fbe00821f7800b0
:102eac000000fa008460a900404180000000e800a6
:102ebc004041880041418000f0522700808f500033
:102ecc001d0036002a28ef00170037005041800003
:102edc004200dd008080e800a097200000804000c8
:102eec0010407800e14f50000c003a005041800037
:102efc00514180004209dd00a19720008100410072
:102f0c001101780041418000810051004201dd0037
:102f1c00a09720000000410001087800504180007b
:102f2c000000e8005041880050418000f80f50002c
:102f3c00e6ff34002828ef000080fa004f017800eb
:102f4c004f00be00004006000200fa000040eb00fb
:102f5c00004f7800070037001e80fb00c200dd0028
:102f6c00c0972000008040008040eb0001487800b2
:102f7c001e4fe8001e407800f84f5000f6ff360058
:102f8c002828ef0004a1a9000481a800007d2000de
:102f9c001008880005e1a8008460a9009460a800ce
:102fac000080fa00000006000200fa000040eb006e
:102fbc00004f7800060037001e4fe8001e407800d6
:102fcc00f94f500002003a000080eb000f00370070
:102fdc001e80fb004200dd008080e800a0972000ee
:102fec000080400010407800e14f5000f2ff3200aa
:102ffc001e80fb00c200dd00c09720000080400056
:10300c0011c0b300014878001e80fb000080fa005c
:10301c00000006000200fa00004f78001e80fb0042
:10302c00414180004201dd00a097200000004100da
:10303c00010878000080fa00000006000400fa0085
:10304c002047980040418000000f78009e007800d7
:10305c002e4090000080fb004201dd00a097200074
:10306c000000410010007800008050000080fa0041
:10307c00000006000200fa00004f78001e80fb00e2
:10308c00c200dd00c0972000008040008040eb00b3
:10309c00014878000080fa00000006000000fa00e9
:1030ac000080fa00000006000000fa00c082a900af
:1030bc00c482a900bcff0700004078001ce8b700e0
:1030cc001d68ef001e68ef002028ef000080fa005a
:1030dc00000006000000fa001dc8bf000080fb00c5
:1030ec00e10f500017003200e10f500003003c00cc
:1030fc000000e0000600320067003700e20f5000cd
:10310c002c003200e30f5000370032006200370011
:10311c001cc8bf00c9ff0700e18120009140780066
:10312c008180fb00810f50004c0039001cc8bf008f
:10313c00b8ff070010c0b3001de8b700c482a90097
:10314c00550037001cc8bf00bcff0700e181200000
:10315c00914078008180fb00f4801000810f5000ba
:10316c00400039001cc8bf00aaff07001d68ef0013
:10317c00c482a800004180000000e80000418800e3
:10318c0000418000e40f500038003a001ec8bf0018
:10319c000040e8001ee8b7002028ef001ec8bf0062
:1031ac00f44f500033003a0020c0b3001de8b700c4
:1031bc00390037001cc8bf00a0ff0700e1812000c8
:1031cc00914078008180fb00810f50002b0039006a
:1031dc001cc8bf008fff070030c0b3001de8b7004c
:1031ec00c482a9002c0037001cc8bf0093ff070045
:1031fc00e1812000914078008180fb00f480100078
:10320c00810f50001f0039001cc8bf0081ff070050
:10321c0020c0b3001de8b700c482a80000418000a4
:10322c000000e8000041880000418000e40f5000dd
:10323c0016003a001ec8bf000040e9001ee8b700a7
:10324c002028ef001ec8bf000004e00011003a0067
:10325c001d68ef001e68ef000f0037000000000033
:10326c000d003700000000000b00370000000000cc
:10327c0009003700000000000700370000000000c4
:10328c0005003700000000000300370000000000bc
:10329c0001003700000000000080fa00000006006a
:1032ac000000fa00c022a900c422a9003eff0700ba
:1032bc00004078002ce8b7002d68ef0010c0b30078
:1032cc002ee8b7000080fa00000006000000fa00ab
:1032dc002ec8bf000080fa00000006000200fa00b1
:1032ec00004f78001e417800e1822000824878006f
:1032fc000080fa00000006000000fa002dc8bf0094
:10330c000014a2000080fb000000ea004f00de0069
:10331c00004078000080fa00000006000000fa006f
:10332c002dc8bf000000fb00e10f5000110032005f
:10333c00e20f50001b0032000000e0001e003a00bb
:10334c002cc8bf003dff0700e182200091407800af
:10335c008100fb00810f5000140039002cc8bf0005
:10336c002cff0700c422a80010c0b3002de8b70042
:10337c00110037002cc8bf0030ff0700e18220008d
:10338c00914078008100fb00810f5000090039004a
:10339c002cc8bf001fff0700c422a9002d68ef0036
:1033ac00050037000000000003003700000000009b
:1033bc0001003700000000000080fa000000060049
:1033cc000000fa002dc8bf00e24f500002003a0086
:1033dc002d68ef000300370020c0b3002de8b700c4
:1033ec00c422a9002dc8bf000080fb000000e9002a
:1033fc004f00de00004078000080fa00000006005c
:10340c000000fa00c9c2a900cdc2a9003468ef00bf
:10341c00e5fe07000040780035e8b700a0c0b30017
:10342c0036e8b7000080fa00000006000000fa0041
:10343c0034c8bf000080fb000000e0000300320035
:10344c00e10f50000e0032001d00370035c8bf00e0
:10345c00fafe070061832000914078008180fb0018
:10346c00810f50001300390035c8bf00e9fe07007a
:10347c0010c0b30034e8b700cdc2a900100037006b
:10348c0035c8bf00edfe0700618320009140780035
:10349c008180fb00f4801000810f50000700390080
:1034ac0035c8bf00dbfe07003468ef00cdc2a800b2
:1034bc00030037000000000001003700000000008e
:1034cc000080fa00000006000000fa0036c8bf00b9
:1034dc000080fa00000006000200fa00004f78009d
:1034ec001e40780036e8b7000080fa0000000600a5
:1034fc000000fa00c002a80021a3a8002103a90023
:10350c00001980004800de00614060000080fb0074
:10351c00610060004900dd00011980000190a100ec
:10352c00010070000019880020e3a8000019800039
:10353c004700de00614060000080fb00610060001d
:10354c004600dd00011980000160a100010070003f
:10355c0000198800001980004600de006140600000
:10356c000080fb00610060004500dd000119800057
:10357c000150a10001007000001988001119800091
:10358c00f0ff210000806000101988002343a9007f
:10359c002223a80000102000201988002823ef0007
:1035ac00100020008019880021e3a8002023a80027
:1035bc002043a8000080fa00000006000000fa007a
:0c35cc00001880000080fa0000000600db
:020000040000fa
:1035d8007a090000640000000000000028080000cc
:1035e80004000000000000001c08000006000000a5
:1035f8000000000022080000060000000000000093
:103608002c08000004000000000000003008000042
:10361800040000000000000034080000040000005e
:10362800000000003a08000040010000000000000f
:10363800120800000a00000000000000de09000077
:103648004800000000000000000800001200000010
:1036580000000000260a000016000000000000001c
:103668003808000002000000000000000000000010
:020000040000fa
:103678000000fa004427ef0040a7a9000080fa00e4
:10368800000006000000fa00f9ff07002ffe0700ff
:103698001efd070001c1b30020c0b30087f8070072
:1036a80000ff07001700070092ff070055ff0700fb
:1036b80032fb0700d9f80700e7f807008040eb0065
:1036c8000040eb00eaf80700a056280064f907005c
:1036d80039f7070066f507000000eb0031fd070029
:1036e800100020002ffd0700200020002dfd0700fe
:1036f8006bf707000aff070079f5070059fb070079
:10370800f5ff37000000fa00c9a2a800c982a80086
:103718002d63a8002d83a80069a0a80069c0a8008f
:103728000080fa00000006000000fa005116800030
:10373800000021000080600000f0a7000000ea00ff
:103748000000ea004f00de00004078000080fa0028
:10375800000006000000fa00511680000000220058
:103768000080600000f0a7000000ea000000ea0006
:103778004f00de00004078000080fa0000000600dc
:020000040000fa
:04aff8008b69000061
:020000040000fa
:04affc003b3f0000d7
:00000001FF
