:020000040000fa
:080000000002040000000000f2
:020000040000fa
:04000800c80200002a
:020000040000fa
:04000c00c802000026
:020000040000fa
:04001000c802000022
:020000040000fa
:04001400c80200001e
:020000040000fa
:04001800c80200001a
:020000040000fa
:04001c00c802000016
:020000040000fa
:04002000c802000012
:020000040000fa
:04002400c80200000e
:020000040000fa
:04002800c80200000a
:020000040000fa
:04002c00c802000006
:020000040000fa
:04003000c802000002
:020000040000fa
:04003400b016000002
:020000040000fa
:04003800c8020000fa
:020000040000fa
:04003c00c8020000f6
:020000040000fa
:04004000c8020000f2
:020000040000fa
:04004400c8020000ee
:020000040000fa
:04004800c8020000ea
:020000040000fa
:04004c00c8020000e6
:020000040000fa
:04005000c8020000e2
:020000040000fa
:040054006213000033
:020000040000fa
:04005800c8020000da
:020000040000fa
:04005c00c8020000d6
:020000040000fa
:04006000c8020000d2
:020000040000fa
:04006400c8020000ce
:020000040000fa
:04006800c8020000ca
:020000040000fa
:04006c00c8020000c6
:020000040000fa
:04007000c8020000c2
:020000040000fa
:04007400c8020000be
:020000040000fa
:04007800c8020000ba
:020000040000fa
:04007c00c8020000b6
:020000040000fa
:04008000c8020000b2
:020000040000fa
:04008400c8020000ae
:020000040000fa
:04008800c8020000aa
:020000040000fa
:04008c00c8020000a6
:020000040000fa
:04009000c8020000a2
:020000040000fa
:04009400c80200009e
:020000040000fa
:04009800c80200009a
:020000040000fa
:04009c00c802000096
:020000040000fa
:0400a000c802000092
:020000040000fa
:0400a400c80200008e
:020000040000fa
:0400a800c80200008a
:020000040000fa
:0400ac00c802000086
:020000040000fa
:0400b000c802000082
:020000040000fa
:0400b400c80200007e
:020000040000fa
:0400b800c80200007a
:020000040000fa
:0400bc00c802000076
:020000040000fa
:0400c000c802000072
:020000040000fa
:0400c400c80200006e
:020000040000fa
:0400c800c80200006a
:020000040000fa
:0400cc00c802000066
:020000040000fa
:0400d000c802000062
:020000040000fa
:0400d400c80200005e
:020000040000fa
:0400d800c80200005a
:020000040000fa
:0400dc00c802000056
:020000040000fa
:0400e000c802000052
:020000040000fa
:0400e400c80200004e
:020000040000fa
:0400e800c80200004a
:020000040000fa
:0400ec00c802000046
:020000040000fa
:0400f000c802000042
:020000040000fa
:0400f400c80200003e
:020000040000fa
:0400f800c80200003a
:020000040000fa
:0400fc00c802000036
:020000040000fa
:04010000c802000031
:020000040000fa
:04010400c80200002d
:020000040000fa
:04010800c802000029
:020000040000fa
:04010c00c802000025
:020000040000fa
:04011000c802000021
:020000040000fa
:04011400c80200001d
:020000040000fa
:04011800c802000019
:020000040000fa
:04011c00c802000015
:020000040000fa
:04012000c802000011
:020000040000fa
:04012400c80200000d
:020000040000fa
:04012800c802000009
:020000040000fa
:04012c00c802000005
:020000040000fa
:04013000c802000001
:020000040000fa
:04013400c8020000fd
:020000040000fa
:04013800c8020000f9
:020000040000fa
:04013c00c8020000f5
:020000040000fa
:04014000c8020000f1
:020000040000fa
:04014400c8020000ed
:020000040000fa
:04014800c8020000e9
:020000040000fa
:04020800c802000028
:020000040000fa
:04020c00c802000024
:020000040000fa
:04021000c802000020
:020000040000fa
:04021400c80200001c
:020000040000fa
:04021800c802000018
:020000040000fa
:04021c00c802000014
:020000040000fa
:04022000c802000010
:020000040000fa
:04022400c80200000c
:020000040000fa
:04022800c802000008
:020000040000fa
:04022c00c802000004
:020000040000fa
:04023000c802000000
:020000040000fa
:04023400c8020000fc
:020000040000fa
:04023800c8020000f8
:020000040000fa
:04023c00c8020000f4
:020000040000fa
:04024000c8020000f0
:020000040000fa
:04024400c8020000ec
:020000040000fa
:04024800c8020000e8
:020000040000fa
:04024c00c8020000e4
:020000040000fa
:04025000c8020000e0
:020000040000fa
:04025400c8020000dc
:020000040000fa
:04025800c8020000d8
:020000040000fa
:04025c00c8020000d4
:020000040000fa
:04026000c8020000d0
:020000040000fa
:04026400c8020000cc
:020000040000fa
:04026800c8020000c8
:020000040000fa
:04026c00c8020000c4
:020000040000fa
:04027000c8020000c0
:020000040000fa
:04027400c8020000bc
:020000040000fa
:04027800c8020000b8
:020000040000fa
:04027c00c8020000b4
:020000040000fa
:04028000c8020000b0
:020000040000fa
:04028400c8020000ac
:020000040000fa
:04028800c8020000a8
:020000040000fa
:04028c00c8020000a4
:020000040000fa
:04029000c8020000a0
:020000040000fa
:04029400c80200009c
:020000040000fa
:04029800c802000098
:020000040000fa
:04029c00c802000094
:020000040000fa
:0402a000c802000090
:020000040000fa
:0402a400c80200008c
:020000040000fa
:0402a800c802000088
:020000040000fa
:0402ac00c802000084
:020000040000fa
:0402b000c802000080
:020000040000fa
:0402b400c80200007c
:020000040000fa
:0402b800c802000078
:020000040000fa
:0402bc00c802000074
:020000040000fa
:0402c000c802000070
:020000040000fa
:0402c400c80200006c
:020000040000fa
:0402c800c802000068
:020000040000fa
:0402cc00c802000064
:020000040000fa
:0402d000c802000060
:020000040000fa
:0402d400c80200005c
:020000040000fa
:0402d800c802000058
:020000040000fa
:0402dc00c802000054
:020000040000fa
:0402e000c802000050
:020000040000fa
:0402e400c80200004c
:020000040000fa
:0402e800c802000048
:020000040000fa
:0402ec00c802000044
:020000040000fa
:0402f000c802000040
:020000040000fa
:0402f400c80200003c
:020000040000fa
:0402f800c802000038
:020000040000fa
:0402fc00c802000034
:020000040000fa
:04030000c80200002f
:020000040000fa
:04030400c80200002b
:020000040000fa
:04030800c802000027
:020000040000fa
:04030c00c802000023
:020000040000fa
:04031000c80200001f
:020000040000fa
:04031400c80200001b
:020000040000fa
:04031800c802000017
:020000040000fa
:04031c00c802000013
:020000040000fa
:04032000c80200000f
:020000040000fa
:04032400c80200000b
:020000040000fa
:04032800c802000007
:020000040000fa
:04032c00c802000003
:020000040000fa
:04033000c8020000ff
:020000040000fa
:04033400c8020000fb
:020000040000fa
:04033800c8020000f7
:020000040000fa
:04033c00c8020000f3
:020000040000fa
:04034000c8020000ef
:020000040000fa
:04034400c8020000eb
:020000040000fa
:04034800c8020000e7
:020000040000fa
:100400002fa320000e7f22000e01880000000000b4
:10041000000020000000e000020032000001200087
:1004200020028800140007005b0007000000e000c5
:1004300003003a0040a9210001002000020037001b
:100440000000200001002000810f70000100320038
:1004500014000700000020000000e000020032004d
:100460000000020000000000541a0200000000001a
:100470000040da000000fe004440a900802a20006d
:100480000000e0000300320000002000a00188000e
:100490004440a800000006008a1f78008b1f7800e7
:1004a0000000060091018800800478000000eb0045
:1004b0001a003700e284440032a0b4009905ba0063
:1004c000e284440032a0b4009906ba00e2844400f9
:1004d00032a0b4000006eb00476fde00fd07b2005b
:1004e000636ce10003003a00ebff07000000eb0043
:1004f0000a003700606ce10004003a00005deb0088
:100500008b05e900fdff3e00040037006168e10053
:10051000010032000086eb000b00070019c7ba008b
:100520001905ba000e04e00003003a000a00e000da
:10053000e0ff3a0000000600fe07b2009e018800be
:100540008a047800f5ff3700395dba008b05e900b1
:100550000c003200295dba008b05e900080032006a
:100560000c00e00003003a00e284440032a0b40032
:10057000f5ff370019ddba008b05e900faff3a00f4
:100580008904e800e184440032a0b40000000600c1
:0c0590000040da000000fe000000050042
:020000040000fa
:10059c005761000069740000696e0000672000005c
:1005ac00666f00007220000049440000202000000b
:1005bc000057000061690000746900006e6700005c
:1005cc00206d00006573000073610000676500001a
:1005dc00200000000d0a0000426500006e7600004d
:1005ec00696e00006775000074200000616c0000eb
:1005fc0020570000616c00006b690000652d000045
:10060c00546500007874000069650000210d00003d
:10061c000a000000000d00000a000000003100007c
:10062c002d4900006e740000726f000064750000ac
:10063c0069720000207500006e2000006e6f0000d3
:10064c007520000069640000656e0000746900008c
:10065c006669000063610000646f0000720d0000a9
:10066c000a000000003200002d4300006f6e0000f5
:10067c00737500006c74000061720000204900006a
:10068c00442000006163000074750000616c000080
:10069c000d0a000000000000332d0000436f000025
:1006ac006e730000756c0000746100007220000015
:1006bc0074720000616d0000657300002069000019
:1006cc00646500006e7400006966000069630000d8
:1006dc0061640000657300000d0a0000000000005a
:1006ec00342d0000436f00006e730000756c000029
:1006fc00746100007220000074720000616d0000d3
:10070c0065730000207200006562000075640000d3
:10071c0065730000207400006f740000616c0000b1
:10072c00730d00000a000000003500002d5600007b
:10073c0069730000756100006c690000747a000038
:10074c0061720000206c0000277500006c740000c2
:10075c00696d0000206d000069730000736100007a
:10076c00746700006520000072650000627500006f
:10077c00740d00000a000000003600002d5200002d
:10078c0065730000657400000d0a00000a0000008b
:10079c000050000065720000207300006f720000b2
:1007ac007469000072200000646500002071000074
:1007bc00756100006c730000657600006f6c0000c2
:1007cc00206f000070630000696f00002c20000097
:1007dc0070720000656d000020450000534300005e
:1007ec000d0a0000000000000a0d0000506c000013
:1007fc0061630000612000004c530000363900009a
:10080c002e2000005369000073740000656d000019
:10081c0065730000204400006967000069740000e3
:10082c00616c00007320000069200000755000000e
:10083c00726f000063650000737300006164000058
:10084c006f720000730d00000a00000000760000bb
:10085c00436c000069200000763100002e3000004f
:10086c002e0d00000a000000000a000020470000c6
:10087c007261000063690000657300002070000065
:10088c00656c0000206e00006f75000020490000b0
:10089c00442100000d0a0000000000000d0a0000b9
:1008ac000a000000000a000045720000726f000090
:1008bc00722000006e6f00002068000069200000ac
:1008cc006861000020490000440d00000a0000008f
:1008dc0000500000423100003a20000000000000ef
:1008ec000a0d0000496e0000747200006f64000075
:1008fc00756500006978000020760000616c0000ce
:10090c006f72000020640000652000006c61000024
:10091c00206e00006f76000061200000696e000000
:10092c00746500006e73000069740000617400004f
:10093c0020280000302d0000342900003a0a000065
:10094c000d0000000a0d000050720000656d0000e3
:10095c00204a000020700000657200002065000035
:10096c006e630000656e000064720000652000007c
:10097c006f20000061700000616700006172000070
:10098c00206c0000276100006c7400006176000090
:10099c0065750000200a00000d0000000d410000ec
:1009ac006c74000061760000657500002065000025
:1009bc006e63000065730000212000000000000041
:1009cc000d4100006c74000061760000657500003c
:1009dc00206100007061000067610000742100005c
:1009ec00000000000909000053570000323a0000d3
:1009fc0020000000000900000950000042320000f5
:100a0c003a200000000000000d30000030300000e3
:100a1c00000000000d300000323500000000000026
:100a2c000d30000035300000000000000d300000db
:100a3c0037350000000000000d31000030300000a0
:100a4c0000000000496e0000747200006964000030
:100a5c007565000069780000206500006c200000be
:100a6c004944000020640000652000006c61000017
:100a7c00207000006c610000636100000d0a000032
:100a8c00000000000a4c0000274900004420000030
:100a9c006163000074750000616c0000206400004c
:100aac00652000006c610000207000006c6100008b
:100abc006361000020650000733a0000200d000007
:100acc000a00000000000000426f00006f7400007c
:100adc00696e0000672e00002e2e00000000000042
:020000040000fa
:100aec000200fa00000f78009e007800803e200083
:100afc0000017800110009008200d80080407800c5
:100b0c00a09d200001487800a09d20001040780096
:100b1c008000fb0080c12f000088b9000000780025
:100b2c001e0f40009e007800400620000001780057
:100b3c00110009008200d80080407800b09d200090
:100b4c0001487800b09d2000104078008000fb0028
:100b5c00c0f92f000088b900000078001e0f40007b
:100b6c009e007800a0002000000178001100090010
:100b7c008200d80080407800c09d20000148780099
:100b8c00c09d2000104078008000fb0060ff2f000b
:100b9c000088b900000078001e0f40001e0078008d
:100bac00004078000043b00080407800d09d2000c9
:100bbc0001487800e09d20008040eb00014878005f
:100bcc00c09d2000104078000043b00080407800a9
:100bdc00c09d200001487800b09d20001040780096
:100bec000043b00080407800b09d200001487800a0
:100bfc00a09d2000104078000043b0008040780099
:100c0c00a09d2000014878000080fa00000006003a
:100c1c000000fa00002f28003906070010312800c8
:100c2c00370607005031280035060700903328009e
:100c3c0033060700203528003106070060372800ee
:100c4c002f060700b03928002d060700303c28007d
:100c5c002b0607001031280029060700f03c28005d
:100c6c00270607000080fa00000006000200fa00c8
:100c7c000000eb00000f780005003700c0a020003a
:100c8c001e00400001c3b300014878001e0fe800ad
:100c9c001e007800e20f5000f8ff34002000200006
:100cac0010408800a03f280015060700d0422800fd
:100cbc0013060700d6ff07000028ef00690807009d
:100ccc000040780004e8b7000568ef000080fa00e7
:100cdc00000006000000fa00881f780005c8bf005d
:100cec000000fb00cf80de00d203200003002000b8
:100cfc00820f5000838f5800a7013e000060010056
:100d0c003d003700670037008a003700a600370027
:100d1c00c6003700ed003700f1003700f200370055
:100d2c00660037009c0137009b0137009a013700a1
:100d3c009901370098013700970137009601370069
:100d4c009501370094013700930137009201370069
:100d5c0091013700f10037008f0137008e01370009
:100d6c008d0137008c0137008b0137008a01370069
:100d7c00890137008801370087013700ef00370001
:100d8c008501370084013700830137008201370069
:100d9c0081013700800137007f0137007e01370069
:100dac007d0137007c0137007b0137007a01370069
:100dbc007901370078013700770137007601370069
:100dcc00750137007401370073013700e3003700f9
:100ddc0071013700700137006f0137006e01370069
:100dec006d0137006c0137006b0137006a01370069
:100dfc006901370020013700c70507000000e0003b
:100e0c0018003200c905070006e8b7006180200011
:100e1c009140780060c3b30080cf50000d003c00bf
:100e2c00618020009140780000c3b30080cf500057
:100e3c000800340006c8bf008040780000cdb30025
:100e4c0000c0400005e8b70005c8bf0065020700f8
:100e5c0004003700d0c0b300b805070006c8bf00b7
:100e6c00b605070004c8bf0023080700813e200018
:100e7c00810f50003301360004c8bf00140807006e
:100e8c00004080000000e800004088000140800025
:100e9c0000712200808f50002c013a000028ef00d6
:100eac003d0137009c0507000000e00029013200dd
:100ebc0080c0b30005e8b700370137001840800048
:100ecc009a050700c1a0200080707c0010408000b3
:100edc00c1a0200061407800fb4f500003003a0095
:100eec004bff07000568ef002b0137001040800016
:100efc000000e0000600340010c0b30005e8b700a5
:100f0c00104080000000e9001040880022013700ea
:100f1c00b04328007a0507003dff07000568ef0085
:100f2c00200020001040880010c0b30007e8b70074
:100f3c001901370004c8bf00ef0707002103200088
:100f4c00810f50000501360007c8bf00e14f50006b
:100f5c0010003a00a0c0b3007805070010a22000d2
:100f6c00104078007505070000a2200010407800a2
:100f7c0072050700f0a12000104078006f050700f3
:100f8c00404528005e05070021ff07000568ef00bb
:100f9c000101370090452800590507001cff070088
:100fac000568ef00fc00370004c8bf00d20707003b
:100fbc00813e2000810f50001300360004c8bf0092
:100fcc00c3070700004080000000e80000408800d4
:100fdc000140800000712200808f500001003a0017
:100fec000028ef00d0c0b30054050700f0462800dd
:100ffc0043050700940607000043b0004f050700a7
:10100c00f0c1b30005e8b700430507000000e0009d
:10101c00d400320045050700fb4f5000d3003a00c6
:10102c00fbfe07000568ef00db00370004c8bf00bb
:10103c00b1070700813e2000810f50001a003600d6
:10104c0004c8bf00a2070700004080000000e800b1
:10105c00004088000140800000712200808f500009
:10106c0001003a000028ef00d0c0b30033050700a0
:10107c00c40807000000fb006500b9000000780000
:10108c0097fe0700b09d2000104078002b0507004c
:10109c00c09d20001040780028050700d09d20003e
:1010ac0010407800250507001b0507000000e00034
:1010bc00b00032001d050700fb4f5000af003a0096
:1010cc00d3fe07000568ef00b30037006047280027
:1010dc000b05070030c3b30005e8b700ae003700be
:1010ec000000fe00ac003700804a28000405070011
:1010fc00300807000004e00003003200404d2800d7
:10110c00ff04070002003700604e2800fc040700b3
:10111c00d0c3b30005e8b7009f003700804f28000c
:10112c00f7040700360907000043b0000305070069
:10113c0020c0b30005e8b700970037001050280016
:10114c00ef0407004a0607000043b000fb04070049
:10115c0030c0b30005e8b7008f00370004c8bf00eb
:10116c0065070700813e2000810f50000a00360001
:10117c0004c8bf0056070700004080000000e800cc
:10118c00004088000140800000712200808f5000d8
:10119c0001003a000028ef00df0407000000e00027
:1011ac0078003200e10407000000fb00110320006e
:1011bc00810f50001b00320011032000810f5000e2
:1011cc0006003c00fb0f50000e0032000103200013
:1011dc00810f50000e0032006f00370031032000e9
:1011ec00810f50001900320031032000810f500094
:1011fc001100350041032000810f5000180032000f
:10120c006500370082fe07000568ef001900370003
:10121c00a0502800ba0407000040eb005d0807004e
:10122c001400370000512800b504070050c0b3006b
:10123c00580807000f00370060512800b004070061
:10124c00a0c0b300530807000a003700c0512800a3
:10125c00ab040700f0c0b3004e08070005003700d0
:10126c0020522800a604070040c1b300490807001b
:10127c00000000004800370004c8bf001e0707002c
:10128c00813e2000810f50000a00360004c8bf00c8
:10129c000f070700004080000000e80000408800b5
:1012ac000140800000712200808f500001003a0044
:1012bc000028ef00980407000000e0003300320023
:1012cc009a0407000000fb00a1042000810f5000cd
:1012dc0008003200a1062000810f50000e003200e1
:1012ec00fb0f50002b003a0049fe07000568ef0089
:1012fc0012003700e10707000004e0000300320091
:10130c00404d28007e0407000c003700604e28007a
:10131c007b04070009003700d80707000004e00031
:10132c0003003200404d280075040700030037000d
:10133c00604e28007204070000000000000000004e
:10134c0015003700000000001300370000000000fb
:10135c0011003700000000000f00370000000000f3
:10136c000d003700000000000b00370000000000eb
:10137c0009003700000000000700370000000000e3
:10138c0005003700000000000300370000000000db
:10139c0001003700000000004f0478000080fa00c4
:1013ac00000006000200fa00ae06070000407800bc
:1013bc0009e8b7000a68ef007b0107000000eb00aa
:1013cc00000f780005003700f0a120001e0040003f
:1013dc0001c3b300014878001e0fe8001e0078001e
:1013ec00e20f5000f8ff3400f0a0200081c5b300dc
:1013fc000148780000a12000f1c2b3000148780038
:10140c0010a1200091c5b3000148780020a1200054
:10141c0001c2b3000148780030a1200001c2b30022
:10142c000148780040a1200001c2b30001487800b7
:10143c0050a1200001c2b3000148780060a1200037
:10144c0001c2b3000148780070a1200001c2b300b2
:10145c000148780080a1200001c2b3000148780047
:10146c0090a1200091c4b30001487800a0a12000f5
:10147c0041c4b30001487800b0a12000a1c3b3005f
:10148c00014878000080fa00000006000000fa0015
:10149c0008c8bf000000fb00e20f500090003200b3
:1014ac00e20f500005003c000000e0000a00320092
:1014bc00e10f50004b003200c8003700e40f500021
:1014cc0099003200e40f50008c003500e50f5000fd
:1014dc00a5003200c100370007c8bf00e14f500023
:1014ec00200032000cc8bf008080fb00e22c2800da
:1014fc00e2c078000040e8000ce8b700014078003a
:10150c007b0107000cc8bf00f04f500001003a00ef
:10151c000c68ef00b18020009140780010c0b3003f
:10152c00f0cf500001003e000040eb008140e8008d
:10153c0081417800b2802000034978000004e0006b
:10154c009d00320010c0b30008e8b70009c8bf0006
:10155c005f06070011c0b3000040eb002701070035
:10156c009e0037000cc8bf008080fb00f22d2800c5
:10157c00e2c078000040e8000ce8b70001407800b9
:10158c005b0107000cc8bf00f04f500001003a008f
:10159c000c68ef00b18020009140780010c0b300bf
:1015ac00f0cf500001003e000040eb008140e8000d
:1015bc0081417800b2802000034978000004e000eb
:1015cc007f00320010c0b30008e8b70009c8bf00a4
:1015dc003f06070011c0b3000040eb0007010700f5
:1015ec007e00370007c8bf00e14f50001e003200dc
:1015fc00f0a12000104078008040e800f0a120000d
:10160c000148780000a22000104078008040e800db
:10161c0000a220000148780010a2200010407800a1
:10162c008040e80010a2200001487800f0a12000c2
:10163c009040780090c3b30080cf50001600340067
:10164c00f0a1200001c3b3000148780000a22000e3
:10165c0001c3b3000148780010a2200001c3b300fd
:10166c00014878000c003700c0a0200090407800a2
:10167c00f0a1200001487800d0a020009040780014
:10168c0000a2200001487800e0a0200090407800e3
:10169c0010a220000148780010a220001040780011
:1016ac0080407800c0a120000148780000a22000f2
:1016bc001040780080407800d0a1200001487800cc
:1016cc00f0a120001040780080407800e0a12000bc
:1016dc000148780020c0b30008e8b7003f0037008d
:1016ec00650707007040880070408000fcfc070014
:1016fc0030c0b30008e8b7003800370009c8bf0095
:10170c00fd05070021032000810f50002e0036003c
:10171c0009c8bf00ee0507000b68ef0040c0b3001e
:10172c0008e8b7002d0037000bc8bf008080fb0015
:10173c00f2a02000e2c078000040e8000be8b700ff
:10174c0001407800ea0007000bc8bf00f04f5000c2
:10175c001f00360050c0b30008e8b70009c8bf002e
:10176c00db0507001d00370009c8bf00e2050700b4
:10177c00910f2000810f5000170036000ac8bf00df
:10178c000040e8000ae8b7000ac8bf00f04f50005c
:10179c0001003a000a68ef000868ef008040eb0097
:1017ac000040eb00950007000ac8bf000ce8b7002a
:1017bc000b68ef000900370000000000070037003d
:1017cc000000000005003700000000000300370097
:1017dc000000000001003700000000000080fa004b
:1017ec00000006000200fa00004f78001e00fb000b
:1017fc00e30f50000f003200e30f50000f003c00cd
:10180c00e10f500003003200e20f500004003200e0
:10181c000b003700805228003903070008003700fe
:10182c00805428003603070004c8bf00a805070031
:10183c00030037000000000001003700000000002a
:10184c000080fa00000006000400fa00204798000f
:10185c003147980083050700204188002e409000f6
:10186c0020e8b7003e40900021e8b7002368ef0065
:10187c0023c8bf0022e8b700c8a2a9004016800008
:10188c004500de00614060000080fb004f00dd0081
:10189c0042168000f1ff27008100610001007000fa
:1018ac0040168800401680004f00de000040780093
:1018bc000080fb00610060004300dd0041168000e9
:1018cc000130a10001007000401688000000eb0000
:1018dc00000f7800290037002041800041062000cd
:1018ec00cf00070030c0b3002a020700204180005f
:1018fc0051002000ca00070030c0b30025020700c9
:10190c002041800011002000c500070030c0b3004a
:10191c00200207002041800011002000c0000700b9
:10192c0020c0b3001b0207002041800011002000e2
:10193c00bb00070080c2b3003b010700d8010700c1
:10194c0080c0b30038010700d501070010c0b300f8
:10195c00350107002041800031002000b000070055
:10196c00cf01070060c0b3002f010700cc010700b6
:10197c00f0c0b3002c0107001e0fe8001e00780019
:10198c00e10f5000d4ff34000080fa000000060084
:10199c000000fa0020418000004078006405070038
:1019ac000080fa00000006000000fa00bc010700ed
:1019bc0010c0b3001c010700204180003100200042
:1019cc00970007000080fa00000006000000fa00f3
:1019dc00b3010700e0c0b300130107000080fa0058
:1019ec00000006000000fa00ad010700c0c0b30003
:1019fc000d0107000080fa00000006000400fa0048
:101a0c00204798003147980020c8bf000080fb0099
:101a1c00e20f500003003200e40f50000b003200c4
:101a2c00220037002e4090008000fb003e409000ca
:101a3c000004e00002003a000000eb000100370057
:101a4c0000042000008f40001d0037002e40900045
:101a5c000000fb00000f78003e409000e14f50006a
:101a6c0003003a00010420001e8f400014003700d0
:101a7c003e409000e24f500004003a0021c8bf00e5
:101a8c000080fb001e0f40000d0037003e40900010
:101a9c00e34f500009003a0021c8bf000080fb0052
:101aac000004b0001e0f4000050037002e409000cf
:101abc000000fb00000f7800010037000000000060
:101acc00770107001e0078008040780000c8b30042
:101adc0000c07000d40007003e40900022e8b70020
:101aec002e40900023e8b7000080fa0000000600aa
:101afc000200fa00004f7800690107001e407800d0
:101b0c001801070023c8bf000040e80023e8b70015
:101b1c0020c8bf00e34f500010003a0023c8bf009c
:101b2c00f34f50002f0036002368ef0022c8bf008f
:101b3c000040e80022e8b70022c8bf00e34f500085
:101b4c00010036002268ef0022c8bf0080407800f8
:101b5c0023c8bf00a9ff07002200370020c8bf0020
:101b6c00e24f500012003a00318220009140780080
:101b7c0070c2b30080cf50001a0036002368ef000b
:101b8c0022c8bf000040e80022e8b70022c8bf000e
:101b9c00e14f5000010036002268ef0022c8bf0060
:101bac008040780023c8bf0094ff07000d00370069
:101bbc0022c8bf00e14f50000a003a0031822000d9
:101bcc009140780070c2b30080cf50000100360005
:101bdc002368ef0022c8bf008040780023c8bf00f4
:101bec0086ff07000080fa00000006000200fa00e1
:101bfc00000f7800040037001e00780010407800b9
:101c0c001e0fe800baff07001e0078001040780095
:101c1c000004e000f8ff3a000080fa000000060023
:101c2c000400fa00000f7800110798001e007800dd
:101c3c0000407800a6040700000000001e00780099
:101c4c0000407800ac0407009e009000810f50000b
:101c5c00faff39000080fa00000006000200fa00ca
:101c6c00004f78001e80fb004700de00004078002b
:101c7c000080fb00610060004900dd0061168000ff
:101c8c000190a10001007000601688009e00fb000e
:101c9c00000420000080600000f0a7000000ea00b3
:101cac000000ea004f00de00004078000080fb00de
:101cbc00610060004800dd00611680000180a10019
:101ccc0001007000601688009e00fb0000022000de
:101cdc000080600000f0a7000000ea000000ea00ad
:101cec004f00de00004078000080fb0061006000c7
:101cfc004700dd00611680000170a100010070003a
:101d0c00601688001e00fb007000600000f0a70049
:101d1c000000ea000000ea004f00de0000407800fe
:101d2c000080fb00610060004600dd006116800051
:101d3c000160a10001007000601688000080fa00ac
:101d4c00000006000200fa00004f78001e00fb00a5
:101d5c006800600000f0a7000000ea000000ea0044
:101d6c004f00de00004078000080fb006100600046
:101d7c004900dd00611680000190a1000100700097
:101d8c00601688001e00fb006400600000f0a700d5
:101d9c000000ea000000ea004f00de00004078007e
:101dac000080fb00610060004800dd0061168000cf
:101dbc000180a10001007000601688001e00fb006d
:101dcc006200600000f0a7000000ea000000ea00da
:101ddc004f00de00004078000080fb0061006000d6
:101dec004700dd00611680000170a1000100700049
:101dfc00601688001e407800614060006140600001
:101e0c00614060000080fb00610060004600dd0066
:101e1c00611680000160a10001007000601688004e
:101e2c000080fa00000006000200fa00004f780063
:101e3c00c922a900401680004900de006140600004
:101e4c000080fb00610060004800dd00411680004e
:101e5c000180a1000100700040168800401680002f
:101e6c004800de00614060000080fb006100600003
:101e7c004700dd00411680000170a10001007000d8
:101e8c0040168800401680004700de00614060006c
:101e9c000080fb00610060004600dd004116800000
:101eac000160a1000100700040168800cc62a900fe
:101ebc00cde2a900cca2a8001e40780067ff070065
:101ecc00cca2a800cca2a900cca2a900cca2a800ac
:101edc001e4078009bff0700cca2a800cca2a90052
:101eec00c922a800401680004900de006140600055
:101efc000080fb00610060004800dd00411680009e
:101f0c000180a1000100700040168800401680007e
:101f1c004800de00614060000080fb006100600052
:101f2c004700dd00411680000170a1000100700027
:101f3c0040168800401680004700de0061406000bb
:101f4c000080fb00610060004600dd00411680004f
:101f5c000160a10001007000401688000080fa00aa
:101f6c00000006000200fa00004f7800c922a90008
:101f7c00401680004900de00614060000080fb00dc
:101f8c00610060004800dd00411680000180a10066
:101f9c000100700040168800401680004800de00ea
:101fac00614060000080fb00610060004700dd00c4
:101fbc00411680000170a1000100700040168800dd
:101fcc00401680004700de00614060000080fb008e
:101fdc00610060004600dd00411680000160a10038
:101fec000100700040168800cc62a800cde2a90068
:101ffc00cca2a8001e40780018ff0700cca2a800b5
:10200c00cca2a900cca2a900cca2a8001e407800aa
:10201c004cff0700cca2a800cca2a900c922a800a2
:10202c00401680004900de00614060000080fb002b
:10203c00610060004800dd00411680000180a100b5
:10204c000100700040168800401680004800de0039
:10205c00614060000080fb00610060004700dd0013
:10206c00411680000170a10001007000401688002c
:10207c00401680004700de00614060000080fb00dd
:10208c00610060004600dd00411680000160a10087
:10209c0001007000401688000080fa000000060065
:1020ac000200fa00c922a800401680004900de0098
:1020bc00614060000080fb00610060004800dd00b2
:1020cc00411680000180a1000100700040168800bc
:1020dc00401680004800de00614060000080fb007c
:1020ec00610060004700dd00411680000170a10016
:1020fc000100700040168800401680004700de008a
:10210c00614060000080fb00610060004600dd0063
:10211c00411680000160a10001007000401688008b
:10212c00cc62a900cde2a8002041800000407800dc
:10213c0067030700cca2a800cca2a8005016800010
:10214c004900de0061406000004f7800cca2a9007d
:10215c00cca2a900cca2a800cca2a800cca2a90019
:10216c00cca2a90020418000004078006203070047
:10217c000000e00004003a001e4078000004e0007b
:10218c00ecff3a0001003700000000000080fa006c
:10219c00000006000200fa00004f7800c922a900d6
:1021ac00401680004900de00614060000080fb00aa
:1021bc00610060004800dd00411680000180a10034
:1021cc000100700040168800401680004800de00b8
:1021dc00614060000080fb00610060004700dd0092
:1021ec00411680000170a1000100700040168800ab
:1021fc00401680004700de00614060000080fb005c
:10220c00610060004600dd00411680000160a10005
:10221c000100700040168800cc62a900cde2a90034
:10222c00cca2a800cca2a8001e00fb006800600095
:10223c0000f0a7000000ea000000ea004f00de00fa
:10224c00004078000080fb00610060004900dd0068
:10225c00611680000190a1000100700060168800da
:10226c001e00fb006400600000f0a7000000ea0004
:10227c000000ea004f00de00004078000080fb0008
:10228c00610060004800dd00611680000180a10043
:10229c0001007000601688001e00fb0062006000e8
:1022ac0000f0a7000000ea000000ea004f00de008a
:1022bc00004078000080fb00610060004700dd00fa
:1022cc00611680000170a10001007000601688008a
:1022dc001e40780061406000614060006140600019
:1022ec000080fb00610060004600dd00611680008c
:1022fc000160a1000100700060168800cca2a9004a
:10230c000080fa00000006000000fa00113a80007c
:10231c00f00b20000081600060042000710520009b
:10232c002374200080497800814978008249780024
:10233c001136800000fe2f00008060003000b300da
:10234c00103688002135800000fe2f0000806000d0
:10235c000020a00020358800103a80000001780091
:10236c000260a0006004200071052000237420008e
:10237c0080497800814978008249780070062000f5
:10238c004011880021e2a80001118000f0cf2f003d
:10239c0000806000001188002062a90001118000fb
:1023ac0090ff2f0000806000001188002002a9001f
:1023bc002342a8001668ef009560a8001268ef0091
:1023cc0012c8bf0013e8b70013c8bf0010e8b7006d
:1023dc0010c8bf0011e8b70011c8bf0014e8b7005f
:1023ec0014c8bf0015e8b7000080fa000000060012
:1023fc000000fa0016c8bf000000fb00e10f5000ff
:10240c0010003200e10f500003003c000000e0001f
:10241c00060032002b003700e20f50000e00320095
:10242c00e30f5000150032002600370015c8bf001e
:10243c000004e0002000320010c0b30016e8b70022
:10244c002000370060000700c040880020c0b300a7
:10245c0016e8b7001b003700c04080001040780021
:10246c000004e0000300320030c0b30016e8b700ef
:10247c00140037001668ef001200370011118000ad
:10248c0000102000008060000000e0000c00320012
:10249c00c0408000904078008100fb002111880032
:1024ac000000e800c04088002342a80020c0b30010
:1024bc0016e8b700030037000000000001003700e9
:1024cc00000000000080fa00000006000200fa0084
:1024dc00000f7800040037001e00780010407800d0
:1024ec001e0fe800150007001e0078001040780051
:1024fc000004e000f8ff3a000080fa00000006003b
:10250c000200fa00000f78001e0078001900070086
:10251c000080fa00000006000000fa0014c8bf009a
:10252c000080fb000080fa00000006000000fa00aa
:10253c004e0007000080fa00000006000200fa00be
:10254c00004f7800010037000060fe001111800080
:10255c0000102000008060000000e000faff320054
:10256c001e00fb00201188002342a8000080fa0006
:10257c00000006000200fa00000f780010c8bf002f
:10258c008080fb00018140006187200081004100b8
:10259c009e0878000040e80010e8b7000181200098
:1025ac009140780000c8b30080cf500001003a0081
:1025bc001068ef0015c8bf000040e80015e8b70030
:1025cc000080fa00000006000200fa0012c8bf00ea
:1025dc008080fb0001814000618720008100410068
:1025ec00110f78000040e80012e8b70021812000ac
:1025fc009140780000c8b30080cf500001003a0031
:10260c001268ef0015c8bf000040e90015e8b700dc
:10261c001e0078000080fa00000006000200fa009c
:10262c00004f780011c8bf008080fb00628320003f
:10263c009e41780003f178000040e80011e8b700f3
:10264c00118120009140780000c4b30080cf50006d
:10265c0001003a001168ef0014c8bf000040e80008
:10266c0014e8b7000080fa00000006000200fa002f
:10267c0013c8bf008080fb006283200062cf78000b
:10268c000040e80013e8b700318120009140780049
:10269c0000c4b30080cf500001003a001368ef0073
:1026ac0014c8bf000040e90014e8b7001e407800d1
:1026bc000080fa00000006003600f800809fbe0083
:1026cc00829fbe00849fbe00869fbe000000fa0061
:1026dc008560a90010118000620060000000e0001d
:1026ec00010032002222a900301180000040780045
:1026fc00caff07000080fa004f03be004f02be0065
:10270c004f01be004f00be003600f900004006002d
:10271c000000fa00c062a800c042a8006bc0a8006c
:10272c006ba0a8002e68ef00ce01070000407800d7
:10273c002fe8b7000080fa00000006000000fa0045
:10274c002ec8bf000000fb00e30f50005300320006
:10275c00e30f500007003c00e10f50002000320056
:10276c00e10f50002c003c000000e0000a00320099
:10277c00b3003700e50f500063003200e50f500046
:10278c005a003500e60f50006d003200e70f500084
:10279c008c003200aa003700101680006800600020
:1027ac000000e00005003a002fc8bf00c801070078
:1027bc0010c0b3002ee8b700a1003700101680003f
:1027cc00640060000000e00092003a002fc8bf00d7
:1027dc00bf01070050c0b3002ee8b70098003700c7
:1027ec002fc8bf00c401070031062000810f500024
:1027fc008a00360010168000680060000000e000bf
:10280c0003003a0020c0b3002ee8b7008c0037005c
:10281c002e68ef008a0037006e0307000004e0000a
:10282c000d003a005802070030e8b70030c8bf006e
:10283c00ea4f500003003a0010c0b30056020700e4
:10284c000500370030c8bf000040e80030e8b70092
:10285c0030c8bf0050020700690307000004e00005
:10286c000b003a00c702070030e8b70030c8bf00c1
:10287c000004e00003003a0040c1b300c5020700a9
:10288c000300370030c8bf0065405000c10207008c
:10289c0030c0b3002ee8b700690037002fc8bf0066
:1028ac0095010700f17c2000810f500006003600d6
:1028bc00400207000004e000010032006f02070034
:1028cc002fc8bf008201070010168000680060004e
:1028dc000000e0005300320040c0b3002ee8b70007
:1028ec002fc8bf007a010700550037002fc8bf0062
:1028fc008101070031062000810f50004b0036008b
:10290c002e68ef004e0037002fc8bf007a01070079
:10291c0031062000810f5000460036001016800052
:10292c00640060000000e00003003a0060c0b300e7
:10293c002ee8b700420037002e68ef004000370049
:10294c00240307000004e0000d003a000e0207000b
:10295c0030e8b70030c8bf00e14f500003003a0028
:10296c00a0c0b3000c0207000500370030c8bf0040
:10297c000040e90030e8b70030c8bf00060207008d
:10298c001f0307000004e0000b003a007d02070063
:10299c0030e8b70030c8bf00f44f500003003a00d5
:1029ac000040eb007b0207000300370030c8bf007b
:1029bc00654040007702070070c0b3002ee8b700f6
:1029cc001f0037002fc8bf004b010700f17c20000f
:1029dc00810f500006003600f60107000004e000ed
:1029ec0001003a00250207002fc8bf00380107007c
:1029fc0010168000640060000000e0000f00320040
:102a0c0040c0b3002ee8b7002fc8bf00300107004c
:102a1c000b00370000000000090037000000000028
:102a2c000700370000000000050037000000000020
:102a3c000300370000000000010037000000000018
:102a4c000080fa00000006000000fa00101680005a
:102a5c006800600000f0a7000000ea000000ea0037
:102a6c004f00de00004078000080fa0000000600f5
:102a7c000000fa00101680006400600000f0a7004f
:102a8c000000ea000000ea004f00de000040780081
:102a9c000080fa00000006000200fa00c042a90003
:102aac00c062a900c082a900c442a900c462a900e6
:102abc00c482a9000000eb00000f78000e00370064
:102acc00e80007008040780020a220001e00400093
:102adc000148780050a220001e0040008040eb000e
:102aec0001487800e0a220001e0040008040eb006e
:102afc00014878001e0fe8001e007800e20f50001d
:102b0c00efff34000080fa00000006000200fa001b
:102b1c00000f780050a220001e00400010407800ea
:102b2c000080fb00e10f50001b003200e10f500051
:102b3c0003003c000000e000040032005e0037009f
:102b4c00e20f5000340032005b003700e0a220009e
:102b5c001e0040001040780000c0ea00ea4040002f
:102b6c0080a220001e0040000148780020a2200016
:102b7c001e00400010407800d50007001e007800b1
:102b8c004f00070050a220001e00400011c0b300ef
:102b9c0001487800480037001e0078004800070004
:102bac0020a220001e00400010407800d200070038
:102bbc008000780080a220001e00400010407800a9
:102bcc000080fb0000004000808f5000370039006f
:102bdc0020a220001e00400010407800bc0007001e
:102bec00e0a220001e004000104078008040e80069
:102bfc00b0a220001e004000014878001e007800a2
:102c0c004000070050a220001e00400021c0b3006d
:102c1c0001487800280037001e00780039000700b2
:102c2c0020a220001e00400010407800b2000700d7
:102c3c0080007800b0a220001e00400010407800f8
:102c4c000080fb0000004000808f5000190039000c
:102c5c00e0a220001e004000104078008040e800f8
:102c6c00e0a220001e00400001487800e0a22000f5
:102c7c001e00400010407800e94f50000400360060
:102c8c00e0a220001e0040008040eb0001487800cc
:102c9c001e0078000a00070050a220001e00400011
:102cac008040eb0001487800030037000000000072
:102cbc0001003700000000000080fa000000060050
:102ccc000200fa00000f78001e007800e10f50009f
:102cdc0006003200e20f5000060032000000e00057
:102cec0006003a00c442a90004003700c462a900df
:102cfc0002003700c482a900000000000080fa0026
:102d0c00000006000200fa00000f78001e00780098
:102d1c00e10f500006003200e20f500006003200b6
:102d2c000000e00006003a00c442a800040037008e
:102d3c00c462a80002003700c482a8000000000092
:102d4c000080fa00000006000000fa000080fa0083
:102d5c0000000600809fbe00821f78000000fa0071
:102d6c008460a900304180000000e80030418800f8
:102d7c0031418000f0522700808f50001d0036003a
:102d8c002828ef0017003700404180004200dd008a
:102d9c008080e800609720000080400010407800a0
:102dac00e14f50000c003a0040418000414180004e
:102dbc004209dd006197200081004100110178007b
:102dcc0031418000810051004201dd0060972000fc
:102ddc000000410001087800404180000000e8003c
:102dec004041880040418000f80f5000e6ff34005d
:102dfc002628ef000080fa004f0178004f00be003b
:102e0c00004006000200fa000040eb00004f780082
:102e1c00070037001e80fb00c200dd0080972000f9
:102e2c00008040008040eb00014878001e4fe80015
:102e3c001e407800f84f5000f6ff36002628ef00b1
:102e4c0004a1a9000481a800007d200010088800be
:102e5c0005e1a8008460a9009460a8000080fa0035
:102e6c00000006000200fa000040eb00004f780062
:102e7c00060037001e4fe8001e407800f94f500046
:102e8c0002003a000080eb000f0037001e80fb00b0
:102e9c004200dd008080e800609720000080400048
:102eac0010407800e14f5000f2ff32001e80fb0012
:102ebc00c200dd00809720000080400011c0b300ec
:102ecc00014878001e80fb000080fa00000006001c
:102edc000200fa00004f78001e80fb003141800098
:102eec004201dd00609720000000410001087800dd
:102efc000080fa00000006000400fa002047980049
:102f0c0030418000000f78009e0078002e40900029
:102f1c000080fb004201dd006097200000004100b2
:102f2c0010007800008050000080fa0000000600bd
:102f3c000200fa00004f78001e80fb00c200dd008a
:102f4c0080972000008040008040eb000148780012
:102f5c000080fa00000006000000fa000080fa0071
:102f6c00000006000000fa00c082a900c482a9007b
:102f7c00bcff0700004078001ae8b7001b68ef00a0
:102f8c001c68ef001e28ef000080fa00000006000d
:102f9c000000fa001bc8bf000080fb00e10f5000ce
:102fac0017003200e10f500003003c000000e0006d
:102fbc000600320067003700e20f50002c00320090
:102fcc00e30f500037003200620037001ac8bf0010
:102fdc00c9ff0700c1812000914078008180fb006f
:102fec00810f50004c0039001ac8bf00b8ff070011
:102ffc0010c0b3001be8b700c482a900550037000d
:10300c001ac8bf00bcff0700c181200091407800a6
:10301c008180fb00f4801000810f500040003900cb
:10302c001ac8bf00aaff07001b68ef00c482a800e3
:10303c00f04080000000e800f0408800f040800084
:10304c00e40f500038003a001cc8bf000040e800f4
:10305c001ce8b7001e28ef001cc8bf00f44f50003e
:10306c0033003a0020c0b3001be8b700390037002a
:10307c001ac8bf00a0ff0700c18120009140780052
:10308c008180fb00810f50002b0039001ac8bf0053
:10309c008fff070030c0b3001be8b700c482a90043
:1030ac002c0037001ac8bf0093ff0700c181200015
:1030bc00914078008180fb00f4801000810f50005b
:1030cc001f0039001ac8bf0081ff070020c0b300e1
:1030dc001be8b700c482a800f04080000000e800a4
:1030ec00f0408800f0408000e40f500016003a00d9
:1030fc001cc8bf000040e9001ce8b7001e28ef0008
:10310c001cc8bf000004e00011003a001b68ef006f
:10311c001c68ef000f003700000000000d003700a6
:10312c00000000000b003700000000000900370011
:10313c000000000007003700000000000500370009
:10314c000000000003003700000000000100370001
:10315c00000000000080fa00000006000000fa00e9
:10316c00c022a900c422a9003eff0700004078003d
:10317c002ae8b7002b68ef0010c0b3002ce8b700aa
:10318c000080fa00000006000000fa002cc8bf0006
:10319c000080fa00000006000200fa00004f7800e0
:1031ac001e417800c1822000824878000080fa001d
:1031bc00000006000000fa002bc8bf000014a2009b
:1031cc000080fb000000ea004f00de0000407800a9
:1031dc000080fa00000006000000fa002bc8bf00b7
:1031ec000000fb00e10f500011003200e20f500014
:1031fc001b0032000000e0001e003a002ac8bf008d
:10320c003dff0700c1822000914078008100fb0047
:10321c00810f5000140039002ac8bf002cff070092
:10322c00c422a80010c0b3002be8b700110037006f
:10323c002ac8bf0030ff0700c182200091407800ef
:10324c008100fb00810f5000090039002ac8bf0023
:10325c001fff0700c422a9002b68ef0005003700f0
:10326c0000000000030037000000000001003700e0
:10327c00000000000080fa00000006000000fa00c8
:10328c002bc8bf00e24f500002003a002b68ef0041
:10329c000300370020c0b3002be8b700c422a900fc
:1032ac002bc8bf000080fb000000e9004f00de00cf
:1032bc00004078000080fa00000006000000fa00d0
:1032cc00c9c2a900cdc2a9003268ef00e5fe070013
:1032dc000040780033e8b700a0c0b30034e8b70072
:1032ec000080fa00000006000000fa0032c8bf009f
:1032fc000080fb000000e00003003200e10f5000f2
:10330c000e0032001d00370033c8bf00fafe070064
:10331c0041832000914078008180fb00810f500098
:10332c001300390033c8bf00e9fe070010c0b3001a
:10333c0032e8b700cdc2a9001000370033c8bf0077
:10334c00edfe070041832000914078008180fb0056
:10335c00f4801000810f50000700390033c8bf0003
:10336c00dbfe07003268ef00cdc2a8000300370077
:10337c000000000001003700000000000080fa008f
:10338c00000006000000fa0034c8bf000080fa00fc
:10339c00000006000200fa00004f78001e40780082
:1033ac0034e8b7000080fa00000006000000fa00c4
:1033bc00c002a80021a3a8002103a90000198000c5
:1033cc004800de00614060000080fb00610060008e
:1033dc004900dd00011980000190a100010070007e
:1033ec000019880020e3a800001980004700de00c7
:1033fc00614060000080fb00610060004600dd0061
:10340c00011980000160a100010070000019880002
:10341c00001980004600de00614060000080fb0067
:10342c00610060004500dd00011980000150a10021
:10343c00010070000019880011198000f0ff2100b4
:10344c0000806000101988002343a9002223a800e3
:10345c0000102000201988002823ef001000200005
:10346c008019880021e3a8002023a8002043a8008d
:10347c000080fa00000006000000fa00001880002e
:10348c000080fa00000006000000fa004427ef005c
:10349c0040a7a9000080fa00000006000000fa0016
:1034ac00f9ff070057fe07007bfd070001c1b300c1
:1034bc0020c0b300e4f8070028ff07003c00070019
:1034cc00baff07007dff07008ffb070036f90700e6
:1034dc0044f907008040eb000040eb0047f907007f
:1034ec00a0562800c1f90700aef70700dff507006a
:1034fc000000eb0085fd07001000200083fd070095
:10350c002000200081fd0700e0f7070032ff0700d4
:0c351c00f0f50700b6fb0700f5ff3700d4
:020000040000fa
:103528007609000064000000000000002608000082
:1035380004000000000000001a0800000600000057
:103548000000000020080000060000000000000045
:103558002a08000004000000000000002e080000f7
:103568000400000000000000320800000400000011
:1035780000000000360800004001000000000000c4
:10358800100800000a00000000000000da0900002e
:1035980048000000000000000008000010000000c3
:1035a80000000000220a00001000000000000000d7
:0435b800000000000f
:020000040000fa
:1035bc000000fa00c9a2a800c982a8002d63a800c7
:1035cc002d83a80069a0a80069c0a8000080fa009b
:1035dc00000006000000fa005116800000002100d7
:1035ec000080600000f0a7000000ea000000ea0084
:1035fc004f00de00004078000080fa00000006005a
:10360c000000fa00511680000000220000806000cb
:10361c0000f0a7000000ea000000ea004f00de0006
:0c362c00004078000080fa00000006005a
:020000040000fa
:04aff8008b69000061
:020000040000fa
:04affc003b3f0000d7
:00000001FF
